{
  "_format": "hh-sol-artifact-1",
  "contractName": "PoolAddressesProviderMock",
  "sourceName": "contracts/test/PoolAddressesProviderMock.sol",
  "abi": [
    {
      "inputs": [],
      "name": "getPool",
      "outputs": [
        {
          "internalType": "address",
          "name": "",
          "type": "address"
        }
      ],
      "stateMutability": "view",
      "type": "function"
    },
    {
      "inputs": [
        {
          "internalType": "address",
          "name": "newPoolImpl",
          "type": "address"
        }
      ],
      "name": "setPoolImpl",
      "outputs": [],
      "stateMutability": "nonpayable",
      "type": "function"
    }
  ],
  "bytecode": "0x608060405234801561001057600080fd5b50610128806100206000396000f3fe6080604052348015600f57600080fd5b506004361060325760003560e01c8063026b1d5f146037578063a1564406146063575b600080fd5b6000546040805173ffffffffffffffffffffffffffffffffffffffff9092168252519081900360200190f35b60b5606e36600460b7565b600080547fffffffffffffffffffffffff00000000000000000000000000000000000000001673ffffffffffffffffffffffffffffffffffffffff92909216919091179055565b005b60006020828403121560c857600080fd5b813573ffffffffffffffffffffffffffffffffffffffff8116811460eb57600080fd5b939250505056fea264697066735822122071c2898413528896056b0c43dde971a175c173b09869cd1d36e97d23a32ee88064736f6c63430008090033",
  "linkReferences": {},
  "deployedLinkReferences": {}
}