{
  "_format": "hh-sol-artifact-1",
  "contractName": "PoolMock",
  "sourceName": "contracts/test/PoolMock.sol",
  "abi": [
    {
      "inputs": [
        {
          "internalType": "address",
          "name": "asset",
          "type": "address"
        },
        {
          "internalType": "uint256",
          "name": "amount",
          "type": "uint256"
        },
        {
          "internalType": "address",
          "name": "onBehalfOf",
          "type": "address"
        },
        {
          "internalType": "uint16",
          "name": "referralCode",
          "type": "uint16"
        }
      ],
      "name": "deposit",
      "outputs": [],
      "stateMutability": "nonpayable",
      "type": "function"
    },
    {
      "inputs": [
        {
          "internalType": "address",
          "name": "_asset",
          "type": "address"
        }
      ],
      "name": "getReserveData",
      "outputs": [
        {
          "components": [
            {
              "components": [
                {
                  "internalType": "uint256",
                  "name": "data",
                  "type": "uint256"
                }
              ],
              "internalType": "struct DataTypes.ReserveConfigurationMap",
              "name": "configuration",
              "type": "tuple"
            },
            {
              "internalType": "uint128",
              "name": "liquidityIndex",
              "type": "uint128"
            },
            {
              "internalType": "uint128",
              "name": "currentLiquidityRate",
              "type": "uint128"
            },
            {
              "internalType": "uint128",
              "name": "variableBorrowIndex",
              "type": "uint128"
            },
            {
              "internalType": "uint128",
              "name": "currentVariableBorrowRate",
              "type": "uint128"
            },
            {
              "internalType": "uint128",
              "name": "currentStableBorrowRate",
              "type": "uint128"
            },
            {
              "internalType": "uint40",
              "name": "lastUpdateTimestamp",
              "type": "uint40"
            },
            {
              "internalType": "uint16",
              "name": "id",
              "type": "uint16"
            },
            {
              "internalType": "address",
              "name": "aTokenAddress",
              "type": "address"
            },
            {
              "internalType": "address",
              "name": "stableDebtTokenAddress",
              "type": "address"
            },
            {
              "internalType": "address",
              "name": "variableDebtTokenAddress",
              "type": "address"
            },
            {
              "internalType": "address",
              "name": "interestRateStrategyAddress",
              "type": "address"
            },
            {
              "internalType": "uint128",
              "name": "accruedToTreasury",
              "type": "uint128"
            },
            {
              "internalType": "uint128",
              "name": "unbacked",
              "type": "uint128"
            },
            {
              "internalType": "uint128",
              "name": "isolationModeTotalDebt",
              "type": "uint128"
            }
          ],
          "internalType": "struct DataTypes.ReserveData",
          "name": "",
          "type": "tuple"
        }
      ],
      "stateMutability": "view",
      "type": "function"
    },
    {
      "inputs": [
        {
          "internalType": "address",
          "name": "_asset",
          "type": "address"
        }
      ],
      "name": "getReserveNormalizedIncome",
      "outputs": [
        {
          "internalType": "uint256",
          "name": "",
          "type": "uint256"
        }
      ],
      "stateMutability": "pure",
      "type": "function"
    },
    {
      "inputs": [],
      "name": "getReservesList",
      "outputs": [
        {
          "internalType": "address[]",
          "name": "",
          "type": "address[]"
        }
      ],
      "stateMutability": "view",
      "type": "function"
    },
    {
      "inputs": [
        {
          "internalType": "address",
          "name": "_aToken",
          "type": "address"
        },
        {
          "internalType": "address",
          "name": "_testToken_1",
          "type": "address"
        },
        {
          "internalType": "address",
          "name": "_testToken_2",
          "type": "address"
        },
        {
          "internalType": "address",
          "name": "_wethToken",
          "type": "address"
        },
        {
          "internalType": "address",
          "name": "_aWethToken",
          "type": "address"
        }
      ],
      "name": "setTestTokens",
      "outputs": [],
      "stateMutability": "nonpayable",
      "type": "function"
    },
    {
      "inputs": [
        {
          "internalType": "address",
          "name": "asset",
          "type": "address"
        },
        {
          "internalType": "uint256",
          "name": "amount",
          "type": "uint256"
        },
        {
          "internalType": "address",
          "name": "to",
          "type": "address"
        }
      ],
      "name": "withdraw",
      "outputs": [
        {
          "internalType": "uint256",
          "name": "",
          "type": "uint256"
        }
      ],
      "stateMutability": "nonpayable",
      "type": "function"
    }
  ],
  "bytecode": "0x608060405234801561001057600080fd5b50611583806100206000396000f3fe608060405234801561001057600080fd5b50600436106100725760003560e01c8063d15e005311610050578063d15e005314610e8a578063d1946dbc14610e9d578063e8eda9df14610eb257600080fd5b806335ea6a75146100775780634243573d1461023657806369328dec14610e69575b600080fd5b61022061008536600461126e565b604080516102008101825260006101e08201818152825260208201819052918101829052606081018290526080810182905260a0810182905260c0810182905260e08101829052610100810182905261012081018290526101408101829052610160810182905261018081018290526101a081018290526101c0810191909152506001600160a01b039081166000908152602081815260409182902082516102008101845281546101e08201908152815260018201546001600160801b0380821694830194909452700100000000000000000000000000000000908190048416948201949094526002820154808416606083015284900483166080820152600382015480841660a083015284810464ffffffffff1660c08301527501000000000000000000000000000000000000000000900461ffff1660e0820152600482015485166101008201526005820154851661012082015260068201548516610140820152600782015490941661016085015260088101548083166101808601529290920481166101a0840152600990910154166101c082015290565b60405161022d9190611290565b60405180910390f35b610e676102443660046113ca565b84600160006101000a8154816001600160a01b0302191690836001600160a01b0316021790555083600260006101000a8154816001600160a01b0302191690836001600160a01b031602179055506003849080600181540180825580915050600190039060005260206000200160009091909190916101000a8154816001600160a01b0302191690836001600160a01b031602179055506003839080600181540180825580915050600190039060005260206000200160009091909190916101000a8154816001600160a01b0302191690836001600160a01b031602179055506003829080600181540180825580915050600190039060005260206000200160009091909190916101000a8154816001600160a01b0302191690836001600160a01b031602179055508460046000866001600160a01b03166001600160a01b0316815260200190815260200160002060006101000a8154816001600160a01b0302191690836001600160a01b031602179055508460046000856001600160a01b03166001600160a01b0316815260200190815260200160002060006101000a8154816001600160a01b0302191690836001600160a01b031602179055508060046000846001600160a01b03166001600160a01b0316815260200190815260200160002060006101000a8154816001600160a01b0302191690836001600160a01b031602179055506104d2600080600260009054906101000a90046001600160a01b03166001600160a01b03166001600160a01b0316815260200190815260200160002060010160006101000a8154816001600160801b0302191690836001600160801b031602179055506105c6600080600260009054906101000a90046001600160a01b03166001600160a01b03166001600160a01b0316815260200190815260200160002060010160106101000a8154816001600160801b0302191690836001600160801b0316021790555061237f600080600260009054906101000a90046001600160a01b03166001600160a01b03166001600160a01b0316815260200190815260200160002060020160006101000a8154816001600160801b0302191690836001600160801b0316021790555061237f600080600260009054906101000a90046001600160a01b03166001600160a01b03166001600160a01b0316815260200190815260200160002060020160106101000a8154816001600160801b0302191690836001600160801b0316021790555061237f600080600260009054906101000a90046001600160a01b03166001600160a01b03166001600160a01b0316815260200190815260200160002060030160006101000a8154816001600160801b0302191690836001600160801b0316021790555061237f600080600260009054906101000a90046001600160a01b03166001600160a01b03166001600160a01b0316815260200190815260200160002060030160106101000a81548164ffffffffff021916908364ffffffffff16021790555061237f600080600260009054906101000a90046001600160a01b03166001600160a01b03166001600160a01b0316815260200190815260200160002060030160156101000a81548161ffff021916908361ffff160217905550600160009054906101000a90046001600160a01b0316600080600260009054906101000a90046001600160a01b03166001600160a01b03166001600160a01b0316815260200190815260200160002060040160006101000a8154816001600160a01b0302191690836001600160a01b03160217905550600160009054906101000a90046001600160a01b0316600080600260009054906101000a90046001600160a01b03166001600160a01b03166001600160a01b0316815260200190815260200160002060050160006101000a8154816001600160a01b0302191690836001600160a01b03160217905550600160009054906101000a90046001600160a01b0316600080600260009054906101000a90046001600160a01b03166001600160a01b03166001600160a01b0316815260200190815260200160002060060160006101000a8154816001600160a01b0302191690836001600160a01b03160217905550600160009054906101000a90046001600160a01b0316600080600260009054906101000a90046001600160a01b03166001600160a01b03166001600160a01b0316815260200190815260200160002060070160006101000a8154816001600160a01b0302191690836001600160a01b0316021790555061237f600080600260009054906101000a90046001600160a01b03166001600160a01b03166001600160a01b0316815260200190815260200160002060080160006101000a8154816001600160801b0302191690836001600160801b0316021790555061237f600080600260009054906101000a90046001600160a01b03166001600160a01b03166001600160a01b0316815260200190815260200160002060080160106101000a8154816001600160801b0302191690836001600160801b0316021790555061237f600080600260009054906101000a90046001600160a01b03166001600160a01b03166001600160a01b0316815260200190815260200160002060090160006101000a8154816001600160801b0302191690836001600160801b031602179055506104d2600080846001600160a01b03166001600160a01b0316815260200190815260200160002060010160006101000a8154816001600160801b0302191690836001600160801b031602179055506105c6600080846001600160a01b03166001600160a01b0316815260200190815260200160002060010160106101000a8154816001600160801b0302191690836001600160801b0316021790555061237f600080846001600160a01b03166001600160a01b0316815260200190815260200160002060020160006101000a8154816001600160801b0302191690836001600160801b0316021790555061237f600080846001600160a01b03166001600160a01b0316815260200190815260200160002060020160106101000a8154816001600160801b0302191690836001600160801b0316021790555061237f600080846001600160a01b03166001600160a01b0316815260200190815260200160002060030160006101000a8154816001600160801b0302191690836001600160801b0316021790555061237f600080846001600160a01b03166001600160a01b0316815260200190815260200160002060030160106101000a81548164ffffffffff021916908364ffffffffff16021790555061237f600080846001600160a01b03166001600160a01b0316815260200190815260200160002060030160156101000a81548161ffff021916908361ffff16021790555080600080846001600160a01b03166001600160a01b0316815260200190815260200160002060040160006101000a8154816001600160a01b0302191690836001600160a01b03160217905550600160009054906101000a90046001600160a01b0316600080846001600160a01b03166001600160a01b0316815260200190815260200160002060050160006101000a8154816001600160a01b0302191690836001600160a01b03160217905550600160009054906101000a90046001600160a01b0316600080846001600160a01b03166001600160a01b0316815260200190815260200160002060060160006101000a8154816001600160a01b0302191690836001600160a01b03160217905550600160009054906101000a90046001600160a01b0316600080846001600160a01b03166001600160a01b0316815260200190815260200160002060070160006101000a8154816001600160a01b0302191690836001600160a01b0316021790555061237f600080846001600160a01b03166001600160a01b0316815260200190815260200160002060080160006101000a8154816001600160801b0302191690836001600160801b0316021790555061237f600080846001600160a01b03166001600160a01b0316815260200190815260200160002060080160106101000a8154816001600160801b0302191690836001600160801b0316021790555061237f600080846001600160a01b03166001600160a01b0316815260200190815260200160002060090160006101000a8154816001600160801b0302191690836001600160801b031602179055505050505050565b005b610e7c610e7736600461142f565b610ec5565b60405190815260200161022d565b610e7c610e9836600461126e565b611035565b610ea5611099565b60405161022d919061146b565b610e67610ec03660046114b8565b6110fb565b60006001600160a01b038416610f225760405162461bcd60e51b815260206004820152601c60248201527f61737365742063616e6e6f74206265206275726e20616464726573730000000060448201526064015b60405180910390fd5b6040517f40c10f190000000000000000000000000000000000000000000000000000000081526001600160a01b038381166004830152602482018590528516906340c10f1990604401600060405180830381600087803b158015610f8557600080fd5b505af1158015610f99573d6000803e3d6000fd5b505050506001600160a01b038481166000908152600460208190526040918290205491517f9dc29fac000000000000000000000000000000000000000000000000000000008152339181019190915260248101869052911690639dc29fac90604401600060405180830381600087803b15801561101557600080fd5b505af1158015611029573d6000803e3d6000fd5b50949695505050505050565b60006001600160a01b03821661108d5760405162461bcd60e51b815260206004820152601c60248201527f61737365742063616e6e6f74206265206275726e2061646472657373000000006044820152606401610f19565b506401ce4281a2919050565b606060038054806020026020016040519081016040528092919081815260200182805480156110f157602002820191906000526020600020905b81546001600160a01b031681526001909101906020018083116110d3575b5050505050905090565b6001600160a01b0384166111515760405162461bcd60e51b815260206004820152601c60248201527f61737365742063616e6e6f74206265206275726e2061646472657373000000006044820152606401610f19565b61ffff8116156111a35760405162461bcd60e51b815260206004820152601c60248201527f7465737420726566657272616c20636f6465206d7573742062652030000000006044820152606401610f19565b6001600160a01b03808516600090815260046020526040902054166340c10f19836111d6670de0b6b3a76400008761150e565b6040517fffffffff0000000000000000000000000000000000000000000000000000000060e085901b1681526001600160a01b0390921660048301526024820152604401600060405180830381600087803b15801561123457600080fd5b505af1158015611248573d6000803e3d6000fd5b5050505050505050565b80356001600160a01b038116811461126957600080fd5b919050565b60006020828403121561128057600080fd5b61128982611252565b9392505050565b81515181526101e0810160208301516112b460208401826001600160801b03169052565b5060408301516112cf60408401826001600160801b03169052565b5060608301516112ea60608401826001600160801b03169052565b50608083015161130560808401826001600160801b03169052565b5060a083015161132060a08401826001600160801b03169052565b5060c083015161133960c084018264ffffffffff169052565b5060e083015161134f60e084018261ffff169052565b50610100838101516001600160a01b039081169184019190915261012080850151821690840152610140808501518216908401526101608085015190911690830152610180808401516001600160801b03908116918401919091526101a0808501518216908401526101c09384015116929091019190915290565b600080600080600060a086880312156113e257600080fd5b6113eb86611252565b94506113f960208701611252565b935061140760408701611252565b925061141560608701611252565b915061142360808701611252565b90509295509295909350565b60008060006060848603121561144457600080fd5b61144d84611252565b92506020840135915061146260408501611252565b90509250925092565b6020808252825182820181905260009190848201906040850190845b818110156114ac5783516001600160a01b031683529284019291840191600101611487565b50909695505050505050565b600080600080608085870312156114ce57600080fd5b6114d785611252565b9350602085013592506114ec60408601611252565b9150606085013561ffff8116811461150357600080fd5b939692955090935050565b60008219821115611548577f4e487b7100000000000000000000000000000000000000000000000000000000600052601160045260246000fd5b50019056fea264697066735822122099079ec68accda2aa0b95bc3a7356b8b1e75df9e4c2bd9d18dc5c4086d0f995f64736f6c63430008090033",
  "linkReferences": {},
  "deployedLinkReferences": {}
}