{
  "_format": "hh-sol-artifact-1",
  "contractName": "PoolTracker",
  "sourceName": "contracts/deploy/PoolTracker.sol",
  "abi": [
    {
      "inputs": [
        {
          "internalType": "address",
          "name": "_poolAddressesProviderAddr",
          "type": "address"
        },
        {
          "internalType": "address",
          "name": "_wethGatewayAddr",
          "type": "address"
        },
        {
          "internalType": "address",
          "name": "_multiSig",
          "type": "address"
        }
      ],
      "stateMutability": "nonpayable",
      "type": "constructor"
    },
    {
      "anonymous": false,
      "inputs": [
        {
          "indexed": false,
          "internalType": "address",
          "name": "userAddr",
          "type": "address"
        },
        {
          "indexed": false,
          "internalType": "address",
          "name": "pool",
          "type": "address"
        },
        {
          "indexed": false,
          "internalType": "address",
          "name": "asset",
          "type": "address"
        },
        {
          "indexed": false,
          "internalType": "uint256",
          "name": "amount",
          "type": "uint256"
        }
      ],
      "name": "AddDeposit",
      "type": "event"
    },
    {
      "anonymous": false,
      "inputs": [
        {
          "indexed": false,
          "internalType": "address",
          "name": "pool",
          "type": "address"
        },
        {
          "indexed": false,
          "internalType": "string",
          "name": "name",
          "type": "string"
        },
        {
          "indexed": false,
          "internalType": "address",
          "name": "receiver",
          "type": "address"
        }
      ],
      "name": "AddPool",
      "type": "event"
    },
    {
      "anonymous": false,
      "inputs": [
        {
          "indexed": false,
          "internalType": "address",
          "name": "userAddr",
          "type": "address"
        },
        {
          "indexed": false,
          "internalType": "address",
          "name": "receiver",
          "type": "address"
        },
        {
          "indexed": false,
          "internalType": "address",
          "name": "pool",
          "type": "address"
        },
        {
          "indexed": false,
          "internalType": "address",
          "name": "asset",
          "type": "address"
        },
        {
          "indexed": false,
          "internalType": "uint256",
          "name": "amount",
          "type": "uint256"
        }
      ],
      "name": "Claim",
      "type": "event"
    },
    {
      "anonymous": false,
      "inputs": [
        {
          "indexed": false,
          "internalType": "address",
          "name": "userAddr",
          "type": "address"
        },
        {
          "indexed": false,
          "internalType": "address",
          "name": "pool",
          "type": "address"
        },
        {
          "indexed": false,
          "internalType": "address",
          "name": "asset",
          "type": "address"
        },
        {
          "indexed": false,
          "internalType": "uint256",
          "name": "amount",
          "type": "uint256"
        }
      ],
      "name": "WithdrawDeposit",
      "type": "event"
    },
    {
      "inputs": [
        {
          "internalType": "uint256",
          "name": "_amount",
          "type": "uint256"
        },
        {
          "internalType": "address",
          "name": "_asset",
          "type": "address"
        },
        {
          "internalType": "address",
          "name": "_pool",
          "type": "address"
        },
        {
          "internalType": "bool",
          "name": "_isETH",
          "type": "bool"
        }
      ],
      "name": "addDeposit",
      "outputs": [],
      "stateMutability": "payable",
      "type": "function"
    },
    {
      "inputs": [
        {
          "internalType": "address",
          "name": "_pool",
          "type": "address"
        }
      ],
      "name": "checkPool",
      "outputs": [
        {
          "internalType": "bool",
          "name": "",
          "type": "bool"
        }
      ],
      "stateMutability": "view",
      "type": "function"
    },
    {
      "inputs": [
        {
          "internalType": "address",
          "name": "_asset",
          "type": "address"
        },
        {
          "internalType": "address",
          "name": "_pool",
          "type": "address"
        },
        {
          "internalType": "bool",
          "name": "_isETH",
          "type": "bool"
        }
      ],
      "name": "claimInterest",
      "outputs": [],
      "stateMutability": "nonpayable",
      "type": "function"
    },
    {
      "inputs": [
        {
          "internalType": "address[]",
          "name": "_acceptedTokens",
          "type": "address[]"
        },
        {
          "internalType": "string",
          "name": "_name",
          "type": "string"
        },
        {
          "internalType": "string",
          "name": "_about",
          "type": "string"
        },
        {
          "internalType": "string",
          "name": "_picHash",
          "type": "string"
        },
        {
          "internalType": "string",
          "name": "_metaUri",
          "type": "string"
        },
        {
          "internalType": "address",
          "name": "_receiver",
          "type": "address"
        }
      ],
      "name": "createJCPoolClone",
      "outputs": [],
      "stateMutability": "nonpayable",
      "type": "function"
    },
    {
      "inputs": [
        {
          "internalType": "string",
          "name": "_name",
          "type": "string"
        }
      ],
      "name": "getAddressFromName",
      "outputs": [
        {
          "internalType": "address",
          "name": "",
          "type": "address"
        }
      ],
      "stateMutability": "view",
      "type": "function"
    },
    {
      "inputs": [],
      "name": "getBaseJCPoolAddress",
      "outputs": [
        {
          "internalType": "address",
          "name": "",
          "type": "address"
        }
      ],
      "stateMutability": "view",
      "type": "function"
    },
    {
      "inputs": [],
      "name": "getBpFee",
      "outputs": [
        {
          "internalType": "uint256",
          "name": "",
          "type": "uint256"
        }
      ],
      "stateMutability": "view",
      "type": "function"
    },
    {
      "inputs": [
        {
          "internalType": "address",
          "name": "_user",
          "type": "address"
        }
      ],
      "name": "getContributions",
      "outputs": [
        {
          "internalType": "address[]",
          "name": "",
          "type": "address[]"
        }
      ],
      "stateMutability": "view",
      "type": "function"
    },
    {
      "inputs": [],
      "name": "getDepositorERC721Address",
      "outputs": [
        {
          "internalType": "address",
          "name": "",
          "type": "address"
        }
      ],
      "stateMutability": "view",
      "type": "function"
    },
    {
      "inputs": [],
      "name": "getMultiSig",
      "outputs": [
        {
          "internalType": "address",
          "name": "",
          "type": "address"
        }
      ],
      "stateMutability": "view",
      "type": "function"
    },
    {
      "inputs": [],
      "name": "getPoolAddr",
      "outputs": [
        {
          "internalType": "address",
          "name": "",
          "type": "address"
        }
      ],
      "stateMutability": "view",
      "type": "function"
    },
    {
      "inputs": [
        {
          "internalType": "address",
          "name": "_user",
          "type": "address"
        }
      ],
      "name": "getReceiverPools",
      "outputs": [
        {
          "internalType": "address[]",
          "name": "",
          "type": "address[]"
        }
      ],
      "stateMutability": "view",
      "type": "function"
    },
    {
      "inputs": [],
      "name": "getReservesList",
      "outputs": [
        {
          "internalType": "address[]",
          "name": "",
          "type": "address[]"
        }
      ],
      "stateMutability": "view",
      "type": "function"
    },
    {
      "inputs": [
        {
          "internalType": "address",
          "name": "_asset",
          "type": "address"
        }
      ],
      "name": "getTVL",
      "outputs": [
        {
          "internalType": "uint256",
          "name": "",
          "type": "uint256"
        }
      ],
      "stateMutability": "view",
      "type": "function"
    },
    {
      "inputs": [
        {
          "internalType": "address",
          "name": "_asset",
          "type": "address"
        }
      ],
      "name": "getTotalDonated",
      "outputs": [
        {
          "internalType": "uint256",
          "name": "",
          "type": "uint256"
        }
      ],
      "stateMutability": "view",
      "type": "function"
    },
    {
      "inputs": [],
      "name": "getVerifiedPools",
      "outputs": [
        {
          "internalType": "address[]",
          "name": "",
          "type": "address[]"
        }
      ],
      "stateMutability": "view",
      "type": "function"
    },
    {
      "inputs": [
        {
          "internalType": "uint256",
          "name": "feeKey",
          "type": "uint256"
        }
      ],
      "name": "setBpFee",
      "outputs": [],
      "stateMutability": "nonpayable",
      "type": "function"
    },
    {
      "inputs": [
        {
          "internalType": "uint256",
          "name": "_amount",
          "type": "uint256"
        },
        {
          "internalType": "address",
          "name": "_asset",
          "type": "address"
        },
        {
          "internalType": "address",
          "name": "_pool",
          "type": "address"
        },
        {
          "internalType": "bool",
          "name": "_isETH",
          "type": "bool"
        }
      ],
      "name": "withdrawDeposit",
      "outputs": [],
      "stateMutability": "nonpayable",
      "type": "function"
    }
  ],
  "bytecode": "0x6101206040523480156200001257600080fd5b50604051620076cc380380620076cc8339810160408190526200003591620001a9565b60016000556001600160a01b03811660c052604051620000559062000111565b604051809103906000f08015801562000072573d6000803e3d6000fd5b506001600160a01b03166080526040516200008d906200011f565b604051809103906000f080158015620000aa573d6000803e3d6000fd5b506001600160a01b0390811660a090815284821660e0529083166101005260408051918201815260008252600a6020830152601490820152601e606082015260286080820152620001009060089060056200012d565b5050600a54600d5550620001f39050565b61293d8062002a5b83390190565b612334806200539883390190565b826005810192821562000163579160200282015b8281111562000163578251829060ff1690559160200191906001019062000141565b506200017192915062000175565b5090565b5b8082111562000171576000815560010162000176565b80516001600160a01b0381168114620001a457600080fd5b919050565b600080600060608486031215620001bf57600080fd5b620001ca846200018c565b9250620001da602085016200018c565b9150620001ea604085016200018c565b90509250925092565b60805160a05160c05160e051610100516127cf6200028c600039600081816105a601528181610722015261174b01526000818161050301528181610efc01528181611383015281816117290152818161197e0152611a8f0152600081816102bc015281816110ec0152818161129b015261165f015260008181610215015261162c01526000818161028901526115ff01526127cf6000f3fe6080604052600436106101295760003560e01c80638e61514e116100a5578063b63ae6ee11610074578063d1df6d4d11610059578063d1df6d4d1461038a578063de259242146103c0578063fa12793b146103d557600080fd5b8063b63ae6ee14610360578063d1946dbc1461037557600080fd5b80638e61514e146102e057806390f2bb1614610300578063a5530a4514610320578063b47dcb661461034057600080fd5b806330b9d2a7116100fc5780633f19d043116100e15780633f19d0431461024d5780635aa388681461027a57806366e992e5146102ad57600080fd5b806330b9d2a7146101bd5780633989a6711461020657600080fd5b806301beb9801461012e57806308f52b3c146101525780630f40517a146101675780632f28012a1461019d575b600080fd5b34801561013a57600080fd5b50600d545b6040519081526020015b60405180910390f35b610165610160366004612094565b6103f5565b005b34801561017357600080fd5b5061013f6101823660046120e7565b6001600160a01b031660009081526003602052604090205490565b3480156101a957600080fd5b506101656101b8366004612094565b610b90565b3480156101c957600080fd5b506101f66101d83660046120e7565b6001600160a01b031660009081526001602052604090205460ff1690565b6040519015158152602001610149565b34801561021257600080fd5b507f00000000000000000000000000000000000000000000000000000000000000005b6040516001600160a01b039091168152602001610149565b34801561025957600080fd5b5061026d6102683660046120e7565b610df3565b604051610149919061214f565b34801561028657600080fd5b507f0000000000000000000000000000000000000000000000000000000000000000610235565b3480156102b957600080fd5b507f0000000000000000000000000000000000000000000000000000000000000000610235565b3480156102ec57600080fd5b506102356102fb366004612227565b610e69565b34801561030c57600080fd5b5061016561031b36600461225c565b610e9a565b34801561032c57600080fd5b5061016561033b3660046122a7565b611299565b34801561034c57600080fd5b5061016561035b366004612353565b61132c565b34801561036c57600080fd5b5061026d611916565b34801561038157600080fd5b5061026d611978565b34801561039657600080fd5b5061013f6103a53660046120e7565b6001600160a01b031660009081526004602052604090205490565b3480156103cc57600080fd5b50610235611a8a565b3480156103e157600080fd5b5061026d6103f03660046120e7565b611b24565b6001600160a01b038216600090815260016020526040902054829060ff1661044f5760405162461bcd60e51b81526020600482015260086024820152671b9bdd081c1bdbdb60c21b60448201526064015b60405180910390fd5b610457611b98565b6001600160a01b0384166000908152600360205260408120805487929061047f90849061244a565b925050819055506000836001600160a01b031663373d7c3f6040518163ffffffff1660e01b815260040160006040518083038186803b1580156104c157600080fd5b505afa1580156104d5573d6000803e3d6000fd5b505050506040513d6000823e601f3d908101601f191682016040526104fd919081019061248e565b905060007f00000000000000000000000000000000000000000000000000000000000000006001600160a01b031663026b1d5f6040518163ffffffff1660e01b815260040160206040518083038186803b15801561055a57600080fd5b505afa15801561056e573d6000803e3d6000fd5b505050506040513d601f19601f820116820180604052508101906105929190612505565b9050831561078557856001600160a01b03167f00000000000000000000000000000000000000000000000000000000000000006001600160a01b031663affa88176040518163ffffffff1660e01b815260040160206040518083038186803b1580156105fd57600080fd5b505afa158015610611573d6000803e3d6000fd5b505050506040513d601f19601f820116820180604052508101906106359190612505565b6001600160a01b03161461068b5760405162461bcd60e51b815260206004820181905260248201527f617373657420646f6573206e6f74206d617463682057455448476174657761796044820152606401610446565b600034116106db5760405162461bcd60e51b815260206004820152601860248201527f6d73672e76616c75652063616e6e6f74206265207a65726f00000000000000006044820152606401610446565b6040517f474cf53d0000000000000000000000000000000000000000000000000000000081526001600160a01b0382811660048301528681166024830152600060448301527f0000000000000000000000000000000000000000000000000000000000000000169063474cf53d9034906064016000604051808303818588803b15801561076757600080fd5b505af115801561077b573d6000803e3d6000fd5b505050505061096c565b34156107d35760405162461bcd60e51b815260206004820152601560248201527f6d73672e76616c7565206973206e6f74207a65726f00000000000000000000006044820152606401610446565b604051636eb1769f60e11b8152336004820152306024820152869088906001600160a01b0383169063dd62ed3e9060440160206040518083038186803b15801561081c57600080fd5b505afa158015610830573d6000803e3d6000fd5b505050506040513d601f19601f820116820180604052508101906108549190612522565b10156108a25760405162461bcd60e51b815260206004820152601360248201527f73656e646572206e6f7420617070726f766564000000000000000000000000006044820152606401610446565b6108b76001600160a01b03821633308b611bf2565b6108cc6001600160a01b038216836000611ca3565b6108e06001600160a01b038216838a611ca3565b6040517fe8eda9df0000000000000000000000000000000000000000000000000000000081526001600160a01b038281166004830152602482018a905287811660448301526000606483015283169063e8eda9df90608401600060405180830381600087803b15801561095257600080fd5b505af1158015610966573d6000803e3d6000fd5b50505050505b6040517f47e7ef240000000000000000000000000000000000000000000000000000000081526001600160a01b038781166004830152602482018990528616906347e7ef2490604401600060405180830381600087803b1580156109cf57600080fd5b505af11580156109e3573d6000803e3d6000fd5b505050506000856001600160a01b0316627ffb786040518163ffffffff1660e01b815260040160206040518083038186803b158015610a2157600080fd5b505afa158015610a35573d6000803e3d6000fd5b505050506040513d601f19601f82011682018060405250810190610a599190612505565b6001600160a01b03166326a45ffb338a428b886040518663ffffffff1660e01b8152600401610a8c959493929190612567565b602060405180830381600087803b158015610aa657600080fd5b505af1158015610aba573d6000803e3d6000fd5b505050506040513d601f19601f82011682018060405250810190610ade91906125aa565b90508015610b2c5733600090815260056020908152604082208054600181018255908352912001805473ffffffffffffffffffffffffffffffffffffffff19166001600160a01b0388161790555b604080513381526001600160a01b038881166020830152891681830152606081018a905290517f20ca885e6c573d69bc931b3787127868f5b90568509fb8d4ff6f7102b8d0cd259181900360800190a1505050610b896001600055565b5050505050565b6001600160a01b038216600090815260016020526040902054829060ff16610be55760405162461bcd60e51b81526020600482015260086024820152671b9bdd081c1bdbdb60c21b6044820152606401610446565b610bed611b98565b6001600160a01b03841660009081526003602052604081208054879290610c159084906125c7565b92505081905550826001600160a01b0316627ffb786040518163ffffffff1660e01b815260040160206040518083038186803b158015610c5457600080fd5b505afa158015610c68573d6000803e3d6000fd5b505050506040513d601f19601f82011682018060405250810190610c8c9190612505565b6040517f47c6b45e000000000000000000000000000000000000000000000000000000008152336004820152602481018790526001600160a01b03868116604483015291909116906347c6b45e90606401600060405180830381600087803b158015610cf757600080fd5b505af1158015610d0b573d6000803e3d6000fd5b50506040517f12eeff7e0000000000000000000000000000000000000000000000000000000081526001600160a01b038781166004830152602482018990523360448301528515156064830152861692506312eeff7e9150608401600060405180830381600087803b158015610d8057600080fd5b505af1158015610d94573d6000803e3d6000fd5b5050604080513381526001600160a01b0387811660208301528816818301526060810189905290517fa657ed79c074c3489591adb7ba850f38c009bd846e47f2ffe3edc1d06f48a5a49350908190036080019150a1610b896001600055565b6001600160a01b038116600090815260056020908152604091829020805483518184028101840190945280845260609392830182828015610e5d57602002820191906000526020600020905b81546001600160a01b03168152600190910190602001808311610e3f575b50505050509050919050565b6000600282604051610e7b91906125de565b908152604051908190036020019020546001600160a01b031692915050565b6001600160a01b038216600090815260016020526040902054829060ff16610eef5760405162461bcd60e51b81526020600482015260086024820152671b9bdd081c1bdbdb60c21b6044820152606401610446565b610ef7611b98565b8360007f00000000000000000000000000000000000000000000000000000000000000006001600160a01b031663026b1d5f6040518163ffffffff1660e01b815260040160206040518083038186803b158015610f5357600080fd5b505afa158015610f67573d6000803e3d6000fd5b505050506040513d601f19601f82011682018060405250810190610f8b9190612505565b90506000816001600160a01b031663d1946dbc6040518163ffffffff1660e01b815260040160006040518083038186803b158015610fc857600080fd5b505afa158015610fdc573d6000803e3d6000fd5b505050506040513d6000823e601f3d908101601f1916820160405261100491908101906125fa565b90506000805b82518160ff16101561106357828160ff168151811061102b5761102b612689565b60200260200101516001600160a01b0316856001600160a01b0316141561105157600191505b8061105b8161269f565b91505061100a565b50806110b15760405162461bcd60e51b815260206004820152601260248201527f746f6b656e206e6f7420617070726f76656400000000000000000000000000006044820152606401610446565b600d546040517feda9c2d20000000000000000000000000000000000000000000000000000000081526001600160a01b038a811660048301527f0000000000000000000000000000000000000000000000000000000000000000811660248301528815156044830152606482019290925260009189169063eda9c2d290608401602060405180830381600087803b15801561114b57600080fd5b505af115801561115f573d6000803e3d6000fd5b505050506040513d601f19601f820116820180604052508101906111839190612522565b6001600160a01b038a166000908152600460205260408120805492935083929091906111b090849061244a565b925050819055507f7276c0285f260d667df9ded71ca6a988145d36de1d14252710532b9de5f089fe33896001600160a01b0316631b88094d6040518163ffffffff1660e01b815260040160206040518083038186803b15801561121257600080fd5b505afa158015611226573d6000803e3d6000fd5b505050506040513d601f19601f8201168201806040525081019061124a9190612505565b604080516001600160a01b0393841681529183166020830152828c1690820152908b1660608201526080810183905260a00160405180910390a150505050506112936001600055565b50505050565b7f00000000000000000000000000000000000000000000000000000000000000006001600160a01b031633146113115760405162461bcd60e51b815260206004820152601060248201527f6e6f7420746865206d756c7469536967000000000000000000000000000000006044820152606401610446565b6008816005811061132457611324612689565b0154600d5550565b85600a8151111561137f5760405162461bcd60e51b815260206004820152601d60248201527f746f6b656e206c697374206d757374206265203130206f72206c6573730000006044820152606401610446565b60007f00000000000000000000000000000000000000000000000000000000000000006001600160a01b031663026b1d5f6040518163ffffffff1660e01b815260040160206040518083038186803b1580156113da57600080fd5b505afa1580156113ee573d6000803e3d6000fd5b505050506040513d601f19601f820116820180604052508101906114129190612505565b90506000816001600160a01b031663d1946dbc6040518163ffffffff1660e01b815260040160006040518083038186803b15801561144f57600080fd5b505afa158015611463573d6000803e3d6000fd5b505050506040513d6000823e601f3d908101601f1916820160405261148b91908101906125fa565b905060005b83518160ff161015611576576000805b83518160ff16101561151557838160ff16815181106114c1576114c1612689565b60200260200101516001600160a01b0316868460ff16815181106114e7576114e7612689565b60200260200101516001600160a01b0316141561150357600191505b8061150d8161269f565b9150506114a0565b50806115635760405162461bcd60e51b815260206004820152601360248201527f746f6b656e73206e6f7420617070726f766564000000000000000000000000006044820152606401610446565b508061156e8161269f565b915050611490565b5060006001600160a01b031660028960405161159291906125de565b908152604051908190036020019020546001600160a01b0316146115f85760405162461bcd60e51b815260206004820152601d60248201527f706f6f6c2077697468206e616d6520616c7265616479206578697374730000006044820152606401610446565b60006116237f0000000000000000000000000000000000000000000000000000000000000000611dec565b905060006116507f0000000000000000000000000000000000000000000000000000000000000000611dec565b90506000336001600160a01b037f00000000000000000000000000000000000000000000000000000000000000001614156116e0575060078054600180820183556000929092527fa66cc928b5edb82af9bd49922954155ab7b0942694bea4ce44661d9a8736c68801805473ffffffffffffffffffffffffffffffffffffffff19166001600160a01b0385161790555b6040517fbbc41f480000000000000000000000000000000000000000000000000000000081526001600160a01b0384169063bbc41f4890611777908f908f908f908f908f908f907f0000000000000000000000000000000000000000000000000000000000000000907f0000000000000000000000000000000000000000000000000000000000000000908d908d906004016126bf565b600060405180830381600087803b15801561179157600080fd5b505af11580156117a5573d6000803e3d6000fd5b50506040517fc4d66de80000000000000000000000000000000000000000000000000000000081526001600160a01b0386811660048301528516925063c4d66de89150602401600060405180830381600087803b15801561180557600080fd5b505af1158015611819573d6000803e3d6000fd5b505050506001600160a01b03878116600090815260066020908152604080832080546001810182559084529190922001805473ffffffffffffffffffffffffffffffffffffffff19169286169290921790915551839060029061187d908e906125de565b9081526040805160209281900383018120805473ffffffffffffffffffffffffffffffffffffffff19166001600160a01b03958616179055928616600090815260019283905220805460ff191690911790557f373adb264e07592e89e672b780912566106b06a5f7a7787e63a47ca627e915af906119009085908e908b90612763565b60405180910390a1505050505050505050505050565b6060600780548060200260200160405190810160405280929190818152602001828054801561196e57602002820191906000526020600020905b81546001600160a01b03168152600190910190602001808311611950575b5050505050905090565b606060007f00000000000000000000000000000000000000000000000000000000000000006001600160a01b031663026b1d5f6040518163ffffffff1660e01b815260040160206040518083038186803b1580156119d557600080fd5b505afa1580156119e9573d6000803e3d6000fd5b505050506040513d601f19601f82011682018060405250810190611a0d9190612505565b9050806001600160a01b031663d1946dbc6040518163ffffffff1660e01b815260040160006040518083038186803b158015611a4857600080fd5b505afa158015611a5c573d6000803e3d6000fd5b505050506040513d6000823e601f3d908101601f19168201604052611a8491908101906125fa565b91505090565b6000807f00000000000000000000000000000000000000000000000000000000000000006001600160a01b031663026b1d5f6040518163ffffffff1660e01b815260040160206040518083038186803b158015611ae657600080fd5b505afa158015611afa573d6000803e3d6000fd5b505050506040513d601f19601f82011682018060405250810190611b1e9190612505565b92915050565b6001600160a01b038116600090815260066020908152604091829020805483518184028101840190945280845260609392830182828015610e5d576020028201919060005260206000209081546001600160a01b03168152600190910190602001808311610e3f5750505050509050919050565b60026000541415611beb5760405162461bcd60e51b815260206004820152601f60248201527f5265656e7472616e637947756172643a207265656e7472616e742063616c6c006044820152606401610446565b6002600055565b6040516001600160a01b03808516602483015283166044820152606481018290526112939085907f23b872dd00000000000000000000000000000000000000000000000000000000906084015b60408051601f198184030181529190526020810180517bffffffffffffffffffffffffffffffffffffffffffffffffffffffff167fffffffff0000000000000000000000000000000000000000000000000000000090931692909217909152611e8d565b801580611d2c5750604051636eb1769f60e11b81523060048201526001600160a01b03838116602483015284169063dd62ed3e9060440160206040518083038186803b158015611cf257600080fd5b505afa158015611d06573d6000803e3d6000fd5b505050506040513d601f19601f82011682018060405250810190611d2a9190612522565b155b611d9e5760405162461bcd60e51b815260206004820152603660248201527f5361666545524332303a20617070726f76652066726f6d206e6f6e2d7a65726f60448201527f20746f206e6f6e2d7a65726f20616c6c6f77616e6365000000000000000000006064820152608401610446565b6040516001600160a01b038316602482015260448101829052611de79084907f095ea7b30000000000000000000000000000000000000000000000000000000090606401611c3f565b505050565b6000763d602d80600a3d3981f3363d3d373d3d3d363d730000008260601b60e81c176000526e5af43d82803e903d91602b57fd5bf38260781b17602052603760096000f090506001600160a01b038116611e885760405162461bcd60e51b815260206004820152601660248201527f455243313136373a20637265617465206661696c6564000000000000000000006044820152606401610446565b919050565b611e9f826001600160a01b0316612027565b611eeb5760405162461bcd60e51b815260206004820152601f60248201527f5361666545524332303a2063616c6c20746f206e6f6e2d636f6e7472616374006044820152606401610446565b600080836001600160a01b031683604051611f0691906125de565b6000604051808303816000865af19150503d8060008114611f43576040519150601f19603f3d011682016040523d82523d6000602084013e611f48565b606091505b509150915081611f9a5760405162461bcd60e51b815260206004820181905260248201527f5361666545524332303a206c6f772d6c6576656c2063616c6c206661696c65646044820152606401610446565b8051156112935780806020019051810190611fb591906125aa565b6112935760405162461bcd60e51b815260206004820152602a60248201527f5361666545524332303a204552433230206f7065726174696f6e20646964206e60448201527f6f742073756363656564000000000000000000000000000000000000000000006064820152608401610446565b6000813f7fc5d2460186f7233c927e7db2dcc703c0e500b653ca82273b7bfad8045d85a47081811480159061205b57508115155b949350505050565b6001600160a01b038116811461207857600080fd5b50565b8035611e8881612063565b801515811461207857600080fd5b600080600080608085870312156120aa57600080fd5b8435935060208501356120bc81612063565b925060408501356120cc81612063565b915060608501356120dc81612086565b939692955090935050565b6000602082840312156120f957600080fd5b813561210481612063565b9392505050565b600081518084526020808501945080840160005b838110156121445781516001600160a01b03168752958201959082019060010161211f565b509495945050505050565b602081526000612104602083018461210b565b634e487b7160e01b600052604160045260246000fd5b604051601f8201601f1916810167ffffffffffffffff811182821017156121a1576121a1612162565b604052919050565b600067ffffffffffffffff8211156121c3576121c3612162565b50601f01601f191660200190565b600082601f8301126121e257600080fd5b81356121f56121f0826121a9565b612178565b81815284602083860101111561220a57600080fd5b816020850160208301376000918101602001919091529392505050565b60006020828403121561223957600080fd5b813567ffffffffffffffff81111561225057600080fd5b61205b848285016121d1565b60008060006060848603121561227157600080fd5b833561227c81612063565b9250602084013561228c81612063565b9150604084013561229c81612086565b809150509250925092565b6000602082840312156122b957600080fd5b5035919050565b600067ffffffffffffffff8211156122da576122da612162565b5060051b60200190565b600082601f8301126122f557600080fd5b813560206123056121f0836122c0565b82815260059290921b8401810191818101908684111561232457600080fd5b8286015b8481101561234857803561233b81612063565b8352918301918301612328565b509695505050505050565b60008060008060008060c0878903121561236c57600080fd5b863567ffffffffffffffff8082111561238457600080fd5b6123908a838b016122e4565b975060208901359150808211156123a657600080fd5b6123b28a838b016121d1565b965060408901359150808211156123c857600080fd5b6123d48a838b016121d1565b955060608901359150808211156123ea57600080fd5b6123f68a838b016121d1565b9450608089013591508082111561240c57600080fd5b5061241989828a016121d1565b92505061242860a0880161207b565b90509295509295509295565b634e487b7160e01b600052601160045260246000fd5b6000821982111561245d5761245d612434565b500190565b60005b8381101561247d578181015183820152602001612465565b838111156112935750506000910152565b6000602082840312156124a057600080fd5b815167ffffffffffffffff8111156124b757600080fd5b8201601f810184136124c857600080fd5b80516124d66121f0826121a9565b8181528560208385010111156124eb57600080fd5b6124fc826020830160208601612462565b95945050505050565b60006020828403121561251757600080fd5b815161210481612063565b60006020828403121561253457600080fd5b5051919050565b60008151808452612553816020860160208601612462565b601f01601f19169290920160200192915050565b60006001600160a01b03808816835286602084015285604084015280851660608401525060a0608083015261259f60a083018461253b565b979650505050505050565b6000602082840312156125bc57600080fd5b815161210481612086565b6000828210156125d9576125d9612434565b500390565b600082516125f0818460208701612462565b9190910192915050565b6000602080838503121561260d57600080fd5b825167ffffffffffffffff81111561262457600080fd5b8301601f8101851361263557600080fd5b80516126436121f0826122c0565b81815260059190911b8201830190838101908783111561266257600080fd5b928401925b8284101561259f57835161267a81612063565b82529284019290840190612667565b634e487b7160e01b600052603260045260246000fd5b600060ff821660ff8114156126b6576126b6612434565b60010192915050565b60006101408083526126d38184018e61210b565b905082810360208401526126e7818d61253b565b905082810360408401526126fb818c61253b565b9050828103606084015261270f818b61253b565b90508281036080840152612723818a61253b565b6001600160a01b0398891660a085015296881660c0840152505092851660e084015293166101008201529115156101209092019190915295945050505050565b60006001600160a01b03808616835260606020840152612786606084018661253b565b915080841660408401525094935050505056fea264697066735822122067476a2f5035bf8819f976d1d65593b9b0794c6dd26abb2f4166d597380f164c64736f6c63430008090033608060405234801561001057600080fd5b506003805460ff191660011790556129108061002d6000396000f3fe608060405234801561001057600080fd5b506004361061018c5760003560e01c8063373d7c3f116100e35780638aebe8d61161008c578063d0e7a76e11610066578063d0e7a76e1461038a578063d15e00531461039d578063eda9c2d2146103b057600080fd5b80638aebe8d614610351578063bbc41f4814610364578063d04d566a1461037757600080fd5b806360246c88116100bd57806360246c88146102d257806367e0e076146102ed578063711cc0051461033e57600080fd5b8063373d7c3f1461028e57806347e7ef24146102965780635ff189b9146102a957600080fd5b806317d7de7c11610145578063343d693b1161011f578063343d693b1461025d578063357286d7146102655780633735ef881461027b57600080fd5b806317d7de7c1461022f5780631b88094d146102375780632f7570061461024857600080fd5b80630712f6b3116101765780630712f6b3146101f257806312eeff7e14610205578063155d8e9c1461021a57600080fd5b80627ffb78146101915780630251cfa1146101bb575b600080fd5b6005546001600160a01b03165b6040516001600160a01b0390911681526020015b60405180910390f35b6101e46101c93660046120a9565b6001600160a01b031660009081526001602052604090205490565b6040519081526020016101b2565b6101e46102003660046120a9565b6103c3565b6102186102133660046120df565b610451565b005b610222610798565b6040516101b2919061218a565b61022261082a565b6007546001600160a01b031661019e565b610250610839565b6040516101b291906121e1565b61022261089a565b600d5460ff1660405190151581526020016101b2565b6101e46102893660046120a9565b6108a9565b610222610960565b6102186102a43660046121f4565b61096f565b6101e46102b73660046120a9565b6001600160a01b031660009081526002602052604090205490565b6102da610a9c565b6040516101b29796959493929190612220565b6103006102fb3660046120a9565b610d7a565b604080519788526020880196909652948601939093526060850191909152608084015260a08301526001600160a01b031660c082015260e0016101b2565b61019e61034c3660046120a9565b610dfb565b6101e461035f3660046120a9565b610f0e565b610218610372366004612410565b611032565b610218610385366004612537565b6113a2565b610218610398366004612537565b611413565b6101e46103ab3660046120a9565b611480565b6101e46103be36600461256c565b611554565b6000806103cf83610dfb565b6040516370a0823160e01b81523060048201529091506001600160a01b038216906370a08231906024015b60206040518083038186803b15801561041257600080fd5b505afa158015610426573d6000803e3d6000fd5b505050506040513d601f19601f8201168201806040525081019061044a91906125bd565b9392505050565b6008546001600160a01b031633146104a05760405162461bcd60e51b815260206004820152600d60248201526c3737ba103a34329037bbb732b960991b60448201526064015b60405180910390fd5b6000600360019054906101000a90046001600160a01b03166001600160a01b031663026b1d5f6040518163ffffffff1660e01b815260040160206040518083038186803b1580156104f057600080fd5b505afa158015610504573d6000803e3d6000fd5b505050506040513d601f19601f8201168201806040525081019061052891906125e1565b6001600160a01b038616600090815260016020526040812080549293508692909190610555908490612614565b909155508290506105f057604051631a4ca37b60e21b81526001600160a01b0386811660048301526024820186905284811660448301528216906369328dec90606401602060405180830381600087803b1580156105b257600080fd5b505af11580156105c6573d6000803e3d6000fd5b505050506040513d601f19601f820116820180604052508101906105ea91906125bd565b50610791565b6000600460009054906101000a90046001600160a01b03166001600160a01b031663affa88176040518163ffffffff1660e01b815260040160206040518083038186803b15801561064057600080fd5b505afa158015610654573d6000803e3d6000fd5b505050506040513d601f19601f8201168201806040525081019061067891906125e1565b9050856001600160a01b0316816001600160a01b0316146106db5760405162461bcd60e51b815260206004820181905260248201527f617373657420646f6573206e6f74206d617463682057455448476174657761796044820152606401610497565b60006106e682610dfb565b600454909150610704906001600160a01b0380841691166000611ba0565b60045461071e906001600160a01b03838116911688611ba0565b60048054604051630402806960e51b81526001600160a01b03868116938201939093526024810189905287831660448201529116906380500d2090606401600060405180830381600087803b15801561077657600080fd5b505af115801561078a573d6000803e3d6000fd5b5050505050505b5050505050565b6060600b80546107a79061262b565b80601f01602080910402602001604051908101604052809291908181526020018280546107d39061262b565b80156108205780601f106107f557610100808354040283529160200191610820565b820191906000526020600020905b81548152906001019060200180831161080357829003601f168201915b5050505050905090565b6060600980546107a79061262b565b6060600680548060200260200160405190810160405280929190818152602001828054801561082057602002820191906000526020600020905b81546001600160a01b03168152600190910190602001808311610873575050505050905090565b6060600a80546107a79061262b565b6000806108b583610dfb565b6040516370a0823160e01b81523060048201529091506000906001600160a01b038316906370a082319060240160206040518083038186803b1580156108fa57600080fd5b505afa15801561090e573d6000803e3d6000fd5b505050506040513d601f19601f8201168201806040525081019061093291906125bd565b6001600160a01b0385166000908152600160205260409020549091506109589082612614565b949350505050565b6060600c80546107a79061262b565b6008546001600160a01b031633146109b95760405162461bcd60e51b815260206004820152600d60248201526c3737ba103a34329037bbb732b960991b6044820152606401610497565b816000805b60065460ff82161015610a1b5760068160ff16815481106109e1576109e1612666565b6000918252602090912001546001600160a01b0384811691161415610a095760019150610a1b565b80610a138161267c565b9150506109be565b5080610a695760405162461bcd60e51b815260206004820152601c60248201527f746f6b656e206e6f74206163636570746564206279206a63706f6f6c000000006044820152606401610497565b6001600160a01b03841660009081526001602052604081208054859290610a9190849061269c565b909155505050505050565b60606000806060806060806006600760009054906101000a90046001600160a01b0316600d60009054906101000a900460ff16600c600b600a600986805480602002602001604051908101604052809291908181526020018280548015610b2c57602002820191906000526020600020905b81546001600160a01b03168152600190910190602001808311610b0e575b50505050509650838054610b3f9061262b565b80601f0160208091040260200160405190810160405280929190818152602001828054610b6b9061262b565b8015610bb85780601f10610b8d57610100808354040283529160200191610bb8565b820191906000526020600020905b815481529060010190602001808311610b9b57829003601f168201915b50505050509350828054610bcb9061262b565b80601f0160208091040260200160405190810160405280929190818152602001828054610bf79061262b565b8015610c445780601f10610c1957610100808354040283529160200191610c44565b820191906000526020600020905b815481529060010190602001808311610c2757829003601f168201915b50505050509250818054610c579061262b565b80601f0160208091040260200160405190810160405280929190818152602001828054610c839061262b565b8015610cd05780601f10610ca557610100808354040283529160200191610cd0565b820191906000526020600020905b815481529060010190602001808311610cb357829003601f168201915b50505050509150808054610ce39061262b565b80601f0160208091040260200160405190810160405280929190818152602001828054610d0f9061262b565b8015610d5c5780601f10610d3157610100808354040283529160200191610d5c565b820191906000526020600020905b815481529060010190602001808311610d3f57829003601f168201915b50505050509050965096509650965096509650965090919293949596565b6000806000806000806000610d8e88610f0e565b610d9789611480565b610da08a6103c3565b6001600160a01b038b16600090815260026020526040902054610dc28c6108a9565b6001600160a01b038d16600090815260016020526040902054610de48e610dfb565b959e949d50929b5090995097509550909350915050565b600080600360019054906101000a90046001600160a01b03166001600160a01b031663026b1d5f6040518163ffffffff1660e01b815260040160206040518083038186803b158015610e4c57600080fd5b505afa158015610e60573d6000803e3d6000fd5b505050506040513d601f19601f82011682018060405250810190610e8491906125e1565b6040516335ea6a7560e01b81526001600160a01b038581166004830152919250908216906335ea6a75906024016101e06040518083038186803b158015610eca57600080fd5b505afa158015610ede573d6000803e3d6000fd5b505050506040513d601f19601f82011682018060405250810190610f02919061273d565b61010001519392505050565b600080600360019054906101000a90046001600160a01b03166001600160a01b031663026b1d5f6040518163ffffffff1660e01b815260040160206040518083038186803b158015610f5f57600080fd5b505afa158015610f73573d6000803e3d6000fd5b505050506040513d601f19601f82011682018060405250810190610f9791906125e1565b6040516335ea6a7560e01b81526001600160a01b038581166004830152919250908216906335ea6a75906024016101e06040518083038186803b158015610fdd57600080fd5b505afa158015610ff1573d6000803e3d6000fd5b505050506040513d601f19601f82011682018060405250810190611015919061273d565b602001516fffffffffffffffffffffffffffffffff169392505050565b88518990601e90829082101561108a5760405162461bcd60e51b815260206004820152601b60248201527f737472696e67206f76657220636861726163746572206c696d697400000000006044820152606401610497565b600054610100900460ff16158080156110aa5750600054600160ff909116105b806110c45750303b1580156110c4575060005460ff166001145b6111365760405162461bcd60e51b815260206004820152602e60248201527f496e697469616c697a61626c653a20636f6e747261637420697320616c72656160448201527f647920696e697469616c697a65640000000000000000000000000000000000006064820152608401610497565b6000805460ff191660011790558015611159576000805461ff0019166101001790555b60035460ff16156111ac5760405162461bcd60e51b815260206004820152601660248201527f43616e6e6f7420696e697469616c697a652062617365000000000000000000006044820152606401610497565b6007546001600160a01b0316156112055760405162461bcd60e51b815260206004820152601960248201527f496e697469616c697a6520616c72656164792063616c6c6564000000000000006044820152606401610497565b88600760006101000a8154816001600160a01b0302191690836001600160a01b0316021790555033600860006101000a8154816001600160a01b0302191690836001600160a01b031602179055508c60099080519060200190611269929190611f7b565b508b5161127d90600a9060208f0190611f7b565b508a5161129190600b9060208e0190611f7b565b5089516112a590600c9060208d0190611f7b565b5084600d60006101000a81548160ff02191690831515021790555087600360016101000a8154816001600160a01b0302191690836001600160a01b0316021790555086600460006101000a8154816001600160a01b0302191690836001600160a01b0316021790555085600560006101000a8154816001600160a01b0302191690836001600160a01b031602179055508d6006908051906020019061134b929190611fff565b508015611392576000805461ff0019169055604051600181527f7f26b83ff96e1f2b6a682f133852f6798a09c465da95921460cefb38474024989060200160405180910390a15b5050505050505050505050505050565b6007546001600160a01b031633146113fc5760405162461bcd60e51b815260206004820152601060248201527f6e6f7420746865207265636569766572000000000000000000000000000000006044820152606401610497565b805161140f90600a906020840190611f7b565b5050565b6007546001600160a01b0316331461146d5760405162461bcd60e51b815260206004820152601060248201527f6e6f7420746865207265636569766572000000000000000000000000000000006044820152606401610497565b805161140f90600c906020840190611f7b565b600080600360019054906101000a90046001600160a01b03166001600160a01b031663026b1d5f6040518163ffffffff1660e01b815260040160206040518083038186803b1580156114d157600080fd5b505afa1580156114e5573d6000803e3d6000fd5b505050506040513d601f19601f8201168201806040525081019061150991906125e1565b6040517fd15e00530000000000000000000000000000000000000000000000000000000081526001600160a01b0385811660048301529192509082169063d15e0053906024016103fa565b6008546000906001600160a01b031633146115a15760405162461bcd60e51b815260206004820152600d60248201526c3737ba103a34329037bbb732b960991b6044820152606401610497565b60006115ac86610dfb565b6040516370a0823160e01b81523060048201529091506000906001600160a01b038316906370a082319060240160206040518083038186803b1580156115f157600080fd5b505afa158015611605573d6000803e3d6000fd5b505050506040513d601f19601f8201168201806040525081019061162991906125bd565b6001600160a01b038816600090815260016020526040812054919250906116509083612614565b6001600160a01b03891660009081526002602052604081208054929350839290919061167d90849061269c565b9250508190555060008190506000600360019054906101000a90046001600160a01b03166001600160a01b031663026b1d5f6040518163ffffffff1660e01b815260040160206040518083038186803b1580156116d957600080fd5b505afa1580156116ed573d6000803e3d6000fd5b505050506040513d601f19601f8201168201806040525081019061171191906125e1565b9050876118f057866117b157600754604051631a4ca37b60e21b81526001600160a01b038c81166004830152602482018690529182166044820152908216906369328dec90606401602060405180830381600087803b15801561177357600080fd5b505af1158015611787573d6000803e3d6000fd5b505050506040513d601f19601f820116820180604052508101906117ab91906125bd565b50611b93565b60006117bd8489611d39565b905060006117cb8286612614565b600754604051631a4ca37b60e21b81526001600160a01b038f811660048301526024820184905291821660448201529192508416906369328dec90606401602060405180830381600087803b15801561182357600080fd5b505af1158015611837573d6000803e3d6000fd5b505050506040513d601f19601f8201168201806040525081019061185b91906125bd565b50604051631a4ca37b60e21b81526001600160a01b038d81166004830152602482018490528c811660448301528416906369328dec90606401602060405180830381600087803b1580156118ae57600080fd5b505af11580156118c2573d6000803e3d6000fd5b505050506040513d601f19601f820116820180604052508101906118e691906125bd565b509250611b939050565b60048054604080517faffa881700000000000000000000000000000000000000000000000000000000815290516001600160a01b03808f169493169263affa881792808201926020929091829003018186803b15801561194f57600080fd5b505afa158015611963573d6000803e3d6000fd5b505050506040513d601f19601f8201168201806040525081019061198791906125e1565b6001600160a01b0316146119dd5760405162461bcd60e51b815260206004820181905260248201527f617373657420646f6573206e6f74206d617463682057455448476174657761796044820152606401610497565b6004546119f8906001600160a01b0387811691166000611ba0565b600454611a12906001600160a01b03878116911685611ba0565b86611a8f5760048054600754604051630402806960e51b81526001600160a01b03858116948201949094526024810187905290831660448201529116906380500d2090606401600060405180830381600087803b158015611a7257600080fd5b505af1158015611a86573d6000803e3d6000fd5b50505050611b93565b6000611a9b8489611d39565b90506000611aa98286612614565b60048054600754604051630402806960e51b81526001600160a01b038881169482019490945260248101859052908316604482015292935016906380500d2090606401600060405180830381600087803b158015611b0657600080fd5b505af1158015611b1a573d6000803e3d6000fd5b505060048054604051630402806960e51b81526001600160a01b0388811693820193909352602481018790528f83166044820152911692506380500d209150606401600060405180830381600087803b158015611b7657600080fd5b505af1158015611b8a573d6000803e3d6000fd5b50929550505050505b5098975050505050505050565b801580611c4257506040517fdd62ed3e0000000000000000000000000000000000000000000000000000000081523060048201526001600160a01b03838116602483015284169063dd62ed3e9060440160206040518083038186803b158015611c0857600080fd5b505afa158015611c1c573d6000803e3d6000fd5b505050506040513d601f19601f82011682018060405250810190611c4091906125bd565b155b611cb45760405162461bcd60e51b815260206004820152603660248201527f5361666545524332303a20617070726f76652066726f6d206e6f6e2d7a65726f60448201527f20746f206e6f6e2d7a65726f20616c6c6f77616e6365000000000000000000006064820152608401610497565b604080516001600160a01b038416602482015260448082018490528251808303909101815260649091019091526020810180517bffffffffffffffffffffffffffffffffffffffffffffffffffffffff167f095ea7b300000000000000000000000000000000000000000000000000000000179052611d34908490611da2565b505050565b600080612710611d498486612860565b611d53919061287f565b90508061044a5760405162461bcd60e51b815260206004820152601960248201527f6e6f7420656e6f7567682066756e647320746f20636c61696d000000000000006044820152606401610497565b611db4826001600160a01b0316611f42565b611e005760405162461bcd60e51b815260206004820152601f60248201527f5361666545524332303a2063616c6c20746f206e6f6e2d636f6e7472616374006044820152606401610497565b600080836001600160a01b031683604051611e1b91906128a1565b6000604051808303816000865af19150503d8060008114611e58576040519150601f19603f3d011682016040523d82523d6000602084013e611e5d565b606091505b509150915081611eaf5760405162461bcd60e51b815260206004820181905260248201527f5361666545524332303a206c6f772d6c6576656c2063616c6c206661696c65646044820152606401610497565b805115611f3c5780806020019051810190611eca91906128bd565b611f3c5760405162461bcd60e51b815260206004820152602a60248201527f5361666545524332303a204552433230206f7065726174696f6e20646964206e60448201527f6f742073756363656564000000000000000000000000000000000000000000006064820152608401610497565b50505050565b6000813f7fc5d2460186f7233c927e7db2dcc703c0e500b653ca82273b7bfad8045d85a470818114801590610958575050151592915050565b828054611f879061262b565b90600052602060002090601f016020900481019282611fa95760008555611fef565b82601f10611fc257805160ff1916838001178555611fef565b82800160010185558215611fef579182015b82811115611fef578251825591602001919060010190611fd4565b50611ffb92915061206c565b5090565b828054828255906000526020600020908101928215611fef579160200282015b82811115611fef57825182547fffffffffffffffffffffffff0000000000000000000000000000000000000000166001600160a01b0390911617825560209092019160019091019061201f565b5b80821115611ffb576000815560010161206d565b6001600160a01b038116811461209657600080fd5b50565b80356120a481612081565b919050565b6000602082840312156120bb57600080fd5b813561044a81612081565b801515811461209657600080fd5b80356120a4816120c6565b600080600080608085870312156120f557600080fd5b843561210081612081565b935060208501359250604085013561211781612081565b91506060850135612127816120c6565b939692955090935050565b60005b8381101561214d578181015183820152602001612135565b83811115611f3c5750506000910152565b60008151808452612176816020860160208601612132565b601f01601f19169290920160200192915050565b60208152600061044a602083018461215e565b600081518084526020808501945080840160005b838110156121d65781516001600160a01b0316875295820195908201906001016121b1565b509495945050505050565b60208152600061044a602083018461219d565b6000806040838503121561220757600080fd5b823561221281612081565b946020939093013593505050565b60e08152600061223360e083018a61219d565b6001600160a01b03891660208401528715156040840152828103606084015261225c818861215e565b90508281036080840152612270818761215e565b905082810360a0840152612284818661215e565b905082810360c0840152612298818561215e565b9a9950505050505050505050565b634e487b7160e01b600052604160045260246000fd5b6040516101e0810167ffffffffffffffff811182821017156122e0576122e06122a6565b60405290565b604051601f8201601f1916810167ffffffffffffffff8111828210171561230f5761230f6122a6565b604052919050565b600082601f83011261232857600080fd5b8135602067ffffffffffffffff821115612344576123446122a6565b8160051b6123538282016122e6565b928352848101820192828101908785111561236d57600080fd5b83870192505b8483101561239557823561238681612081565b82529183019190830190612373565b979650505050505050565b600082601f8301126123b157600080fd5b813567ffffffffffffffff8111156123cb576123cb6122a6565b6123de601f8201601f19166020016122e6565b8181528460208386010111156123f357600080fd5b816020850160208301376000918101602001919091529392505050565b6000806000806000806000806000806101408b8d03121561243057600080fd5b8a3567ffffffffffffffff8082111561244857600080fd5b6124548e838f01612317565b9b5060208d013591508082111561246a57600080fd5b6124768e838f016123a0565b9a5060408d013591508082111561248c57600080fd5b6124988e838f016123a0565b995060608d01359150808211156124ae57600080fd5b6124ba8e838f016123a0565b985060808d01359150808211156124d057600080fd5b506124dd8d828e016123a0565b9650506124ec60a08c01612099565b94506124fa60c08c01612099565b935061250860e08c01612099565b92506125176101008c01612099565b91506125266101208c016120d4565b90509295989b9194979a5092959850565b60006020828403121561254957600080fd5b813567ffffffffffffffff81111561256057600080fd5b610958848285016123a0565b6000806000806080858703121561258257600080fd5b843561258d81612081565b9350602085013561259d81612081565b925060408501356125ad816120c6565b9396929550929360600135925050565b6000602082840312156125cf57600080fd5b5051919050565b80516120a481612081565b6000602082840312156125f357600080fd5b815161044a81612081565b634e487b7160e01b600052601160045260246000fd5b600082821015612626576126266125fe565b500390565b600181811c9082168061263f57607f821691505b6020821081141561266057634e487b7160e01b600052602260045260246000fd5b50919050565b634e487b7160e01b600052603260045260246000fd5b600060ff821660ff811415612693576126936125fe565b60010192915050565b600082198211156126af576126af6125fe565b500190565b6000602082840312156126c657600080fd5b6040516020810181811067ffffffffffffffff821117156126e9576126e96122a6565b6040529151825250919050565b80516fffffffffffffffffffffffffffffffff811681146120a457600080fd5b805164ffffffffff811681146120a457600080fd5b805161ffff811681146120a457600080fd5b60006101e0828403121561275057600080fd5b6127586122bc565b61276284846126b4565b8152612770602084016126f6565b6020820152612781604084016126f6565b6040820152612792606084016126f6565b60608201526127a3608084016126f6565b60808201526127b460a084016126f6565b60a08201526127c560c08401612716565b60c08201526127d660e0840161272b565b60e08201526101006127e98185016125d6565b908201526101206127fb8482016125d6565b9082015261014061280d8482016125d6565b9082015261016061281f8482016125d6565b908201526101806128318482016126f6565b908201526101a06128438482016126f6565b908201526101c06128558482016126f6565b908201529392505050565b600081600019048311821515161561287a5761287a6125fe565b500290565b60008261289c57634e487b7160e01b600052601260045260246000fd5b500490565b600082516128b3818460208701612132565b9190910192915050565b6000602082840312156128cf57600080fd5b815161044a816120c656fea2646970667358221220736da7f02439ee9006e804c4a80117260c4a45fbb244bc769559077e22bacb2864736f6c63430008090033608060405234801561001057600080fd5b50612314806100206000396000f3fe608060405234801561001057600080fd5b506004361061016c5760003560e01c8063519dc8d2116100cd578063a22cb46511610081578063c4d66de811610066578063c4d66de814610327578063c87b56dd1461033a578063e985e9c51461034d57600080fd5b8063a22cb46514610301578063b88d4fde1461031457600080fd5b80636352211e116100b25780636352211e146102d357806370a08231146102e657806395d89b41146102f957600080fd5b8063519dc8d2146102755780635328c2bf1461029557600080fd5b806323b872dd116101245780632e0c3f3c116101095780632e0c3f3c1461022157806342842e0e1461024f57806347c6b45e1461026257600080fd5b806323b872dd146101fb57806326a45ffb1461020e57600080fd5b806306fdde031161015557806306fdde03146101be578063081812fc146101d3578063095ea7b3146101e657600080fd5b806301ffc9a714610171578063026b1d5f14610199575b600080fd5b61018461017f366004611d18565b610389565b60405190151581526020015b60405180910390f35b60c9546001600160a01b03165b6040516001600160a01b039091168152602001610190565b6101c66103cd565b6040516101909190611d8d565b6101a66101e1366004611da0565b61045f565b6101f96101f4366004611dce565b610486565b005b6101f9610209366004611dfa565b6105bd565b61018461021c366004611eda565b610634565b61024161022f366004611da0565b600090815260cb602052604090205490565b604051908152602001610190565b6101f961025d366004611dfa565b61079a565b6101f9610270366004611f64565b6107b5565b610288610283366004611fa6565b610948565b6040516101909190611fc3565b6102a86102a3366004611da0565b610b0f565b604080518251815260208084015190820152918101516001600160a01b031690820152606001610190565b6101a66102e1366004611da0565b610b7e565b6102416102f4366004611fa6565b610be3565b6101c6610c7d565b6101f961030f366004612007565b610c8c565b6101f9610322366004612045565b610c9b565b6101f9610335366004611fa6565b610d19565b6101c6610348366004611da0565b610ecf565b61018461035b3660046120c5565b6001600160a01b039182166000908152606a6020908152604080832093909416825291909152205460ff1690565b60006001600160e01b031982167f490649060000000000000000000000000000000000000000000000000000000014806103c757506103c782610eda565b92915050565b6060606580546103dc906120f3565b80601f0160208091040260200160405190810160405280929190818152602001828054610408906120f3565b80156104555780601f1061042a57610100808354040283529160200191610455565b820191906000526020600020905b81548152906001019060200180831161043857829003601f168201915b5050505050905090565b600061046a82610f75565b506000908152606960205260409020546001600160a01b031690565b600061049182610b7e565b9050806001600160a01b0316836001600160a01b031614156105205760405162461bcd60e51b815260206004820152602160248201527f4552433732313a20617070726f76616c20746f2063757272656e74206f776e6560448201527f720000000000000000000000000000000000000000000000000000000000000060648201526084015b60405180910390fd5b336001600160a01b038216148061053c575061053c813361035b565b6105ae5760405162461bcd60e51b815260206004820152603d60248201527f4552433732313a20617070726f76652063616c6c6572206973206e6f7420746f60448201527f6b656e206f776e6572206f7220617070726f76656420666f7220616c6c0000006064820152608401610517565b6105b88383610fdc565b505050565b6105c7338261104a565b6106295760405162461bcd60e51b815260206004820152602d60248201527f4552433732313a2063616c6c6572206973206e6f7420746f6b656e206f776e6560448201526c1c881bdc88185c1c1c9bdd9959609a1b6064820152608401610517565b6105b88383836110c9565b60ca546000906001600160a01b031633146106815760405162461bcd60e51b815260206004820152600d60248201526c3737ba103a34329037bbb732b960991b6044820152606401610517565b60c954604080516bffffffffffffffffffffffff1960608a811b821660208085019190915294811b8216603484015287901b1660488201528151808203603c018152605c909101825280519083012060008181526067909352908220549091906001600160a01b03161561071f57600082815260cb60205260408120600181018890558054899290610714908490612144565b9091555061078f9050565b6040805160608101825288815260208082018981526001600160a01b03898116848601908152600088815260cb90945294909220925183555160018301559151600290910180546001600160a01b0319169190921617905561078188836112cf565b61078b8285611468565b5060015b979650505050505050565b6105b883838360405180602001604052806000815250610c9b565b60ca546001600160a01b031633146107ff5760405162461bcd60e51b815260206004820152600d60248201526c3737ba103a34329037bbb732b960991b6044820152606401610517565b60c954604080516bffffffffffffffffffffffff19606087811b821660208085019190915294811b8216603484015285901b1660488201528151808203603c018152605c9091018252805190830120600081815260679093529120546001600160a01b03166108b05760405162461bcd60e51b815260206004820152601560248201527f746f6b656e496420646f65736e277420657869737400000000000000000000006044820152606401610517565b600081815260cb60205260409020548381101561090f5760405162461bcd60e51b815260206004820152601460248201527f696e73756666696369656e742062616c616e63650000000000000000000000006044820152606401610517565b610919848261215c565b90508061093357600082815260cb60205260408120600101555b600091825260cb602052604090912055505050565b6060600060c960009054906101000a90046001600160a01b03166001600160a01b0316632f7570066040518163ffffffff1660e01b815260040160006040518083038186803b15801561099a57600080fd5b505afa1580156109ae573d6000803e3d6000fd5b505050506040513d6000823e601f3d908101601f191682016040526109d69190810190612173565b805190915060008167ffffffffffffffff8111156109f6576109f6611e3b565b604051908082528060200260200182016040528015610a1f578160200160208202803683370190505b50905060005b82811015610b065760008660c960009054906101000a90046001600160a01b0316868481518110610a5857610a58612225565b6020026020010151604051602001610a9d93929190606093841b6bffffffffffffffffffffffff19908116825292841b83166014820152921b166028820152603c0190565b60408051601f198184030181529181528151602092830120600081815260679093529120549091506001600160a01b031615610af35780838381518110610ae657610ae6612225565b6020026020010181815250505b5080610afe8161223b565b915050610a25565b50949350505050565b610b3c6040518060600160405280600081526020016000815260200160006001600160a01b031681525090565b50600090815260cb6020908152604091829020825160608101845281548152600182015492810192909252600201546001600160a01b03169181019190915290565b6000818152606760205260408120546001600160a01b0316806103c75760405162461bcd60e51b815260206004820152601860248201527f4552433732313a20696e76616c696420746f6b656e20494400000000000000006044820152606401610517565b60006001600160a01b038216610c615760405162461bcd60e51b815260206004820152602960248201527f4552433732313a2061646472657373207a65726f206973206e6f74206120766160448201527f6c6964206f776e657200000000000000000000000000000000000000000000006064820152608401610517565b506001600160a01b031660009081526068602052604090205490565b6060606680546103dc906120f3565b610c97338383611542565b5050565b610ca5338361104a565b610d075760405162461bcd60e51b815260206004820152602d60248201527f4552433732313a2063616c6c6572206973206e6f7420746f6b656e206f776e6560448201526c1c881bdc88185c1c1c9bdd9959609a1b6064820152608401610517565b610d1384848484611611565b50505050565b600054610100900460ff1615808015610d395750600054600160ff909116105b80610d535750303b158015610d53575060005460ff166001145b610dc55760405162461bcd60e51b815260206004820152602e60248201527f496e697469616c697a61626c653a20636f6e747261637420697320616c72656160448201527f647920696e697469616c697a65640000000000000000000000000000000000006064820152608401610517565b6000805460ff191660011790558015610de8576000805461ff0019166101001790555b610e5c6040518060400160405280601581526020017f4a435020436f6e7472696275746f7220546f6b656e00000000000000000000008152506040518060400160405280600481526020017f4a4350430000000000000000000000000000000000000000000000000000000081525061169a565b60c980546001600160a01b0384166001600160a01b03199182161790915560ca8054909116331790558015610c97576000805461ff0019169055604051600181527f7f26b83ff96e1f2b6a682f133852f6798a09c465da95921460cefb3847402498906020015b60405180910390a15050565b60606103c78261170f565b60006001600160e01b031982167f80ac58cd000000000000000000000000000000000000000000000000000000001480610f3d57506001600160e01b031982167f5b5e139f00000000000000000000000000000000000000000000000000000000145b806103c757507f01ffc9a7000000000000000000000000000000000000000000000000000000006001600160e01b03198316146103c7565b6000818152606760205260409020546001600160a01b0316610fd95760405162461bcd60e51b815260206004820152601860248201527f4552433732313a20696e76616c696420746f6b656e20494400000000000000006044820152606401610517565b50565b600081815260696020526040902080546001600160a01b0319166001600160a01b038416908117909155819061101182610b7e565b6001600160a01b03167f8c5be1e5ebec7d5bd14f71427d1e84f3dd0314c0f7b2291e5b200ac8c7c3b92560405160405180910390a45050565b60008061105683610b7e565b9050806001600160a01b0316846001600160a01b0316148061109d57506001600160a01b038082166000908152606a602090815260408083209388168352929052205460ff165b806110c15750836001600160a01b03166110b68461045f565b6001600160a01b0316145b949350505050565b826001600160a01b03166110dc82610b7e565b6001600160a01b0316146111405760405162461bcd60e51b815260206004820152602560248201527f4552433732313a207472616e736665722066726f6d20696e636f72726563742060448201526437bbb732b960d91b6064820152608401610517565b6001600160a01b0382166111bb5760405162461bcd60e51b8152602060048201526024808201527f4552433732313a207472616e7366657220746f20746865207a65726f2061646460448201527f72657373000000000000000000000000000000000000000000000000000000006064820152608401610517565b6111c88383836001611818565b826001600160a01b03166111db82610b7e565b6001600160a01b03161461123f5760405162461bcd60e51b815260206004820152602560248201527f4552433732313a207472616e736665722066726f6d20696e636f72726563742060448201526437bbb732b960d91b6064820152608401610517565b600081815260696020908152604080832080546001600160a01b03199081169091556001600160a01b0387811680865260688552838620805460001901905590871680865283862080546001019055868652606790945282852080549092168417909155905184937fddf252ad1be2c89b69c2b068fc378daa952ba7f163c4a11628f55a4df523b3ef91a4505050565b6001600160a01b0382166113255760405162461bcd60e51b815260206004820181905260248201527f4552433732313a206d696e7420746f20746865207a65726f20616464726573736044820152606401610517565b6000818152606760205260409020546001600160a01b03161561138a5760405162461bcd60e51b815260206004820152601c60248201527f4552433732313a20746f6b656e20616c7265616479206d696e746564000000006044820152606401610517565b611398600083836001611818565b6000818152606760205260409020546001600160a01b0316156113fd5760405162461bcd60e51b815260206004820152601c60248201527f4552433732313a20746f6b656e20616c7265616479206d696e746564000000006044820152606401610517565b6001600160a01b038216600081815260686020908152604080832080546001019055848352606790915280822080546001600160a01b0319168417905551839291907fddf252ad1be2c89b69c2b068fc378daa952ba7f163c4a11628f55a4df523b3ef908290a45050565b6000828152606760205260409020546001600160a01b03166114f25760405162461bcd60e51b815260206004820152602e60248201527f45524337323155524953746f726167653a2055524920736574206f66206e6f6e60448201527f6578697374656e7420746f6b656e0000000000000000000000000000000000006064820152608401610517565b6000828152609760209081526040909120825161151192840190611c69565b506040518281527ff8e1a15aba9398e019f0b49df1a4fde98ee17ae345cb5f6b5e2c27f5033e8ce790602001610ec3565b816001600160a01b0316836001600160a01b031614156115a45760405162461bcd60e51b815260206004820152601960248201527f4552433732313a20617070726f766520746f2063616c6c6572000000000000006044820152606401610517565b6001600160a01b038381166000818152606a6020908152604080832094871680845294825291829020805460ff191686151590811790915591519182527f17307eab39ab6107e8899845ad3d59bd9653f200f220920489ca2b5937696c31910160405180910390a3505050565b61161c8484846110c9565b61162884848484611874565b610d135760405162461bcd60e51b815260206004820152603260248201527f4552433732313a207472616e7366657220746f206e6f6e20455243373231526560448201527f63656976657220696d706c656d656e74657200000000000000000000000000006064820152608401610517565b600054610100900460ff166117055760405162461bcd60e51b815260206004820152602b60248201527f496e697469616c697a61626c653a20636f6e7472616374206973206e6f74206960448201526a6e697469616c697a696e6760a81b6064820152608401610517565b610c9782826119d7565b606061171a82610f75565b60008281526097602052604081208054611733906120f3565b80601f016020809104026020016040519081016040528092919081815260200182805461175f906120f3565b80156117ac5780601f10611781576101008083540402835291602001916117ac565b820191906000526020600020905b81548152906001019060200180831161178f57829003601f168201915b5050505050905060006117ca60408051602081019091526000815290565b90508051600014156117dd575092915050565b81511561180f5780826040516020016117f7929190612256565b60405160208183030381529060405292505050919050565b6110c184611a69565b6001600160a01b0384161561186f5760405162461bcd60e51b815260206004820152601160248201527f6e6f6e2d7472616e736665727261626c650000000000000000000000000000006044820152606401610517565b610d13565b60006001600160a01b0384163b156119cc57604051630a85bd0160e11b81526001600160a01b0385169063150b7a02906118b8903390899088908890600401612285565b602060405180830381600087803b1580156118d257600080fd5b505af1925050508015611902575060408051601f3d908101601f191682019092526118ff918101906122c1565b60015b6119b2573d808015611930576040519150601f19603f3d011682016040523d82523d6000602084013e611935565b606091505b5080516119aa5760405162461bcd60e51b815260206004820152603260248201527f4552433732313a207472616e7366657220746f206e6f6e20455243373231526560448201527f63656976657220696d706c656d656e74657200000000000000000000000000006064820152608401610517565b805181602001fd5b6001600160e01b031916630a85bd0160e11b1490506110c1565b506001949350505050565b600054610100900460ff16611a425760405162461bcd60e51b815260206004820152602b60248201527f496e697469616c697a61626c653a20636f6e7472616374206973206e6f74206960448201526a6e697469616c697a696e6760a81b6064820152608401610517565b8151611a55906065906020850190611c69565b5080516105b8906066906020840190611c69565b6060611a7482610f75565b6000611a8b60408051602081019091526000815290565b90506000815111611aab5760405180602001604052806000815250611ad6565b80611ab584611add565b604051602001611ac6929190612256565b6040516020818303038152906040525b9392505050565b60606000611aea83611b87565b600101905060008167ffffffffffffffff811115611b0a57611b0a611e3b565b6040519080825280601f01601f191660200182016040528015611b34576020820181803683370190505b5090508181016020015b600019017f3031323334353637383961626364656600000000000000000000000000000000600a86061a8153600a8504945084611b7a57611b7f565b611b3e565b509392505050565b6000807a184f03e93ff9f4daa797ed6e38ed64bf6a1f0100000000000000008310611bd0577a184f03e93ff9f4daa797ed6e38ed64bf6a1f010000000000000000830492506040015b6d04ee2d6d415b85acef81000000008310611bfc576d04ee2d6d415b85acef8100000000830492506020015b662386f26fc100008310611c1a57662386f26fc10000830492506010015b6305f5e1008310611c32576305f5e100830492506008015b6127108310611c4657612710830492506004015b60648310611c58576064830492506002015b600a83106103c75760010192915050565b828054611c75906120f3565b90600052602060002090601f016020900481019282611c975760008555611cdd565b82601f10611cb057805160ff1916838001178555611cdd565b82800160010185558215611cdd579182015b82811115611cdd578251825591602001919060010190611cc2565b50611ce9929150611ced565b5090565b5b80821115611ce95760008155600101611cee565b6001600160e01b031981168114610fd957600080fd5b600060208284031215611d2a57600080fd5b8135611ad681611d02565b60005b83811015611d50578181015183820152602001611d38565b83811115610d135750506000910152565b60008151808452611d79816020860160208601611d35565b601f01601f19169290920160200192915050565b602081526000611ad66020830184611d61565b600060208284031215611db257600080fd5b5035919050565b6001600160a01b0381168114610fd957600080fd5b60008060408385031215611de157600080fd5b8235611dec81611db9565b946020939093013593505050565b600080600060608486031215611e0f57600080fd5b8335611e1a81611db9565b92506020840135611e2a81611db9565b929592945050506040919091013590565b634e487b7160e01b600052604160045260246000fd5b604051601f8201601f1916810167ffffffffffffffff81118282101715611e7a57611e7a611e3b565b604052919050565b600067ffffffffffffffff831115611e9c57611e9c611e3b565b611eaf601f8401601f1916602001611e51565b9050828152838383011115611ec357600080fd5b828260208301376000602084830101529392505050565b600080600080600060a08688031215611ef257600080fd5b8535611efd81611db9565b945060208601359350604086013592506060860135611f1b81611db9565b9150608086013567ffffffffffffffff811115611f3757600080fd5b8601601f81018813611f4857600080fd5b611f5788823560208401611e82565b9150509295509295909350565b600080600060608486031215611f7957600080fd5b8335611f8481611db9565b9250602084013591506040840135611f9b81611db9565b809150509250925092565b600060208284031215611fb857600080fd5b8135611ad681611db9565b6020808252825182820181905260009190848201906040850190845b81811015611ffb57835183529284019291840191600101611fdf565b50909695505050505050565b6000806040838503121561201a57600080fd5b823561202581611db9565b91506020830135801515811461203a57600080fd5b809150509250929050565b6000806000806080858703121561205b57600080fd5b843561206681611db9565b9350602085013561207681611db9565b925060408501359150606085013567ffffffffffffffff81111561209957600080fd5b8501601f810187136120aa57600080fd5b6120b987823560208401611e82565b91505092959194509250565b600080604083850312156120d857600080fd5b82356120e381611db9565b9150602083013561203a81611db9565b600181811c9082168061210757607f821691505b6020821081141561212857634e487b7160e01b600052602260045260246000fd5b50919050565b634e487b7160e01b600052601160045260246000fd5b600082198211156121575761215761212e565b500190565b60008282101561216e5761216e61212e565b500390565b6000602080838503121561218657600080fd5b825167ffffffffffffffff8082111561219e57600080fd5b818501915085601f8301126121b257600080fd5b8151818111156121c4576121c4611e3b565b8060051b91506121d5848301611e51565b81815291830184019184810190888411156121ef57600080fd5b938501935b83851015612219578451925061220983611db9565b82825293850193908501906121f4565b98975050505050505050565b634e487b7160e01b600052603260045260246000fd5b600060001982141561224f5761224f61212e565b5060010190565b60008351612268818460208801611d35565b83519083019061227c818360208801611d35565b01949350505050565b60006001600160a01b038087168352808616602084015250836040830152608060608301526122b76080830184611d61565b9695505050505050565b6000602082840312156122d357600080fd5b8151611ad681611d0256fea264697066735822122036b582b94bc090a885da06a4d36fff738dba0964666e011d21c47eb4f2469f6464736f6c63430008090033",
  "linkReferences": {},
  "deployedLinkReferences": {}
}