{
  "_format": "hh-sol-artifact-1",
  "contractName": "PoolTracker",
  "sourceName": "contracts/deploy/PoolTracker.sol",
  "abi": [
    {
      "inputs": [
        {
          "internalType": "address",
          "name": "_poolAddressesProviderAddr",
          "type": "address"
        },
        {
          "internalType": "address",
          "name": "_wethGatewayAddr",
          "type": "address"
        },
        {
          "internalType": "address",
          "name": "_multiSig",
          "type": "address"
        }
      ],
      "stateMutability": "nonpayable",
      "type": "constructor"
    },
    {
      "anonymous": false,
      "inputs": [
        {
          "indexed": false,
          "internalType": "address",
          "name": "userAddr",
          "type": "address"
        },
        {
          "indexed": false,
          "internalType": "address",
          "name": "pool",
          "type": "address"
        },
        {
          "indexed": false,
          "internalType": "address",
          "name": "asset",
          "type": "address"
        },
        {
          "indexed": false,
          "internalType": "uint256",
          "name": "amount",
          "type": "uint256"
        }
      ],
      "name": "AddDeposit",
      "type": "event"
    },
    {
      "anonymous": false,
      "inputs": [
        {
          "indexed": false,
          "internalType": "address",
          "name": "pool",
          "type": "address"
        },
        {
          "indexed": false,
          "internalType": "string",
          "name": "name",
          "type": "string"
        },
        {
          "indexed": false,
          "internalType": "address",
          "name": "receiver",
          "type": "address"
        }
      ],
      "name": "AddPool",
      "type": "event"
    },
    {
      "anonymous": false,
      "inputs": [
        {
          "indexed": false,
          "internalType": "address",
          "name": "userAddr",
          "type": "address"
        },
        {
          "indexed": false,
          "internalType": "address",
          "name": "receiver",
          "type": "address"
        },
        {
          "indexed": false,
          "internalType": "address",
          "name": "pool",
          "type": "address"
        },
        {
          "indexed": false,
          "internalType": "address",
          "name": "asset",
          "type": "address"
        },
        {
          "indexed": false,
          "internalType": "uint256",
          "name": "amount",
          "type": "uint256"
        }
      ],
      "name": "Claim",
      "type": "event"
    },
    {
      "anonymous": false,
      "inputs": [
        {
          "indexed": false,
          "internalType": "address",
          "name": "userAddr",
          "type": "address"
        },
        {
          "indexed": false,
          "internalType": "address",
          "name": "pool",
          "type": "address"
        },
        {
          "indexed": false,
          "internalType": "address",
          "name": "asset",
          "type": "address"
        },
        {
          "indexed": false,
          "internalType": "uint256",
          "name": "amount",
          "type": "uint256"
        }
      ],
      "name": "WithdrawDeposit",
      "type": "event"
    },
    {
      "inputs": [
        {
          "internalType": "uint256",
          "name": "_amount",
          "type": "uint256"
        },
        {
          "internalType": "address",
          "name": "_asset",
          "type": "address"
        },
        {
          "internalType": "address",
          "name": "_pool",
          "type": "address"
        },
        {
          "internalType": "bool",
          "name": "_isETH",
          "type": "bool"
        }
      ],
      "name": "addDeposit",
      "outputs": [],
      "stateMutability": "payable",
      "type": "function"
    },
    {
      "inputs": [
        {
          "internalType": "address",
          "name": "_pool",
          "type": "address"
        }
      ],
      "name": "checkPool",
      "outputs": [
        {
          "internalType": "bool",
          "name": "",
          "type": "bool"
        }
      ],
      "stateMutability": "view",
      "type": "function"
    },
    {
      "inputs": [
        {
          "internalType": "address",
          "name": "_asset",
          "type": "address"
        },
        {
          "internalType": "address",
          "name": "_pool",
          "type": "address"
        },
        {
          "internalType": "bool",
          "name": "_isETH",
          "type": "bool"
        }
      ],
      "name": "claimInterest",
      "outputs": [],
      "stateMutability": "nonpayable",
      "type": "function"
    },
    {
      "inputs": [
        {
          "internalType": "address[]",
          "name": "_acceptedTokens",
          "type": "address[]"
        },
        {
          "internalType": "string",
          "name": "_name",
          "type": "string"
        },
        {
          "internalType": "string",
          "name": "_about",
          "type": "string"
        },
        {
          "internalType": "string",
          "name": "_picHash",
          "type": "string"
        },
        {
          "internalType": "string",
          "name": "_metaUri",
          "type": "string"
        },
        {
          "internalType": "address",
          "name": "_receiver",
          "type": "address"
        }
      ],
      "name": "createJCPoolClone",
      "outputs": [],
      "stateMutability": "nonpayable",
      "type": "function"
    },
    {
      "inputs": [
        {
          "internalType": "string",
          "name": "_name",
          "type": "string"
        }
      ],
      "name": "getAddressFromName",
      "outputs": [
        {
          "internalType": "address",
          "name": "",
          "type": "address"
        }
      ],
      "stateMutability": "view",
      "type": "function"
    },
    {
      "inputs": [],
      "name": "getBaseJCPoolAddress",
      "outputs": [
        {
          "internalType": "address",
          "name": "",
          "type": "address"
        }
      ],
      "stateMutability": "view",
      "type": "function"
    },
    {
      "inputs": [],
      "name": "getBpFee",
      "outputs": [
        {
          "internalType": "uint256",
          "name": "",
          "type": "uint256"
        }
      ],
      "stateMutability": "view",
      "type": "function"
    },
    {
      "inputs": [
        {
          "internalType": "address",
          "name": "_user",
          "type": "address"
        }
      ],
      "name": "getContributions",
      "outputs": [
        {
          "internalType": "address[]",
          "name": "",
          "type": "address[]"
        }
      ],
      "stateMutability": "view",
      "type": "function"
    },
    {
      "inputs": [],
      "name": "getDepositorERC721Address",
      "outputs": [
        {
          "internalType": "address",
          "name": "",
          "type": "address"
        }
      ],
      "stateMutability": "view",
      "type": "function"
    },
    {
      "inputs": [],
      "name": "getMultiSig",
      "outputs": [
        {
          "internalType": "address",
          "name": "",
          "type": "address"
        }
      ],
      "stateMutability": "view",
      "type": "function"
    },
    {
      "inputs": [],
      "name": "getPoolAddr",
      "outputs": [
        {
          "internalType": "address",
          "name": "",
          "type": "address"
        }
      ],
      "stateMutability": "view",
      "type": "function"
    },
    {
      "inputs": [
        {
          "internalType": "address",
          "name": "_user",
          "type": "address"
        }
      ],
      "name": "getReceiverPools",
      "outputs": [
        {
          "internalType": "address[]",
          "name": "",
          "type": "address[]"
        }
      ],
      "stateMutability": "view",
      "type": "function"
    },
    {
      "inputs": [],
      "name": "getReservesList",
      "outputs": [
        {
          "internalType": "address[]",
          "name": "",
          "type": "address[]"
        }
      ],
      "stateMutability": "view",
      "type": "function"
    },
    {
      "inputs": [
        {
          "internalType": "address",
          "name": "_asset",
          "type": "address"
        }
      ],
      "name": "getTVL",
      "outputs": [
        {
          "internalType": "uint256",
          "name": "",
          "type": "uint256"
        }
      ],
      "stateMutability": "view",
      "type": "function"
    },
    {
      "inputs": [
        {
          "internalType": "address",
          "name": "_asset",
          "type": "address"
        }
      ],
      "name": "getTotalDonated",
      "outputs": [
        {
          "internalType": "uint256",
          "name": "",
          "type": "uint256"
        }
      ],
      "stateMutability": "view",
      "type": "function"
    },
    {
      "inputs": [],
      "name": "getVerifiedPools",
      "outputs": [
        {
          "internalType": "address[]",
          "name": "",
          "type": "address[]"
        }
      ],
      "stateMutability": "view",
      "type": "function"
    },
    {
      "inputs": [
        {
          "internalType": "address",
          "name": "_pool",
          "type": "address"
        },
        {
          "internalType": "string",
          "name": "_about",
          "type": "string"
        }
      ],
      "name": "setAboutVerified",
      "outputs": [],
      "stateMutability": "nonpayable",
      "type": "function"
    },
    {
      "inputs": [
        {
          "internalType": "uint256",
          "name": "feeKey",
          "type": "uint256"
        }
      ],
      "name": "setBpFee",
      "outputs": [],
      "stateMutability": "nonpayable",
      "type": "function"
    },
    {
      "inputs": [
        {
          "internalType": "uint256",
          "name": "_amount",
          "type": "uint256"
        },
        {
          "internalType": "address",
          "name": "_asset",
          "type": "address"
        },
        {
          "internalType": "address",
          "name": "_pool",
          "type": "address"
        },
        {
          "internalType": "bool",
          "name": "_isETH",
          "type": "bool"
        }
      ],
      "name": "withdrawDeposit",
      "outputs": [],
      "stateMutability": "nonpayable",
      "type": "function"
    }
  ],
  "bytecode": "0x6101206040523480156200001257600080fd5b5060405162007a0e38038062007a0e8339810160408190526200003591620001b8565b60016000556001600160a01b03811660c052604051620000559062000120565b604051809103906000f08015801562000072573d6000803e3d6000fd5b506001600160a01b03166080526040516200008d906200012e565b604051809103906000f080158015620000aa573d6000803e3d6000fd5b506001600160a01b0390811660a090815284821660e09081529184166101005260408051928301815260008352601460208401526032908301526050606083015260646080830152607890820152609660c08201526200010f9060089060076200013c565b5050600954600f5550620002029050565b6129d28062002cd183390190565b61236b80620056a383390190565b826007810192821562000172579160200282015b8281111562000172578251829060ff1690559160200191906001019062000150565b506200018092915062000184565b5090565b5b8082111562000180576000815560010162000185565b80516001600160a01b0381168114620001b357600080fd5b919050565b600080600060608486031215620001ce57600080fd5b620001d9846200019b565b9250620001e9602085016200019b565b9150620001f9604085016200019b565b90509250925092565b60805160a05160c05160e05161010051612a2f620002a2600039600081816105e10152818161075d015261178c01526000818161053e01528181610f3b015281816113f60152818161176b01528181611ad10152611be20152600081816102d70152818161112b015281816112da015281816116d201526119d7015260008181610230015261169f0152600081816102a401526116720152612a2f6000f3fe6080604052600436106101445760003560e01c80638e61514e116100c0578063ba257b5211610074578063d1df6d4d11610059578063d1df6d4d146103c5578063de259242146103fb578063fa12793b1461041057600080fd5b8063ba257b5214610390578063d1946dbc146103b057600080fd5b8063a5530a45116100a5578063a5530a451461033b578063b47dcb661461035b578063b63ae6ee1461037b57600080fd5b80638e61514e146102fb57806390f2bb161461031b57600080fd5b806330b9d2a7116101175780633f19d043116100fc5780633f19d043146102685780635aa388681461029557806366e992e5146102c857600080fd5b806330b9d2a7146101d85780633989a6711461022157600080fd5b806301beb9801461014957806308f52b3c1461016d5780630f40517a146101825780632f28012a146101b8575b600080fd5b34801561015557600080fd5b50600f545b6040519081526020015b60405180910390f35b61018061017b3660046121e7565b610430565b005b34801561018e57600080fd5b5061015a61019d36600461223a565b6001600160a01b031660009081526003602052604090205490565b3480156101c457600080fd5b506101806101d33660046121e7565b610bcb565b3480156101e457600080fd5b506102116101f336600461223a565b6001600160a01b031660009081526001602052604090205460ff1690565b6040519015158152602001610164565b34801561022d57600080fd5b507f00000000000000000000000000000000000000000000000000000000000000005b6040516001600160a01b039091168152602001610164565b34801561027457600080fd5b5061028861028336600461223a565b610e2e565b604051610164919061225e565b3480156102a157600080fd5b507f0000000000000000000000000000000000000000000000000000000000000000610250565b3480156102d457600080fd5b507f0000000000000000000000000000000000000000000000000000000000000000610250565b34801561030757600080fd5b506102506103163660046122f4565b610ea4565b34801561032757600080fd5b50610180610336366004612336565b610ed9565b34801561034757600080fd5b50610180610356366004612381565b6112d8565b34801561036757600080fd5b506101806103763660046124a4565b61136b565b34801561038757600080fd5b50610288611973565b34801561039c57600080fd5b506101806103ab36600461258c565b6119d5565b3480156103bc57600080fd5b50610288611acb565b3480156103d157600080fd5b5061015a6103e036600461223a565b6001600160a01b031660009081526004602052604090205490565b34801561040757600080fd5b50610250611bdd565b34801561041c57600080fd5b5061028861042b36600461223a565b611c77565b6001600160a01b038216600090815260016020526040902054829060ff1661048a5760405162461bcd60e51b81526020600482015260086024820152671b9bdd081c1bdbdb60c21b60448201526064015b60405180910390fd5b610492611ceb565b6001600160a01b038416600090815260036020526040812080548792906104ba9084906125f7565b925050819055506000836001600160a01b031663373d7c3f6040518163ffffffff1660e01b815260040160006040518083038186803b1580156104fc57600080fd5b505afa158015610510573d6000803e3d6000fd5b505050506040513d6000823e601f3d908101601f19168201604052610538919081019061263b565b905060007f00000000000000000000000000000000000000000000000000000000000000006001600160a01b031663026b1d5f6040518163ffffffff1660e01b815260040160206040518083038186803b15801561059557600080fd5b505afa1580156105a9573d6000803e3d6000fd5b505050506040513d601f19601f820116820180604052508101906105cd91906126b2565b905083156107c057856001600160a01b03167f00000000000000000000000000000000000000000000000000000000000000006001600160a01b031663affa88176040518163ffffffff1660e01b815260040160206040518083038186803b15801561063857600080fd5b505afa15801561064c573d6000803e3d6000fd5b505050506040513d601f19601f8201168201806040525081019061067091906126b2565b6001600160a01b0316146106c65760405162461bcd60e51b815260206004820181905260248201527f617373657420646f6573206e6f74206d617463682057455448476174657761796044820152606401610481565b600034116107165760405162461bcd60e51b815260206004820152601860248201527f6d73672e76616c75652063616e6e6f74206265207a65726f00000000000000006044820152606401610481565b6040517f474cf53d0000000000000000000000000000000000000000000000000000000081526001600160a01b0382811660048301528681166024830152600060448301527f0000000000000000000000000000000000000000000000000000000000000000169063474cf53d9034906064016000604051808303818588803b1580156107a257600080fd5b505af11580156107b6573d6000803e3d6000fd5b50505050506109a7565b341561080e5760405162461bcd60e51b815260206004820152601560248201527f6d73672e76616c7565206973206e6f74207a65726f00000000000000000000006044820152606401610481565b604051636eb1769f60e11b8152336004820152306024820152869088906001600160a01b0383169063dd62ed3e9060440160206040518083038186803b15801561085757600080fd5b505afa15801561086b573d6000803e3d6000fd5b505050506040513d601f19601f8201168201806040525081019061088f91906126cf565b10156108dd5760405162461bcd60e51b815260206004820152601360248201527f73656e646572206e6f7420617070726f766564000000000000000000000000006044820152606401610481565b6108f26001600160a01b03821633308b611d45565b6109076001600160a01b038216836000611df6565b61091b6001600160a01b038216838a611df6565b6040517fe8eda9df0000000000000000000000000000000000000000000000000000000081526001600160a01b038281166004830152602482018a905287811660448301526000606483015283169063e8eda9df90608401600060405180830381600087803b15801561098d57600080fd5b505af11580156109a1573d6000803e3d6000fd5b50505050505b6040517f47e7ef240000000000000000000000000000000000000000000000000000000081526001600160a01b038781166004830152602482018990528616906347e7ef2490604401600060405180830381600087803b158015610a0a57600080fd5b505af1158015610a1e573d6000803e3d6000fd5b505050506000856001600160a01b0316627ffb786040518163ffffffff1660e01b815260040160206040518083038186803b158015610a5c57600080fd5b505afa158015610a70573d6000803e3d6000fd5b505050506040513d601f19601f82011682018060405250810190610a9491906126b2565b6001600160a01b03166326a45ffb338a428b886040518663ffffffff1660e01b8152600401610ac7959493929190612714565b602060405180830381600087803b158015610ae157600080fd5b505af1158015610af5573d6000803e3d6000fd5b505050506040513d601f19601f82011682018060405250810190610b199190612757565b90508015610b675733600090815260056020908152604082208054600181018255908352912001805473ffffffffffffffffffffffffffffffffffffffff19166001600160a01b0388161790555b604080513381526001600160a01b038881166020830152891681830152606081018a905290517f20ca885e6c573d69bc931b3787127868f5b90568509fb8d4ff6f7102b8d0cd259181900360800190a1505050610bc46001600055565b5050505050565b6001600160a01b038216600090815260016020526040902054829060ff16610c205760405162461bcd60e51b81526020600482015260086024820152671b9bdd081c1bdbdb60c21b6044820152606401610481565b610c28611ceb565b6001600160a01b03841660009081526003602052604081208054879290610c50908490612774565b92505081905550826001600160a01b0316627ffb786040518163ffffffff1660e01b815260040160206040518083038186803b158015610c8f57600080fd5b505afa158015610ca3573d6000803e3d6000fd5b505050506040513d601f19601f82011682018060405250810190610cc791906126b2565b6040517f47c6b45e000000000000000000000000000000000000000000000000000000008152336004820152602481018790526001600160a01b03868116604483015291909116906347c6b45e90606401600060405180830381600087803b158015610d3257600080fd5b505af1158015610d46573d6000803e3d6000fd5b50506040517f12eeff7e0000000000000000000000000000000000000000000000000000000081526001600160a01b038781166004830152602482018990523360448301528515156064830152861692506312eeff7e9150608401600060405180830381600087803b158015610dbb57600080fd5b505af1158015610dcf573d6000803e3d6000fd5b5050604080513381526001600160a01b0387811660208301528816818301526060810189905290517fa657ed79c074c3489591adb7ba850f38c009bd846e47f2ffe3edc1d06f48a5a49350908190036080019150a1610bc46001600055565b6001600160a01b038116600090815260056020908152604091829020805483518184028101840190945280845260609392830182828015610e9857602002820191906000526020600020905b81546001600160a01b03168152600190910190602001808311610e7a575b50505050509050919050565b600060028383604051610eb892919061278b565b908152604051908190036020019020546001600160a01b0316905092915050565b6001600160a01b038216600090815260016020526040902054829060ff16610f2e5760405162461bcd60e51b81526020600482015260086024820152671b9bdd081c1bdbdb60c21b6044820152606401610481565b610f36611ceb565b8360007f00000000000000000000000000000000000000000000000000000000000000006001600160a01b031663026b1d5f6040518163ffffffff1660e01b815260040160206040518083038186803b158015610f9257600080fd5b505afa158015610fa6573d6000803e3d6000fd5b505050506040513d601f19601f82011682018060405250810190610fca91906126b2565b90506000816001600160a01b031663d1946dbc6040518163ffffffff1660e01b815260040160006040518083038186803b15801561100757600080fd5b505afa15801561101b573d6000803e3d6000fd5b505050506040513d6000823e601f3d908101601f19168201604052611043919081019061279b565b90506000805b82518160ff1610156110a257828160ff168151811061106a5761106a61284d565b60200260200101516001600160a01b0316856001600160a01b0316141561109057600191505b8061109a81612863565b915050611049565b50806110f05760405162461bcd60e51b815260206004820152601260248201527f746f6b656e206e6f7420617070726f76656400000000000000000000000000006044820152606401610481565b600f546040517feda9c2d20000000000000000000000000000000000000000000000000000000081526001600160a01b038a811660048301527f0000000000000000000000000000000000000000000000000000000000000000811660248301528815156044830152606482019290925260009189169063eda9c2d290608401602060405180830381600087803b15801561118a57600080fd5b505af115801561119e573d6000803e3d6000fd5b505050506040513d601f19601f820116820180604052508101906111c291906126cf565b6001600160a01b038a166000908152600460205260408120805492935083929091906111ef9084906125f7565b925050819055507f7276c0285f260d667df9ded71ca6a988145d36de1d14252710532b9de5f089fe33896001600160a01b0316631b88094d6040518163ffffffff1660e01b815260040160206040518083038186803b15801561125157600080fd5b505afa158015611265573d6000803e3d6000fd5b505050506040513d601f19601f8201168201806040525081019061128991906126b2565b604080516001600160a01b0393841681529183166020830152828c1690820152908b1660608201526080810183905260a00160405180910390a150505050506112d26001600055565b50505050565b7f00000000000000000000000000000000000000000000000000000000000000006001600160a01b031633146113505760405162461bcd60e51b815260206004820152601060248201527f6e6f7420746865206d756c7469536967000000000000000000000000000000006044820152606401610481565b600881600781106113635761136361284d565b0154600f5550565b868680806020026020016040519081016040528093929190818152602001838360200280828437600092019190915250508251600a101591506113f290505760405162461bcd60e51b815260206004820152601d60248201527f746f6b656e206c697374206d757374206265203130206f72206c6573730000006044820152606401610481565b60007f00000000000000000000000000000000000000000000000000000000000000006001600160a01b031663026b1d5f6040518163ffffffff1660e01b815260040160206040518083038186803b15801561144d57600080fd5b505afa158015611461573d6000803e3d6000fd5b505050506040513d601f19601f8201168201806040525081019061148591906126b2565b90506000816001600160a01b031663d1946dbc6040518163ffffffff1660e01b815260040160006040518083038186803b1580156114c257600080fd5b505afa1580156114d6573d6000803e3d6000fd5b505050506040513d6000823e601f3d908101601f191682016040526114fe919081019061279b565b905060005b83518160ff1610156115e9576000805b83518160ff16101561158857838160ff16815181106115345761153461284d565b60200260200101516001600160a01b0316868460ff168151811061155a5761155a61284d565b60200260200101516001600160a01b0316141561157657600191505b8061158081612863565b915050611513565b50806115d65760405162461bcd60e51b815260206004820152601360248201527f746f6b656e73206e6f7420617070726f766564000000000000000000000000006044820152606401610481565b50806115e181612863565b915050611503565b5060006001600160a01b03166002896040516116059190612883565b908152604051908190036020019020546001600160a01b03161461166b5760405162461bcd60e51b815260206004820152601d60248201527f706f6f6c2077697468206e616d6520616c7265616479206578697374730000006044820152606401610481565b60006116967f0000000000000000000000000000000000000000000000000000000000000000611f3f565b905060006116c37f0000000000000000000000000000000000000000000000000000000000000000611f3f565b90506000336001600160a01b037f0000000000000000000000000000000000000000000000000000000000000000161415611753575060078054600180820183556000929092527fa66cc928b5edb82af9bd49922954155ab7b0942694bea4ce44661d9a8736c68801805473ffffffffffffffffffffffffffffffffffffffff19166001600160a01b0385161790555b826001600160a01b031663bbc41f488e8e8e8e8e8e8e7f00000000000000000000000000000000000000000000000000000000000000007f00000000000000000000000000000000000000000000000000000000000000008c8c6040518c63ffffffff1660e01b81526004016117d39b9a9998979695949392919061289f565b600060405180830381600087803b1580156117ed57600080fd5b505af1158015611801573d6000803e3d6000fd5b50506040517fc4d66de80000000000000000000000000000000000000000000000000000000081526001600160a01b0386811660048301528516925063c4d66de89150602401600060405180830381600087803b15801561186157600080fd5b505af1158015611875573d6000803e3d6000fd5b505050506001600160a01b03878116600090815260066020908152604080832080546001810182559084529190922001805473ffffffffffffffffffffffffffffffffffffffff1916928616929092179091555183906002906118d9908e90612883565b9081526040805160209281900383018120805473ffffffffffffffffffffffffffffffffffffffff19166001600160a01b03958616179055928616600090815260019283905220805460ff191690911790557f373adb264e07592e89e672b780912566106b06a5f7a7787e63a47ca627e915af9061195c9085908e908b90612994565b60405180910390a150505050505050505050505050565b606060078054806020026020016040519081016040528092919081815260200182805480156119cb57602002820191906000526020600020905b81546001600160a01b031681526001909101906020018083116119ad575b5050505050905090565b7f00000000000000000000000000000000000000000000000000000000000000006001600160a01b03163314611a4d5760405162461bcd60e51b815260206004820152601060248201527f6e6f7420746865206d756c7469536967000000000000000000000000000000006044820152606401610481565b6040517fd04d566a0000000000000000000000000000000000000000000000000000000081526001600160a01b0384169063d04d566a90611a9490859085906004016129ca565b600060405180830381600087803b158015611aae57600080fd5b505af1158015611ac2573d6000803e3d6000fd5b50505050505050565b606060007f00000000000000000000000000000000000000000000000000000000000000006001600160a01b031663026b1d5f6040518163ffffffff1660e01b815260040160206040518083038186803b158015611b2857600080fd5b505afa158015611b3c573d6000803e3d6000fd5b505050506040513d601f19601f82011682018060405250810190611b6091906126b2565b9050806001600160a01b031663d1946dbc6040518163ffffffff1660e01b815260040160006040518083038186803b158015611b9b57600080fd5b505afa158015611baf573d6000803e3d6000fd5b505050506040513d6000823e601f3d908101601f19168201604052611bd7919081019061279b565b91505090565b6000807f00000000000000000000000000000000000000000000000000000000000000006001600160a01b031663026b1d5f6040518163ffffffff1660e01b815260040160206040518083038186803b158015611c3957600080fd5b505afa158015611c4d573d6000803e3d6000fd5b505050506040513d601f19601f82011682018060405250810190611c7191906126b2565b92915050565b6001600160a01b038116600090815260066020908152604091829020805483518184028101840190945280845260609392830182828015610e98576020028201919060005260206000209081546001600160a01b03168152600190910190602001808311610e7a5750505050509050919050565b60026000541415611d3e5760405162461bcd60e51b815260206004820152601f60248201527f5265656e7472616e637947756172643a207265656e7472616e742063616c6c006044820152606401610481565b6002600055565b6040516001600160a01b03808516602483015283166044820152606481018290526112d29085907f23b872dd00000000000000000000000000000000000000000000000000000000906084015b60408051601f198184030181529190526020810180517bffffffffffffffffffffffffffffffffffffffffffffffffffffffff167fffffffff0000000000000000000000000000000000000000000000000000000090931692909217909152611fe0565b801580611e7f5750604051636eb1769f60e11b81523060048201526001600160a01b03838116602483015284169063dd62ed3e9060440160206040518083038186803b158015611e4557600080fd5b505afa158015611e59573d6000803e3d6000fd5b505050506040513d601f19601f82011682018060405250810190611e7d91906126cf565b155b611ef15760405162461bcd60e51b815260206004820152603660248201527f5361666545524332303a20617070726f76652066726f6d206e6f6e2d7a65726f60448201527f20746f206e6f6e2d7a65726f20616c6c6f77616e6365000000000000000000006064820152608401610481565b6040516001600160a01b038316602482015260448101829052611f3a9084907f095ea7b30000000000000000000000000000000000000000000000000000000090606401611d92565b505050565b6000763d602d80600a3d3981f3363d3d373d3d3d363d730000008260601b60e81c176000526e5af43d82803e903d91602b57fd5bf38260781b17602052603760096000f090506001600160a01b038116611fdb5760405162461bcd60e51b815260206004820152601660248201527f455243313136373a20637265617465206661696c6564000000000000000000006044820152606401610481565b919050565b611ff2826001600160a01b031661217a565b61203e5760405162461bcd60e51b815260206004820152601f60248201527f5361666545524332303a2063616c6c20746f206e6f6e2d636f6e7472616374006044820152606401610481565b600080836001600160a01b0316836040516120599190612883565b6000604051808303816000865af19150503d8060008114612096576040519150601f19603f3d011682016040523d82523d6000602084013e61209b565b606091505b5091509150816120ed5760405162461bcd60e51b815260206004820181905260248201527f5361666545524332303a206c6f772d6c6576656c2063616c6c206661696c65646044820152606401610481565b8051156112d257808060200190518101906121089190612757565b6112d25760405162461bcd60e51b815260206004820152602a60248201527f5361666545524332303a204552433230206f7065726174696f6e20646964206e60448201527f6f742073756363656564000000000000000000000000000000000000000000006064820152608401610481565b6000813f7fc5d2460186f7233c927e7db2dcc703c0e500b653ca82273b7bfad8045d85a4708181148015906121ae57508115155b949350505050565b6001600160a01b03811681146121cb57600080fd5b50565b8035611fdb816121b6565b80151581146121cb57600080fd5b600080600080608085870312156121fd57600080fd5b84359350602085013561220f816121b6565b9250604085013561221f816121b6565b9150606085013561222f816121d9565b939692955090935050565b60006020828403121561224c57600080fd5b8135612257816121b6565b9392505050565b6020808252825182820181905260009190848201906040850190845b8181101561229f5783516001600160a01b03168352928401929184019160010161227a565b50909695505050505050565b60008083601f8401126122bd57600080fd5b50813567ffffffffffffffff8111156122d557600080fd5b6020830191508360208285010111156122ed57600080fd5b9250929050565b6000806020838503121561230757600080fd5b823567ffffffffffffffff81111561231e57600080fd5b61232a858286016122ab565b90969095509350505050565b60008060006060848603121561234b57600080fd5b8335612356816121b6565b92506020840135612366816121b6565b91506040840135612376816121d9565b809150509250925092565b60006020828403121561239357600080fd5b5035919050565b60008083601f8401126123ac57600080fd5b50813567ffffffffffffffff8111156123c457600080fd5b6020830191508360208260051b85010111156122ed57600080fd5b634e487b7160e01b600052604160045260246000fd5b604051601f8201601f1916810167ffffffffffffffff8111828210171561241e5761241e6123df565b604052919050565b600067ffffffffffffffff821115612440576124406123df565b50601f01601f191660200190565b600082601f83011261245f57600080fd5b813561247261246d82612426565b6123f5565b81815284602083860101111561248757600080fd5b816020850160208301376000918101602001919091529392505050565b600080600080600080600060c0888a0312156124bf57600080fd5b873567ffffffffffffffff808211156124d757600080fd5b6124e38b838c0161239a565b909950975060208a01359150808211156124fc57600080fd5b6125088b838c0161244e565b965060408a013591508082111561251e57600080fd5b61252a8b838c0161244e565b955060608a013591508082111561254057600080fd5b61254c8b838c0161244e565b945060808a013591508082111561256257600080fd5b5061256f8a828b0161244e565b92505061257e60a089016121ce565b905092959891949750929550565b6000806000604084860312156125a157600080fd5b83356125ac816121b6565b9250602084013567ffffffffffffffff8111156125c857600080fd5b6125d4868287016122ab565b9497909650939450505050565b634e487b7160e01b600052601160045260246000fd5b6000821982111561260a5761260a6125e1565b500190565b60005b8381101561262a578181015183820152602001612612565b838111156112d25750506000910152565b60006020828403121561264d57600080fd5b815167ffffffffffffffff81111561266457600080fd5b8201601f8101841361267557600080fd5b805161268361246d82612426565b81815285602083850101111561269857600080fd5b6126a982602083016020860161260f565b95945050505050565b6000602082840312156126c457600080fd5b8151612257816121b6565b6000602082840312156126e157600080fd5b5051919050565b6000815180845261270081602086016020860161260f565b601f01601f19169290920160200192915050565b60006001600160a01b03808816835286602084015285604084015280851660608401525060a0608083015261274c60a08301846126e8565b979650505050505050565b60006020828403121561276957600080fd5b8151612257816121d9565b600082821015612786576127866125e1565b500390565b8183823760009101908152919050565b600060208083850312156127ae57600080fd5b825167ffffffffffffffff808211156127c657600080fd5b818501915085601f8301126127da57600080fd5b8151818111156127ec576127ec6123df565b8060051b91506127fd8483016123f5565b818152918301840191848101908884111561281757600080fd5b938501935b838510156128415784519250612831836121b6565b828252938501939085019061281c565b98975050505050505050565b634e487b7160e01b600052603260045260246000fd5b600060ff821660ff81141561287a5761287a6125e1565b60010192915050565b6000825161289581846020870161260f565b9190910192915050565b61014080825281018b9052600061016082018d825b8e8110156128e55781356128c7816121b6565b6001600160a01b0316835260209283019291909101906001016128b4565b505082810360208401526128f9818d6126e8565b9050828103604084015261290d818c6126e8565b90508281036060840152612921818b6126e8565b90508281036080840152612935818a6126e8565b91505061294d60a08301886001600160a01b03169052565b6001600160a01b03861660c08301526001600160a01b03851660e08301526001600160a01b0384166101008301528215156101208301529c9b505050505050505050505050565b60006001600160a01b038086168352606060208401526129b760608401866126e8565b9150808416604084015250949350505050565b60208152816020820152818360408301376000818301604090810191909152601f909201601f1916010191905056fea2646970667358221220ca46eed5d6ee848121875236d507a16d14b285094d6b05ded328a4bb321df1e664736f6c63430008090033608060405234801561001057600080fd5b506003805460ff191660011790556129a58061002d6000396000f3fe608060405234801561001057600080fd5b506004361061018c5760003560e01c8063373d7c3f116100e35780638aebe8d61161008c578063d0e7a76e11610066578063d0e7a76e1461038a578063d15e00531461039d578063eda9c2d2146103b057600080fd5b80638aebe8d614610351578063bbc41f4814610364578063d04d566a1461037757600080fd5b806360246c88116100bd57806360246c88146102d257806367e0e076146102ed578063711cc0051461033e57600080fd5b8063373d7c3f1461028e57806347e7ef24146102965780635ff189b9146102a957600080fd5b806317d7de7c11610145578063343d693b1161011f578063343d693b1461025d578063357286d7146102655780633735ef881461027b57600080fd5b806317d7de7c1461022f5780631b88094d146102375780632f7570061461024857600080fd5b80630712f6b3116101765780630712f6b3146101f257806312eeff7e14610205578063155d8e9c1461021a57600080fd5b80627ffb78146101915780630251cfa1146101bb575b600080fd5b6005546001600160a01b03165b6040516001600160a01b0390911681526020015b60405180910390f35b6101e46101c9366004612149565b6001600160a01b031660009081526001602052604090205490565b6040519081526020016101b2565b6101e4610200366004612149565b6103c3565b61021861021336600461217f565b610451565b005b610222610798565b6040516101b2919061222a565b61022261082a565b6007546001600160a01b031661019e565b610250610839565b6040516101b29190612281565b61022261089a565b600d5460ff1660405190151581526020016101b2565b6101e4610289366004612149565b6108a9565b610222610960565b6102186102a4366004612294565b61096f565b6101e46102b7366004612149565b6001600160a01b031660009081526002602052604090205490565b6102da610a9c565b6040516101b297969594939291906122c0565b6103006102fb366004612149565b610d7a565b604080519788526020880196909652948601939093526060850191909152608084015260a08301526001600160a01b031660c082015260e0016101b2565b61019e61034c366004612149565b610dfb565b6101e461035f366004612149565b610f0e565b61021861037236600461245f565b611032565b61021861038536600461258f565b61139e565b61021861039836600461258f565b61142b565b6101e46103ab366004612149565b6114b3565b6101e46103be366004612601565b611587565b6000806103cf83610dfb565b6040516370a0823160e01b81523060048201529091506001600160a01b038216906370a08231906024015b60206040518083038186803b15801561041257600080fd5b505afa158015610426573d6000803e3d6000fd5b505050506040513d601f19601f8201168201806040525081019061044a9190612652565b9392505050565b6008546001600160a01b031633146104a05760405162461bcd60e51b815260206004820152600d60248201526c3737ba103a34329037bbb732b960991b60448201526064015b60405180910390fd5b6000600360019054906101000a90046001600160a01b03166001600160a01b031663026b1d5f6040518163ffffffff1660e01b815260040160206040518083038186803b1580156104f057600080fd5b505afa158015610504573d6000803e3d6000fd5b505050506040513d601f19601f820116820180604052508101906105289190612676565b6001600160a01b0386166000908152600160205260408120805492935086929091906105559084906126a9565b909155508290506105f057604051631a4ca37b60e21b81526001600160a01b0386811660048301526024820186905284811660448301528216906369328dec90606401602060405180830381600087803b1580156105b257600080fd5b505af11580156105c6573d6000803e3d6000fd5b505050506040513d601f19601f820116820180604052508101906105ea9190612652565b50610791565b6000600460009054906101000a90046001600160a01b03166001600160a01b031663affa88176040518163ffffffff1660e01b815260040160206040518083038186803b15801561064057600080fd5b505afa158015610654573d6000803e3d6000fd5b505050506040513d601f19601f820116820180604052508101906106789190612676565b9050856001600160a01b0316816001600160a01b0316146106db5760405162461bcd60e51b815260206004820181905260248201527f617373657420646f6573206e6f74206d617463682057455448476174657761796044820152606401610497565b60006106e682610dfb565b600454909150610704906001600160a01b0380841691166000611bd3565b60045461071e906001600160a01b03838116911688611bd3565b60048054604051630402806960e51b81526001600160a01b03868116938201939093526024810189905287831660448201529116906380500d2090606401600060405180830381600087803b15801561077657600080fd5b505af115801561078a573d6000803e3d6000fd5b5050505050505b5050505050565b6060600b80546107a7906126c0565b80601f01602080910402602001604051908101604052809291908181526020018280546107d3906126c0565b80156108205780601f106107f557610100808354040283529160200191610820565b820191906000526020600020905b81548152906001019060200180831161080357829003601f168201915b5050505050905090565b6060600980546107a7906126c0565b6060600680548060200260200160405190810160405280929190818152602001828054801561082057602002820191906000526020600020905b81546001600160a01b03168152600190910190602001808311610873575050505050905090565b6060600a80546107a7906126c0565b6000806108b583610dfb565b6040516370a0823160e01b81523060048201529091506000906001600160a01b038316906370a082319060240160206040518083038186803b1580156108fa57600080fd5b505afa15801561090e573d6000803e3d6000fd5b505050506040513d601f19601f820116820180604052508101906109329190612652565b6001600160a01b03851660009081526001602052604090205490915061095890826126a9565b949350505050565b6060600c80546107a7906126c0565b6008546001600160a01b031633146109b95760405162461bcd60e51b815260206004820152600d60248201526c3737ba103a34329037bbb732b960991b6044820152606401610497565b816000805b60065460ff82161015610a1b5760068160ff16815481106109e1576109e16126fb565b6000918252602090912001546001600160a01b0384811691161415610a095760019150610a1b565b80610a1381612711565b9150506109be565b5080610a695760405162461bcd60e51b815260206004820152601c60248201527f746f6b656e206e6f74206163636570746564206279206a63706f6f6c000000006044820152606401610497565b6001600160a01b03841660009081526001602052604081208054859290610a91908490612731565b909155505050505050565b60606000806060806060806006600760009054906101000a90046001600160a01b0316600d60009054906101000a900460ff16600c600b600a600986805480602002602001604051908101604052809291908181526020018280548015610b2c57602002820191906000526020600020905b81546001600160a01b03168152600190910190602001808311610b0e575b50505050509650838054610b3f906126c0565b80601f0160208091040260200160405190810160405280929190818152602001828054610b6b906126c0565b8015610bb85780601f10610b8d57610100808354040283529160200191610bb8565b820191906000526020600020905b815481529060010190602001808311610b9b57829003601f168201915b50505050509350828054610bcb906126c0565b80601f0160208091040260200160405190810160405280929190818152602001828054610bf7906126c0565b8015610c445780601f10610c1957610100808354040283529160200191610c44565b820191906000526020600020905b815481529060010190602001808311610c2757829003601f168201915b50505050509250818054610c57906126c0565b80601f0160208091040260200160405190810160405280929190818152602001828054610c83906126c0565b8015610cd05780601f10610ca557610100808354040283529160200191610cd0565b820191906000526020600020905b815481529060010190602001808311610cb357829003601f168201915b50505050509150808054610ce3906126c0565b80601f0160208091040260200160405190810160405280929190818152602001828054610d0f906126c0565b8015610d5c5780601f10610d3157610100808354040283529160200191610d5c565b820191906000526020600020905b815481529060010190602001808311610d3f57829003601f168201915b50505050509050965096509650965096509650965090919293949596565b6000806000806000806000610d8e88610f0e565b610d97896114b3565b610da08a6103c3565b6001600160a01b038b16600090815260026020526040902054610dc28c6108a9565b6001600160a01b038d16600090815260016020526040902054610de48e610dfb565b959e949d50929b5090995097509550909350915050565b600080600360019054906101000a90046001600160a01b03166001600160a01b031663026b1d5f6040518163ffffffff1660e01b815260040160206040518083038186803b158015610e4c57600080fd5b505afa158015610e60573d6000803e3d6000fd5b505050506040513d601f19601f82011682018060405250810190610e849190612676565b6040516335ea6a7560e01b81526001600160a01b038581166004830152919250908216906335ea6a75906024016101e06040518083038186803b158015610eca57600080fd5b505afa158015610ede573d6000803e3d6000fd5b505050506040513d601f19601f82011682018060405250810190610f0291906127d2565b61010001519392505050565b600080600360019054906101000a90046001600160a01b03166001600160a01b031663026b1d5f6040518163ffffffff1660e01b815260040160206040518083038186803b158015610f5f57600080fd5b505afa158015610f73573d6000803e3d6000fd5b505050506040513d601f19601f82011682018060405250810190610f979190612676565b6040516335ea6a7560e01b81526001600160a01b038581166004830152919250908216906335ea6a75906024016101e06040518083038186803b158015610fdd57600080fd5b505afa158015610ff1573d6000803e3d6000fd5b505050506040513d601f19601f8201168201806040525081019061101591906127d2565b602001516fffffffffffffffffffffffffffffffff169392505050565b88518990603c90829082101561108a5760405162461bcd60e51b815260206004820152601b60248201527f737472696e67206f76657220636861726163746572206c696d697400000000006044820152606401610497565b600054610100900460ff16158080156110aa5750600054600160ff909116105b806110c45750303b1580156110c4575060005460ff166001145b6111365760405162461bcd60e51b815260206004820152602e60248201527f496e697469616c697a61626c653a20636f6e747261637420697320616c72656160448201527f647920696e697469616c697a65640000000000000000000000000000000000006064820152608401610497565b6000805460ff191660011790558015611159576000805461ff0019166101001790555b60035460ff16156111ac5760405162461bcd60e51b815260206004820152601660248201527f43616e6e6f7420696e697469616c697a652062617365000000000000000000006044820152606401610497565b6007546001600160a01b0316156112055760405162461bcd60e51b815260206004820152601960248201527f496e697469616c697a6520616c72656164792063616c6c6564000000000000006044820152606401610497565b88600760006101000a8154816001600160a01b0302191690836001600160a01b0316021790555033600860006101000a8154816001600160a01b0302191690836001600160a01b031602179055508c60099080519060200190611269929190611fa9565b508b5161127d90600a9060208f0190611fa9565b508a5161129190600b9060208e0190611fa9565b5089516112a590600c9060208d0190611fa9565b5084600d60006101000a81548160ff02191690831515021790555087600360016101000a8154816001600160a01b0302191690836001600160a01b0316021790555086600460006101000a8154816001600160a01b0302191690836001600160a01b0316021790555085600560006101000a8154816001600160a01b0302191690836001600160a01b031602179055508e8e6006919061134692919061202d565b50801561138d576000805461ff0019169055604051600181527f7f26b83ff96e1f2b6a682f133852f6798a09c465da95921460cefb38474024989060200160405180910390a15b505050505050505050505050505050565b6007546001600160a01b03163314806113ce5750600d5460ff1680156113ce57506008546001600160a01b031633145b61141a5760405162461bcd60e51b815260206004820152600e60248201527f6e6f7420617574686f72697a65640000000000000000000000000000000000006044820152606401610497565b611426600a8383612098565b505050565b6007546001600160a01b031633148061145b5750600d5460ff16801561145b57506008546001600160a01b031633145b6114a75760405162461bcd60e51b815260206004820152600e60248201527f6e6f7420617574686f72697a65640000000000000000000000000000000000006044820152606401610497565b611426600c8383612098565b600080600360019054906101000a90046001600160a01b03166001600160a01b031663026b1d5f6040518163ffffffff1660e01b815260040160206040518083038186803b15801561150457600080fd5b505afa158015611518573d6000803e3d6000fd5b505050506040513d601f19601f8201168201806040525081019061153c9190612676565b6040517fd15e00530000000000000000000000000000000000000000000000000000000081526001600160a01b0385811660048301529192509082169063d15e0053906024016103fa565b6008546000906001600160a01b031633146115d45760405162461bcd60e51b815260206004820152600d60248201526c3737ba103a34329037bbb732b960991b6044820152606401610497565b60006115df86610dfb565b6040516370a0823160e01b81523060048201529091506000906001600160a01b038316906370a082319060240160206040518083038186803b15801561162457600080fd5b505afa158015611638573d6000803e3d6000fd5b505050506040513d601f19601f8201168201806040525081019061165c9190612652565b6001600160a01b0388166000908152600160205260408120549192509061168390836126a9565b6001600160a01b0389166000908152600260205260408120805492935083929091906116b0908490612731565b9250508190555060008190506000600360019054906101000a90046001600160a01b03166001600160a01b031663026b1d5f6040518163ffffffff1660e01b815260040160206040518083038186803b15801561170c57600080fd5b505afa158015611720573d6000803e3d6000fd5b505050506040513d601f19601f820116820180604052508101906117449190612676565b90508761192357866117e457600754604051631a4ca37b60e21b81526001600160a01b038c81166004830152602482018690529182166044820152908216906369328dec90606401602060405180830381600087803b1580156117a657600080fd5b505af11580156117ba573d6000803e3d6000fd5b505050506040513d601f19601f820116820180604052508101906117de9190612652565b50611bc6565b60006117f08489611d67565b905060006117fe82866126a9565b600754604051631a4ca37b60e21b81526001600160a01b038f811660048301526024820184905291821660448201529192508416906369328dec90606401602060405180830381600087803b15801561185657600080fd5b505af115801561186a573d6000803e3d6000fd5b505050506040513d601f19601f8201168201806040525081019061188e9190612652565b50604051631a4ca37b60e21b81526001600160a01b038d81166004830152602482018490528c811660448301528416906369328dec90606401602060405180830381600087803b1580156118e157600080fd5b505af11580156118f5573d6000803e3d6000fd5b505050506040513d601f19601f820116820180604052508101906119199190612652565b509250611bc69050565b60048054604080517faffa881700000000000000000000000000000000000000000000000000000000815290516001600160a01b03808f169493169263affa881792808201926020929091829003018186803b15801561198257600080fd5b505afa158015611996573d6000803e3d6000fd5b505050506040513d601f19601f820116820180604052508101906119ba9190612676565b6001600160a01b031614611a105760405162461bcd60e51b815260206004820181905260248201527f617373657420646f6573206e6f74206d617463682057455448476174657761796044820152606401610497565b600454611a2b906001600160a01b0387811691166000611bd3565b600454611a45906001600160a01b03878116911685611bd3565b86611ac25760048054600754604051630402806960e51b81526001600160a01b03858116948201949094526024810187905290831660448201529116906380500d2090606401600060405180830381600087803b158015611aa557600080fd5b505af1158015611ab9573d6000803e3d6000fd5b50505050611bc6565b6000611ace8489611d67565b90506000611adc82866126a9565b60048054600754604051630402806960e51b81526001600160a01b038881169482019490945260248101859052908316604482015292935016906380500d2090606401600060405180830381600087803b158015611b3957600080fd5b505af1158015611b4d573d6000803e3d6000fd5b505060048054604051630402806960e51b81526001600160a01b0388811693820193909352602481018790528f83166044820152911692506380500d209150606401600060405180830381600087803b158015611ba957600080fd5b505af1158015611bbd573d6000803e3d6000fd5b50929550505050505b5098975050505050505050565b801580611c7557506040517fdd62ed3e0000000000000000000000000000000000000000000000000000000081523060048201526001600160a01b03838116602483015284169063dd62ed3e9060440160206040518083038186803b158015611c3b57600080fd5b505afa158015611c4f573d6000803e3d6000fd5b505050506040513d601f19601f82011682018060405250810190611c739190612652565b155b611ce75760405162461bcd60e51b815260206004820152603660248201527f5361666545524332303a20617070726f76652066726f6d206e6f6e2d7a65726f60448201527f20746f206e6f6e2d7a65726f20616c6c6f77616e6365000000000000000000006064820152608401610497565b604080516001600160a01b038416602482015260448082018490528251808303909101815260649091019091526020810180517bffffffffffffffffffffffffffffffffffffffffffffffffffffffff167f095ea7b300000000000000000000000000000000000000000000000000000000179052611426908490611dd0565b600080612710611d7784866128f5565b611d819190612914565b90508061044a5760405162461bcd60e51b815260206004820152601960248201527f6e6f7420656e6f7567682066756e647320746f20636c61696d000000000000006044820152606401610497565b611de2826001600160a01b0316611f70565b611e2e5760405162461bcd60e51b815260206004820152601f60248201527f5361666545524332303a2063616c6c20746f206e6f6e2d636f6e7472616374006044820152606401610497565b600080836001600160a01b031683604051611e499190612936565b6000604051808303816000865af19150503d8060008114611e86576040519150601f19603f3d011682016040523d82523d6000602084013e611e8b565b606091505b509150915081611edd5760405162461bcd60e51b815260206004820181905260248201527f5361666545524332303a206c6f772d6c6576656c2063616c6c206661696c65646044820152606401610497565b805115611f6a5780806020019051810190611ef89190612952565b611f6a5760405162461bcd60e51b815260206004820152602a60248201527f5361666545524332303a204552433230206f7065726174696f6e20646964206e60448201527f6f742073756363656564000000000000000000000000000000000000000000006064820152608401610497565b50505050565b6000813f7fc5d2460186f7233c927e7db2dcc703c0e500b653ca82273b7bfad8045d85a470818114801590610958575050151592915050565b828054611fb5906126c0565b90600052602060002090601f016020900481019282611fd7576000855561201d565b82601f10611ff057805160ff191683800117855561201d565b8280016001018555821561201d579182015b8281111561201d578251825591602001919060010190612002565b5061202992915061210c565b5090565b82805482825590600052602060002090810192821561201d579160200282015b8281111561201d5781547fffffffffffffffffffffffff0000000000000000000000000000000000000000166001600160a01b0384351617825560209092019160019091019061204d565b8280546120a4906126c0565b90600052602060002090601f0160209004810192826120c6576000855561201d565b82601f106120df5782800160ff1982351617855561201d565b8280016001018555821561201d579182015b8281111561201d5782358255916020019190600101906120f1565b5b80821115612029576000815560010161210d565b6001600160a01b038116811461213657600080fd5b50565b803561214481612121565b919050565b60006020828403121561215b57600080fd5b813561044a81612121565b801515811461213657600080fd5b803561214481612166565b6000806000806080858703121561219557600080fd5b84356121a081612121565b93506020850135925060408501356121b781612121565b915060608501356121c781612166565b939692955090935050565b60005b838110156121ed5781810151838201526020016121d5565b83811115611f6a5750506000910152565b600081518084526122168160208601602086016121d2565b601f01601f19169290920160200192915050565b60208152600061044a60208301846121fe565b600081518084526020808501945080840160005b838110156122765781516001600160a01b031687529582019590820190600101612251565b509495945050505050565b60208152600061044a602083018461223d565b600080604083850312156122a757600080fd5b82356122b281612121565b946020939093013593505050565b60e0815260006122d360e083018a61223d565b6001600160a01b0389166020840152871515604084015282810360608401526122fc81886121fe565b9050828103608084015261231081876121fe565b905082810360a084015261232481866121fe565b905082810360c084015261233881856121fe565b9a9950505050505050505050565b60008083601f84011261235857600080fd5b50813567ffffffffffffffff81111561237057600080fd5b6020830191508360208260051b850101111561238b57600080fd5b9250929050565b634e487b7160e01b600052604160045260246000fd5b6040516101e0810167ffffffffffffffff811182821017156123cc576123cc612392565b60405290565b600082601f8301126123e357600080fd5b813567ffffffffffffffff808211156123fe576123fe612392565b604051601f8301601f19908116603f0116810190828211818310171561242657612426612392565b8160405283815286602085880101111561243f57600080fd5b836020870160208301376000602085830101528094505050505092915050565b60008060008060008060008060008060006101408c8e03121561248157600080fd5b67ffffffffffffffff808d35111561249857600080fd5b6124a58e8e358f01612346565b909c509a5060208d01358110156124bb57600080fd5b6124cb8e60208f01358f016123d2565b99508060408e013511156124de57600080fd5b6124ee8e60408f01358f016123d2565b98508060608e0135111561250157600080fd5b6125118e60608f01358f016123d2565b97508060808e0135111561252457600080fd5b506125358d60808e01358e016123d2565b955061254360a08d01612139565b945061255160c08d01612139565b935061255f60e08d01612139565b925061256e6101008d01612139565b915061257d6101208d01612174565b90509295989b509295989b9093969950565b600080602083850312156125a257600080fd5b823567ffffffffffffffff808211156125ba57600080fd5b818501915085601f8301126125ce57600080fd5b8135818111156125dd57600080fd5b8660208285010111156125ef57600080fd5b60209290920196919550909350505050565b6000806000806080858703121561261757600080fd5b843561262281612121565b9350602085013561263281612121565b9250604085013561264281612166565b9396929550929360600135925050565b60006020828403121561266457600080fd5b5051919050565b805161214481612121565b60006020828403121561268857600080fd5b815161044a81612121565b634e487b7160e01b600052601160045260246000fd5b6000828210156126bb576126bb612693565b500390565b600181811c908216806126d457607f821691505b602082108114156126f557634e487b7160e01b600052602260045260246000fd5b50919050565b634e487b7160e01b600052603260045260246000fd5b600060ff821660ff81141561272857612728612693565b60010192915050565b6000821982111561274457612744612693565b500190565b60006020828403121561275b57600080fd5b6040516020810181811067ffffffffffffffff8211171561277e5761277e612392565b6040529151825250919050565b80516fffffffffffffffffffffffffffffffff8116811461214457600080fd5b805164ffffffffff8116811461214457600080fd5b805161ffff8116811461214457600080fd5b60006101e082840312156127e557600080fd5b6127ed6123a8565b6127f78484612749565b81526128056020840161278b565b60208201526128166040840161278b565b60408201526128276060840161278b565b60608201526128386080840161278b565b608082015261284960a0840161278b565b60a082015261285a60c084016127ab565b60c082015261286b60e084016127c0565b60e082015261010061287e81850161266b565b9082015261012061289084820161266b565b908201526101406128a284820161266b565b908201526101606128b484820161266b565b908201526101806128c684820161278b565b908201526101a06128d884820161278b565b908201526101c06128ea84820161278b565b908201529392505050565b600081600019048311821515161561290f5761290f612693565b500290565b60008261293157634e487b7160e01b600052601260045260246000fd5b500490565b600082516129488184602087016121d2565b9190910192915050565b60006020828403121561296457600080fd5b815161044a8161216656fea26469706673582212209517f7ba6fbb20fe0c88a0bfb80bbd1829a8902defb972827035591acf40db5264736f6c63430008090033608060405234801561001057600080fd5b5061234b806100206000396000f3fe608060405234801561001057600080fd5b506004361061016c5760003560e01c8063519dc8d2116100cd578063a22cb46511610081578063c4d66de811610066578063c4d66de814610327578063c87b56dd1461033a578063e985e9c51461034d57600080fd5b8063a22cb46514610301578063b88d4fde1461031457600080fd5b80636352211e116100b25780636352211e146102d357806370a08231146102e657806395d89b41146102f957600080fd5b8063519dc8d2146102755780635328c2bf1461029557600080fd5b806323b872dd116101245780632e0c3f3c116101095780632e0c3f3c1461022157806342842e0e1461024f57806347c6b45e1461026257600080fd5b806323b872dd146101fb57806326a45ffb1461020e57600080fd5b806306fdde031161015557806306fdde03146101be578063081812fc146101d3578063095ea7b3146101e657600080fd5b806301ffc9a714610171578063026b1d5f14610199575b600080fd5b61018461017f366004611d4f565b610389565b60405190151581526020015b60405180910390f35b60c9546001600160a01b03165b6040516001600160a01b039091168152602001610190565b6101c66103cd565b6040516101909190611dc4565b6101a66101e1366004611dd7565b61045f565b6101f96101f4366004611e05565b610486565b005b6101f9610209366004611e31565b6105bd565b61018461021c366004611e72565b610634565b61024161022f366004611dd7565b600090815260cb602052604090205490565b604051908152602001610190565b6101f961025d366004611e31565b6107d1565b6101f9610270366004611f1c565b6107ec565b610288610283366004611f5e565b61097f565b6040516101909190611f7b565b6102a86102a3366004611dd7565b610b46565b604080518251815260208084015190820152918101516001600160a01b031690820152606001610190565b6101a66102e1366004611dd7565b610bb5565b6102416102f4366004611f5e565b610c1a565b6101c6610cb4565b6101f961030f366004611fbf565b610cc3565b6101f9610322366004612044565b610cd2565b6101f9610335366004611f5e565b610d50565b6101c6610348366004611dd7565b610f06565b61018461035b366004612108565b6001600160a01b039182166000908152606a6020908152604080832093909416825291909152205460ff1690565b60006001600160e01b031982167f490649060000000000000000000000000000000000000000000000000000000014806103c757506103c782610f11565b92915050565b6060606580546103dc90612136565b80601f016020809104026020016040519081016040528092919081815260200182805461040890612136565b80156104555780601f1061042a57610100808354040283529160200191610455565b820191906000526020600020905b81548152906001019060200180831161043857829003601f168201915b5050505050905090565b600061046a82610fac565b506000908152606960205260409020546001600160a01b031690565b600061049182610bb5565b9050806001600160a01b0316836001600160a01b031614156105205760405162461bcd60e51b815260206004820152602160248201527f4552433732313a20617070726f76616c20746f2063757272656e74206f776e6560448201527f720000000000000000000000000000000000000000000000000000000000000060648201526084015b60405180910390fd5b336001600160a01b038216148061053c575061053c813361035b565b6105ae5760405162461bcd60e51b815260206004820152603d60248201527f4552433732313a20617070726f76652063616c6c6572206973206e6f7420746f60448201527f6b656e206f776e6572206f7220617070726f76656420666f7220616c6c0000006064820152608401610517565b6105b88383611013565b505050565b6105c73382611081565b6106295760405162461bcd60e51b815260206004820152602d60248201527f4552433732313a2063616c6c6572206973206e6f7420746f6b656e206f776e6560448201526c1c881bdc88185c1c1c9bdd9959609a1b6064820152608401610517565b6105b8838383611100565b60ca546000906001600160a01b031633146106815760405162461bcd60e51b815260206004820152600d60248201526c3737ba103a34329037bbb732b960991b6044820152606401610517565b60c954604080516bffffffffffffffffffffffff1960608b811b821660208085019190915294811b8216603484015288901b1660488201528151808203603c018152605c909101825280519083012060008181526067909352908220549091906001600160a01b03161561071f57600082815260cb602052604081206001810189905580548a9290610714908490612187565b909155506107c59050565b6040805160608101825289815260208082018a81526001600160a01b038a8116848601908152600088815260cb90945294909220925183555160018301559151600290910180546001600160a01b031916919092161790556107818983611306565b6107c18286868080601f01602080910402602001604051908101604052809392919081815260200183838082843760009201919091525061149f92505050565b5060015b98975050505050505050565b6105b883838360405180602001604052806000815250610cd2565b60ca546001600160a01b031633146108365760405162461bcd60e51b815260206004820152600d60248201526c3737ba103a34329037bbb732b960991b6044820152606401610517565b60c954604080516bffffffffffffffffffffffff19606087811b821660208085019190915294811b8216603484015285901b1660488201528151808203603c018152605c9091018252805190830120600081815260679093529120546001600160a01b03166108e75760405162461bcd60e51b815260206004820152601560248201527f746f6b656e496420646f65736e277420657869737400000000000000000000006044820152606401610517565b600081815260cb6020526040902054838110156109465760405162461bcd60e51b815260206004820152601460248201527f696e73756666696369656e742062616c616e63650000000000000000000000006044820152606401610517565b610950848261219f565b90508061096a57600082815260cb60205260408120600101555b600091825260cb602052604090912055505050565b6060600060c960009054906101000a90046001600160a01b03166001600160a01b0316632f7570066040518163ffffffff1660e01b815260040160006040518083038186803b1580156109d157600080fd5b505afa1580156109e5573d6000803e3d6000fd5b505050506040513d6000823e601f3d908101601f19168201604052610a0d91908101906121b6565b805190915060008167ffffffffffffffff811115610a2d57610a2d611ffd565b604051908082528060200260200182016040528015610a56578160200160208202803683370190505b50905060005b82811015610b3d5760008660c960009054906101000a90046001600160a01b0316868481518110610a8f57610a8f61225c565b6020026020010151604051602001610ad493929190606093841b6bffffffffffffffffffffffff19908116825292841b83166014820152921b166028820152603c0190565b60408051601f198184030181529181528151602092830120600081815260679093529120549091506001600160a01b031615610b2a5780838381518110610b1d57610b1d61225c565b6020026020010181815250505b5080610b3581612272565b915050610a5c565b50949350505050565b610b736040518060600160405280600081526020016000815260200160006001600160a01b031681525090565b50600090815260cb6020908152604091829020825160608101845281548152600182015492810192909252600201546001600160a01b03169181019190915290565b6000818152606760205260408120546001600160a01b0316806103c75760405162461bcd60e51b815260206004820152601860248201527f4552433732313a20696e76616c696420746f6b656e20494400000000000000006044820152606401610517565b60006001600160a01b038216610c985760405162461bcd60e51b815260206004820152602960248201527f4552433732313a2061646472657373207a65726f206973206e6f74206120766160448201527f6c6964206f776e657200000000000000000000000000000000000000000000006064820152608401610517565b506001600160a01b031660009081526068602052604090205490565b6060606680546103dc90612136565b610cce338383611579565b5050565b610cdc3383611081565b610d3e5760405162461bcd60e51b815260206004820152602d60248201527f4552433732313a2063616c6c6572206973206e6f7420746f6b656e206f776e6560448201526c1c881bdc88185c1c1c9bdd9959609a1b6064820152608401610517565b610d4a84848484611648565b50505050565b600054610100900460ff1615808015610d705750600054600160ff909116105b80610d8a5750303b158015610d8a575060005460ff166001145b610dfc5760405162461bcd60e51b815260206004820152602e60248201527f496e697469616c697a61626c653a20636f6e747261637420697320616c72656160448201527f647920696e697469616c697a65640000000000000000000000000000000000006064820152608401610517565b6000805460ff191660011790558015610e1f576000805461ff0019166101001790555b610e936040518060400160405280601581526020017f4a435020436f6e7472696275746f7220546f6b656e00000000000000000000008152506040518060400160405280600481526020017f4a435043000000000000000000000000000000000000000000000000000000008152506116d1565b60c980546001600160a01b0384166001600160a01b03199182161790915560ca8054909116331790558015610cce576000805461ff0019169055604051600181527f7f26b83ff96e1f2b6a682f133852f6798a09c465da95921460cefb3847402498906020015b60405180910390a15050565b60606103c782611746565b60006001600160e01b031982167f80ac58cd000000000000000000000000000000000000000000000000000000001480610f7457506001600160e01b031982167f5b5e139f00000000000000000000000000000000000000000000000000000000145b806103c757507f01ffc9a7000000000000000000000000000000000000000000000000000000006001600160e01b03198316146103c7565b6000818152606760205260409020546001600160a01b03166110105760405162461bcd60e51b815260206004820152601860248201527f4552433732313a20696e76616c696420746f6b656e20494400000000000000006044820152606401610517565b50565b600081815260696020526040902080546001600160a01b0319166001600160a01b038416908117909155819061104882610bb5565b6001600160a01b03167f8c5be1e5ebec7d5bd14f71427d1e84f3dd0314c0f7b2291e5b200ac8c7c3b92560405160405180910390a45050565b60008061108d83610bb5565b9050806001600160a01b0316846001600160a01b031614806110d457506001600160a01b038082166000908152606a602090815260408083209388168352929052205460ff165b806110f85750836001600160a01b03166110ed8461045f565b6001600160a01b0316145b949350505050565b826001600160a01b031661111382610bb5565b6001600160a01b0316146111775760405162461bcd60e51b815260206004820152602560248201527f4552433732313a207472616e736665722066726f6d20696e636f72726563742060448201526437bbb732b960d91b6064820152608401610517565b6001600160a01b0382166111f25760405162461bcd60e51b8152602060048201526024808201527f4552433732313a207472616e7366657220746f20746865207a65726f2061646460448201527f72657373000000000000000000000000000000000000000000000000000000006064820152608401610517565b6111ff838383600161184f565b826001600160a01b031661121282610bb5565b6001600160a01b0316146112765760405162461bcd60e51b815260206004820152602560248201527f4552433732313a207472616e736665722066726f6d20696e636f72726563742060448201526437bbb732b960d91b6064820152608401610517565b600081815260696020908152604080832080546001600160a01b03199081169091556001600160a01b0387811680865260688552838620805460001901905590871680865283862080546001019055868652606790945282852080549092168417909155905184937fddf252ad1be2c89b69c2b068fc378daa952ba7f163c4a11628f55a4df523b3ef91a4505050565b6001600160a01b03821661135c5760405162461bcd60e51b815260206004820181905260248201527f4552433732313a206d696e7420746f20746865207a65726f20616464726573736044820152606401610517565b6000818152606760205260409020546001600160a01b0316156113c15760405162461bcd60e51b815260206004820152601c60248201527f4552433732313a20746f6b656e20616c7265616479206d696e746564000000006044820152606401610517565b6113cf60008383600161184f565b6000818152606760205260409020546001600160a01b0316156114345760405162461bcd60e51b815260206004820152601c60248201527f4552433732313a20746f6b656e20616c7265616479206d696e746564000000006044820152606401610517565b6001600160a01b038216600081815260686020908152604080832080546001019055848352606790915280822080546001600160a01b0319168417905551839291907fddf252ad1be2c89b69c2b068fc378daa952ba7f163c4a11628f55a4df523b3ef908290a45050565b6000828152606760205260409020546001600160a01b03166115295760405162461bcd60e51b815260206004820152602e60248201527f45524337323155524953746f726167653a2055524920736574206f66206e6f6e60448201527f6578697374656e7420746f6b656e0000000000000000000000000000000000006064820152608401610517565b6000828152609760209081526040909120825161154892840190611ca0565b506040518281527ff8e1a15aba9398e019f0b49df1a4fde98ee17ae345cb5f6b5e2c27f5033e8ce790602001610efa565b816001600160a01b0316836001600160a01b031614156115db5760405162461bcd60e51b815260206004820152601960248201527f4552433732313a20617070726f766520746f2063616c6c6572000000000000006044820152606401610517565b6001600160a01b038381166000818152606a6020908152604080832094871680845294825291829020805460ff191686151590811790915591519182527f17307eab39ab6107e8899845ad3d59bd9653f200f220920489ca2b5937696c31910160405180910390a3505050565b611653848484611100565b61165f848484846118ab565b610d4a5760405162461bcd60e51b815260206004820152603260248201527f4552433732313a207472616e7366657220746f206e6f6e20455243373231526560448201527f63656976657220696d706c656d656e74657200000000000000000000000000006064820152608401610517565b600054610100900460ff1661173c5760405162461bcd60e51b815260206004820152602b60248201527f496e697469616c697a61626c653a20636f6e7472616374206973206e6f74206960448201526a6e697469616c697a696e6760a81b6064820152608401610517565b610cce8282611a0e565b606061175182610fac565b6000828152609760205260408120805461176a90612136565b80601f016020809104026020016040519081016040528092919081815260200182805461179690612136565b80156117e35780601f106117b8576101008083540402835291602001916117e3565b820191906000526020600020905b8154815290600101906020018083116117c657829003601f168201915b50505050509050600061180160408051602081019091526000815290565b9050805160001415611814575092915050565b81511561184657808260405160200161182e92919061228d565b60405160208183030381529060405292505050919050565b6110f884611aa0565b6001600160a01b038416156118a65760405162461bcd60e51b815260206004820152601160248201527f6e6f6e2d7472616e736665727261626c650000000000000000000000000000006044820152606401610517565b610d4a565b60006001600160a01b0384163b15611a0357604051630a85bd0160e11b81526001600160a01b0385169063150b7a02906118ef9033908990889088906004016122bc565b602060405180830381600087803b15801561190957600080fd5b505af1925050508015611939575060408051601f3d908101601f19168201909252611936918101906122f8565b60015b6119e9573d808015611967576040519150601f19603f3d011682016040523d82523d6000602084013e61196c565b606091505b5080516119e15760405162461bcd60e51b815260206004820152603260248201527f4552433732313a207472616e7366657220746f206e6f6e20455243373231526560448201527f63656976657220696d706c656d656e74657200000000000000000000000000006064820152608401610517565b805181602001fd5b6001600160e01b031916630a85bd0160e11b1490506110f8565b506001949350505050565b600054610100900460ff16611a795760405162461bcd60e51b815260206004820152602b60248201527f496e697469616c697a61626c653a20636f6e7472616374206973206e6f74206960448201526a6e697469616c697a696e6760a81b6064820152608401610517565b8151611a8c906065906020850190611ca0565b5080516105b8906066906020840190611ca0565b6060611aab82610fac565b6000611ac260408051602081019091526000815290565b90506000815111611ae25760405180602001604052806000815250611b0d565b80611aec84611b14565b604051602001611afd92919061228d565b6040516020818303038152906040525b9392505050565b60606000611b2183611bbe565b600101905060008167ffffffffffffffff811115611b4157611b41611ffd565b6040519080825280601f01601f191660200182016040528015611b6b576020820181803683370190505b5090508181016020015b600019017f3031323334353637383961626364656600000000000000000000000000000000600a86061a8153600a8504945084611bb157611bb6565b611b75565b509392505050565b6000807a184f03e93ff9f4daa797ed6e38ed64bf6a1f0100000000000000008310611c07577a184f03e93ff9f4daa797ed6e38ed64bf6a1f010000000000000000830492506040015b6d04ee2d6d415b85acef81000000008310611c33576d04ee2d6d415b85acef8100000000830492506020015b662386f26fc100008310611c5157662386f26fc10000830492506010015b6305f5e1008310611c69576305f5e100830492506008015b6127108310611c7d57612710830492506004015b60648310611c8f576064830492506002015b600a83106103c75760010192915050565b828054611cac90612136565b90600052602060002090601f016020900481019282611cce5760008555611d14565b82601f10611ce757805160ff1916838001178555611d14565b82800160010185558215611d14579182015b82811115611d14578251825591602001919060010190611cf9565b50611d20929150611d24565b5090565b5b80821115611d205760008155600101611d25565b6001600160e01b03198116811461101057600080fd5b600060208284031215611d6157600080fd5b8135611b0d81611d39565b60005b83811015611d87578181015183820152602001611d6f565b83811115610d4a5750506000910152565b60008151808452611db0816020860160208601611d6c565b601f01601f19169290920160200192915050565b602081526000611b0d6020830184611d98565b600060208284031215611de957600080fd5b5035919050565b6001600160a01b038116811461101057600080fd5b60008060408385031215611e1857600080fd5b8235611e2381611df0565b946020939093013593505050565b600080600060608486031215611e4657600080fd5b8335611e5181611df0565b92506020840135611e6181611df0565b929592945050506040919091013590565b60008060008060008060a08789031215611e8b57600080fd5b8635611e9681611df0565b955060208701359450604087013593506060870135611eb481611df0565b9250608087013567ffffffffffffffff80821115611ed157600080fd5b818901915089601f830112611ee557600080fd5b813581811115611ef457600080fd5b8a6020828501011115611f0657600080fd5b6020830194508093505050509295509295509295565b600080600060608486031215611f3157600080fd5b8335611f3c81611df0565b9250602084013591506040840135611f5381611df0565b809150509250925092565b600060208284031215611f7057600080fd5b8135611b0d81611df0565b6020808252825182820181905260009190848201906040850190845b81811015611fb357835183529284019291840191600101611f97565b50909695505050505050565b60008060408385031215611fd257600080fd5b8235611fdd81611df0565b915060208301358015158114611ff257600080fd5b809150509250929050565b634e487b7160e01b600052604160045260246000fd5b604051601f8201601f1916810167ffffffffffffffff8111828210171561203c5761203c611ffd565b604052919050565b6000806000806080858703121561205a57600080fd5b843561206581611df0565b935060208581013561207681611df0565b935060408601359250606086013567ffffffffffffffff8082111561209a57600080fd5b818801915088601f8301126120ae57600080fd5b8135818111156120c0576120c0611ffd565b6120d2601f8201601f19168501612013565b915080825289848285010111156120e857600080fd5b808484018584013760008482840101525080935050505092959194509250565b6000806040838503121561211b57600080fd5b823561212681611df0565b91506020830135611ff281611df0565b600181811c9082168061214a57607f821691505b6020821081141561216b57634e487b7160e01b600052602260045260246000fd5b50919050565b634e487b7160e01b600052601160045260246000fd5b6000821982111561219a5761219a612171565b500190565b6000828210156121b1576121b1612171565b500390565b600060208083850312156121c957600080fd5b825167ffffffffffffffff808211156121e157600080fd5b818501915085601f8301126121f557600080fd5b81518181111561220757612207611ffd565b8060051b9150612218848301612013565b818152918301840191848101908884111561223257600080fd5b938501935b838510156107c5578451925061224c83611df0565b8282529385019390850190612237565b634e487b7160e01b600052603260045260246000fd5b600060001982141561228657612286612171565b5060010190565b6000835161229f818460208801611d6c565b8351908301906122b3818360208801611d6c565b01949350505050565b60006001600160a01b038087168352808616602084015250836040830152608060608301526122ee6080830184611d98565b9695505050505050565b60006020828403121561230a57600080fd5b8151611b0d81611d3956fea2646970667358221220da3f4fa7b2d52ac5aa1720870e7b03942659caa18a86bd65ee567b3d2effcfd764736f6c63430008090033",
  "linkReferences": {},
  "deployedLinkReferences": {}
}