{
  "_format": "hh-sol-artifact-1",
  "contractName": "WethGatewayTest",
  "sourceName": "contracts/test/WethGatewayTest.sol",
  "abi": [
    {
      "anonymous": false,
      "inputs": [
        {
          "indexed": false,
          "internalType": "address",
          "name": "_to",
          "type": "address"
        },
        {
          "indexed": false,
          "internalType": "uint256",
          "name": "amountToWithdraw",
          "type": "uint256"
        }
      ],
      "name": "Test",
      "type": "event"
    },
    {
      "inputs": [
        {
          "internalType": "address",
          "name": "_pool",
          "type": "address"
        },
        {
          "internalType": "address",
          "name": "_onBehalfOf",
          "type": "address"
        },
        {
          "internalType": "uint16",
          "name": "_referralCode",
          "type": "uint16"
        }
      ],
      "name": "depositETH",
      "outputs": [],
      "stateMutability": "payable",
      "type": "function"
    },
    {
      "inputs": [],
      "name": "getWETHAddress",
      "outputs": [
        {
          "internalType": "address",
          "name": "",
          "type": "address"
        }
      ],
      "stateMutability": "view",
      "type": "function"
    },
    {
      "inputs": [
        {
          "internalType": "address",
          "name": "_wethAddress",
          "type": "address"
        },
        {
          "internalType": "address",
          "name": "_aWethAddress",
          "type": "address"
        }
      ],
      "name": "setValues",
      "outputs": [],
      "stateMutability": "nonpayable",
      "type": "function"
    },
    {
      "inputs": [
        {
          "internalType": "address",
          "name": "_pool",
          "type": "address"
        },
        {
          "internalType": "uint256",
          "name": "_amount",
          "type": "uint256"
        },
        {
          "internalType": "address",
          "name": "_to",
          "type": "address"
        }
      ],
      "name": "withdrawETH",
      "outputs": [],
      "stateMutability": "nonpayable",
      "type": "function"
    }
  ],
  "bytecode": "0x608060405234801561001057600080fd5b50610620806100206000396000f3fe60806040526004361061003f5760003560e01c8063474cf53d1461004457806380500d2014610059578063affa881714610079578063fe5f0178146100a5575b600080fd5b6100576100523660046104b0565b610106565b005b34801561006557600080fd5b506100576100743660046104fe565b61019b565b34801561008557600080fd5b50600054604080516001600160a01b039092168252519081900360200190f35b3480156100b157600080fd5b506100576100c036600461053a565b600080546001600160a01b039384167fffffffffffffffffffffffff00000000000000000000000000000000000000009182161790915560018054929093169116179055565b6000546040517fe8eda9df0000000000000000000000000000000000000000000000000000000081526001600160a01b039182166004820152346024820152838216604482015261ffff831660648201529084169063e8eda9df90608401600060405180830381600087803b15801561017e57600080fd5b505af1158015610192573d6000803e3d6000fd5b50505050505050565b6001546040517f23b872dd0000000000000000000000000000000000000000000000000000000081523360048201523060248201526044810184905283916001600160a01b0316906323b872dd90606401602060405180830381600087803b15801561020657600080fd5b505af115801561021a573d6000803e3d6000fd5b505050506040513d601f19601f8201168201806040525081019061023e919061056d565b506000546040517f69328dec0000000000000000000000000000000000000000000000000000000081526001600160a01b03918216600482015260248101839052306044820152908516906369328dec90606401602060405180830381600087803b1580156102ac57600080fd5b505af11580156102c0573d6000803e3d6000fd5b505050506040513d601f19601f820116820180604052508101906102e49190610596565b506001546040517f9dc29fac000000000000000000000000000000000000000000000000000000008152336004820152602481018590526001600160a01b0390911690639dc29fac90604401600060405180830381600087803b15801561034a57600080fd5b505af115801561035e573d6000803e3d6000fd5b5050505061036c82826103b4565b604080516001600160a01b0384168152602081018390527f4ba54330f8090ac87ed0a0b470fd9c8a6bbec84bfe94f4fa7776d1dc27da9f9c910160405180910390a150505050565b604080516000808252602082019092526001600160a01b0384169083906040516103de91906105af565b60006040518083038185875af1925050503d806000811461041b576040519150601f19603f3d011682016040523d82523d6000602084013e610420565b606091505b505090508061048f576040517f08c379a000000000000000000000000000000000000000000000000000000000815260206004820152601360248201527f4554485f5452414e534645525f4641494c454400000000000000000000000000604482015260640160405180910390fd5b505050565b80356001600160a01b03811681146104ab57600080fd5b919050565b6000806000606084860312156104c557600080fd5b6104ce84610494565b92506104dc60208501610494565b9150604084013561ffff811681146104f357600080fd5b809150509250925092565b60008060006060848603121561051357600080fd5b61051c84610494565b92506020840135915061053160408501610494565b90509250925092565b6000806040838503121561054d57600080fd5b61055683610494565b915061056460208401610494565b90509250929050565b60006020828403121561057f57600080fd5b8151801515811461058f57600080fd5b9392505050565b6000602082840312156105a857600080fd5b5051919050565b6000825160005b818110156105d057602081860181015185830152016105b6565b818111156105df576000828501525b50919091019291505056fea2646970667358221220247574454c2c53acab2288e8760c0bb5bb7a370e0576248e9c313b8ed26766c164736f6c63430008090033",
  "linkReferences": {},
  "deployedLinkReferences": {}
}