{"contracts/deploy/PoolTracker.sol":{"PoolTracker":{"abi":[{"inputs":[{"internalType":"address","name":"_poolAddressesProviderAddr","type":"address"},{"internalType":"address","name":"_wethGatewayAddr","type":"address"},{"internalType":"address","name":"_multiSig","type":"address"}],"stateMutability":"nonpayable","type":"constructor"},{"anonymous":false,"inputs":[{"indexed":false,"internalType":"address","name":"userAddr","type":"address"},{"indexed":false,"internalType":"address","name":"pool","type":"address"},{"indexed":false,"internalType":"address","name":"asset","type":"address"},{"indexed":false,"internalType":"uint256","name":"amount","type":"uint256"}],"name":"AddDeposit","type":"event"},{"anonymous":false,"inputs":[{"indexed":false,"internalType":"address","name":"pool","type":"address"},{"indexed":false,"internalType":"string","name":"name","type":"string"},{"indexed":false,"internalType":"address","name":"receiver","type":"address"}],"name":"AddPool","type":"event"},{"anonymous":false,"inputs":[{"indexed":false,"internalType":"address","name":"userAddr","type":"address"},{"indexed":false,"internalType":"address","name":"receiver","type":"address"},{"indexed":false,"internalType":"address","name":"pool","type":"address"},{"indexed":false,"internalType":"address","name":"asset","type":"address"},{"indexed":false,"internalType":"uint256","name":"amount","type":"uint256"}],"name":"Claim","type":"event"},{"anonymous":false,"inputs":[{"indexed":false,"internalType":"address","name":"pool","type":"address"}],"name":"UpdateAbout","type":"event"},{"anonymous":false,"inputs":[{"indexed":false,"internalType":"address","name":"pool","type":"address"}],"name":"UpdateMetaUri","type":"event"},{"anonymous":false,"inputs":[{"indexed":false,"internalType":"address","name":"userAddr","type":"address"},{"indexed":false,"internalType":"address","name":"pool","type":"address"},{"indexed":false,"internalType":"address","name":"asset","type":"address"},{"indexed":false,"internalType":"uint256","name":"amount","type":"uint256"}],"name":"WithdrawDeposit","type":"event"},{"inputs":[{"internalType":"uint256","name":"_amount","type":"uint256"},{"internalType":"address","name":"_asset","type":"address"},{"internalType":"address","name":"_pool","type":"address"},{"internalType":"bool","name":"_isETH","type":"bool"}],"name":"addDeposit","outputs":[],"stateMutability":"payable","type":"function"},{"inputs":[{"internalType":"address","name":"_pool","type":"address"}],"name":"checkPool","outputs":[{"internalType":"bool","name":"","type":"bool"}],"stateMutability":"view","type":"function"},{"inputs":[{"internalType":"address","name":"_asset","type":"address"},{"internalType":"address","name":"_pool","type":"address"},{"internalType":"bool","name":"_isETH","type":"bool"}],"name":"claimInterest","outputs":[],"stateMutability":"nonpayable","type":"function"},{"inputs":[{"internalType":"address[]","name":"_acceptedTokens","type":"address[]"},{"internalType":"string","name":"_name","type":"string"},{"internalType":"string","name":"_about","type":"string"},{"internalType":"string","name":"_picHash","type":"string"},{"internalType":"string","name":"_metaUri","type":"string"},{"internalType":"address","name":"_receiver","type":"address"}],"name":"createJCPoolClone","outputs":[],"stateMutability":"nonpayable","type":"function"},{"inputs":[{"internalType":"string","name":"_name","type":"string"}],"name":"getAddressFromName","outputs":[{"internalType":"address","name":"","type":"address"}],"stateMutability":"view","type":"function"},{"inputs":[],"name":"getBaseJCPoolAddress","outputs":[{"internalType":"address","name":"","type":"address"}],"stateMutability":"view","type":"function"},{"inputs":[],"name":"getBpFee","outputs":[{"internalType":"uint256","name":"","type":"uint256"}],"stateMutability":"view","type":"function"},{"inputs":[{"internalType":"address","name":"_user","type":"address"}],"name":"getContributions","outputs":[{"internalType":"address[]","name":"","type":"address[]"}],"stateMutability":"view","type":"function"},{"inputs":[],"name":"getDepositorERC721Address","outputs":[{"internalType":"address","name":"","type":"address"}],"stateMutability":"view","type":"function"},{"inputs":[],"name":"getMultiSig","outputs":[{"internalType":"address","name":"","type":"address"}],"stateMutability":"view","type":"function"},{"inputs":[],"name":"getPoolAddr","outputs":[{"internalType":"address","name":"","type":"address"}],"stateMutability":"view","type":"function"},{"inputs":[{"internalType":"address","name":"_user","type":"address"}],"name":"getReceiverPools","outputs":[{"internalType":"address[]","name":"","type":"address[]"}],"stateMutability":"view","type":"function"},{"inputs":[],"name":"getReservesList","outputs":[{"internalType":"address[]","name":"","type":"address[]"}],"stateMutability":"view","type":"function"},{"inputs":[{"internalType":"address","name":"_asset","type":"address"}],"name":"getTVL","outputs":[{"internalType":"uint256","name":"","type":"uint256"}],"stateMutability":"view","type":"function"},{"inputs":[{"internalType":"address","name":"_asset","type":"address"}],"name":"getTotalDonated","outputs":[{"internalType":"uint256","name":"","type":"uint256"}],"stateMutability":"view","type":"function"},{"inputs":[],"name":"getVerifiedPools","outputs":[{"internalType":"address[]","name":"","type":"address[]"}],"stateMutability":"view","type":"function"},{"inputs":[{"internalType":"uint256","name":"feeKey","type":"uint256"}],"name":"setBpFee","outputs":[],"stateMutability":"nonpayable","type":"function"},{"inputs":[{"internalType":"address","name":"_pool","type":"address"},{"internalType":"string","name":"_about","type":"string"}],"name":"updatePoolAbout","outputs":[],"stateMutability":"nonpayable","type":"function"},{"inputs":[{"internalType":"address","name":"_pool","type":"address"},{"internalType":"string","name":"_metaUri","type":"string"}],"name":"updatePoolMetaUri","outputs":[],"stateMutability":"nonpayable","type":"function"},{"inputs":[{"internalType":"uint256","name":"_amount","type":"uint256"},{"internalType":"address","name":"_asset","type":"address"},{"internalType":"address","name":"_pool","type":"address"},{"internalType":"bool","name":"_isETH","type":"bool"}],"name":"withdrawDeposit","outputs":[],"stateMutability":"nonpayable","type":"function"}],"evm":{"bytecode":{"linkReferences":{},"object":"6101206040523480156200001257600080fd5b5060405162007dd238038062007dd28339810160408190526200003591620001b8565b60016000556001600160a01b03811660c052604051620000559062000120565b604051809103906000f08015801562000072573d6000803e3d6000fd5b506001600160a01b03166080526040516200008d906200012e565b604051809103906000f080158015620000aa573d6000803e3d6000fd5b506001600160a01b0390811660a090815284821660e09081529184166101005260408051928301815260008352601460208401526032908301526050606083015260646080830152607890820152609660c08201526200010f9060089060076200013c565b5050600954600f5550620002029050565b61296e80620030f983390190565b61236b8062005a6783390190565b826007810192821562000172579160200282015b8281111562000172578251829060ff1690559160200191906001019062000150565b506200018092915062000184565b5090565b5b8082111562000180576000815560010162000185565b80516001600160a01b0381168114620001b357600080fd5b919050565b600080600060608486031215620001ce57600080fd5b620001d9846200019b565b9250620001e9602085016200019b565b9150620001f9604085016200019b565b90509250925092565b60805160a05160c05160e05161010051612e50620002a96000396000818161061c01528181610798015261179f01526000818161057901528181610f76015281816113fd0152818161177e015281816119ef0152611b000152600081816102f20152818161116601528181611315015281816116e501528181611cf90152611f8001526000818161024b01526116b20152600081816102bf01526116850152612e506000f3fe60806040526004361061015f5760003560e01c806390f2bb16116100c0578063d1df6d4d11610074578063def9a0cd11610059578063def9a0cd1461040b578063ecb16af41461042b578063fa12793b1461044b57600080fd5b8063d1df6d4d146103c0578063de259242146103f657600080fd5b8063b47dcb66116100a5578063b47dcb6614610376578063b63ae6ee14610396578063d1946dbc146103ab57600080fd5b806390f2bb1614610336578063a5530a451461035657600080fd5b80633989a671116101175780635aa38868116100fc5780635aa38868146102b057806366e992e5146102e35780638e61514e1461031657600080fd5b80633989a6711461023c5780633f19d0431461028357600080fd5b80630f40517a116101485780630f40517a1461019d5780632f28012a146101d357806330b9d2a7146101f357600080fd5b806301beb9801461016457806308f52b3c14610188575b600080fd5b34801561017057600080fd5b50600f545b6040519081526020015b60405180910390f35b61019b610196366004612608565b61046b565b005b3480156101a957600080fd5b506101756101b836600461265b565b6001600160a01b031660009081526003602052604090205490565b3480156101df57600080fd5b5061019b6101ee366004612608565b610c06565b3480156101ff57600080fd5b5061022c61020e36600461265b565b6001600160a01b031660009081526001602052604090205460ff1690565b604051901515815260200161017f565b34801561024857600080fd5b507f00000000000000000000000000000000000000000000000000000000000000005b6040516001600160a01b03909116815260200161017f565b34801561028f57600080fd5b506102a361029e36600461265b565b610e69565b60405161017f919061267f565b3480156102bc57600080fd5b507f000000000000000000000000000000000000000000000000000000000000000061026b565b3480156102ef57600080fd5b507f000000000000000000000000000000000000000000000000000000000000000061026b565b34801561032257600080fd5b5061026b610331366004612715565b610edf565b34801561034257600080fd5b5061019b610351366004612757565b610f14565b34801561036257600080fd5b5061019b6103713660046127a2565b611313565b34801561038257600080fd5b5061019b6103913660046128c5565b6113a6565b3480156103a257600080fd5b506102a3611987565b3480156103b757600080fd5b506102a36119e9565b3480156103cc57600080fd5b506101756103db36600461265b565b6001600160a01b031660009081526004602052604090205490565b34801561040257600080fd5b5061026b611afb565b34801561041757600080fd5b5061019b6104263660046129ad565b611b95565b34801561043757600080fd5b5061019b6104463660046129ad565b611e1c565b34801561045757600080fd5b506102a361046636600461265b565b612098565b6001600160a01b038216600090815260016020526040902054829060ff166104c55760405162461bcd60e51b81526020600482015260086024820152671b9bdd081c1bdbdb60c21b60448201526064015b60405180910390fd5b6104cd61210c565b6001600160a01b038416600090815260036020526040812080548792906104f5908490612a18565b925050819055506000836001600160a01b031663373d7c3f6040518163ffffffff1660e01b815260040160006040518083038186803b15801561053757600080fd5b505afa15801561054b573d6000803e3d6000fd5b505050506040513d6000823e601f3d908101601f191682016040526105739190810190612a5c565b905060007f00000000000000000000000000000000000000000000000000000000000000006001600160a01b031663026b1d5f6040518163ffffffff1660e01b815260040160206040518083038186803b1580156105d057600080fd5b505afa1580156105e4573d6000803e3d6000fd5b505050506040513d601f19601f820116820180604052508101906106089190612ad3565b905083156107fb57856001600160a01b03167f00000000000000000000000000000000000000000000000000000000000000006001600160a01b031663affa88176040518163ffffffff1660e01b815260040160206040518083038186803b15801561067357600080fd5b505afa158015610687573d6000803e3d6000fd5b505050506040513d601f19601f820116820180604052508101906106ab9190612ad3565b6001600160a01b0316146107015760405162461bcd60e51b815260206004820181905260248201527f617373657420646f6573206e6f74206d6174636820574554484761746577617960448201526064016104bc565b600034116107515760405162461bcd60e51b815260206004820152601860248201527f6d73672e76616c75652063616e6e6f74206265207a65726f000000000000000060448201526064016104bc565b6040517f474cf53d0000000000000000000000000000000000000000000000000000000081526001600160a01b0382811660048301528681166024830152600060448301527f0000000000000000000000000000000000000000000000000000000000000000169063474cf53d9034906064016000604051808303818588803b1580156107dd57600080fd5b505af11580156107f1573d6000803e3d6000fd5b50505050506109e2565b34156108495760405162461bcd60e51b815260206004820152601560248201527f6d73672e76616c7565206973206e6f74207a65726f000000000000000000000060448201526064016104bc565b604051636eb1769f60e11b8152336004820152306024820152869088906001600160a01b0383169063dd62ed3e9060440160206040518083038186803b15801561089257600080fd5b505afa1580156108a6573d6000803e3d6000fd5b505050506040513d601f19601f820116820180604052508101906108ca9190612af0565b10156109185760405162461bcd60e51b815260206004820152601360248201527f73656e646572206e6f7420617070726f7665640000000000000000000000000060448201526064016104bc565b61092d6001600160a01b03821633308b612166565b6109426001600160a01b038216836000612217565b6109566001600160a01b038216838a612217565b6040517fe8eda9df0000000000000000000000000000000000000000000000000000000081526001600160a01b038281166004830152602482018a905287811660448301526000606483015283169063e8eda9df90608401600060405180830381600087803b1580156109c857600080fd5b505af11580156109dc573d6000803e3d6000fd5b50505050505b6040517f47e7ef240000000000000000000000000000000000000000000000000000000081526001600160a01b038781166004830152602482018990528616906347e7ef2490604401600060405180830381600087803b158015610a4557600080fd5b505af1158015610a59573d6000803e3d6000fd5b505050506000856001600160a01b0316627ffb786040518163ffffffff1660e01b815260040160206040518083038186803b158015610a9757600080fd5b505afa158015610aab573d6000803e3d6000fd5b505050506040513d601f19601f82011682018060405250810190610acf9190612ad3565b6001600160a01b03166326a45ffb338a428b886040518663ffffffff1660e01b8152600401610b02959493929190612b35565b602060405180830381600087803b158015610b1c57600080fd5b505af1158015610b30573d6000803e3d6000fd5b505050506040513d601f19601f82011682018060405250810190610b549190612b78565b90508015610ba25733600090815260056020908152604082208054600181018255908352912001805473ffffffffffffffffffffffffffffffffffffffff19166001600160a01b0388161790555b604080513381526001600160a01b038881166020830152891681830152606081018a905290517f20ca885e6c573d69bc931b3787127868f5b90568509fb8d4ff6f7102b8d0cd259181900360800190a1505050610bff6001600055565b5050505050565b6001600160a01b038216600090815260016020526040902054829060ff16610c5b5760405162461bcd60e51b81526020600482015260086024820152671b9bdd081c1bdbdb60c21b60448201526064016104bc565b610c6361210c565b6001600160a01b03841660009081526003602052604081208054879290610c8b908490612b95565b92505081905550826001600160a01b0316627ffb786040518163ffffffff1660e01b815260040160206040518083038186803b158015610cca57600080fd5b505afa158015610cde573d6000803e3d6000fd5b505050506040513d601f19601f82011682018060405250810190610d029190612ad3565b6040517f47c6b45e000000000000000000000000000000000000000000000000000000008152336004820152602481018790526001600160a01b03868116604483015291909116906347c6b45e90606401600060405180830381600087803b158015610d6d57600080fd5b505af1158015610d81573d6000803e3d6000fd5b50506040517f12eeff7e0000000000000000000000000000000000000000000000000000000081526001600160a01b038781166004830152602482018990523360448301528515156064830152861692506312eeff7e9150608401600060405180830381600087803b158015610df657600080fd5b505af1158015610e0a573d6000803e3d6000fd5b5050604080513381526001600160a01b0387811660208301528816818301526060810189905290517fa657ed79c074c3489591adb7ba850f38c009bd846e47f2ffe3edc1d06f48a5a49350908190036080019150a1610bff6001600055565b6001600160a01b038116600090815260056020908152604091829020805483518184028101840190945280845260609392830182828015610ed357602002820191906000526020600020905b81546001600160a01b03168152600190910190602001808311610eb5575b50505050509050919050565b600060028383604051610ef3929190612bac565b908152604051908190036020019020546001600160a01b0316905092915050565b6001600160a01b038216600090815260016020526040902054829060ff16610f695760405162461bcd60e51b81526020600482015260086024820152671b9bdd081c1bdbdb60c21b60448201526064016104bc565b610f7161210c565b8360007f00000000000000000000000000000000000000000000000000000000000000006001600160a01b031663026b1d5f6040518163ffffffff1660e01b815260040160206040518083038186803b158015610fcd57600080fd5b505afa158015610fe1573d6000803e3d6000fd5b505050506040513d601f19601f820116820180604052508101906110059190612ad3565b90506000816001600160a01b031663d1946dbc6040518163ffffffff1660e01b815260040160006040518083038186803b15801561104257600080fd5b505afa158015611056573d6000803e3d6000fd5b505050506040513d6000823e601f3d908101601f1916820160405261107e9190810190612bbc565b90506000805b82518160ff1610156110dd57828160ff16815181106110a5576110a5612c6e565b60200260200101516001600160a01b0316856001600160a01b031614156110cb57600191505b806110d581612c84565b915050611084565b508061112b5760405162461bcd60e51b815260206004820152601260248201527f746f6b656e206e6f7420617070726f766564000000000000000000000000000060448201526064016104bc565b600f546040517feda9c2d20000000000000000000000000000000000000000000000000000000081526001600160a01b038a811660048301527f0000000000000000000000000000000000000000000000000000000000000000811660248301528815156044830152606482019290925260009189169063eda9c2d290608401602060405180830381600087803b1580156111c557600080fd5b505af11580156111d9573d6000803e3d6000fd5b505050506040513d601f19601f820116820180604052508101906111fd9190612af0565b6001600160a01b038a1660009081526004602052604081208054929350839290919061122a908490612a18565b925050819055507f7276c0285f260d667df9ded71ca6a988145d36de1d14252710532b9de5f089fe33896001600160a01b0316631b88094d6040518163ffffffff1660e01b815260040160206040518083038186803b15801561128c57600080fd5b505afa1580156112a0573d6000803e3d6000fd5b505050506040513d601f19601f820116820180604052508101906112c49190612ad3565b604080516001600160a01b0393841681529183166020830152828c1690820152908b1660608201526080810183905260a00160405180910390a1505050505061130d6001600055565b50505050565b7f00000000000000000000000000000000000000000000000000000000000000006001600160a01b0316331461138b5760405162461bcd60e51b815260206004820152601060248201527f6e6f7420746865206d756c74695369670000000000000000000000000000000060448201526064016104bc565b6008816007811061139e5761139e612c6e565b0154600f5550565b8686600a8111156113f95760405162461bcd60e51b815260206004820152601d60248201527f746f6b656e206c697374206d757374206265203130206f72206c65737300000060448201526064016104bc565b60007f00000000000000000000000000000000000000000000000000000000000000006001600160a01b031663026b1d5f6040518163ffffffff1660e01b815260040160206040518083038186803b15801561145457600080fd5b505afa158015611468573d6000803e3d6000fd5b505050506040513d601f19601f8201168201806040525081019061148c9190612ad3565b90506000816001600160a01b031663d1946dbc6040518163ffffffff1660e01b815260040160006040518083038186803b1580156114c957600080fd5b505afa1580156114dd573d6000803e3d6000fd5b505050506040513d6000823e601f3d908101601f191682016040526115059190810190612bbc565b905060005b60ff81168411156115fc576000805b83518160ff16101561159b57838160ff168151811061153a5761153a612c6e565b60200260200101516001600160a01b031687878560ff1681811061156057611560612c6e565b9050602002016020810190611575919061265b565b6001600160a01b0316141561158957600191505b8061159381612c84565b915050611519565b50806115e95760405162461bcd60e51b815260206004820152601360248201527f746f6b656e73206e6f7420617070726f7665640000000000000000000000000060448201526064016104bc565b50806115f481612c84565b91505061150a565b5060006001600160a01b031660028a6040516116189190612ca4565b908152604051908190036020019020546001600160a01b03161461167e5760405162461bcd60e51b815260206004820152601d60248201527f706f6f6c2077697468206e616d6520616c72656164792065786973747300000060448201526064016104bc565b60006116a97f0000000000000000000000000000000000000000000000000000000000000000612360565b905060006116d67f0000000000000000000000000000000000000000000000000000000000000000612360565b90506000336001600160a01b037f0000000000000000000000000000000000000000000000000000000000000000161415611766575060078054600180820183556000929092527fa66cc928b5edb82af9bd49922954155ab7b0942694bea4ce44661d9a8736c68801805473ffffffffffffffffffffffffffffffffffffffff19166001600160a01b0385161790555b826001600160a01b031663bbc41f488f8f8f8f8f8f8f7f00000000000000000000000000000000000000000000000000000000000000007f00000000000000000000000000000000000000000000000000000000000000008c8c6040518c63ffffffff1660e01b81526004016117e69b9a99989796959493929190612cc0565b600060405180830381600087803b15801561180057600080fd5b505af1158015611814573d6000803e3d6000fd5b50506040517fc4d66de80000000000000000000000000000000000000000000000000000000081526001600160a01b0386811660048301528516925063c4d66de89150602401600060405180830381600087803b15801561187457600080fd5b505af1158015611888573d6000803e3d6000fd5b505050506001600160a01b03888116600090815260066020908152604080832080546001810182559084529190922001805473ffffffffffffffffffffffffffffffffffffffff1916928616929092179091555183906002906118ec908f90612ca4565b9081526040805160209281900383018120805473ffffffffffffffffffffffffffffffffffffffff19166001600160a01b03958616179055928616600090815260019283905220805460ff191690911790557f373adb264e07592e89e672b780912566106b06a5f7a7787e63a47ca627e915af9061196f9085908f908c90612db5565b60405180910390a15050505050505050505050505050565b606060078054806020026020016040519081016040528092919081815260200182805480156119df57602002820191906000526020600020905b81546001600160a01b031681526001909101906020018083116119c1575b5050505050905090565b606060007f00000000000000000000000000000000000000000000000000000000000000006001600160a01b031663026b1d5f6040518163ffffffff1660e01b815260040160206040518083038186803b158015611a4657600080fd5b505afa158015611a5a573d6000803e3d6000fd5b505050506040513d601f19601f82011682018060405250810190611a7e9190612ad3565b9050806001600160a01b031663d1946dbc6040518163ffffffff1660e01b815260040160006040518083038186803b158015611ab957600080fd5b505afa158015611acd573d6000803e3d6000fd5b505050506040513d6000823e601f3d908101601f19168201604052611af59190810190612bbc565b91505090565b6000807f00000000000000000000000000000000000000000000000000000000000000006001600160a01b031663026b1d5f6040518163ffffffff1660e01b815260040160206040518083038186803b158015611b5757600080fd5b505afa158015611b6b573d6000803e3d6000fd5b505050506040513d601f19601f82011682018060405250810190611b8f9190612ad3565b92915050565b6001600160a01b038316600090815260016020526040902054839060ff16611bea5760405162461bcd60e51b81526020600482015260086024820152671b9bdd081c1bdbdb60c21b60448201526064016104bc565b83336001600160a01b0316816001600160a01b0316631b88094d6040518163ffffffff1660e01b815260040160206040518083038186803b158015611c2e57600080fd5b505afa158015611c42573d6000803e3d6000fd5b505050506040513d601f19601f82011682018060405250810190611c669190612ad3565b6001600160a01b03161480611d1b5750806001600160a01b031663357286d76040518163ffffffff1660e01b815260040160206040518083038186803b158015611caf57600080fd5b505afa158015611cc3573d6000803e3d6000fd5b505050506040513d601f19601f82011682018060405250810190611ce79190612b78565b8015611d1b5750336001600160a01b037f000000000000000000000000000000000000000000000000000000000000000016145b611d675760405162461bcd60e51b815260206004820152600e60248201527f6e6f7420617574686f72697a656400000000000000000000000000000000000060448201526064016104bc565b6040517fd04d566a0000000000000000000000000000000000000000000000000000000081526001600160a01b0386169063d04d566a90611dae9087908790600401612deb565b600060405180830381600087803b158015611dc857600080fd5b505af1158015611ddc573d6000803e3d6000fd5b50506040513381527f43dc6ef74760f8cbc65f330b4ebc68f3473f893b65144b4ba1de2da01140f1f1925060200190505b60405180910390a15050505050565b6001600160a01b038316600090815260016020526040902054839060ff16611e715760405162461bcd60e51b81526020600482015260086024820152671b9bdd081c1bdbdb60c21b60448201526064016104bc565b83336001600160a01b0316816001600160a01b0316631b88094d6040518163ffffffff1660e01b815260040160206040518083038186803b158015611eb557600080fd5b505afa158015611ec9573d6000803e3d6000fd5b505050506040513d601f19601f82011682018060405250810190611eed9190612ad3565b6001600160a01b03161480611fa25750806001600160a01b031663357286d76040518163ffffffff1660e01b815260040160206040518083038186803b158015611f3657600080fd5b505afa158015611f4a573d6000803e3d6000fd5b505050506040513d601f19601f82011682018060405250810190611f6e9190612b78565b8015611fa25750336001600160a01b037f000000000000000000000000000000000000000000000000000000000000000016145b611fee5760405162461bcd60e51b815260206004820152600e60248201527f6e6f7420617574686f72697a656400000000000000000000000000000000000060448201526064016104bc565b6040517fd0e7a76e0000000000000000000000000000000000000000000000000000000081526001600160a01b0386169063d0e7a76e906120359087908790600401612deb565b600060405180830381600087803b15801561204f57600080fd5b505af1158015612063573d6000803e3d6000fd5b50506040513381527fe40741c3e9c19e2b1971d708b2c77f1b651c05e88f5b8e656db0d37a8a38e6d292506020019050611e0d565b6001600160a01b038116600090815260066020908152604091829020805483518184028101840190945280845260609392830182828015610ed3576020028201919060005260206000209081546001600160a01b03168152600190910190602001808311610eb55750505050509050919050565b6002600054141561215f5760405162461bcd60e51b815260206004820152601f60248201527f5265656e7472616e637947756172643a207265656e7472616e742063616c6c0060448201526064016104bc565b6002600055565b6040516001600160a01b038085166024830152831660448201526064810182905261130d9085907f23b872dd00000000000000000000000000000000000000000000000000000000906084015b60408051601f198184030181529190526020810180517bffffffffffffffffffffffffffffffffffffffffffffffffffffffff167fffffffff0000000000000000000000000000000000000000000000000000000090931692909217909152612401565b8015806122a05750604051636eb1769f60e11b81523060048201526001600160a01b03838116602483015284169063dd62ed3e9060440160206040518083038186803b15801561226657600080fd5b505afa15801561227a573d6000803e3d6000fd5b505050506040513d601f19601f8201168201806040525081019061229e9190612af0565b155b6123125760405162461bcd60e51b815260206004820152603660248201527f5361666545524332303a20617070726f76652066726f6d206e6f6e2d7a65726f60448201527f20746f206e6f6e2d7a65726f20616c6c6f77616e63650000000000000000000060648201526084016104bc565b6040516001600160a01b03831660248201526044810182905261235b9084907f095ea7b300000000000000000000000000000000000000000000000000000000906064016121b3565b505050565b6000763d602d80600a3d3981f3363d3d373d3d3d363d730000008260601b60e81c176000526e5af43d82803e903d91602b57fd5bf38260781b17602052603760096000f090506001600160a01b0381166123fc5760405162461bcd60e51b815260206004820152601660248201527f455243313136373a20637265617465206661696c65640000000000000000000060448201526064016104bc565b919050565b612413826001600160a01b031661259b565b61245f5760405162461bcd60e51b815260206004820152601f60248201527f5361666545524332303a2063616c6c20746f206e6f6e2d636f6e74726163740060448201526064016104bc565b600080836001600160a01b03168360405161247a9190612ca4565b6000604051808303816000865af19150503d80600081146124b7576040519150601f19603f3d011682016040523d82523d6000602084013e6124bc565b606091505b50915091508161250e5760405162461bcd60e51b815260206004820181905260248201527f5361666545524332303a206c6f772d6c6576656c2063616c6c206661696c656460448201526064016104bc565b80511561130d57808060200190518101906125299190612b78565b61130d5760405162461bcd60e51b815260206004820152602a60248201527f5361666545524332303a204552433230206f7065726174696f6e20646964206e60448201527f6f7420737563636565640000000000000000000000000000000000000000000060648201526084016104bc565b6000813f7fc5d2460186f7233c927e7db2dcc703c0e500b653ca82273b7bfad8045d85a4708181148015906125cf57508115155b949350505050565b6001600160a01b03811681146125ec57600080fd5b50565b80356123fc816125d7565b80151581146125ec57600080fd5b6000806000806080858703121561261e57600080fd5b843593506020850135612630816125d7565b92506040850135612640816125d7565b91506060850135612650816125fa565b939692955090935050565b60006020828403121561266d57600080fd5b8135612678816125d7565b9392505050565b6020808252825182820181905260009190848201906040850190845b818110156126c05783516001600160a01b03168352928401929184019160010161269b565b50909695505050505050565b60008083601f8401126126de57600080fd5b50813567ffffffffffffffff8111156126f657600080fd5b60208301915083602082850101111561270e57600080fd5b9250929050565b6000806020838503121561272857600080fd5b823567ffffffffffffffff81111561273f57600080fd5b61274b858286016126cc565b90969095509350505050565b60008060006060848603121561276c57600080fd5b8335612777816125d7565b92506020840135612787816125d7565b91506040840135612797816125fa565b809150509250925092565b6000602082840312156127b457600080fd5b5035919050565b60008083601f8401126127cd57600080fd5b50813567ffffffffffffffff8111156127e557600080fd5b6020830191508360208260051b850101111561270e57600080fd5b634e487b7160e01b600052604160045260246000fd5b604051601f8201601f1916810167ffffffffffffffff8111828210171561283f5761283f612800565b604052919050565b600067ffffffffffffffff82111561286157612861612800565b50601f01601f191660200190565b600082601f83011261288057600080fd5b813561289361288e82612847565b612816565b8181528460208386010111156128a857600080fd5b816020850160208301376000918101602001919091529392505050565b600080600080600080600060c0888a0312156128e057600080fd5b873567ffffffffffffffff808211156128f857600080fd5b6129048b838c016127bb565b909950975060208a013591508082111561291d57600080fd5b6129298b838c0161286f565b965060408a013591508082111561293f57600080fd5b61294b8b838c0161286f565b955060608a013591508082111561296157600080fd5b61296d8b838c0161286f565b945060808a013591508082111561298357600080fd5b506129908a828b0161286f565b92505061299f60a089016125ef565b905092959891949750929550565b6000806000604084860312156129c257600080fd5b83356129cd816125d7565b9250602084013567ffffffffffffffff8111156129e957600080fd5b6129f5868287016126cc565b9497909650939450505050565b634e487b7160e01b600052601160045260246000fd5b60008219821115612a2b57612a2b612a02565b500190565b60005b83811015612a4b578181015183820152602001612a33565b8381111561130d5750506000910152565b600060208284031215612a6e57600080fd5b815167ffffffffffffffff811115612a8557600080fd5b8201601f81018413612a9657600080fd5b8051612aa461288e82612847565b818152856020838501011115612ab957600080fd5b612aca826020830160208601612a30565b95945050505050565b600060208284031215612ae557600080fd5b8151612678816125d7565b600060208284031215612b0257600080fd5b5051919050565b60008151808452612b21816020860160208601612a30565b601f01601f19169290920160200192915050565b60006001600160a01b03808816835286602084015285604084015280851660608401525060a06080830152612b6d60a0830184612b09565b979650505050505050565b600060208284031215612b8a57600080fd5b8151612678816125fa565b600082821015612ba757612ba7612a02565b500390565b8183823760009101908152919050565b60006020808385031215612bcf57600080fd5b825167ffffffffffffffff80821115612be757600080fd5b818501915085601f830112612bfb57600080fd5b815181811115612c0d57612c0d612800565b8060051b9150612c1e848301612816565b8181529183018401918481019088841115612c3857600080fd5b938501935b83851015612c625784519250612c52836125d7565b8282529385019390850190612c3d565b98975050505050505050565b634e487b7160e01b600052603260045260246000fd5b600060ff821660ff811415612c9b57612c9b612a02565b60010192915050565b60008251612cb6818460208701612a30565b9190910192915050565b61014080825281018b9052600061016082018d825b8e811015612d06578135612ce8816125d7565b6001600160a01b031683526020928301929190910190600101612cd5565b50508281036020840152612d1a818d612b09565b90508281036040840152612d2e818c612b09565b90508281036060840152612d42818b612b09565b90508281036080840152612d56818a612b09565b915050612d6e60a08301886001600160a01b03169052565b6001600160a01b03861660c08301526001600160a01b03851660e08301526001600160a01b0384166101008301528215156101208301529c9b505050505050505050505050565b60006001600160a01b03808616835260606020840152612dd86060840186612b09565b9150808416604084015250949350505050565b60208152816020820152818360408301376000818301604090810191909152601f909201601f1916010191905056fea264697066735822122055e2ae2b59a206e6480743ad6b9da9b2a6799d5ea4d6088891991644dc49f4ac64736f6c63430008090033608060405234801561001057600080fd5b506003805460ff191660011790556129418061002d6000396000f3fe608060405234801561001057600080fd5b506004361061018c5760003560e01c8063373d7c3f116100e35780638aebe8d61161008c578063d0e7a76e11610066578063d0e7a76e1461038a578063d15e00531461039d578063eda9c2d2146103b057600080fd5b80638aebe8d614610351578063bbc41f4814610364578063d04d566a1461037757600080fd5b806360246c88116100bd57806360246c88146102d257806367e0e076146102ed578063711cc0051461033e57600080fd5b8063373d7c3f1461028e57806347e7ef24146102965780635ff189b9146102a957600080fd5b806317d7de7c11610145578063343d693b1161011f578063343d693b1461025d578063357286d7146102655780633735ef881461027b57600080fd5b806317d7de7c1461022f5780631b88094d146102375780632f7570061461024857600080fd5b80630712f6b3116101765780630712f6b3146101f257806312eeff7e14610205578063155d8e9c1461021a57600080fd5b80627ffb78146101915780630251cfa1146101bb575b600080fd5b6005546001600160a01b03165b6040516001600160a01b0390911681526020015b60405180910390f35b6101e46101c93660046120e5565b6001600160a01b031660009081526001602052604090205490565b6040519081526020016101b2565b6101e46102003660046120e5565b6103c3565b61021861021336600461211b565b610451565b005b610222610798565b6040516101b291906121c6565b61022261082a565b6007546001600160a01b031661019e565b610250610839565b6040516101b2919061221d565b61022261089a565b600d5460ff1660405190151581526020016101b2565b6101e46102893660046120e5565b6108a9565b610222610960565b6102186102a4366004612230565b61096f565b6101e46102b73660046120e5565b6001600160a01b031660009081526002602052604090205490565b6102da610a9c565b6040516101b2979695949392919061225c565b6103006102fb3660046120e5565b610d7a565b604080519788526020880196909652948601939093526060850191909152608084015260a08301526001600160a01b031660c082015260e0016101b2565b61019e61034c3660046120e5565b610dfb565b6101e461035f3660046120e5565b610f0e565b6102186103723660046123fb565b611032565b61021861038536600461252b565b61139e565b61021861039836600461252b565b6113f9565b6101e46103ab3660046120e5565b61144f565b6101e46103be36600461259d565b611523565b6000806103cf83610dfb565b6040516370a0823160e01b81523060048201529091506001600160a01b038216906370a08231906024015b60206040518083038186803b15801561041257600080fd5b505afa158015610426573d6000803e3d6000fd5b505050506040513d601f19601f8201168201806040525081019061044a91906125ee565b9392505050565b6008546001600160a01b031633146104a05760405162461bcd60e51b815260206004820152600d60248201526c3737ba103a34329037bbb732b960991b60448201526064015b60405180910390fd5b6000600360019054906101000a90046001600160a01b03166001600160a01b031663026b1d5f6040518163ffffffff1660e01b815260040160206040518083038186803b1580156104f057600080fd5b505afa158015610504573d6000803e3d6000fd5b505050506040513d601f19601f820116820180604052508101906105289190612612565b6001600160a01b038616600090815260016020526040812080549293508692909190610555908490612645565b909155508290506105f057604051631a4ca37b60e21b81526001600160a01b0386811660048301526024820186905284811660448301528216906369328dec90606401602060405180830381600087803b1580156105b257600080fd5b505af11580156105c6573d6000803e3d6000fd5b505050506040513d601f19601f820116820180604052508101906105ea91906125ee565b50610791565b6000600460009054906101000a90046001600160a01b03166001600160a01b031663affa88176040518163ffffffff1660e01b815260040160206040518083038186803b15801561064057600080fd5b505afa158015610654573d6000803e3d6000fd5b505050506040513d601f19601f820116820180604052508101906106789190612612565b9050856001600160a01b0316816001600160a01b0316146106db5760405162461bcd60e51b815260206004820181905260248201527f617373657420646f6573206e6f74206d617463682057455448476174657761796044820152606401610497565b60006106e682610dfb565b600454909150610704906001600160a01b0380841691166000611b6f565b60045461071e906001600160a01b03838116911688611b6f565b60048054604051630402806960e51b81526001600160a01b03868116938201939093526024810189905287831660448201529116906380500d2090606401600060405180830381600087803b15801561077657600080fd5b505af115801561078a573d6000803e3d6000fd5b5050505050505b5050505050565b6060600b80546107a79061265c565b80601f01602080910402602001604051908101604052809291908181526020018280546107d39061265c565b80156108205780601f106107f557610100808354040283529160200191610820565b820191906000526020600020905b81548152906001019060200180831161080357829003601f168201915b5050505050905090565b6060600980546107a79061265c565b6060600680548060200260200160405190810160405280929190818152602001828054801561082057602002820191906000526020600020905b81546001600160a01b03168152600190910190602001808311610873575050505050905090565b6060600a80546107a79061265c565b6000806108b583610dfb565b6040516370a0823160e01b81523060048201529091506000906001600160a01b038316906370a082319060240160206040518083038186803b1580156108fa57600080fd5b505afa15801561090e573d6000803e3d6000fd5b505050506040513d601f19601f8201168201806040525081019061093291906125ee565b6001600160a01b0385166000908152600160205260409020549091506109589082612645565b949350505050565b6060600c80546107a79061265c565b6008546001600160a01b031633146109b95760405162461bcd60e51b815260206004820152600d60248201526c3737ba103a34329037bbb732b960991b6044820152606401610497565b816000805b60065460ff82161015610a1b5760068160ff16815481106109e1576109e1612697565b6000918252602090912001546001600160a01b0384811691161415610a095760019150610a1b565b80610a13816126ad565b9150506109be565b5080610a695760405162461bcd60e51b815260206004820152601c60248201527f746f6b656e206e6f74206163636570746564206279206a63706f6f6c000000006044820152606401610497565b6001600160a01b03841660009081526001602052604081208054859290610a919084906126cd565b909155505050505050565b60606000806060806060806006600760009054906101000a90046001600160a01b0316600d60009054906101000a900460ff16600c600b600a600986805480602002602001604051908101604052809291908181526020018280548015610b2c57602002820191906000526020600020905b81546001600160a01b03168152600190910190602001808311610b0e575b50505050509650838054610b3f9061265c565b80601f0160208091040260200160405190810160405280929190818152602001828054610b6b9061265c565b8015610bb85780601f10610b8d57610100808354040283529160200191610bb8565b820191906000526020600020905b815481529060010190602001808311610b9b57829003601f168201915b50505050509350828054610bcb9061265c565b80601f0160208091040260200160405190810160405280929190818152602001828054610bf79061265c565b8015610c445780601f10610c1957610100808354040283529160200191610c44565b820191906000526020600020905b815481529060010190602001808311610c2757829003601f168201915b50505050509250818054610c579061265c565b80601f0160208091040260200160405190810160405280929190818152602001828054610c839061265c565b8015610cd05780601f10610ca557610100808354040283529160200191610cd0565b820191906000526020600020905b815481529060010190602001808311610cb357829003601f168201915b50505050509150808054610ce39061265c565b80601f0160208091040260200160405190810160405280929190818152602001828054610d0f9061265c565b8015610d5c5780601f10610d3157610100808354040283529160200191610d5c565b820191906000526020600020905b815481529060010190602001808311610d3f57829003601f168201915b50505050509050965096509650965096509650965090919293949596565b6000806000806000806000610d8e88610f0e565b610d978961144f565b610da08a6103c3565b6001600160a01b038b16600090815260026020526040902054610dc28c6108a9565b6001600160a01b038d16600090815260016020526040902054610de48e610dfb565b959e949d50929b5090995097509550909350915050565b600080600360019054906101000a90046001600160a01b03166001600160a01b031663026b1d5f6040518163ffffffff1660e01b815260040160206040518083038186803b158015610e4c57600080fd5b505afa158015610e60573d6000803e3d6000fd5b505050506040513d601f19601f82011682018060405250810190610e849190612612565b6040516335ea6a7560e01b81526001600160a01b038581166004830152919250908216906335ea6a75906024016101e06040518083038186803b158015610eca57600080fd5b505afa158015610ede573d6000803e3d6000fd5b505050506040513d601f19601f82011682018060405250810190610f02919061276e565b61010001519392505050565b600080600360019054906101000a90046001600160a01b03166001600160a01b031663026b1d5f6040518163ffffffff1660e01b815260040160206040518083038186803b158015610f5f57600080fd5b505afa158015610f73573d6000803e3d6000fd5b505050506040513d601f19601f82011682018060405250810190610f979190612612565b6040516335ea6a7560e01b81526001600160a01b038581166004830152919250908216906335ea6a75906024016101e06040518083038186803b158015610fdd57600080fd5b505afa158015610ff1573d6000803e3d6000fd5b505050506040513d601f19601f82011682018060405250810190611015919061276e565b602001516fffffffffffffffffffffffffffffffff169392505050565b88518990603c90829082101561108a5760405162461bcd60e51b815260206004820152601b60248201527f737472696e67206f76657220636861726163746572206c696d697400000000006044820152606401610497565b600054610100900460ff16158080156110aa5750600054600160ff909116105b806110c45750303b1580156110c4575060005460ff166001145b6111365760405162461bcd60e51b815260206004820152602e60248201527f496e697469616c697a61626c653a20636f6e747261637420697320616c72656160448201527f647920696e697469616c697a65640000000000000000000000000000000000006064820152608401610497565b6000805460ff191660011790558015611159576000805461ff0019166101001790555b60035460ff16156111ac5760405162461bcd60e51b815260206004820152601660248201527f43616e6e6f7420696e697469616c697a652062617365000000000000000000006044820152606401610497565b6007546001600160a01b0316156112055760405162461bcd60e51b815260206004820152601960248201527f496e697469616c697a6520616c72656164792063616c6c6564000000000000006044820152606401610497565b88600760006101000a8154816001600160a01b0302191690836001600160a01b0316021790555033600860006101000a8154816001600160a01b0302191690836001600160a01b031602179055508c60099080519060200190611269929190611f45565b508b5161127d90600a9060208f0190611f45565b508a5161129190600b9060208e0190611f45565b5089516112a590600c9060208d0190611f45565b5084600d60006101000a81548160ff02191690831515021790555087600360016101000a8154816001600160a01b0302191690836001600160a01b0316021790555086600460006101000a8154816001600160a01b0302191690836001600160a01b0316021790555085600560006101000a8154816001600160a01b0302191690836001600160a01b031602179055508e8e60069190611346929190611fc9565b50801561138d576000805461ff0019169055604051600181527f7f26b83ff96e1f2b6a682f133852f6798a09c465da95921460cefb38474024989060200160405180910390a15b505050505050505050505050505050565b6008546001600160a01b031633146113e85760405162461bcd60e51b815260206004820152600d60248201526c3737ba103a34329037bbb732b960991b6044820152606401610497565b6113f4600a8383612034565b505050565b6008546001600160a01b031633146114435760405162461bcd60e51b815260206004820152600d60248201526c3737ba103a34329037bbb732b960991b6044820152606401610497565b6113f4600c8383612034565b600080600360019054906101000a90046001600160a01b03166001600160a01b031663026b1d5f6040518163ffffffff1660e01b815260040160206040518083038186803b1580156114a057600080fd5b505afa1580156114b4573d6000803e3d6000fd5b505050506040513d601f19601f820116820180604052508101906114d89190612612565b6040517fd15e00530000000000000000000000000000000000000000000000000000000081526001600160a01b0385811660048301529192509082169063d15e0053906024016103fa565b6008546000906001600160a01b031633146115705760405162461bcd60e51b815260206004820152600d60248201526c3737ba103a34329037bbb732b960991b6044820152606401610497565b600061157b86610dfb565b6040516370a0823160e01b81523060048201529091506000906001600160a01b038316906370a082319060240160206040518083038186803b1580156115c057600080fd5b505afa1580156115d4573d6000803e3d6000fd5b505050506040513d601f19601f820116820180604052508101906115f891906125ee565b6001600160a01b0388166000908152600160205260408120549192509061161f9083612645565b6001600160a01b03891660009081526002602052604081208054929350839290919061164c9084906126cd565b9250508190555060008190506000600360019054906101000a90046001600160a01b03166001600160a01b031663026b1d5f6040518163ffffffff1660e01b815260040160206040518083038186803b1580156116a857600080fd5b505afa1580156116bc573d6000803e3d6000fd5b505050506040513d601f19601f820116820180604052508101906116e09190612612565b9050876118bf578661178057600754604051631a4ca37b60e21b81526001600160a01b038c81166004830152602482018690529182166044820152908216906369328dec90606401602060405180830381600087803b15801561174257600080fd5b505af1158015611756573d6000803e3d6000fd5b505050506040513d601f19601f8201168201806040525081019061177a91906125ee565b50611b62565b600061178c8489611d03565b9050600061179a8286612645565b600754604051631a4ca37b60e21b81526001600160a01b038f811660048301526024820184905291821660448201529192508416906369328dec90606401602060405180830381600087803b1580156117f257600080fd5b505af1158015611806573d6000803e3d6000fd5b505050506040513d601f19601f8201168201806040525081019061182a91906125ee565b50604051631a4ca37b60e21b81526001600160a01b038d81166004830152602482018490528c811660448301528416906369328dec90606401602060405180830381600087803b15801561187d57600080fd5b505af1158015611891573d6000803e3d6000fd5b505050506040513d601f19601f820116820180604052508101906118b591906125ee565b509250611b629050565b60048054604080517faffa881700000000000000000000000000000000000000000000000000000000815290516001600160a01b03808f169493169263affa881792808201926020929091829003018186803b15801561191e57600080fd5b505afa158015611932573d6000803e3d6000fd5b505050506040513d601f19601f820116820180604052508101906119569190612612565b6001600160a01b0316146119ac5760405162461bcd60e51b815260206004820181905260248201527f617373657420646f6573206e6f74206d617463682057455448476174657761796044820152606401610497565b6004546119c7906001600160a01b0387811691166000611b6f565b6004546119e1906001600160a01b03878116911685611b6f565b86611a5e5760048054600754604051630402806960e51b81526001600160a01b03858116948201949094526024810187905290831660448201529116906380500d2090606401600060405180830381600087803b158015611a4157600080fd5b505af1158015611a55573d6000803e3d6000fd5b50505050611b62565b6000611a6a8489611d03565b90506000611a788286612645565b60048054600754604051630402806960e51b81526001600160a01b038881169482019490945260248101859052908316604482015292935016906380500d2090606401600060405180830381600087803b158015611ad557600080fd5b505af1158015611ae9573d6000803e3d6000fd5b505060048054604051630402806960e51b81526001600160a01b0388811693820193909352602481018790528f83166044820152911692506380500d209150606401600060405180830381600087803b158015611b4557600080fd5b505af1158015611b59573d6000803e3d6000fd5b50929550505050505b5098975050505050505050565b801580611c1157506040517fdd62ed3e0000000000000000000000000000000000000000000000000000000081523060048201526001600160a01b03838116602483015284169063dd62ed3e9060440160206040518083038186803b158015611bd757600080fd5b505afa158015611beb573d6000803e3d6000fd5b505050506040513d601f19601f82011682018060405250810190611c0f91906125ee565b155b611c835760405162461bcd60e51b815260206004820152603660248201527f5361666545524332303a20617070726f76652066726f6d206e6f6e2d7a65726f60448201527f20746f206e6f6e2d7a65726f20616c6c6f77616e6365000000000000000000006064820152608401610497565b604080516001600160a01b038416602482015260448082018490528251808303909101815260649091019091526020810180517bffffffffffffffffffffffffffffffffffffffffffffffffffffffff167f095ea7b3000000000000000000000000000000000000000000000000000000001790526113f4908490611d6c565b600080612710611d138486612891565b611d1d91906128b0565b90508061044a5760405162461bcd60e51b815260206004820152601960248201527f6e6f7420656e6f7567682066756e647320746f20636c61696d000000000000006044820152606401610497565b611d7e826001600160a01b0316611f0c565b611dca5760405162461bcd60e51b815260206004820152601f60248201527f5361666545524332303a2063616c6c20746f206e6f6e2d636f6e7472616374006044820152606401610497565b600080836001600160a01b031683604051611de591906128d2565b6000604051808303816000865af19150503d8060008114611e22576040519150601f19603f3d011682016040523d82523d6000602084013e611e27565b606091505b509150915081611e795760405162461bcd60e51b815260206004820181905260248201527f5361666545524332303a206c6f772d6c6576656c2063616c6c206661696c65646044820152606401610497565b805115611f065780806020019051810190611e9491906128ee565b611f065760405162461bcd60e51b815260206004820152602a60248201527f5361666545524332303a204552433230206f7065726174696f6e20646964206e60448201527f6f742073756363656564000000000000000000000000000000000000000000006064820152608401610497565b50505050565b6000813f7fc5d2460186f7233c927e7db2dcc703c0e500b653ca82273b7bfad8045d85a470818114801590610958575050151592915050565b828054611f519061265c565b90600052602060002090601f016020900481019282611f735760008555611fb9565b82601f10611f8c57805160ff1916838001178555611fb9565b82800160010185558215611fb9579182015b82811115611fb9578251825591602001919060010190611f9e565b50611fc59291506120a8565b5090565b828054828255906000526020600020908101928215611fb9579160200282015b82811115611fb95781547fffffffffffffffffffffffff0000000000000000000000000000000000000000166001600160a01b03843516178255602090920191600190910190611fe9565b8280546120409061265c565b90600052602060002090601f0160209004810192826120625760008555611fb9565b82601f1061207b5782800160ff19823516178555611fb9565b82800160010185558215611fb9579182015b82811115611fb957823582559160200191906001019061208d565b5b80821115611fc557600081556001016120a9565b6001600160a01b03811681146120d257600080fd5b50565b80356120e0816120bd565b919050565b6000602082840312156120f757600080fd5b813561044a816120bd565b80151581146120d257600080fd5b80356120e081612102565b6000806000806080858703121561213157600080fd5b843561213c816120bd565b9350602085013592506040850135612153816120bd565b9150606085013561216381612102565b939692955090935050565b60005b83811015612189578181015183820152602001612171565b83811115611f065750506000910152565b600081518084526121b281602086016020860161216e565b601f01601f19169290920160200192915050565b60208152600061044a602083018461219a565b600081518084526020808501945080840160005b838110156122125781516001600160a01b0316875295820195908201906001016121ed565b509495945050505050565b60208152600061044a60208301846121d9565b6000806040838503121561224357600080fd5b823561224e816120bd565b946020939093013593505050565b60e08152600061226f60e083018a6121d9565b6001600160a01b038916602084015287151560408401528281036060840152612298818861219a565b905082810360808401526122ac818761219a565b905082810360a08401526122c0818661219a565b905082810360c08401526122d4818561219a565b9a9950505050505050505050565b60008083601f8401126122f457600080fd5b50813567ffffffffffffffff81111561230c57600080fd5b6020830191508360208260051b850101111561232757600080fd5b9250929050565b634e487b7160e01b600052604160045260246000fd5b6040516101e0810167ffffffffffffffff811182821017156123685761236861232e565b60405290565b600082601f83011261237f57600080fd5b813567ffffffffffffffff8082111561239a5761239a61232e565b604051601f8301601f19908116603f011681019082821181831017156123c2576123c261232e565b816040528381528660208588010111156123db57600080fd5b836020870160208301376000602085830101528094505050505092915050565b60008060008060008060008060008060006101408c8e03121561241d57600080fd5b67ffffffffffffffff808d35111561243457600080fd5b6124418e8e358f016122e2565b909c509a5060208d013581101561245757600080fd5b6124678e60208f01358f0161236e565b99508060408e0135111561247a57600080fd5b61248a8e60408f01358f0161236e565b98508060608e0135111561249d57600080fd5b6124ad8e60608f01358f0161236e565b97508060808e013511156124c057600080fd5b506124d18d60808e01358e0161236e565b95506124df60a08d016120d5565b94506124ed60c08d016120d5565b93506124fb60e08d016120d5565b925061250a6101008d016120d5565b91506125196101208d01612110565b90509295989b509295989b9093969950565b6000806020838503121561253e57600080fd5b823567ffffffffffffffff8082111561255657600080fd5b818501915085601f83011261256a57600080fd5b81358181111561257957600080fd5b86602082850101111561258b57600080fd5b60209290920196919550909350505050565b600080600080608085870312156125b357600080fd5b84356125be816120bd565b935060208501356125ce816120bd565b925060408501356125de81612102565b9396929550929360600135925050565b60006020828403121561260057600080fd5b5051919050565b80516120e0816120bd565b60006020828403121561262457600080fd5b815161044a816120bd565b634e487b7160e01b600052601160045260246000fd5b6000828210156126575761265761262f565b500390565b600181811c9082168061267057607f821691505b6020821081141561269157634e487b7160e01b600052602260045260246000fd5b50919050565b634e487b7160e01b600052603260045260246000fd5b600060ff821660ff8114156126c4576126c461262f565b60010192915050565b600082198211156126e0576126e061262f565b500190565b6000602082840312156126f757600080fd5b6040516020810181811067ffffffffffffffff8211171561271a5761271a61232e565b6040529151825250919050565b80516fffffffffffffffffffffffffffffffff811681146120e057600080fd5b805164ffffffffff811681146120e057600080fd5b805161ffff811681146120e057600080fd5b60006101e0828403121561278157600080fd5b612789612344565b61279384846126e5565b81526127a160208401612727565b60208201526127b260408401612727565b60408201526127c360608401612727565b60608201526127d460808401612727565b60808201526127e560a08401612727565b60a08201526127f660c08401612747565b60c082015261280760e0840161275c565b60e082015261010061281a818501612607565b9082015261012061282c848201612607565b9082015261014061283e848201612607565b90820152610160612850848201612607565b90820152610180612862848201612727565b908201526101a0612874848201612727565b908201526101c0612886848201612727565b908201529392505050565b60008160001904831182151516156128ab576128ab61262f565b500290565b6000826128cd57634e487b7160e01b600052601260045260246000fd5b500490565b600082516128e481846020870161216e565b9190910192915050565b60006020828403121561290057600080fd5b815161044a8161210256fea264697066735822122075c6a3010f94a50f5ce256d34d1125a1aebda7bbdf360a0ea9d47fe3dfe7de3f64736f6c63430008090033608060405234801561001057600080fd5b5061234b806100206000396000f3fe608060405234801561001057600080fd5b506004361061016c5760003560e01c8063519dc8d2116100cd578063a22cb46511610081578063c4d66de811610066578063c4d66de814610327578063c87b56dd1461033a578063e985e9c51461034d57600080fd5b8063a22cb46514610301578063b88d4fde1461031457600080fd5b80636352211e116100b25780636352211e146102d357806370a08231146102e657806395d89b41146102f957600080fd5b8063519dc8d2146102755780635328c2bf1461029557600080fd5b806323b872dd116101245780632e0c3f3c116101095780632e0c3f3c1461022157806342842e0e1461024f57806347c6b45e1461026257600080fd5b806323b872dd146101fb57806326a45ffb1461020e57600080fd5b806306fdde031161015557806306fdde03146101be578063081812fc146101d3578063095ea7b3146101e657600080fd5b806301ffc9a714610171578063026b1d5f14610199575b600080fd5b61018461017f366004611d4f565b610389565b60405190151581526020015b60405180910390f35b60c9546001600160a01b03165b6040516001600160a01b039091168152602001610190565b6101c66103cd565b6040516101909190611dc4565b6101a66101e1366004611dd7565b61045f565b6101f96101f4366004611e05565b610486565b005b6101f9610209366004611e31565b6105bd565b61018461021c366004611e72565b610634565b61024161022f366004611dd7565b600090815260cb602052604090205490565b604051908152602001610190565b6101f961025d366004611e31565b6107d1565b6101f9610270366004611f1c565b6107ec565b610288610283366004611f5e565b61097f565b6040516101909190611f7b565b6102a86102a3366004611dd7565b610b46565b604080518251815260208084015190820152918101516001600160a01b031690820152606001610190565b6101a66102e1366004611dd7565b610bb5565b6102416102f4366004611f5e565b610c1a565b6101c6610cb4565b6101f961030f366004611fbf565b610cc3565b6101f9610322366004612044565b610cd2565b6101f9610335366004611f5e565b610d50565b6101c6610348366004611dd7565b610f06565b61018461035b366004612108565b6001600160a01b039182166000908152606a6020908152604080832093909416825291909152205460ff1690565b60006001600160e01b031982167f490649060000000000000000000000000000000000000000000000000000000014806103c757506103c782610f11565b92915050565b6060606580546103dc90612136565b80601f016020809104026020016040519081016040528092919081815260200182805461040890612136565b80156104555780601f1061042a57610100808354040283529160200191610455565b820191906000526020600020905b81548152906001019060200180831161043857829003601f168201915b5050505050905090565b600061046a82610fac565b506000908152606960205260409020546001600160a01b031690565b600061049182610bb5565b9050806001600160a01b0316836001600160a01b031614156105205760405162461bcd60e51b815260206004820152602160248201527f4552433732313a20617070726f76616c20746f2063757272656e74206f776e6560448201527f720000000000000000000000000000000000000000000000000000000000000060648201526084015b60405180910390fd5b336001600160a01b038216148061053c575061053c813361035b565b6105ae5760405162461bcd60e51b815260206004820152603d60248201527f4552433732313a20617070726f76652063616c6c6572206973206e6f7420746f60448201527f6b656e206f776e6572206f7220617070726f76656420666f7220616c6c0000006064820152608401610517565b6105b88383611013565b505050565b6105c73382611081565b6106295760405162461bcd60e51b815260206004820152602d60248201527f4552433732313a2063616c6c6572206973206e6f7420746f6b656e206f776e6560448201526c1c881bdc88185c1c1c9bdd9959609a1b6064820152608401610517565b6105b8838383611100565b60ca546000906001600160a01b031633146106815760405162461bcd60e51b815260206004820152600d60248201526c3737ba103a34329037bbb732b960991b6044820152606401610517565b60c954604080516bffffffffffffffffffffffff1960608b811b821660208085019190915294811b8216603484015288901b1660488201528151808203603c018152605c909101825280519083012060008181526067909352908220549091906001600160a01b03161561071f57600082815260cb602052604081206001810189905580548a9290610714908490612187565b909155506107c59050565b6040805160608101825289815260208082018a81526001600160a01b038a8116848601908152600088815260cb90945294909220925183555160018301559151600290910180546001600160a01b031916919092161790556107818983611306565b6107c18286868080601f01602080910402602001604051908101604052809392919081815260200183838082843760009201919091525061149f92505050565b5060015b98975050505050505050565b6105b883838360405180602001604052806000815250610cd2565b60ca546001600160a01b031633146108365760405162461bcd60e51b815260206004820152600d60248201526c3737ba103a34329037bbb732b960991b6044820152606401610517565b60c954604080516bffffffffffffffffffffffff19606087811b821660208085019190915294811b8216603484015285901b1660488201528151808203603c018152605c9091018252805190830120600081815260679093529120546001600160a01b03166108e75760405162461bcd60e51b815260206004820152601560248201527f746f6b656e496420646f65736e277420657869737400000000000000000000006044820152606401610517565b600081815260cb6020526040902054838110156109465760405162461bcd60e51b815260206004820152601460248201527f696e73756666696369656e742062616c616e63650000000000000000000000006044820152606401610517565b610950848261219f565b90508061096a57600082815260cb60205260408120600101555b600091825260cb602052604090912055505050565b6060600060c960009054906101000a90046001600160a01b03166001600160a01b0316632f7570066040518163ffffffff1660e01b815260040160006040518083038186803b1580156109d157600080fd5b505afa1580156109e5573d6000803e3d6000fd5b505050506040513d6000823e601f3d908101601f19168201604052610a0d91908101906121b6565b805190915060008167ffffffffffffffff811115610a2d57610a2d611ffd565b604051908082528060200260200182016040528015610a56578160200160208202803683370190505b50905060005b82811015610b3d5760008660c960009054906101000a90046001600160a01b0316868481518110610a8f57610a8f61225c565b6020026020010151604051602001610ad493929190606093841b6bffffffffffffffffffffffff19908116825292841b83166014820152921b166028820152603c0190565b60408051601f198184030181529181528151602092830120600081815260679093529120549091506001600160a01b031615610b2a5780838381518110610b1d57610b1d61225c565b6020026020010181815250505b5080610b3581612272565b915050610a5c565b50949350505050565b610b736040518060600160405280600081526020016000815260200160006001600160a01b031681525090565b50600090815260cb6020908152604091829020825160608101845281548152600182015492810192909252600201546001600160a01b03169181019190915290565b6000818152606760205260408120546001600160a01b0316806103c75760405162461bcd60e51b815260206004820152601860248201527f4552433732313a20696e76616c696420746f6b656e20494400000000000000006044820152606401610517565b60006001600160a01b038216610c985760405162461bcd60e51b815260206004820152602960248201527f4552433732313a2061646472657373207a65726f206973206e6f74206120766160448201527f6c6964206f776e657200000000000000000000000000000000000000000000006064820152608401610517565b506001600160a01b031660009081526068602052604090205490565b6060606680546103dc90612136565b610cce338383611579565b5050565b610cdc3383611081565b610d3e5760405162461bcd60e51b815260206004820152602d60248201527f4552433732313a2063616c6c6572206973206e6f7420746f6b656e206f776e6560448201526c1c881bdc88185c1c1c9bdd9959609a1b6064820152608401610517565b610d4a84848484611648565b50505050565b600054610100900460ff1615808015610d705750600054600160ff909116105b80610d8a5750303b158015610d8a575060005460ff166001145b610dfc5760405162461bcd60e51b815260206004820152602e60248201527f496e697469616c697a61626c653a20636f6e747261637420697320616c72656160448201527f647920696e697469616c697a65640000000000000000000000000000000000006064820152608401610517565b6000805460ff191660011790558015610e1f576000805461ff0019166101001790555b610e936040518060400160405280601581526020017f4a435020436f6e7472696275746f7220546f6b656e00000000000000000000008152506040518060400160405280600481526020017f4a435043000000000000000000000000000000000000000000000000000000008152506116d1565b60c980546001600160a01b0384166001600160a01b03199182161790915560ca8054909116331790558015610cce576000805461ff0019169055604051600181527f7f26b83ff96e1f2b6a682f133852f6798a09c465da95921460cefb3847402498906020015b60405180910390a15050565b60606103c782611746565b60006001600160e01b031982167f80ac58cd000000000000000000000000000000000000000000000000000000001480610f7457506001600160e01b031982167f5b5e139f00000000000000000000000000000000000000000000000000000000145b806103c757507f01ffc9a7000000000000000000000000000000000000000000000000000000006001600160e01b03198316146103c7565b6000818152606760205260409020546001600160a01b03166110105760405162461bcd60e51b815260206004820152601860248201527f4552433732313a20696e76616c696420746f6b656e20494400000000000000006044820152606401610517565b50565b600081815260696020526040902080546001600160a01b0319166001600160a01b038416908117909155819061104882610bb5565b6001600160a01b03167f8c5be1e5ebec7d5bd14f71427d1e84f3dd0314c0f7b2291e5b200ac8c7c3b92560405160405180910390a45050565b60008061108d83610bb5565b9050806001600160a01b0316846001600160a01b031614806110d457506001600160a01b038082166000908152606a602090815260408083209388168352929052205460ff165b806110f85750836001600160a01b03166110ed8461045f565b6001600160a01b0316145b949350505050565b826001600160a01b031661111382610bb5565b6001600160a01b0316146111775760405162461bcd60e51b815260206004820152602560248201527f4552433732313a207472616e736665722066726f6d20696e636f72726563742060448201526437bbb732b960d91b6064820152608401610517565b6001600160a01b0382166111f25760405162461bcd60e51b8152602060048201526024808201527f4552433732313a207472616e7366657220746f20746865207a65726f2061646460448201527f72657373000000000000000000000000000000000000000000000000000000006064820152608401610517565b6111ff838383600161184f565b826001600160a01b031661121282610bb5565b6001600160a01b0316146112765760405162461bcd60e51b815260206004820152602560248201527f4552433732313a207472616e736665722066726f6d20696e636f72726563742060448201526437bbb732b960d91b6064820152608401610517565b600081815260696020908152604080832080546001600160a01b03199081169091556001600160a01b0387811680865260688552838620805460001901905590871680865283862080546001019055868652606790945282852080549092168417909155905184937fddf252ad1be2c89b69c2b068fc378daa952ba7f163c4a11628f55a4df523b3ef91a4505050565b6001600160a01b03821661135c5760405162461bcd60e51b815260206004820181905260248201527f4552433732313a206d696e7420746f20746865207a65726f20616464726573736044820152606401610517565b6000818152606760205260409020546001600160a01b0316156113c15760405162461bcd60e51b815260206004820152601c60248201527f4552433732313a20746f6b656e20616c7265616479206d696e746564000000006044820152606401610517565b6113cf60008383600161184f565b6000818152606760205260409020546001600160a01b0316156114345760405162461bcd60e51b815260206004820152601c60248201527f4552433732313a20746f6b656e20616c7265616479206d696e746564000000006044820152606401610517565b6001600160a01b038216600081815260686020908152604080832080546001019055848352606790915280822080546001600160a01b0319168417905551839291907fddf252ad1be2c89b69c2b068fc378daa952ba7f163c4a11628f55a4df523b3ef908290a45050565b6000828152606760205260409020546001600160a01b03166115295760405162461bcd60e51b815260206004820152602e60248201527f45524337323155524953746f726167653a2055524920736574206f66206e6f6e60448201527f6578697374656e7420746f6b656e0000000000000000000000000000000000006064820152608401610517565b6000828152609760209081526040909120825161154892840190611ca0565b506040518281527ff8e1a15aba9398e019f0b49df1a4fde98ee17ae345cb5f6b5e2c27f5033e8ce790602001610efa565b816001600160a01b0316836001600160a01b031614156115db5760405162461bcd60e51b815260206004820152601960248201527f4552433732313a20617070726f766520746f2063616c6c6572000000000000006044820152606401610517565b6001600160a01b038381166000818152606a6020908152604080832094871680845294825291829020805460ff191686151590811790915591519182527f17307eab39ab6107e8899845ad3d59bd9653f200f220920489ca2b5937696c31910160405180910390a3505050565b611653848484611100565b61165f848484846118ab565b610d4a5760405162461bcd60e51b815260206004820152603260248201527f4552433732313a207472616e7366657220746f206e6f6e20455243373231526560448201527f63656976657220696d706c656d656e74657200000000000000000000000000006064820152608401610517565b600054610100900460ff1661173c5760405162461bcd60e51b815260206004820152602b60248201527f496e697469616c697a61626c653a20636f6e7472616374206973206e6f74206960448201526a6e697469616c697a696e6760a81b6064820152608401610517565b610cce8282611a0e565b606061175182610fac565b6000828152609760205260408120805461176a90612136565b80601f016020809104026020016040519081016040528092919081815260200182805461179690612136565b80156117e35780601f106117b8576101008083540402835291602001916117e3565b820191906000526020600020905b8154815290600101906020018083116117c657829003601f168201915b50505050509050600061180160408051602081019091526000815290565b9050805160001415611814575092915050565b81511561184657808260405160200161182e92919061228d565b60405160208183030381529060405292505050919050565b6110f884611aa0565b6001600160a01b038416156118a65760405162461bcd60e51b815260206004820152601160248201527f6e6f6e2d7472616e736665727261626c650000000000000000000000000000006044820152606401610517565b610d4a565b60006001600160a01b0384163b15611a0357604051630a85bd0160e11b81526001600160a01b0385169063150b7a02906118ef9033908990889088906004016122bc565b602060405180830381600087803b15801561190957600080fd5b505af1925050508015611939575060408051601f3d908101601f19168201909252611936918101906122f8565b60015b6119e9573d808015611967576040519150601f19603f3d011682016040523d82523d6000602084013e61196c565b606091505b5080516119e15760405162461bcd60e51b815260206004820152603260248201527f4552433732313a207472616e7366657220746f206e6f6e20455243373231526560448201527f63656976657220696d706c656d656e74657200000000000000000000000000006064820152608401610517565b805181602001fd5b6001600160e01b031916630a85bd0160e11b1490506110f8565b506001949350505050565b600054610100900460ff16611a795760405162461bcd60e51b815260206004820152602b60248201527f496e697469616c697a61626c653a20636f6e7472616374206973206e6f74206960448201526a6e697469616c697a696e6760a81b6064820152608401610517565b8151611a8c906065906020850190611ca0565b5080516105b8906066906020840190611ca0565b6060611aab82610fac565b6000611ac260408051602081019091526000815290565b90506000815111611ae25760405180602001604052806000815250611b0d565b80611aec84611b14565b604051602001611afd92919061228d565b6040516020818303038152906040525b9392505050565b60606000611b2183611bbe565b600101905060008167ffffffffffffffff811115611b4157611b41611ffd565b6040519080825280601f01601f191660200182016040528015611b6b576020820181803683370190505b5090508181016020015b600019017f3031323334353637383961626364656600000000000000000000000000000000600a86061a8153600a8504945084611bb157611bb6565b611b75565b509392505050565b6000807a184f03e93ff9f4daa797ed6e38ed64bf6a1f0100000000000000008310611c07577a184f03e93ff9f4daa797ed6e38ed64bf6a1f010000000000000000830492506040015b6d04ee2d6d415b85acef81000000008310611c33576d04ee2d6d415b85acef8100000000830492506020015b662386f26fc100008310611c5157662386f26fc10000830492506010015b6305f5e1008310611c69576305f5e100830492506008015b6127108310611c7d57612710830492506004015b60648310611c8f576064830492506002015b600a83106103c75760010192915050565b828054611cac90612136565b90600052602060002090601f016020900481019282611cce5760008555611d14565b82601f10611ce757805160ff1916838001178555611d14565b82800160010185558215611d14579182015b82811115611d14578251825591602001919060010190611cf9565b50611d20929150611d24565b5090565b5b80821115611d205760008155600101611d25565b6001600160e01b03198116811461101057600080fd5b600060208284031215611d6157600080fd5b8135611b0d81611d39565b60005b83811015611d87578181015183820152602001611d6f565b83811115610d4a5750506000910152565b60008151808452611db0816020860160208601611d6c565b601f01601f19169290920160200192915050565b602081526000611b0d6020830184611d98565b600060208284031215611de957600080fd5b5035919050565b6001600160a01b038116811461101057600080fd5b60008060408385031215611e1857600080fd5b8235611e2381611df0565b946020939093013593505050565b600080600060608486031215611e4657600080fd5b8335611e5181611df0565b92506020840135611e6181611df0565b929592945050506040919091013590565b60008060008060008060a08789031215611e8b57600080fd5b8635611e9681611df0565b955060208701359450604087013593506060870135611eb481611df0565b9250608087013567ffffffffffffffff80821115611ed157600080fd5b818901915089601f830112611ee557600080fd5b813581811115611ef457600080fd5b8a6020828501011115611f0657600080fd5b6020830194508093505050509295509295509295565b600080600060608486031215611f3157600080fd5b8335611f3c81611df0565b9250602084013591506040840135611f5381611df0565b809150509250925092565b600060208284031215611f7057600080fd5b8135611b0d81611df0565b6020808252825182820181905260009190848201906040850190845b81811015611fb357835183529284019291840191600101611f97565b50909695505050505050565b60008060408385031215611fd257600080fd5b8235611fdd81611df0565b915060208301358015158114611ff257600080fd5b809150509250929050565b634e487b7160e01b600052604160045260246000fd5b604051601f8201601f1916810167ffffffffffffffff8111828210171561203c5761203c611ffd565b604052919050565b6000806000806080858703121561205a57600080fd5b843561206581611df0565b935060208581013561207681611df0565b935060408601359250606086013567ffffffffffffffff8082111561209a57600080fd5b818801915088601f8301126120ae57600080fd5b8135818111156120c0576120c0611ffd565b6120d2601f8201601f19168501612013565b915080825289848285010111156120e857600080fd5b808484018584013760008482840101525080935050505092959194509250565b6000806040838503121561211b57600080fd5b823561212681611df0565b91506020830135611ff281611df0565b600181811c9082168061214a57607f821691505b6020821081141561216b57634e487b7160e01b600052602260045260246000fd5b50919050565b634e487b7160e01b600052601160045260246000fd5b6000821982111561219a5761219a612171565b500190565b6000828210156121b1576121b1612171565b500390565b600060208083850312156121c957600080fd5b825167ffffffffffffffff808211156121e157600080fd5b818501915085601f8301126121f557600080fd5b81518181111561220757612207611ffd565b8060051b9150612218848301612013565b818152918301840191848101908884111561223257600080fd5b938501935b838510156107c5578451925061224c83611df0565b8282529385019390850190612237565b634e487b7160e01b600052603260045260246000fd5b600060001982141561228657612286612171565b5060010190565b6000835161229f818460208801611d6c565b8351908301906122b3818360208801611d6c565b01949350505050565b60006001600160a01b038087168352808616602084015250836040830152608060608301526122ee6080830184611d98565b9695505050505050565b60006020828403121561230a57600080fd5b8151611b0d81611d3956fea2646970667358221220da3f4fa7b2d52ac5aa1720870e7b03942659caa18a86bd65ee567b3d2effcfd764736f6c63430008090033","opcodes":"PUSH2 0x120 PUSH1 0x40 MSTORE CALLVALUE DUP1 ISZERO PUSH3 0x12 JUMPI PUSH1 0x0 DUP1 REVERT JUMPDEST POP PUSH1 0x40 MLOAD PUSH3 0x7DD2 CODESIZE SUB DUP1 PUSH3 0x7DD2 DUP4 CODECOPY DUP2 ADD PUSH1 0x40 DUP2 SWAP1 MSTORE PUSH3 0x35 SWAP2 PUSH3 0x1B8 JUMP JUMPDEST PUSH1 0x1 PUSH1 0x0 SSTORE PUSH1 0x1 PUSH1 0x1 PUSH1 0xA0 SHL SUB DUP2 AND PUSH1 0xC0 MSTORE PUSH1 0x40 MLOAD PUSH3 0x55 SWAP1 PUSH3 0x120 JUMP JUMPDEST PUSH1 0x40 MLOAD DUP1 SWAP2 SUB SWAP1 PUSH1 0x0 CREATE DUP1 ISZERO DUP1 ISZERO PUSH3 0x72 JUMPI RETURNDATASIZE PUSH1 0x0 DUP1 RETURNDATACOPY RETURNDATASIZE PUSH1 0x0 REVERT JUMPDEST POP PUSH1 0x1 PUSH1 0x1 PUSH1 0xA0 SHL SUB AND PUSH1 0x80 MSTORE PUSH1 0x40 MLOAD PUSH3 0x8D SWAP1 PUSH3 0x12E JUMP JUMPDEST PUSH1 0x40 MLOAD DUP1 SWAP2 SUB SWAP1 PUSH1 0x0 CREATE DUP1 ISZERO DUP1 ISZERO PUSH3 0xAA JUMPI RETURNDATASIZE PUSH1 0x0 DUP1 RETURNDATACOPY RETURNDATASIZE PUSH1 0x0 REVERT JUMPDEST POP PUSH1 0x1 PUSH1 0x1 PUSH1 0xA0 SHL SUB SWAP1 DUP2 AND PUSH1 0xA0 SWAP1 DUP2 MSTORE DUP5 DUP3 AND PUSH1 0xE0 SWAP1 DUP2 MSTORE SWAP2 DUP5 AND PUSH2 0x100 MSTORE PUSH1 0x40 DUP1 MLOAD SWAP3 DUP4 ADD DUP2 MSTORE PUSH1 0x0 DUP4 MSTORE PUSH1 0x14 PUSH1 0x20 DUP5 ADD MSTORE PUSH1 0x32 SWAP1 DUP4 ADD MSTORE PUSH1 0x50 PUSH1 0x60 DUP4 ADD MSTORE PUSH1 0x64 PUSH1 0x80 DUP4 ADD MSTORE PUSH1 0x78 SWAP1 DUP3 ADD MSTORE PUSH1 0x96 PUSH1 0xC0 DUP3 ADD MSTORE PUSH3 0x10F SWAP1 PUSH1 0x8 SWAP1 PUSH1 0x7 PUSH3 0x13C JUMP JUMPDEST POP POP PUSH1 0x9 SLOAD PUSH1 0xF SSTORE POP PUSH3 0x202 SWAP1 POP JUMP JUMPDEST PUSH2 0x296E DUP1 PUSH3 0x30F9 DUP4 CODECOPY ADD SWAP1 JUMP JUMPDEST PUSH2 0x236B DUP1 PUSH3 0x5A67 DUP4 CODECOPY ADD SWAP1 JUMP JUMPDEST DUP3 PUSH1 0x7 DUP2 ADD SWAP3 DUP3 ISZERO PUSH3 0x172 JUMPI SWAP2 PUSH1 0x20 MUL DUP3 ADD JUMPDEST DUP3 DUP2 GT ISZERO PUSH3 0x172 JUMPI DUP3 MLOAD DUP3 SWAP1 PUSH1 0xFF AND SWAP1 SSTORE SWAP2 PUSH1 0x20 ADD SWAP2 SWAP1 PUSH1 0x1 ADD SWAP1 PUSH3 0x150 JUMP JUMPDEST POP PUSH3 0x180 SWAP3 SWAP2 POP PUSH3 0x184 JUMP JUMPDEST POP SWAP1 JUMP JUMPDEST JUMPDEST DUP1 DUP3 GT ISZERO PUSH3 0x180 JUMPI PUSH1 0x0 DUP2 SSTORE PUSH1 0x1 ADD PUSH3 0x185 JUMP JUMPDEST DUP1 MLOAD PUSH1 0x1 PUSH1 0x1 PUSH1 0xA0 SHL SUB DUP2 AND DUP2 EQ PUSH3 0x1B3 JUMPI PUSH1 0x0 DUP1 REVERT JUMPDEST SWAP2 SWAP1 POP JUMP JUMPDEST PUSH1 0x0 DUP1 PUSH1 0x0 PUSH1 0x60 DUP5 DUP7 SUB SLT ISZERO PUSH3 0x1CE JUMPI PUSH1 0x0 DUP1 REVERT JUMPDEST PUSH3 0x1D9 DUP5 PUSH3 0x19B JUMP JUMPDEST SWAP3 POP PUSH3 0x1E9 PUSH1 0x20 DUP6 ADD PUSH3 0x19B JUMP JUMPDEST SWAP2 POP PUSH3 0x1F9 PUSH1 0x40 DUP6 ADD PUSH3 0x19B JUMP JUMPDEST SWAP1 POP SWAP3 POP SWAP3 POP SWAP3 JUMP JUMPDEST PUSH1 0x80 MLOAD PUSH1 0xA0 MLOAD PUSH1 0xC0 MLOAD PUSH1 0xE0 MLOAD PUSH2 0x100 MLOAD PUSH2 0x2E50 PUSH3 0x2A9 PUSH1 0x0 CODECOPY PUSH1 0x0 DUP2 DUP2 PUSH2 0x61C ADD MSTORE DUP2 DUP2 PUSH2 0x798 ADD MSTORE PUSH2 0x179F ADD MSTORE PUSH1 0x0 DUP2 DUP2 PUSH2 0x579 ADD MSTORE DUP2 DUP2 PUSH2 0xF76 ADD MSTORE DUP2 DUP2 PUSH2 0x13FD ADD MSTORE DUP2 DUP2 PUSH2 0x177E ADD MSTORE DUP2 DUP2 PUSH2 0x19EF ADD MSTORE PUSH2 0x1B00 ADD MSTORE PUSH1 0x0 DUP2 DUP2 PUSH2 0x2F2 ADD MSTORE DUP2 DUP2 PUSH2 0x1166 ADD MSTORE DUP2 DUP2 PUSH2 0x1315 ADD MSTORE DUP2 DUP2 PUSH2 0x16E5 ADD MSTORE DUP2 DUP2 PUSH2 0x1CF9 ADD MSTORE PUSH2 0x1F80 ADD MSTORE PUSH1 0x0 DUP2 DUP2 PUSH2 0x24B ADD MSTORE PUSH2 0x16B2 ADD MSTORE PUSH1 0x0 DUP2 DUP2 PUSH2 0x2BF ADD MSTORE PUSH2 0x1685 ADD MSTORE PUSH2 0x2E50 PUSH1 0x0 RETURN INVALID PUSH1 0x80 PUSH1 0x40 MSTORE PUSH1 0x4 CALLDATASIZE LT PUSH2 0x15F JUMPI PUSH1 0x0 CALLDATALOAD PUSH1 0xE0 SHR DUP1 PUSH4 0x90F2BB16 GT PUSH2 0xC0 JUMPI DUP1 PUSH4 0xD1DF6D4D GT PUSH2 0x74 JUMPI DUP1 PUSH4 0xDEF9A0CD GT PUSH2 0x59 JUMPI DUP1 PUSH4 0xDEF9A0CD EQ PUSH2 0x40B JUMPI DUP1 PUSH4 0xECB16AF4 EQ PUSH2 0x42B JUMPI DUP1 PUSH4 0xFA12793B EQ PUSH2 0x44B JUMPI PUSH1 0x0 DUP1 REVERT JUMPDEST DUP1 PUSH4 0xD1DF6D4D EQ PUSH2 0x3C0 JUMPI DUP1 PUSH4 0xDE259242 EQ PUSH2 0x3F6 JUMPI PUSH1 0x0 DUP1 REVERT JUMPDEST DUP1 PUSH4 0xB47DCB66 GT PUSH2 0xA5 JUMPI DUP1 PUSH4 0xB47DCB66 EQ PUSH2 0x376 JUMPI DUP1 PUSH4 0xB63AE6EE EQ PUSH2 0x396 JUMPI DUP1 PUSH4 0xD1946DBC EQ PUSH2 0x3AB JUMPI PUSH1 0x0 DUP1 REVERT JUMPDEST DUP1 PUSH4 0x90F2BB16 EQ PUSH2 0x336 JUMPI DUP1 PUSH4 0xA5530A45 EQ PUSH2 0x356 JUMPI PUSH1 0x0 DUP1 REVERT JUMPDEST DUP1 PUSH4 0x3989A671 GT PUSH2 0x117 JUMPI DUP1 PUSH4 0x5AA38868 GT PUSH2 0xFC JUMPI DUP1 PUSH4 0x5AA38868 EQ PUSH2 0x2B0 JUMPI DUP1 PUSH4 0x66E992E5 EQ PUSH2 0x2E3 JUMPI DUP1 PUSH4 0x8E61514E EQ PUSH2 0x316 JUMPI PUSH1 0x0 DUP1 REVERT JUMPDEST DUP1 PUSH4 0x3989A671 EQ PUSH2 0x23C JUMPI DUP1 PUSH4 0x3F19D043 EQ PUSH2 0x283 JUMPI PUSH1 0x0 DUP1 REVERT JUMPDEST DUP1 PUSH4 0xF40517A GT PUSH2 0x148 JUMPI DUP1 PUSH4 0xF40517A EQ PUSH2 0x19D JUMPI DUP1 PUSH4 0x2F28012A EQ PUSH2 0x1D3 JUMPI DUP1 PUSH4 0x30B9D2A7 EQ PUSH2 0x1F3 JUMPI PUSH1 0x0 DUP1 REVERT JUMPDEST DUP1 PUSH4 0x1BEB980 EQ PUSH2 0x164 JUMPI DUP1 PUSH4 0x8F52B3C EQ PUSH2 0x188 JUMPI JUMPDEST PUSH1 0x0 DUP1 REVERT JUMPDEST CALLVALUE DUP1 ISZERO PUSH2 0x170 JUMPI PUSH1 0x0 DUP1 REVERT JUMPDEST POP PUSH1 0xF SLOAD JUMPDEST PUSH1 0x40 MLOAD SWAP1 DUP2 MSTORE PUSH1 0x20 ADD JUMPDEST PUSH1 0x40 MLOAD DUP1 SWAP2 SUB SWAP1 RETURN JUMPDEST PUSH2 0x19B PUSH2 0x196 CALLDATASIZE PUSH1 0x4 PUSH2 0x2608 JUMP JUMPDEST PUSH2 0x46B JUMP JUMPDEST STOP JUMPDEST CALLVALUE DUP1 ISZERO PUSH2 0x1A9 JUMPI PUSH1 0x0 DUP1 REVERT JUMPDEST POP PUSH2 0x175 PUSH2 0x1B8 CALLDATASIZE PUSH1 0x4 PUSH2 0x265B JUMP JUMPDEST PUSH1 0x1 PUSH1 0x1 PUSH1 0xA0 SHL SUB AND PUSH1 0x0 SWAP1 DUP2 MSTORE PUSH1 0x3 PUSH1 0x20 MSTORE PUSH1 0x40 SWAP1 KECCAK256 SLOAD SWAP1 JUMP JUMPDEST CALLVALUE DUP1 ISZERO PUSH2 0x1DF JUMPI PUSH1 0x0 DUP1 REVERT JUMPDEST POP PUSH2 0x19B PUSH2 0x1EE CALLDATASIZE PUSH1 0x4 PUSH2 0x2608 JUMP JUMPDEST PUSH2 0xC06 JUMP JUMPDEST CALLVALUE DUP1 ISZERO PUSH2 0x1FF JUMPI PUSH1 0x0 DUP1 REVERT JUMPDEST POP PUSH2 0x22C PUSH2 0x20E CALLDATASIZE PUSH1 0x4 PUSH2 0x265B JUMP JUMPDEST PUSH1 0x1 PUSH1 0x1 PUSH1 0xA0 SHL SUB AND PUSH1 0x0 SWAP1 DUP2 MSTORE PUSH1 0x1 PUSH1 0x20 MSTORE PUSH1 0x40 SWAP1 KECCAK256 SLOAD PUSH1 0xFF AND SWAP1 JUMP JUMPDEST PUSH1 0x40 MLOAD SWAP1 ISZERO ISZERO DUP2 MSTORE PUSH1 0x20 ADD PUSH2 0x17F JUMP JUMPDEST CALLVALUE DUP1 ISZERO PUSH2 0x248 JUMPI PUSH1 0x0 DUP1 REVERT JUMPDEST POP PUSH32 0x0 JUMPDEST PUSH1 0x40 MLOAD PUSH1 0x1 PUSH1 0x1 PUSH1 0xA0 SHL SUB SWAP1 SWAP2 AND DUP2 MSTORE PUSH1 0x20 ADD PUSH2 0x17F JUMP JUMPDEST CALLVALUE DUP1 ISZERO PUSH2 0x28F JUMPI PUSH1 0x0 DUP1 REVERT JUMPDEST POP PUSH2 0x2A3 PUSH2 0x29E CALLDATASIZE PUSH1 0x4 PUSH2 0x265B JUMP JUMPDEST PUSH2 0xE69 JUMP JUMPDEST PUSH1 0x40 MLOAD PUSH2 0x17F SWAP2 SWAP1 PUSH2 0x267F JUMP JUMPDEST CALLVALUE DUP1 ISZERO PUSH2 0x2BC JUMPI PUSH1 0x0 DUP1 REVERT JUMPDEST POP PUSH32 0x0 PUSH2 0x26B JUMP JUMPDEST CALLVALUE DUP1 ISZERO PUSH2 0x2EF JUMPI PUSH1 0x0 DUP1 REVERT JUMPDEST POP PUSH32 0x0 PUSH2 0x26B JUMP JUMPDEST CALLVALUE DUP1 ISZERO PUSH2 0x322 JUMPI PUSH1 0x0 DUP1 REVERT JUMPDEST POP PUSH2 0x26B PUSH2 0x331 CALLDATASIZE PUSH1 0x4 PUSH2 0x2715 JUMP JUMPDEST PUSH2 0xEDF JUMP JUMPDEST CALLVALUE DUP1 ISZERO PUSH2 0x342 JUMPI PUSH1 0x0 DUP1 REVERT JUMPDEST POP PUSH2 0x19B PUSH2 0x351 CALLDATASIZE PUSH1 0x4 PUSH2 0x2757 JUMP JUMPDEST PUSH2 0xF14 JUMP JUMPDEST CALLVALUE DUP1 ISZERO PUSH2 0x362 JUMPI PUSH1 0x0 DUP1 REVERT JUMPDEST POP PUSH2 0x19B PUSH2 0x371 CALLDATASIZE PUSH1 0x4 PUSH2 0x27A2 JUMP JUMPDEST PUSH2 0x1313 JUMP JUMPDEST CALLVALUE DUP1 ISZERO PUSH2 0x382 JUMPI PUSH1 0x0 DUP1 REVERT JUMPDEST POP PUSH2 0x19B PUSH2 0x391 CALLDATASIZE PUSH1 0x4 PUSH2 0x28C5 JUMP JUMPDEST PUSH2 0x13A6 JUMP JUMPDEST CALLVALUE DUP1 ISZERO PUSH2 0x3A2 JUMPI PUSH1 0x0 DUP1 REVERT JUMPDEST POP PUSH2 0x2A3 PUSH2 0x1987 JUMP JUMPDEST CALLVALUE DUP1 ISZERO PUSH2 0x3B7 JUMPI PUSH1 0x0 DUP1 REVERT JUMPDEST POP PUSH2 0x2A3 PUSH2 0x19E9 JUMP JUMPDEST CALLVALUE DUP1 ISZERO PUSH2 0x3CC JUMPI PUSH1 0x0 DUP1 REVERT JUMPDEST POP PUSH2 0x175 PUSH2 0x3DB CALLDATASIZE PUSH1 0x4 PUSH2 0x265B JUMP JUMPDEST PUSH1 0x1 PUSH1 0x1 PUSH1 0xA0 SHL SUB AND PUSH1 0x0 SWAP1 DUP2 MSTORE PUSH1 0x4 PUSH1 0x20 MSTORE PUSH1 0x40 SWAP1 KECCAK256 SLOAD SWAP1 JUMP JUMPDEST CALLVALUE DUP1 ISZERO PUSH2 0x402 JUMPI PUSH1 0x0 DUP1 REVERT JUMPDEST POP PUSH2 0x26B PUSH2 0x1AFB JUMP JUMPDEST CALLVALUE DUP1 ISZERO PUSH2 0x417 JUMPI PUSH1 0x0 DUP1 REVERT JUMPDEST POP PUSH2 0x19B PUSH2 0x426 CALLDATASIZE PUSH1 0x4 PUSH2 0x29AD JUMP JUMPDEST PUSH2 0x1B95 JUMP JUMPDEST CALLVALUE DUP1 ISZERO PUSH2 0x437 JUMPI PUSH1 0x0 DUP1 REVERT JUMPDEST POP PUSH2 0x19B PUSH2 0x446 CALLDATASIZE PUSH1 0x4 PUSH2 0x29AD JUMP JUMPDEST PUSH2 0x1E1C JUMP JUMPDEST CALLVALUE DUP1 ISZERO PUSH2 0x457 JUMPI PUSH1 0x0 DUP1 REVERT JUMPDEST POP PUSH2 0x2A3 PUSH2 0x466 CALLDATASIZE PUSH1 0x4 PUSH2 0x265B JUMP JUMPDEST PUSH2 0x2098 JUMP JUMPDEST PUSH1 0x1 PUSH1 0x1 PUSH1 0xA0 SHL SUB DUP3 AND PUSH1 0x0 SWAP1 DUP2 MSTORE PUSH1 0x1 PUSH1 0x20 MSTORE PUSH1 0x40 SWAP1 KECCAK256 SLOAD DUP3 SWAP1 PUSH1 0xFF AND PUSH2 0x4C5 JUMPI PUSH1 0x40 MLOAD PUSH3 0x461BCD PUSH1 0xE5 SHL DUP2 MSTORE PUSH1 0x20 PUSH1 0x4 DUP3 ADD MSTORE PUSH1 0x8 PUSH1 0x24 DUP3 ADD MSTORE PUSH8 0x1B9BDD081C1BDBDB PUSH1 0xC2 SHL PUSH1 0x44 DUP3 ADD MSTORE PUSH1 0x64 ADD JUMPDEST PUSH1 0x40 MLOAD DUP1 SWAP2 SUB SWAP1 REVERT JUMPDEST PUSH2 0x4CD PUSH2 0x210C JUMP JUMPDEST PUSH1 0x1 PUSH1 0x1 PUSH1 0xA0 SHL SUB DUP5 AND PUSH1 0x0 SWAP1 DUP2 MSTORE PUSH1 0x3 PUSH1 0x20 MSTORE PUSH1 0x40 DUP2 KECCAK256 DUP1 SLOAD DUP8 SWAP3 SWAP1 PUSH2 0x4F5 SWAP1 DUP5 SWAP1 PUSH2 0x2A18 JUMP JUMPDEST SWAP3 POP POP DUP2 SWAP1 SSTORE POP PUSH1 0x0 DUP4 PUSH1 0x1 PUSH1 0x1 PUSH1 0xA0 SHL SUB AND PUSH4 0x373D7C3F PUSH1 0x40 MLOAD DUP2 PUSH4 0xFFFFFFFF AND PUSH1 0xE0 SHL DUP2 MSTORE PUSH1 0x4 ADD PUSH1 0x0 PUSH1 0x40 MLOAD DUP1 DUP4 SUB DUP2 DUP7 DUP1 EXTCODESIZE ISZERO DUP1 ISZERO PUSH2 0x537 JUMPI PUSH1 0x0 DUP1 REVERT JUMPDEST POP GAS STATICCALL ISZERO DUP1 ISZERO PUSH2 0x54B JUMPI RETURNDATASIZE PUSH1 0x0 DUP1 RETURNDATACOPY RETURNDATASIZE PUSH1 0x0 REVERT JUMPDEST POP POP POP POP PUSH1 0x40 MLOAD RETURNDATASIZE PUSH1 0x0 DUP3 RETURNDATACOPY PUSH1 0x1F RETURNDATASIZE SWAP1 DUP2 ADD PUSH1 0x1F NOT AND DUP3 ADD PUSH1 0x40 MSTORE PUSH2 0x573 SWAP2 SWAP1 DUP2 ADD SWAP1 PUSH2 0x2A5C JUMP JUMPDEST SWAP1 POP PUSH1 0x0 PUSH32 0x0 PUSH1 0x1 PUSH1 0x1 PUSH1 0xA0 SHL SUB AND PUSH4 0x26B1D5F PUSH1 0x40 MLOAD DUP2 PUSH4 0xFFFFFFFF AND PUSH1 0xE0 SHL DUP2 MSTORE PUSH1 0x4 ADD PUSH1 0x20 PUSH1 0x40 MLOAD DUP1 DUP4 SUB DUP2 DUP7 DUP1 EXTCODESIZE ISZERO DUP1 ISZERO PUSH2 0x5D0 JUMPI PUSH1 0x0 DUP1 REVERT JUMPDEST POP GAS STATICCALL ISZERO DUP1 ISZERO PUSH2 0x5E4 JUMPI RETURNDATASIZE PUSH1 0x0 DUP1 RETURNDATACOPY RETURNDATASIZE PUSH1 0x0 REVERT JUMPDEST POP POP POP POP PUSH1 0x40 MLOAD RETURNDATASIZE PUSH1 0x1F NOT PUSH1 0x1F DUP3 ADD AND DUP3 ADD DUP1 PUSH1 0x40 MSTORE POP DUP2 ADD SWAP1 PUSH2 0x608 SWAP2 SWAP1 PUSH2 0x2AD3 JUMP JUMPDEST SWAP1 POP DUP4 ISZERO PUSH2 0x7FB JUMPI DUP6 PUSH1 0x1 PUSH1 0x1 PUSH1 0xA0 SHL SUB AND PUSH32 0x0 PUSH1 0x1 PUSH1 0x1 PUSH1 0xA0 SHL SUB AND PUSH4 0xAFFA8817 PUSH1 0x40 MLOAD DUP2 PUSH4 0xFFFFFFFF AND PUSH1 0xE0 SHL DUP2 MSTORE PUSH1 0x4 ADD PUSH1 0x20 PUSH1 0x40 MLOAD DUP1 DUP4 SUB DUP2 DUP7 DUP1 EXTCODESIZE ISZERO DUP1 ISZERO PUSH2 0x673 JUMPI PUSH1 0x0 DUP1 REVERT JUMPDEST POP GAS STATICCALL ISZERO DUP1 ISZERO PUSH2 0x687 JUMPI RETURNDATASIZE PUSH1 0x0 DUP1 RETURNDATACOPY RETURNDATASIZE PUSH1 0x0 REVERT JUMPDEST POP POP POP POP PUSH1 0x40 MLOAD RETURNDATASIZE PUSH1 0x1F NOT PUSH1 0x1F DUP3 ADD AND DUP3 ADD DUP1 PUSH1 0x40 MSTORE POP DUP2 ADD SWAP1 PUSH2 0x6AB SWAP2 SWAP1 PUSH2 0x2AD3 JUMP JUMPDEST PUSH1 0x1 PUSH1 0x1 PUSH1 0xA0 SHL SUB AND EQ PUSH2 0x701 JUMPI PUSH1 0x40 MLOAD PUSH3 0x461BCD PUSH1 0xE5 SHL DUP2 MSTORE PUSH1 0x20 PUSH1 0x4 DUP3 ADD DUP2 SWAP1 MSTORE PUSH1 0x24 DUP3 ADD MSTORE PUSH32 0x617373657420646F6573206E6F74206D61746368205745544847617465776179 PUSH1 0x44 DUP3 ADD MSTORE PUSH1 0x64 ADD PUSH2 0x4BC JUMP JUMPDEST PUSH1 0x0 CALLVALUE GT PUSH2 0x751 JUMPI PUSH1 0x40 MLOAD PUSH3 0x461BCD PUSH1 0xE5 SHL DUP2 MSTORE PUSH1 0x20 PUSH1 0x4 DUP3 ADD MSTORE PUSH1 0x18 PUSH1 0x24 DUP3 ADD MSTORE PUSH32 0x6D73672E76616C75652063616E6E6F74206265207A65726F0000000000000000 PUSH1 0x44 DUP3 ADD MSTORE PUSH1 0x64 ADD PUSH2 0x4BC JUMP JUMPDEST PUSH1 0x40 MLOAD PUSH32 0x474CF53D00000000000000000000000000000000000000000000000000000000 DUP2 MSTORE PUSH1 0x1 PUSH1 0x1 PUSH1 0xA0 SHL SUB DUP3 DUP2 AND PUSH1 0x4 DUP4 ADD MSTORE DUP7 DUP2 AND PUSH1 0x24 DUP4 ADD MSTORE PUSH1 0x0 PUSH1 0x44 DUP4 ADD MSTORE PUSH32 0x0 AND SWAP1 PUSH4 0x474CF53D SWAP1 CALLVALUE SWAP1 PUSH1 0x64 ADD PUSH1 0x0 PUSH1 0x40 MLOAD DUP1 DUP4 SUB DUP2 DUP6 DUP9 DUP1 EXTCODESIZE ISZERO DUP1 ISZERO PUSH2 0x7DD JUMPI PUSH1 0x0 DUP1 REVERT JUMPDEST POP GAS CALL ISZERO DUP1 ISZERO PUSH2 0x7F1 JUMPI RETURNDATASIZE PUSH1 0x0 DUP1 RETURNDATACOPY RETURNDATASIZE PUSH1 0x0 REVERT JUMPDEST POP POP POP POP POP PUSH2 0x9E2 JUMP JUMPDEST CALLVALUE ISZERO PUSH2 0x849 JUMPI PUSH1 0x40 MLOAD PUSH3 0x461BCD PUSH1 0xE5 SHL DUP2 MSTORE PUSH1 0x20 PUSH1 0x4 DUP3 ADD MSTORE PUSH1 0x15 PUSH1 0x24 DUP3 ADD MSTORE PUSH32 0x6D73672E76616C7565206973206E6F74207A65726F0000000000000000000000 PUSH1 0x44 DUP3 ADD MSTORE PUSH1 0x64 ADD PUSH2 0x4BC JUMP JUMPDEST PUSH1 0x40 MLOAD PUSH4 0x6EB1769F PUSH1 0xE1 SHL DUP2 MSTORE CALLER PUSH1 0x4 DUP3 ADD MSTORE ADDRESS PUSH1 0x24 DUP3 ADD MSTORE DUP7 SWAP1 DUP9 SWAP1 PUSH1 0x1 PUSH1 0x1 PUSH1 0xA0 SHL SUB DUP4 AND SWAP1 PUSH4 0xDD62ED3E SWAP1 PUSH1 0x44 ADD PUSH1 0x20 PUSH1 0x40 MLOAD DUP1 DUP4 SUB DUP2 DUP7 DUP1 EXTCODESIZE ISZERO DUP1 ISZERO PUSH2 0x892 JUMPI PUSH1 0x0 DUP1 REVERT JUMPDEST POP GAS STATICCALL ISZERO DUP1 ISZERO PUSH2 0x8A6 JUMPI RETURNDATASIZE PUSH1 0x0 DUP1 RETURNDATACOPY RETURNDATASIZE PUSH1 0x0 REVERT JUMPDEST POP POP POP POP PUSH1 0x40 MLOAD RETURNDATASIZE PUSH1 0x1F NOT PUSH1 0x1F DUP3 ADD AND DUP3 ADD DUP1 PUSH1 0x40 MSTORE POP DUP2 ADD SWAP1 PUSH2 0x8CA SWAP2 SWAP1 PUSH2 0x2AF0 JUMP JUMPDEST LT ISZERO PUSH2 0x918 JUMPI PUSH1 0x40 MLOAD PUSH3 0x461BCD PUSH1 0xE5 SHL DUP2 MSTORE PUSH1 0x20 PUSH1 0x4 DUP3 ADD MSTORE PUSH1 0x13 PUSH1 0x24 DUP3 ADD MSTORE PUSH32 0x73656E646572206E6F7420617070726F76656400000000000000000000000000 PUSH1 0x44 DUP3 ADD MSTORE PUSH1 0x64 ADD PUSH2 0x4BC JUMP JUMPDEST PUSH2 0x92D PUSH1 0x1 PUSH1 0x1 PUSH1 0xA0 SHL SUB DUP3 AND CALLER ADDRESS DUP12 PUSH2 0x2166 JUMP JUMPDEST PUSH2 0x942 PUSH1 0x1 PUSH1 0x1 PUSH1 0xA0 SHL SUB DUP3 AND DUP4 PUSH1 0x0 PUSH2 0x2217 JUMP JUMPDEST PUSH2 0x956 PUSH1 0x1 PUSH1 0x1 PUSH1 0xA0 SHL SUB DUP3 AND DUP4 DUP11 PUSH2 0x2217 JUMP JUMPDEST PUSH1 0x40 MLOAD PUSH32 0xE8EDA9DF00000000000000000000000000000000000000000000000000000000 DUP2 MSTORE PUSH1 0x1 PUSH1 0x1 PUSH1 0xA0 SHL SUB DUP3 DUP2 AND PUSH1 0x4 DUP4 ADD MSTORE PUSH1 0x24 DUP3 ADD DUP11 SWAP1 MSTORE DUP8 DUP2 AND PUSH1 0x44 DUP4 ADD MSTORE PUSH1 0x0 PUSH1 0x64 DUP4 ADD MSTORE DUP4 AND SWAP1 PUSH4 0xE8EDA9DF SWAP1 PUSH1 0x84 ADD PUSH1 0x0 PUSH1 0x40 MLOAD DUP1 DUP4 SUB DUP2 PUSH1 0x0 DUP8 DUP1 EXTCODESIZE ISZERO DUP1 ISZERO PUSH2 0x9C8 JUMPI PUSH1 0x0 DUP1 REVERT JUMPDEST POP GAS CALL ISZERO DUP1 ISZERO PUSH2 0x9DC JUMPI RETURNDATASIZE PUSH1 0x0 DUP1 RETURNDATACOPY RETURNDATASIZE PUSH1 0x0 REVERT JUMPDEST POP POP POP POP POP JUMPDEST PUSH1 0x40 MLOAD PUSH32 0x47E7EF2400000000000000000000000000000000000000000000000000000000 DUP2 MSTORE PUSH1 0x1 PUSH1 0x1 PUSH1 0xA0 SHL SUB DUP8 DUP2 AND PUSH1 0x4 DUP4 ADD MSTORE PUSH1 0x24 DUP3 ADD DUP10 SWAP1 MSTORE DUP7 AND SWAP1 PUSH4 0x47E7EF24 SWAP1 PUSH1 0x44 ADD PUSH1 0x0 PUSH1 0x40 MLOAD DUP1 DUP4 SUB DUP2 PUSH1 0x0 DUP8 DUP1 EXTCODESIZE ISZERO DUP1 ISZERO PUSH2 0xA45 JUMPI PUSH1 0x0 DUP1 REVERT JUMPDEST POP GAS CALL ISZERO DUP1 ISZERO PUSH2 0xA59 JUMPI RETURNDATASIZE PUSH1 0x0 DUP1 RETURNDATACOPY RETURNDATASIZE PUSH1 0x0 REVERT JUMPDEST POP POP POP POP PUSH1 0x0 DUP6 PUSH1 0x1 PUSH1 0x1 PUSH1 0xA0 SHL SUB AND PUSH3 0x7FFB78 PUSH1 0x40 MLOAD DUP2 PUSH4 0xFFFFFFFF AND PUSH1 0xE0 SHL DUP2 MSTORE PUSH1 0x4 ADD PUSH1 0x20 PUSH1 0x40 MLOAD DUP1 DUP4 SUB DUP2 DUP7 DUP1 EXTCODESIZE ISZERO DUP1 ISZERO PUSH2 0xA97 JUMPI PUSH1 0x0 DUP1 REVERT JUMPDEST POP GAS STATICCALL ISZERO DUP1 ISZERO PUSH2 0xAAB JUMPI RETURNDATASIZE PUSH1 0x0 DUP1 RETURNDATACOPY RETURNDATASIZE PUSH1 0x0 REVERT JUMPDEST POP POP POP POP PUSH1 0x40 MLOAD RETURNDATASIZE PUSH1 0x1F NOT PUSH1 0x1F DUP3 ADD AND DUP3 ADD DUP1 PUSH1 0x40 MSTORE POP DUP2 ADD SWAP1 PUSH2 0xACF SWAP2 SWAP1 PUSH2 0x2AD3 JUMP JUMPDEST PUSH1 0x1 PUSH1 0x1 PUSH1 0xA0 SHL SUB AND PUSH4 0x26A45FFB CALLER DUP11 TIMESTAMP DUP12 DUP9 PUSH1 0x40 MLOAD DUP7 PUSH4 0xFFFFFFFF AND PUSH1 0xE0 SHL DUP2 MSTORE PUSH1 0x4 ADD PUSH2 0xB02 SWAP6 SWAP5 SWAP4 SWAP3 SWAP2 SWAP1 PUSH2 0x2B35 JUMP JUMPDEST PUSH1 0x20 PUSH1 0x40 MLOAD DUP1 DUP4 SUB DUP2 PUSH1 0x0 DUP8 DUP1 EXTCODESIZE ISZERO DUP1 ISZERO PUSH2 0xB1C JUMPI PUSH1 0x0 DUP1 REVERT JUMPDEST POP GAS CALL ISZERO DUP1 ISZERO PUSH2 0xB30 JUMPI RETURNDATASIZE PUSH1 0x0 DUP1 RETURNDATACOPY RETURNDATASIZE PUSH1 0x0 REVERT JUMPDEST POP POP POP POP PUSH1 0x40 MLOAD RETURNDATASIZE PUSH1 0x1F NOT PUSH1 0x1F DUP3 ADD AND DUP3 ADD DUP1 PUSH1 0x40 MSTORE POP DUP2 ADD SWAP1 PUSH2 0xB54 SWAP2 SWAP1 PUSH2 0x2B78 JUMP JUMPDEST SWAP1 POP DUP1 ISZERO PUSH2 0xBA2 JUMPI CALLER PUSH1 0x0 SWAP1 DUP2 MSTORE PUSH1 0x5 PUSH1 0x20 SWAP1 DUP2 MSTORE PUSH1 0x40 DUP3 KECCAK256 DUP1 SLOAD PUSH1 0x1 DUP2 ADD DUP3 SSTORE SWAP1 DUP4 MSTORE SWAP2 KECCAK256 ADD DUP1 SLOAD PUSH20 0xFFFFFFFFFFFFFFFFFFFFFFFFFFFFFFFFFFFFFFFF NOT AND PUSH1 0x1 PUSH1 0x1 PUSH1 0xA0 SHL SUB DUP9 AND OR SWAP1 SSTORE JUMPDEST PUSH1 0x40 DUP1 MLOAD CALLER DUP2 MSTORE PUSH1 0x1 PUSH1 0x1 PUSH1 0xA0 SHL SUB DUP9 DUP2 AND PUSH1 0x20 DUP4 ADD MSTORE DUP10 AND DUP2 DUP4 ADD MSTORE PUSH1 0x60 DUP2 ADD DUP11 SWAP1 MSTORE SWAP1 MLOAD PUSH32 0x20CA885E6C573D69BC931B3787127868F5B90568509FB8D4FF6F7102B8D0CD25 SWAP2 DUP2 SWAP1 SUB PUSH1 0x80 ADD SWAP1 LOG1 POP POP POP PUSH2 0xBFF PUSH1 0x1 PUSH1 0x0 SSTORE JUMP JUMPDEST POP POP POP POP POP JUMP JUMPDEST PUSH1 0x1 PUSH1 0x1 PUSH1 0xA0 SHL SUB DUP3 AND PUSH1 0x0 SWAP1 DUP2 MSTORE PUSH1 0x1 PUSH1 0x20 MSTORE PUSH1 0x40 SWAP1 KECCAK256 SLOAD DUP3 SWAP1 PUSH1 0xFF AND PUSH2 0xC5B JUMPI PUSH1 0x40 MLOAD PUSH3 0x461BCD PUSH1 0xE5 SHL DUP2 MSTORE PUSH1 0x20 PUSH1 0x4 DUP3 ADD MSTORE PUSH1 0x8 PUSH1 0x24 DUP3 ADD MSTORE PUSH8 0x1B9BDD081C1BDBDB PUSH1 0xC2 SHL PUSH1 0x44 DUP3 ADD MSTORE PUSH1 0x64 ADD PUSH2 0x4BC JUMP JUMPDEST PUSH2 0xC63 PUSH2 0x210C JUMP JUMPDEST PUSH1 0x1 PUSH1 0x1 PUSH1 0xA0 SHL SUB DUP5 AND PUSH1 0x0 SWAP1 DUP2 MSTORE PUSH1 0x3 PUSH1 0x20 MSTORE PUSH1 0x40 DUP2 KECCAK256 DUP1 SLOAD DUP8 SWAP3 SWAP1 PUSH2 0xC8B SWAP1 DUP5 SWAP1 PUSH2 0x2B95 JUMP JUMPDEST SWAP3 POP POP DUP2 SWAP1 SSTORE POP DUP3 PUSH1 0x1 PUSH1 0x1 PUSH1 0xA0 SHL SUB AND PUSH3 0x7FFB78 PUSH1 0x40 MLOAD DUP2 PUSH4 0xFFFFFFFF AND PUSH1 0xE0 SHL DUP2 MSTORE PUSH1 0x4 ADD PUSH1 0x20 PUSH1 0x40 MLOAD DUP1 DUP4 SUB DUP2 DUP7 DUP1 EXTCODESIZE ISZERO DUP1 ISZERO PUSH2 0xCCA JUMPI PUSH1 0x0 DUP1 REVERT JUMPDEST POP GAS STATICCALL ISZERO DUP1 ISZERO PUSH2 0xCDE JUMPI RETURNDATASIZE PUSH1 0x0 DUP1 RETURNDATACOPY RETURNDATASIZE PUSH1 0x0 REVERT JUMPDEST POP POP POP POP PUSH1 0x40 MLOAD RETURNDATASIZE PUSH1 0x1F NOT PUSH1 0x1F DUP3 ADD AND DUP3 ADD DUP1 PUSH1 0x40 MSTORE POP DUP2 ADD SWAP1 PUSH2 0xD02 SWAP2 SWAP1 PUSH2 0x2AD3 JUMP JUMPDEST PUSH1 0x40 MLOAD PUSH32 0x47C6B45E00000000000000000000000000000000000000000000000000000000 DUP2 MSTORE CALLER PUSH1 0x4 DUP3 ADD MSTORE PUSH1 0x24 DUP2 ADD DUP8 SWAP1 MSTORE PUSH1 0x1 PUSH1 0x1 PUSH1 0xA0 SHL SUB DUP7 DUP2 AND PUSH1 0x44 DUP4 ADD MSTORE SWAP2 SWAP1 SWAP2 AND SWAP1 PUSH4 0x47C6B45E SWAP1 PUSH1 0x64 ADD PUSH1 0x0 PUSH1 0x40 MLOAD DUP1 DUP4 SUB DUP2 PUSH1 0x0 DUP8 DUP1 EXTCODESIZE ISZERO DUP1 ISZERO PUSH2 0xD6D JUMPI PUSH1 0x0 DUP1 REVERT JUMPDEST POP GAS CALL ISZERO DUP1 ISZERO PUSH2 0xD81 JUMPI RETURNDATASIZE PUSH1 0x0 DUP1 RETURNDATACOPY RETURNDATASIZE PUSH1 0x0 REVERT JUMPDEST POP POP PUSH1 0x40 MLOAD PUSH32 0x12EEFF7E00000000000000000000000000000000000000000000000000000000 DUP2 MSTORE PUSH1 0x1 PUSH1 0x1 PUSH1 0xA0 SHL SUB DUP8 DUP2 AND PUSH1 0x4 DUP4 ADD MSTORE PUSH1 0x24 DUP3 ADD DUP10 SWAP1 MSTORE CALLER PUSH1 0x44 DUP4 ADD MSTORE DUP6 ISZERO ISZERO PUSH1 0x64 DUP4 ADD MSTORE DUP7 AND SWAP3 POP PUSH4 0x12EEFF7E SWAP2 POP PUSH1 0x84 ADD PUSH1 0x0 PUSH1 0x40 MLOAD DUP1 DUP4 SUB DUP2 PUSH1 0x0 DUP8 DUP1 EXTCODESIZE ISZERO DUP1 ISZERO PUSH2 0xDF6 JUMPI PUSH1 0x0 DUP1 REVERT JUMPDEST POP GAS CALL ISZERO DUP1 ISZERO PUSH2 0xE0A JUMPI RETURNDATASIZE PUSH1 0x0 DUP1 RETURNDATACOPY RETURNDATASIZE PUSH1 0x0 REVERT JUMPDEST POP POP PUSH1 0x40 DUP1 MLOAD CALLER DUP2 MSTORE PUSH1 0x1 PUSH1 0x1 PUSH1 0xA0 SHL SUB DUP8 DUP2 AND PUSH1 0x20 DUP4 ADD MSTORE DUP9 AND DUP2 DUP4 ADD MSTORE PUSH1 0x60 DUP2 ADD DUP10 SWAP1 MSTORE SWAP1 MLOAD PUSH32 0xA657ED79C074C3489591ADB7BA850F38C009BD846E47F2FFE3EDC1D06F48A5A4 SWAP4 POP SWAP1 DUP2 SWAP1 SUB PUSH1 0x80 ADD SWAP2 POP LOG1 PUSH2 0xBFF PUSH1 0x1 PUSH1 0x0 SSTORE JUMP JUMPDEST PUSH1 0x1 PUSH1 0x1 PUSH1 0xA0 SHL SUB DUP2 AND PUSH1 0x0 SWAP1 DUP2 MSTORE PUSH1 0x5 PUSH1 0x20 SWAP1 DUP2 MSTORE PUSH1 0x40 SWAP2 DUP3 SWAP1 KECCAK256 DUP1 SLOAD DUP4 MLOAD DUP2 DUP5 MUL DUP2 ADD DUP5 ADD SWAP1 SWAP5 MSTORE DUP1 DUP5 MSTORE PUSH1 0x60 SWAP4 SWAP3 DUP4 ADD DUP3 DUP3 DUP1 ISZERO PUSH2 0xED3 JUMPI PUSH1 0x20 MUL DUP3 ADD SWAP2 SWAP1 PUSH1 0x0 MSTORE PUSH1 0x20 PUSH1 0x0 KECCAK256 SWAP1 JUMPDEST DUP2 SLOAD PUSH1 0x1 PUSH1 0x1 PUSH1 0xA0 SHL SUB AND DUP2 MSTORE PUSH1 0x1 SWAP1 SWAP2 ADD SWAP1 PUSH1 0x20 ADD DUP1 DUP4 GT PUSH2 0xEB5 JUMPI JUMPDEST POP POP POP POP POP SWAP1 POP SWAP2 SWAP1 POP JUMP JUMPDEST PUSH1 0x0 PUSH1 0x2 DUP4 DUP4 PUSH1 0x40 MLOAD PUSH2 0xEF3 SWAP3 SWAP2 SWAP1 PUSH2 0x2BAC JUMP JUMPDEST SWAP1 DUP2 MSTORE PUSH1 0x40 MLOAD SWAP1 DUP2 SWAP1 SUB PUSH1 0x20 ADD SWAP1 KECCAK256 SLOAD PUSH1 0x1 PUSH1 0x1 PUSH1 0xA0 SHL SUB AND SWAP1 POP SWAP3 SWAP2 POP POP JUMP JUMPDEST PUSH1 0x1 PUSH1 0x1 PUSH1 0xA0 SHL SUB DUP3 AND PUSH1 0x0 SWAP1 DUP2 MSTORE PUSH1 0x1 PUSH1 0x20 MSTORE PUSH1 0x40 SWAP1 KECCAK256 SLOAD DUP3 SWAP1 PUSH1 0xFF AND PUSH2 0xF69 JUMPI PUSH1 0x40 MLOAD PUSH3 0x461BCD PUSH1 0xE5 SHL DUP2 MSTORE PUSH1 0x20 PUSH1 0x4 DUP3 ADD MSTORE PUSH1 0x8 PUSH1 0x24 DUP3 ADD MSTORE PUSH8 0x1B9BDD081C1BDBDB PUSH1 0xC2 SHL PUSH1 0x44 DUP3 ADD MSTORE PUSH1 0x64 ADD PUSH2 0x4BC JUMP JUMPDEST PUSH2 0xF71 PUSH2 0x210C JUMP JUMPDEST DUP4 PUSH1 0x0 PUSH32 0x0 PUSH1 0x1 PUSH1 0x1 PUSH1 0xA0 SHL SUB AND PUSH4 0x26B1D5F PUSH1 0x40 MLOAD DUP2 PUSH4 0xFFFFFFFF AND PUSH1 0xE0 SHL DUP2 MSTORE PUSH1 0x4 ADD PUSH1 0x20 PUSH1 0x40 MLOAD DUP1 DUP4 SUB DUP2 DUP7 DUP1 EXTCODESIZE ISZERO DUP1 ISZERO PUSH2 0xFCD JUMPI PUSH1 0x0 DUP1 REVERT JUMPDEST POP GAS STATICCALL ISZERO DUP1 ISZERO PUSH2 0xFE1 JUMPI RETURNDATASIZE PUSH1 0x0 DUP1 RETURNDATACOPY RETURNDATASIZE PUSH1 0x0 REVERT JUMPDEST POP POP POP POP PUSH1 0x40 MLOAD RETURNDATASIZE PUSH1 0x1F NOT PUSH1 0x1F DUP3 ADD AND DUP3 ADD DUP1 PUSH1 0x40 MSTORE POP DUP2 ADD SWAP1 PUSH2 0x1005 SWAP2 SWAP1 PUSH2 0x2AD3 JUMP JUMPDEST SWAP1 POP PUSH1 0x0 DUP2 PUSH1 0x1 PUSH1 0x1 PUSH1 0xA0 SHL SUB AND PUSH4 0xD1946DBC PUSH1 0x40 MLOAD DUP2 PUSH4 0xFFFFFFFF AND PUSH1 0xE0 SHL DUP2 MSTORE PUSH1 0x4 ADD PUSH1 0x0 PUSH1 0x40 MLOAD DUP1 DUP4 SUB DUP2 DUP7 DUP1 EXTCODESIZE ISZERO DUP1 ISZERO PUSH2 0x1042 JUMPI PUSH1 0x0 DUP1 REVERT JUMPDEST POP GAS STATICCALL ISZERO DUP1 ISZERO PUSH2 0x1056 JUMPI RETURNDATASIZE PUSH1 0x0 DUP1 RETURNDATACOPY RETURNDATASIZE PUSH1 0x0 REVERT JUMPDEST POP POP POP POP PUSH1 0x40 MLOAD RETURNDATASIZE PUSH1 0x0 DUP3 RETURNDATACOPY PUSH1 0x1F RETURNDATASIZE SWAP1 DUP2 ADD PUSH1 0x1F NOT AND DUP3 ADD PUSH1 0x40 MSTORE PUSH2 0x107E SWAP2 SWAP1 DUP2 ADD SWAP1 PUSH2 0x2BBC JUMP JUMPDEST SWAP1 POP PUSH1 0x0 DUP1 JUMPDEST DUP3 MLOAD DUP2 PUSH1 0xFF AND LT ISZERO PUSH2 0x10DD JUMPI DUP3 DUP2 PUSH1 0xFF AND DUP2 MLOAD DUP2 LT PUSH2 0x10A5 JUMPI PUSH2 0x10A5 PUSH2 0x2C6E JUMP JUMPDEST PUSH1 0x20 MUL PUSH1 0x20 ADD ADD MLOAD PUSH1 0x1 PUSH1 0x1 PUSH1 0xA0 SHL SUB AND DUP6 PUSH1 0x1 PUSH1 0x1 PUSH1 0xA0 SHL SUB AND EQ ISZERO PUSH2 0x10CB JUMPI PUSH1 0x1 SWAP2 POP JUMPDEST DUP1 PUSH2 0x10D5 DUP2 PUSH2 0x2C84 JUMP JUMPDEST SWAP2 POP POP PUSH2 0x1084 JUMP JUMPDEST POP DUP1 PUSH2 0x112B JUMPI PUSH1 0x40 MLOAD PUSH3 0x461BCD PUSH1 0xE5 SHL DUP2 MSTORE PUSH1 0x20 PUSH1 0x4 DUP3 ADD MSTORE PUSH1 0x12 PUSH1 0x24 DUP3 ADD MSTORE PUSH32 0x746F6B656E206E6F7420617070726F7665640000000000000000000000000000 PUSH1 0x44 DUP3 ADD MSTORE PUSH1 0x64 ADD PUSH2 0x4BC JUMP JUMPDEST PUSH1 0xF SLOAD PUSH1 0x40 MLOAD PUSH32 0xEDA9C2D200000000000000000000000000000000000000000000000000000000 DUP2 MSTORE PUSH1 0x1 PUSH1 0x1 PUSH1 0xA0 SHL SUB DUP11 DUP2 AND PUSH1 0x4 DUP4 ADD MSTORE PUSH32 0x0 DUP2 AND PUSH1 0x24 DUP4 ADD MSTORE DUP9 ISZERO ISZERO PUSH1 0x44 DUP4 ADD MSTORE PUSH1 0x64 DUP3 ADD SWAP3 SWAP1 SWAP3 MSTORE PUSH1 0x0 SWAP2 DUP10 AND SWAP1 PUSH4 0xEDA9C2D2 SWAP1 PUSH1 0x84 ADD PUSH1 0x20 PUSH1 0x40 MLOAD DUP1 DUP4 SUB DUP2 PUSH1 0x0 DUP8 DUP1 EXTCODESIZE ISZERO DUP1 ISZERO PUSH2 0x11C5 JUMPI PUSH1 0x0 DUP1 REVERT JUMPDEST POP GAS CALL ISZERO DUP1 ISZERO PUSH2 0x11D9 JUMPI RETURNDATASIZE PUSH1 0x0 DUP1 RETURNDATACOPY RETURNDATASIZE PUSH1 0x0 REVERT JUMPDEST POP POP POP POP PUSH1 0x40 MLOAD RETURNDATASIZE PUSH1 0x1F NOT PUSH1 0x1F DUP3 ADD AND DUP3 ADD DUP1 PUSH1 0x40 MSTORE POP DUP2 ADD SWAP1 PUSH2 0x11FD SWAP2 SWAP1 PUSH2 0x2AF0 JUMP JUMPDEST PUSH1 0x1 PUSH1 0x1 PUSH1 0xA0 SHL SUB DUP11 AND PUSH1 0x0 SWAP1 DUP2 MSTORE PUSH1 0x4 PUSH1 0x20 MSTORE PUSH1 0x40 DUP2 KECCAK256 DUP1 SLOAD SWAP3 SWAP4 POP DUP4 SWAP3 SWAP1 SWAP2 SWAP1 PUSH2 0x122A SWAP1 DUP5 SWAP1 PUSH2 0x2A18 JUMP JUMPDEST SWAP3 POP POP DUP2 SWAP1 SSTORE POP PUSH32 0x7276C0285F260D667DF9DED71CA6A988145D36DE1D14252710532B9DE5F089FE CALLER DUP10 PUSH1 0x1 PUSH1 0x1 PUSH1 0xA0 SHL SUB AND PUSH4 0x1B88094D PUSH1 0x40 MLOAD DUP2 PUSH4 0xFFFFFFFF AND PUSH1 0xE0 SHL DUP2 MSTORE PUSH1 0x4 ADD PUSH1 0x20 PUSH1 0x40 MLOAD DUP1 DUP4 SUB DUP2 DUP7 DUP1 EXTCODESIZE ISZERO DUP1 ISZERO PUSH2 0x128C JUMPI PUSH1 0x0 DUP1 REVERT JUMPDEST POP GAS STATICCALL ISZERO DUP1 ISZERO PUSH2 0x12A0 JUMPI RETURNDATASIZE PUSH1 0x0 DUP1 RETURNDATACOPY RETURNDATASIZE PUSH1 0x0 REVERT JUMPDEST POP POP POP POP PUSH1 0x40 MLOAD RETURNDATASIZE PUSH1 0x1F NOT PUSH1 0x1F DUP3 ADD AND DUP3 ADD DUP1 PUSH1 0x40 MSTORE POP DUP2 ADD SWAP1 PUSH2 0x12C4 SWAP2 SWAP1 PUSH2 0x2AD3 JUMP JUMPDEST PUSH1 0x40 DUP1 MLOAD PUSH1 0x1 PUSH1 0x1 PUSH1 0xA0 SHL SUB SWAP4 DUP5 AND DUP2 MSTORE SWAP2 DUP4 AND PUSH1 0x20 DUP4 ADD MSTORE DUP3 DUP13 AND SWAP1 DUP3 ADD MSTORE SWAP1 DUP12 AND PUSH1 0x60 DUP3 ADD MSTORE PUSH1 0x80 DUP2 ADD DUP4 SWAP1 MSTORE PUSH1 0xA0 ADD PUSH1 0x40 MLOAD DUP1 SWAP2 SUB SWAP1 LOG1 POP POP POP POP POP PUSH2 0x130D PUSH1 0x1 PUSH1 0x0 SSTORE JUMP JUMPDEST POP POP POP POP JUMP JUMPDEST PUSH32 0x0 PUSH1 0x1 PUSH1 0x1 PUSH1 0xA0 SHL SUB AND CALLER EQ PUSH2 0x138B JUMPI PUSH1 0x40 MLOAD PUSH3 0x461BCD PUSH1 0xE5 SHL DUP2 MSTORE PUSH1 0x20 PUSH1 0x4 DUP3 ADD MSTORE PUSH1 0x10 PUSH1 0x24 DUP3 ADD MSTORE PUSH32 0x6E6F7420746865206D756C746953696700000000000000000000000000000000 PUSH1 0x44 DUP3 ADD MSTORE PUSH1 0x64 ADD PUSH2 0x4BC JUMP JUMPDEST PUSH1 0x8 DUP2 PUSH1 0x7 DUP2 LT PUSH2 0x139E JUMPI PUSH2 0x139E PUSH2 0x2C6E JUMP JUMPDEST ADD SLOAD PUSH1 0xF SSTORE POP JUMP JUMPDEST DUP7 DUP7 PUSH1 0xA DUP2 GT ISZERO PUSH2 0x13F9 JUMPI PUSH1 0x40 MLOAD PUSH3 0x461BCD PUSH1 0xE5 SHL DUP2 MSTORE PUSH1 0x20 PUSH1 0x4 DUP3 ADD MSTORE PUSH1 0x1D PUSH1 0x24 DUP3 ADD MSTORE PUSH32 0x746F6B656E206C697374206D757374206265203130206F72206C657373000000 PUSH1 0x44 DUP3 ADD MSTORE PUSH1 0x64 ADD PUSH2 0x4BC JUMP JUMPDEST PUSH1 0x0 PUSH32 0x0 PUSH1 0x1 PUSH1 0x1 PUSH1 0xA0 SHL SUB AND PUSH4 0x26B1D5F PUSH1 0x40 MLOAD DUP2 PUSH4 0xFFFFFFFF AND PUSH1 0xE0 SHL DUP2 MSTORE PUSH1 0x4 ADD PUSH1 0x20 PUSH1 0x40 MLOAD DUP1 DUP4 SUB DUP2 DUP7 DUP1 EXTCODESIZE ISZERO DUP1 ISZERO PUSH2 0x1454 JUMPI PUSH1 0x0 DUP1 REVERT JUMPDEST POP GAS STATICCALL ISZERO DUP1 ISZERO PUSH2 0x1468 JUMPI RETURNDATASIZE PUSH1 0x0 DUP1 RETURNDATACOPY RETURNDATASIZE PUSH1 0x0 REVERT JUMPDEST POP POP POP POP PUSH1 0x40 MLOAD RETURNDATASIZE PUSH1 0x1F NOT PUSH1 0x1F DUP3 ADD AND DUP3 ADD DUP1 PUSH1 0x40 MSTORE POP DUP2 ADD SWAP1 PUSH2 0x148C SWAP2 SWAP1 PUSH2 0x2AD3 JUMP JUMPDEST SWAP1 POP PUSH1 0x0 DUP2 PUSH1 0x1 PUSH1 0x1 PUSH1 0xA0 SHL SUB AND PUSH4 0xD1946DBC PUSH1 0x40 MLOAD DUP2 PUSH4 0xFFFFFFFF AND PUSH1 0xE0 SHL DUP2 MSTORE PUSH1 0x4 ADD PUSH1 0x0 PUSH1 0x40 MLOAD DUP1 DUP4 SUB DUP2 DUP7 DUP1 EXTCODESIZE ISZERO DUP1 ISZERO PUSH2 0x14C9 JUMPI PUSH1 0x0 DUP1 REVERT JUMPDEST POP GAS STATICCALL ISZERO DUP1 ISZERO PUSH2 0x14DD JUMPI RETURNDATASIZE PUSH1 0x0 DUP1 RETURNDATACOPY RETURNDATASIZE PUSH1 0x0 REVERT JUMPDEST POP POP POP POP PUSH1 0x40 MLOAD RETURNDATASIZE PUSH1 0x0 DUP3 RETURNDATACOPY PUSH1 0x1F RETURNDATASIZE SWAP1 DUP2 ADD PUSH1 0x1F NOT AND DUP3 ADD PUSH1 0x40 MSTORE PUSH2 0x1505 SWAP2 SWAP1 DUP2 ADD SWAP1 PUSH2 0x2BBC JUMP JUMPDEST SWAP1 POP PUSH1 0x0 JUMPDEST PUSH1 0xFF DUP2 AND DUP5 GT ISZERO PUSH2 0x15FC JUMPI PUSH1 0x0 DUP1 JUMPDEST DUP4 MLOAD DUP2 PUSH1 0xFF AND LT ISZERO PUSH2 0x159B JUMPI DUP4 DUP2 PUSH1 0xFF AND DUP2 MLOAD DUP2 LT PUSH2 0x153A JUMPI PUSH2 0x153A PUSH2 0x2C6E JUMP JUMPDEST PUSH1 0x20 MUL PUSH1 0x20 ADD ADD MLOAD PUSH1 0x1 PUSH1 0x1 PUSH1 0xA0 SHL SUB AND DUP8 DUP8 DUP6 PUSH1 0xFF AND DUP2 DUP2 LT PUSH2 0x1560 JUMPI PUSH2 0x1560 PUSH2 0x2C6E JUMP JUMPDEST SWAP1 POP PUSH1 0x20 MUL ADD PUSH1 0x20 DUP2 ADD SWAP1 PUSH2 0x1575 SWAP2 SWAP1 PUSH2 0x265B JUMP JUMPDEST PUSH1 0x1 PUSH1 0x1 PUSH1 0xA0 SHL SUB AND EQ ISZERO PUSH2 0x1589 JUMPI PUSH1 0x1 SWAP2 POP JUMPDEST DUP1 PUSH2 0x1593 DUP2 PUSH2 0x2C84 JUMP JUMPDEST SWAP2 POP POP PUSH2 0x1519 JUMP JUMPDEST POP DUP1 PUSH2 0x15E9 JUMPI PUSH1 0x40 MLOAD PUSH3 0x461BCD PUSH1 0xE5 SHL DUP2 MSTORE PUSH1 0x20 PUSH1 0x4 DUP3 ADD MSTORE PUSH1 0x13 PUSH1 0x24 DUP3 ADD MSTORE PUSH32 0x746F6B656E73206E6F7420617070726F76656400000000000000000000000000 PUSH1 0x44 DUP3 ADD MSTORE PUSH1 0x64 ADD PUSH2 0x4BC JUMP JUMPDEST POP DUP1 PUSH2 0x15F4 DUP2 PUSH2 0x2C84 JUMP JUMPDEST SWAP2 POP POP PUSH2 0x150A JUMP JUMPDEST POP PUSH1 0x0 PUSH1 0x1 PUSH1 0x1 PUSH1 0xA0 SHL SUB AND PUSH1 0x2 DUP11 PUSH1 0x40 MLOAD PUSH2 0x1618 SWAP2 SWAP1 PUSH2 0x2CA4 JUMP JUMPDEST SWAP1 DUP2 MSTORE PUSH1 0x40 MLOAD SWAP1 DUP2 SWAP1 SUB PUSH1 0x20 ADD SWAP1 KECCAK256 SLOAD PUSH1 0x1 PUSH1 0x1 PUSH1 0xA0 SHL SUB AND EQ PUSH2 0x167E JUMPI PUSH1 0x40 MLOAD PUSH3 0x461BCD PUSH1 0xE5 SHL DUP2 MSTORE PUSH1 0x20 PUSH1 0x4 DUP3 ADD MSTORE PUSH1 0x1D PUSH1 0x24 DUP3 ADD MSTORE PUSH32 0x706F6F6C2077697468206E616D6520616C726561647920657869737473000000 PUSH1 0x44 DUP3 ADD MSTORE PUSH1 0x64 ADD PUSH2 0x4BC JUMP JUMPDEST PUSH1 0x0 PUSH2 0x16A9 PUSH32 0x0 PUSH2 0x2360 JUMP JUMPDEST SWAP1 POP PUSH1 0x0 PUSH2 0x16D6 PUSH32 0x0 PUSH2 0x2360 JUMP JUMPDEST SWAP1 POP PUSH1 0x0 CALLER PUSH1 0x1 PUSH1 0x1 PUSH1 0xA0 SHL SUB PUSH32 0x0 AND EQ ISZERO PUSH2 0x1766 JUMPI POP PUSH1 0x7 DUP1 SLOAD PUSH1 0x1 DUP1 DUP3 ADD DUP4 SSTORE PUSH1 0x0 SWAP3 SWAP1 SWAP3 MSTORE PUSH32 0xA66CC928B5EDB82AF9BD49922954155AB7B0942694BEA4CE44661D9A8736C688 ADD DUP1 SLOAD PUSH20 0xFFFFFFFFFFFFFFFFFFFFFFFFFFFFFFFFFFFFFFFF NOT AND PUSH1 0x1 PUSH1 0x1 PUSH1 0xA0 SHL SUB DUP6 AND OR SWAP1 SSTORE JUMPDEST DUP3 PUSH1 0x1 PUSH1 0x1 PUSH1 0xA0 SHL SUB AND PUSH4 0xBBC41F48 DUP16 DUP16 DUP16 DUP16 DUP16 DUP16 DUP16 PUSH32 0x0 PUSH32 0x0 DUP13 DUP13 PUSH1 0x40 MLOAD DUP13 PUSH4 0xFFFFFFFF AND PUSH1 0xE0 SHL DUP2 MSTORE PUSH1 0x4 ADD PUSH2 0x17E6 SWAP12 SWAP11 SWAP10 SWAP9 SWAP8 SWAP7 SWAP6 SWAP5 SWAP4 SWAP3 SWAP2 SWAP1 PUSH2 0x2CC0 JUMP JUMPDEST PUSH1 0x0 PUSH1 0x40 MLOAD DUP1 DUP4 SUB DUP2 PUSH1 0x0 DUP8 DUP1 EXTCODESIZE ISZERO DUP1 ISZERO PUSH2 0x1800 JUMPI PUSH1 0x0 DUP1 REVERT JUMPDEST POP GAS CALL ISZERO DUP1 ISZERO PUSH2 0x1814 JUMPI RETURNDATASIZE PUSH1 0x0 DUP1 RETURNDATACOPY RETURNDATASIZE PUSH1 0x0 REVERT JUMPDEST POP POP PUSH1 0x40 MLOAD PUSH32 0xC4D66DE800000000000000000000000000000000000000000000000000000000 DUP2 MSTORE PUSH1 0x1 PUSH1 0x1 PUSH1 0xA0 SHL SUB DUP7 DUP2 AND PUSH1 0x4 DUP4 ADD MSTORE DUP6 AND SWAP3 POP PUSH4 0xC4D66DE8 SWAP2 POP PUSH1 0x24 ADD PUSH1 0x0 PUSH1 0x40 MLOAD DUP1 DUP4 SUB DUP2 PUSH1 0x0 DUP8 DUP1 EXTCODESIZE ISZERO DUP1 ISZERO PUSH2 0x1874 JUMPI PUSH1 0x0 DUP1 REVERT JUMPDEST POP GAS CALL ISZERO DUP1 ISZERO PUSH2 0x1888 JUMPI RETURNDATASIZE PUSH1 0x0 DUP1 RETURNDATACOPY RETURNDATASIZE PUSH1 0x0 REVERT JUMPDEST POP POP POP POP PUSH1 0x1 PUSH1 0x1 PUSH1 0xA0 SHL SUB DUP9 DUP2 AND PUSH1 0x0 SWAP1 DUP2 MSTORE PUSH1 0x6 PUSH1 0x20 SWAP1 DUP2 MSTORE PUSH1 0x40 DUP1 DUP4 KECCAK256 DUP1 SLOAD PUSH1 0x1 DUP2 ADD DUP3 SSTORE SWAP1 DUP5 MSTORE SWAP2 SWAP1 SWAP3 KECCAK256 ADD DUP1 SLOAD PUSH20 0xFFFFFFFFFFFFFFFFFFFFFFFFFFFFFFFFFFFFFFFF NOT AND SWAP3 DUP7 AND SWAP3 SWAP1 SWAP3 OR SWAP1 SWAP2 SSTORE MLOAD DUP4 SWAP1 PUSH1 0x2 SWAP1 PUSH2 0x18EC SWAP1 DUP16 SWAP1 PUSH2 0x2CA4 JUMP JUMPDEST SWAP1 DUP2 MSTORE PUSH1 0x40 DUP1 MLOAD PUSH1 0x20 SWAP3 DUP2 SWAP1 SUB DUP4 ADD DUP2 KECCAK256 DUP1 SLOAD PUSH20 0xFFFFFFFFFFFFFFFFFFFFFFFFFFFFFFFFFFFFFFFF NOT AND PUSH1 0x1 PUSH1 0x1 PUSH1 0xA0 SHL SUB SWAP6 DUP7 AND OR SWAP1 SSTORE SWAP3 DUP7 AND PUSH1 0x0 SWAP1 DUP2 MSTORE PUSH1 0x1 SWAP3 DUP4 SWAP1 MSTORE KECCAK256 DUP1 SLOAD PUSH1 0xFF NOT AND SWAP1 SWAP2 OR SWAP1 SSTORE PUSH32 0x373ADB264E07592E89E672B780912566106B06A5F7A7787E63A47CA627E915AF SWAP1 PUSH2 0x196F SWAP1 DUP6 SWAP1 DUP16 SWAP1 DUP13 SWAP1 PUSH2 0x2DB5 JUMP JUMPDEST PUSH1 0x40 MLOAD DUP1 SWAP2 SUB SWAP1 LOG1 POP POP POP POP POP POP POP POP POP POP POP POP POP POP JUMP JUMPDEST PUSH1 0x60 PUSH1 0x7 DUP1 SLOAD DUP1 PUSH1 0x20 MUL PUSH1 0x20 ADD PUSH1 0x40 MLOAD SWAP1 DUP2 ADD PUSH1 0x40 MSTORE DUP1 SWAP3 SWAP2 SWAP1 DUP2 DUP2 MSTORE PUSH1 0x20 ADD DUP3 DUP1 SLOAD DUP1 ISZERO PUSH2 0x19DF JUMPI PUSH1 0x20 MUL DUP3 ADD SWAP2 SWAP1 PUSH1 0x0 MSTORE PUSH1 0x20 PUSH1 0x0 KECCAK256 SWAP1 JUMPDEST DUP2 SLOAD PUSH1 0x1 PUSH1 0x1 PUSH1 0xA0 SHL SUB AND DUP2 MSTORE PUSH1 0x1 SWAP1 SWAP2 ADD SWAP1 PUSH1 0x20 ADD DUP1 DUP4 GT PUSH2 0x19C1 JUMPI JUMPDEST POP POP POP POP POP SWAP1 POP SWAP1 JUMP JUMPDEST PUSH1 0x60 PUSH1 0x0 PUSH32 0x0 PUSH1 0x1 PUSH1 0x1 PUSH1 0xA0 SHL SUB AND PUSH4 0x26B1D5F PUSH1 0x40 MLOAD DUP2 PUSH4 0xFFFFFFFF AND PUSH1 0xE0 SHL DUP2 MSTORE PUSH1 0x4 ADD PUSH1 0x20 PUSH1 0x40 MLOAD DUP1 DUP4 SUB DUP2 DUP7 DUP1 EXTCODESIZE ISZERO DUP1 ISZERO PUSH2 0x1A46 JUMPI PUSH1 0x0 DUP1 REVERT JUMPDEST POP GAS STATICCALL ISZERO DUP1 ISZERO PUSH2 0x1A5A JUMPI RETURNDATASIZE PUSH1 0x0 DUP1 RETURNDATACOPY RETURNDATASIZE PUSH1 0x0 REVERT JUMPDEST POP POP POP POP PUSH1 0x40 MLOAD RETURNDATASIZE PUSH1 0x1F NOT PUSH1 0x1F DUP3 ADD AND DUP3 ADD DUP1 PUSH1 0x40 MSTORE POP DUP2 ADD SWAP1 PUSH2 0x1A7E SWAP2 SWAP1 PUSH2 0x2AD3 JUMP JUMPDEST SWAP1 POP DUP1 PUSH1 0x1 PUSH1 0x1 PUSH1 0xA0 SHL SUB AND PUSH4 0xD1946DBC PUSH1 0x40 MLOAD DUP2 PUSH4 0xFFFFFFFF AND PUSH1 0xE0 SHL DUP2 MSTORE PUSH1 0x4 ADD PUSH1 0x0 PUSH1 0x40 MLOAD DUP1 DUP4 SUB DUP2 DUP7 DUP1 EXTCODESIZE ISZERO DUP1 ISZERO PUSH2 0x1AB9 JUMPI PUSH1 0x0 DUP1 REVERT JUMPDEST POP GAS STATICCALL ISZERO DUP1 ISZERO PUSH2 0x1ACD JUMPI RETURNDATASIZE PUSH1 0x0 DUP1 RETURNDATACOPY RETURNDATASIZE PUSH1 0x0 REVERT JUMPDEST POP POP POP POP PUSH1 0x40 MLOAD RETURNDATASIZE PUSH1 0x0 DUP3 RETURNDATACOPY PUSH1 0x1F RETURNDATASIZE SWAP1 DUP2 ADD PUSH1 0x1F NOT AND DUP3 ADD PUSH1 0x40 MSTORE PUSH2 0x1AF5 SWAP2 SWAP1 DUP2 ADD SWAP1 PUSH2 0x2BBC JUMP JUMPDEST SWAP2 POP POP SWAP1 JUMP JUMPDEST PUSH1 0x0 DUP1 PUSH32 0x0 PUSH1 0x1 PUSH1 0x1 PUSH1 0xA0 SHL SUB AND PUSH4 0x26B1D5F PUSH1 0x40 MLOAD DUP2 PUSH4 0xFFFFFFFF AND PUSH1 0xE0 SHL DUP2 MSTORE PUSH1 0x4 ADD PUSH1 0x20 PUSH1 0x40 MLOAD DUP1 DUP4 SUB DUP2 DUP7 DUP1 EXTCODESIZE ISZERO DUP1 ISZERO PUSH2 0x1B57 JUMPI PUSH1 0x0 DUP1 REVERT JUMPDEST POP GAS STATICCALL ISZERO DUP1 ISZERO PUSH2 0x1B6B JUMPI RETURNDATASIZE PUSH1 0x0 DUP1 RETURNDATACOPY RETURNDATASIZE PUSH1 0x0 REVERT JUMPDEST POP POP POP POP PUSH1 0x40 MLOAD RETURNDATASIZE PUSH1 0x1F NOT PUSH1 0x1F DUP3 ADD AND DUP3 ADD DUP1 PUSH1 0x40 MSTORE POP DUP2 ADD SWAP1 PUSH2 0x1B8F SWAP2 SWAP1 PUSH2 0x2AD3 JUMP JUMPDEST SWAP3 SWAP2 POP POP JUMP JUMPDEST PUSH1 0x1 PUSH1 0x1 PUSH1 0xA0 SHL SUB DUP4 AND PUSH1 0x0 SWAP1 DUP2 MSTORE PUSH1 0x1 PUSH1 0x20 MSTORE PUSH1 0x40 SWAP1 KECCAK256 SLOAD DUP4 SWAP1 PUSH1 0xFF AND PUSH2 0x1BEA JUMPI PUSH1 0x40 MLOAD PUSH3 0x461BCD PUSH1 0xE5 SHL DUP2 MSTORE PUSH1 0x20 PUSH1 0x4 DUP3 ADD MSTORE PUSH1 0x8 PUSH1 0x24 DUP3 ADD MSTORE PUSH8 0x1B9BDD081C1BDBDB PUSH1 0xC2 SHL PUSH1 0x44 DUP3 ADD MSTORE PUSH1 0x64 ADD PUSH2 0x4BC JUMP JUMPDEST DUP4 CALLER PUSH1 0x1 PUSH1 0x1 PUSH1 0xA0 SHL SUB AND DUP2 PUSH1 0x1 PUSH1 0x1 PUSH1 0xA0 SHL SUB AND PUSH4 0x1B88094D PUSH1 0x40 MLOAD DUP2 PUSH4 0xFFFFFFFF AND PUSH1 0xE0 SHL DUP2 MSTORE PUSH1 0x4 ADD PUSH1 0x20 PUSH1 0x40 MLOAD DUP1 DUP4 SUB DUP2 DUP7 DUP1 EXTCODESIZE ISZERO DUP1 ISZERO PUSH2 0x1C2E JUMPI PUSH1 0x0 DUP1 REVERT JUMPDEST POP GAS STATICCALL ISZERO DUP1 ISZERO PUSH2 0x1C42 JUMPI RETURNDATASIZE PUSH1 0x0 DUP1 RETURNDATACOPY RETURNDATASIZE PUSH1 0x0 REVERT JUMPDEST POP POP POP POP PUSH1 0x40 MLOAD RETURNDATASIZE PUSH1 0x1F NOT PUSH1 0x1F DUP3 ADD AND DUP3 ADD DUP1 PUSH1 0x40 MSTORE POP DUP2 ADD SWAP1 PUSH2 0x1C66 SWAP2 SWAP1 PUSH2 0x2AD3 JUMP JUMPDEST PUSH1 0x1 PUSH1 0x1 PUSH1 0xA0 SHL SUB AND EQ DUP1 PUSH2 0x1D1B JUMPI POP DUP1 PUSH1 0x1 PUSH1 0x1 PUSH1 0xA0 SHL SUB AND PUSH4 0x357286D7 PUSH1 0x40 MLOAD DUP2 PUSH4 0xFFFFFFFF AND PUSH1 0xE0 SHL DUP2 MSTORE PUSH1 0x4 ADD PUSH1 0x20 PUSH1 0x40 MLOAD DUP1 DUP4 SUB DUP2 DUP7 DUP1 EXTCODESIZE ISZERO DUP1 ISZERO PUSH2 0x1CAF JUMPI PUSH1 0x0 DUP1 REVERT JUMPDEST POP GAS STATICCALL ISZERO DUP1 ISZERO PUSH2 0x1CC3 JUMPI RETURNDATASIZE PUSH1 0x0 DUP1 RETURNDATACOPY RETURNDATASIZE PUSH1 0x0 REVERT JUMPDEST POP POP POP POP PUSH1 0x40 MLOAD RETURNDATASIZE PUSH1 0x1F NOT PUSH1 0x1F DUP3 ADD AND DUP3 ADD DUP1 PUSH1 0x40 MSTORE POP DUP2 ADD SWAP1 PUSH2 0x1CE7 SWAP2 SWAP1 PUSH2 0x2B78 JUMP JUMPDEST DUP1 ISZERO PUSH2 0x1D1B JUMPI POP CALLER PUSH1 0x1 PUSH1 0x1 PUSH1 0xA0 SHL SUB PUSH32 0x0 AND EQ JUMPDEST PUSH2 0x1D67 JUMPI PUSH1 0x40 MLOAD PUSH3 0x461BCD PUSH1 0xE5 SHL DUP2 MSTORE PUSH1 0x20 PUSH1 0x4 DUP3 ADD MSTORE PUSH1 0xE PUSH1 0x24 DUP3 ADD MSTORE PUSH32 0x6E6F7420617574686F72697A6564000000000000000000000000000000000000 PUSH1 0x44 DUP3 ADD MSTORE PUSH1 0x64 ADD PUSH2 0x4BC JUMP JUMPDEST PUSH1 0x40 MLOAD PUSH32 0xD04D566A00000000000000000000000000000000000000000000000000000000 DUP2 MSTORE PUSH1 0x1 PUSH1 0x1 PUSH1 0xA0 SHL SUB DUP7 AND SWAP1 PUSH4 0xD04D566A SWAP1 PUSH2 0x1DAE SWAP1 DUP8 SWAP1 DUP8 SWAP1 PUSH1 0x4 ADD PUSH2 0x2DEB JUMP JUMPDEST PUSH1 0x0 PUSH1 0x40 MLOAD DUP1 DUP4 SUB DUP2 PUSH1 0x0 DUP8 DUP1 EXTCODESIZE ISZERO DUP1 ISZERO PUSH2 0x1DC8 JUMPI PUSH1 0x0 DUP1 REVERT JUMPDEST POP GAS CALL ISZERO DUP1 ISZERO PUSH2 0x1DDC JUMPI RETURNDATASIZE PUSH1 0x0 DUP1 RETURNDATACOPY RETURNDATASIZE PUSH1 0x0 REVERT JUMPDEST POP POP PUSH1 0x40 MLOAD CALLER DUP2 MSTORE PUSH32 0x43DC6EF74760F8CBC65F330B4EBC68F3473F893B65144B4BA1DE2DA01140F1F1 SWAP3 POP PUSH1 0x20 ADD SWAP1 POP JUMPDEST PUSH1 0x40 MLOAD DUP1 SWAP2 SUB SWAP1 LOG1 POP POP POP POP POP JUMP JUMPDEST PUSH1 0x1 PUSH1 0x1 PUSH1 0xA0 SHL SUB DUP4 AND PUSH1 0x0 SWAP1 DUP2 MSTORE PUSH1 0x1 PUSH1 0x20 MSTORE PUSH1 0x40 SWAP1 KECCAK256 SLOAD DUP4 SWAP1 PUSH1 0xFF AND PUSH2 0x1E71 JUMPI PUSH1 0x40 MLOAD PUSH3 0x461BCD PUSH1 0xE5 SHL DUP2 MSTORE PUSH1 0x20 PUSH1 0x4 DUP3 ADD MSTORE PUSH1 0x8 PUSH1 0x24 DUP3 ADD MSTORE PUSH8 0x1B9BDD081C1BDBDB PUSH1 0xC2 SHL PUSH1 0x44 DUP3 ADD MSTORE PUSH1 0x64 ADD PUSH2 0x4BC JUMP JUMPDEST DUP4 CALLER PUSH1 0x1 PUSH1 0x1 PUSH1 0xA0 SHL SUB AND DUP2 PUSH1 0x1 PUSH1 0x1 PUSH1 0xA0 SHL SUB AND PUSH4 0x1B88094D PUSH1 0x40 MLOAD DUP2 PUSH4 0xFFFFFFFF AND PUSH1 0xE0 SHL DUP2 MSTORE PUSH1 0x4 ADD PUSH1 0x20 PUSH1 0x40 MLOAD DUP1 DUP4 SUB DUP2 DUP7 DUP1 EXTCODESIZE ISZERO DUP1 ISZERO PUSH2 0x1EB5 JUMPI PUSH1 0x0 DUP1 REVERT JUMPDEST POP GAS STATICCALL ISZERO DUP1 ISZERO PUSH2 0x1EC9 JUMPI RETURNDATASIZE PUSH1 0x0 DUP1 RETURNDATACOPY RETURNDATASIZE PUSH1 0x0 REVERT JUMPDEST POP POP POP POP PUSH1 0x40 MLOAD RETURNDATASIZE PUSH1 0x1F NOT PUSH1 0x1F DUP3 ADD AND DUP3 ADD DUP1 PUSH1 0x40 MSTORE POP DUP2 ADD SWAP1 PUSH2 0x1EED SWAP2 SWAP1 PUSH2 0x2AD3 JUMP JUMPDEST PUSH1 0x1 PUSH1 0x1 PUSH1 0xA0 SHL SUB AND EQ DUP1 PUSH2 0x1FA2 JUMPI POP DUP1 PUSH1 0x1 PUSH1 0x1 PUSH1 0xA0 SHL SUB AND PUSH4 0x357286D7 PUSH1 0x40 MLOAD DUP2 PUSH4 0xFFFFFFFF AND PUSH1 0xE0 SHL DUP2 MSTORE PUSH1 0x4 ADD PUSH1 0x20 PUSH1 0x40 MLOAD DUP1 DUP4 SUB DUP2 DUP7 DUP1 EXTCODESIZE ISZERO DUP1 ISZERO PUSH2 0x1F36 JUMPI PUSH1 0x0 DUP1 REVERT JUMPDEST POP GAS STATICCALL ISZERO DUP1 ISZERO PUSH2 0x1F4A JUMPI RETURNDATASIZE PUSH1 0x0 DUP1 RETURNDATACOPY RETURNDATASIZE PUSH1 0x0 REVERT JUMPDEST POP POP POP POP PUSH1 0x40 MLOAD RETURNDATASIZE PUSH1 0x1F NOT PUSH1 0x1F DUP3 ADD AND DUP3 ADD DUP1 PUSH1 0x40 MSTORE POP DUP2 ADD SWAP1 PUSH2 0x1F6E SWAP2 SWAP1 PUSH2 0x2B78 JUMP JUMPDEST DUP1 ISZERO PUSH2 0x1FA2 JUMPI POP CALLER PUSH1 0x1 PUSH1 0x1 PUSH1 0xA0 SHL SUB PUSH32 0x0 AND EQ JUMPDEST PUSH2 0x1FEE JUMPI PUSH1 0x40 MLOAD PUSH3 0x461BCD PUSH1 0xE5 SHL DUP2 MSTORE PUSH1 0x20 PUSH1 0x4 DUP3 ADD MSTORE PUSH1 0xE PUSH1 0x24 DUP3 ADD MSTORE PUSH32 0x6E6F7420617574686F72697A6564000000000000000000000000000000000000 PUSH1 0x44 DUP3 ADD MSTORE PUSH1 0x64 ADD PUSH2 0x4BC JUMP JUMPDEST PUSH1 0x40 MLOAD PUSH32 0xD0E7A76E00000000000000000000000000000000000000000000000000000000 DUP2 MSTORE PUSH1 0x1 PUSH1 0x1 PUSH1 0xA0 SHL SUB DUP7 AND SWAP1 PUSH4 0xD0E7A76E SWAP1 PUSH2 0x2035 SWAP1 DUP8 SWAP1 DUP8 SWAP1 PUSH1 0x4 ADD PUSH2 0x2DEB JUMP JUMPDEST PUSH1 0x0 PUSH1 0x40 MLOAD DUP1 DUP4 SUB DUP2 PUSH1 0x0 DUP8 DUP1 EXTCODESIZE ISZERO DUP1 ISZERO PUSH2 0x204F JUMPI PUSH1 0x0 DUP1 REVERT JUMPDEST POP GAS CALL ISZERO DUP1 ISZERO PUSH2 0x2063 JUMPI RETURNDATASIZE PUSH1 0x0 DUP1 RETURNDATACOPY RETURNDATASIZE PUSH1 0x0 REVERT JUMPDEST POP POP PUSH1 0x40 MLOAD CALLER DUP2 MSTORE PUSH32 0xE40741C3E9C19E2B1971D708B2C77F1B651C05E88F5B8E656DB0D37A8A38E6D2 SWAP3 POP PUSH1 0x20 ADD SWAP1 POP PUSH2 0x1E0D JUMP JUMPDEST PUSH1 0x1 PUSH1 0x1 PUSH1 0xA0 SHL SUB DUP2 AND PUSH1 0x0 SWAP1 DUP2 MSTORE PUSH1 0x6 PUSH1 0x20 SWAP1 DUP2 MSTORE PUSH1 0x40 SWAP2 DUP3 SWAP1 KECCAK256 DUP1 SLOAD DUP4 MLOAD DUP2 DUP5 MUL DUP2 ADD DUP5 ADD SWAP1 SWAP5 MSTORE DUP1 DUP5 MSTORE PUSH1 0x60 SWAP4 SWAP3 DUP4 ADD DUP3 DUP3 DUP1 ISZERO PUSH2 0xED3 JUMPI PUSH1 0x20 MUL DUP3 ADD SWAP2 SWAP1 PUSH1 0x0 MSTORE PUSH1 0x20 PUSH1 0x0 KECCAK256 SWAP1 DUP2 SLOAD PUSH1 0x1 PUSH1 0x1 PUSH1 0xA0 SHL SUB AND DUP2 MSTORE PUSH1 0x1 SWAP1 SWAP2 ADD SWAP1 PUSH1 0x20 ADD DUP1 DUP4 GT PUSH2 0xEB5 JUMPI POP POP POP POP POP SWAP1 POP SWAP2 SWAP1 POP JUMP JUMPDEST PUSH1 0x2 PUSH1 0x0 SLOAD EQ ISZERO PUSH2 0x215F JUMPI PUSH1 0x40 MLOAD PUSH3 0x461BCD PUSH1 0xE5 SHL DUP2 MSTORE PUSH1 0x20 PUSH1 0x4 DUP3 ADD MSTORE PUSH1 0x1F PUSH1 0x24 DUP3 ADD MSTORE PUSH32 0x5265656E7472616E637947756172643A207265656E7472616E742063616C6C00 PUSH1 0x44 DUP3 ADD MSTORE PUSH1 0x64 ADD PUSH2 0x4BC JUMP JUMPDEST PUSH1 0x2 PUSH1 0x0 SSTORE JUMP JUMPDEST PUSH1 0x40 MLOAD PUSH1 0x1 PUSH1 0x1 PUSH1 0xA0 SHL SUB DUP1 DUP6 AND PUSH1 0x24 DUP4 ADD MSTORE DUP4 AND PUSH1 0x44 DUP3 ADD MSTORE PUSH1 0x64 DUP2 ADD DUP3 SWAP1 MSTORE PUSH2 0x130D SWAP1 DUP6 SWAP1 PUSH32 0x23B872DD00000000000000000000000000000000000000000000000000000000 SWAP1 PUSH1 0x84 ADD JUMPDEST PUSH1 0x40 DUP1 MLOAD PUSH1 0x1F NOT DUP2 DUP5 SUB ADD DUP2 MSTORE SWAP2 SWAP1 MSTORE PUSH1 0x20 DUP2 ADD DUP1 MLOAD PUSH28 0xFFFFFFFFFFFFFFFFFFFFFFFFFFFFFFFFFFFFFFFFFFFFFFFFFFFFFFFF AND PUSH32 0xFFFFFFFF00000000000000000000000000000000000000000000000000000000 SWAP1 SWAP4 AND SWAP3 SWAP1 SWAP3 OR SWAP1 SWAP2 MSTORE PUSH2 0x2401 JUMP JUMPDEST DUP1 ISZERO DUP1 PUSH2 0x22A0 JUMPI POP PUSH1 0x40 MLOAD PUSH4 0x6EB1769F PUSH1 0xE1 SHL DUP2 MSTORE ADDRESS PUSH1 0x4 DUP3 ADD MSTORE PUSH1 0x1 PUSH1 0x1 PUSH1 0xA0 SHL SUB DUP4 DUP2 AND PUSH1 0x24 DUP4 ADD MSTORE DUP5 AND SWAP1 PUSH4 0xDD62ED3E SWAP1 PUSH1 0x44 ADD PUSH1 0x20 PUSH1 0x40 MLOAD DUP1 DUP4 SUB DUP2 DUP7 DUP1 EXTCODESIZE ISZERO DUP1 ISZERO PUSH2 0x2266 JUMPI PUSH1 0x0 DUP1 REVERT JUMPDEST POP GAS STATICCALL ISZERO DUP1 ISZERO PUSH2 0x227A JUMPI RETURNDATASIZE PUSH1 0x0 DUP1 RETURNDATACOPY RETURNDATASIZE PUSH1 0x0 REVERT JUMPDEST POP POP POP POP PUSH1 0x40 MLOAD RETURNDATASIZE PUSH1 0x1F NOT PUSH1 0x1F DUP3 ADD AND DUP3 ADD DUP1 PUSH1 0x40 MSTORE POP DUP2 ADD SWAP1 PUSH2 0x229E SWAP2 SWAP1 PUSH2 0x2AF0 JUMP JUMPDEST ISZERO JUMPDEST PUSH2 0x2312 JUMPI PUSH1 0x40 MLOAD PUSH3 0x461BCD PUSH1 0xE5 SHL DUP2 MSTORE PUSH1 0x20 PUSH1 0x4 DUP3 ADD MSTORE PUSH1 0x36 PUSH1 0x24 DUP3 ADD MSTORE PUSH32 0x5361666545524332303A20617070726F76652066726F6D206E6F6E2D7A65726F PUSH1 0x44 DUP3 ADD MSTORE PUSH32 0x20746F206E6F6E2D7A65726F20616C6C6F77616E636500000000000000000000 PUSH1 0x64 DUP3 ADD MSTORE PUSH1 0x84 ADD PUSH2 0x4BC JUMP JUMPDEST PUSH1 0x40 MLOAD PUSH1 0x1 PUSH1 0x1 PUSH1 0xA0 SHL SUB DUP4 AND PUSH1 0x24 DUP3 ADD MSTORE PUSH1 0x44 DUP2 ADD DUP3 SWAP1 MSTORE PUSH2 0x235B SWAP1 DUP5 SWAP1 PUSH32 0x95EA7B300000000000000000000000000000000000000000000000000000000 SWAP1 PUSH1 0x64 ADD PUSH2 0x21B3 JUMP JUMPDEST POP POP POP JUMP JUMPDEST PUSH1 0x0 PUSH23 0x3D602D80600A3D3981F3363D3D373D3D3D363D73000000 DUP3 PUSH1 0x60 SHL PUSH1 0xE8 SHR OR PUSH1 0x0 MSTORE PUSH15 0x5AF43D82803E903D91602B57FD5BF3 DUP3 PUSH1 0x78 SHL OR PUSH1 0x20 MSTORE PUSH1 0x37 PUSH1 0x9 PUSH1 0x0 CREATE SWAP1 POP PUSH1 0x1 PUSH1 0x1 PUSH1 0xA0 SHL SUB DUP2 AND PUSH2 0x23FC JUMPI PUSH1 0x40 MLOAD PUSH3 0x461BCD PUSH1 0xE5 SHL DUP2 MSTORE PUSH1 0x20 PUSH1 0x4 DUP3 ADD MSTORE PUSH1 0x16 PUSH1 0x24 DUP3 ADD MSTORE PUSH32 0x455243313136373A20637265617465206661696C656400000000000000000000 PUSH1 0x44 DUP3 ADD MSTORE PUSH1 0x64 ADD PUSH2 0x4BC JUMP JUMPDEST SWAP2 SWAP1 POP JUMP JUMPDEST PUSH2 0x2413 DUP3 PUSH1 0x1 PUSH1 0x1 PUSH1 0xA0 SHL SUB AND PUSH2 0x259B JUMP JUMPDEST PUSH2 0x245F JUMPI PUSH1 0x40 MLOAD PUSH3 0x461BCD PUSH1 0xE5 SHL DUP2 MSTORE PUSH1 0x20 PUSH1 0x4 DUP3 ADD MSTORE PUSH1 0x1F PUSH1 0x24 DUP3 ADD MSTORE PUSH32 0x5361666545524332303A2063616C6C20746F206E6F6E2D636F6E747261637400 PUSH1 0x44 DUP3 ADD MSTORE PUSH1 0x64 ADD PUSH2 0x4BC JUMP JUMPDEST PUSH1 0x0 DUP1 DUP4 PUSH1 0x1 PUSH1 0x1 PUSH1 0xA0 SHL SUB AND DUP4 PUSH1 0x40 MLOAD PUSH2 0x247A SWAP2 SWAP1 PUSH2 0x2CA4 JUMP JUMPDEST PUSH1 0x0 PUSH1 0x40 MLOAD DUP1 DUP4 SUB DUP2 PUSH1 0x0 DUP7 GAS CALL SWAP2 POP POP RETURNDATASIZE DUP1 PUSH1 0x0 DUP2 EQ PUSH2 0x24B7 JUMPI PUSH1 0x40 MLOAD SWAP2 POP PUSH1 0x1F NOT PUSH1 0x3F RETURNDATASIZE ADD AND DUP3 ADD PUSH1 0x40 MSTORE RETURNDATASIZE DUP3 MSTORE RETURNDATASIZE PUSH1 0x0 PUSH1 0x20 DUP5 ADD RETURNDATACOPY PUSH2 0x24BC JUMP JUMPDEST PUSH1 0x60 SWAP2 POP JUMPDEST POP SWAP2 POP SWAP2 POP DUP2 PUSH2 0x250E JUMPI PUSH1 0x40 MLOAD PUSH3 0x461BCD PUSH1 0xE5 SHL DUP2 MSTORE PUSH1 0x20 PUSH1 0x4 DUP3 ADD DUP2 SWAP1 MSTORE PUSH1 0x24 DUP3 ADD MSTORE PUSH32 0x5361666545524332303A206C6F772D6C6576656C2063616C6C206661696C6564 PUSH1 0x44 DUP3 ADD MSTORE PUSH1 0x64 ADD PUSH2 0x4BC JUMP JUMPDEST DUP1 MLOAD ISZERO PUSH2 0x130D JUMPI DUP1 DUP1 PUSH1 0x20 ADD SWAP1 MLOAD DUP2 ADD SWAP1 PUSH2 0x2529 SWAP2 SWAP1 PUSH2 0x2B78 JUMP JUMPDEST PUSH2 0x130D JUMPI PUSH1 0x40 MLOAD PUSH3 0x461BCD PUSH1 0xE5 SHL DUP2 MSTORE PUSH1 0x20 PUSH1 0x4 DUP3 ADD MSTORE PUSH1 0x2A PUSH1 0x24 DUP3 ADD MSTORE PUSH32 0x5361666545524332303A204552433230206F7065726174696F6E20646964206E PUSH1 0x44 DUP3 ADD MSTORE PUSH32 0x6F74207375636365656400000000000000000000000000000000000000000000 PUSH1 0x64 DUP3 ADD MSTORE PUSH1 0x84 ADD PUSH2 0x4BC JUMP JUMPDEST PUSH1 0x0 DUP2 EXTCODEHASH PUSH32 0xC5D2460186F7233C927E7DB2DCC703C0E500B653CA82273B7BFAD8045D85A470 DUP2 DUP2 EQ DUP1 ISZERO SWAP1 PUSH2 0x25CF JUMPI POP DUP2 ISZERO ISZERO JUMPDEST SWAP5 SWAP4 POP POP POP POP JUMP JUMPDEST PUSH1 0x1 PUSH1 0x1 PUSH1 0xA0 SHL SUB DUP2 AND DUP2 EQ PUSH2 0x25EC JUMPI PUSH1 0x0 DUP1 REVERT JUMPDEST POP JUMP JUMPDEST DUP1 CALLDATALOAD PUSH2 0x23FC DUP2 PUSH2 0x25D7 JUMP JUMPDEST DUP1 ISZERO ISZERO DUP2 EQ PUSH2 0x25EC JUMPI PUSH1 0x0 DUP1 REVERT JUMPDEST PUSH1 0x0 DUP1 PUSH1 0x0 DUP1 PUSH1 0x80 DUP6 DUP8 SUB SLT ISZERO PUSH2 0x261E JUMPI PUSH1 0x0 DUP1 REVERT JUMPDEST DUP5 CALLDATALOAD SWAP4 POP PUSH1 0x20 DUP6 ADD CALLDATALOAD PUSH2 0x2630 DUP2 PUSH2 0x25D7 JUMP JUMPDEST SWAP3 POP PUSH1 0x40 DUP6 ADD CALLDATALOAD PUSH2 0x2640 DUP2 PUSH2 0x25D7 JUMP JUMPDEST SWAP2 POP PUSH1 0x60 DUP6 ADD CALLDATALOAD PUSH2 0x2650 DUP2 PUSH2 0x25FA JUMP JUMPDEST SWAP4 SWAP7 SWAP3 SWAP6 POP SWAP1 SWAP4 POP POP JUMP JUMPDEST PUSH1 0x0 PUSH1 0x20 DUP3 DUP5 SUB SLT ISZERO PUSH2 0x266D JUMPI PUSH1 0x0 DUP1 REVERT JUMPDEST DUP2 CALLDATALOAD PUSH2 0x2678 DUP2 PUSH2 0x25D7 JUMP JUMPDEST SWAP4 SWAP3 POP POP POP JUMP JUMPDEST PUSH1 0x20 DUP1 DUP3 MSTORE DUP3 MLOAD DUP3 DUP3 ADD DUP2 SWAP1 MSTORE PUSH1 0x0 SWAP2 SWAP1 DUP5 DUP3 ADD SWAP1 PUSH1 0x40 DUP6 ADD SWAP1 DUP5 JUMPDEST DUP2 DUP2 LT ISZERO PUSH2 0x26C0 JUMPI DUP4 MLOAD PUSH1 0x1 PUSH1 0x1 PUSH1 0xA0 SHL SUB AND DUP4 MSTORE SWAP3 DUP5 ADD SWAP3 SWAP2 DUP5 ADD SWAP2 PUSH1 0x1 ADD PUSH2 0x269B JUMP JUMPDEST POP SWAP1 SWAP7 SWAP6 POP POP POP POP POP POP JUMP JUMPDEST PUSH1 0x0 DUP1 DUP4 PUSH1 0x1F DUP5 ADD SLT PUSH2 0x26DE JUMPI PUSH1 0x0 DUP1 REVERT JUMPDEST POP DUP2 CALLDATALOAD PUSH8 0xFFFFFFFFFFFFFFFF DUP2 GT ISZERO PUSH2 0x26F6 JUMPI PUSH1 0x0 DUP1 REVERT JUMPDEST PUSH1 0x20 DUP4 ADD SWAP2 POP DUP4 PUSH1 0x20 DUP3 DUP6 ADD ADD GT ISZERO PUSH2 0x270E JUMPI PUSH1 0x0 DUP1 REVERT JUMPDEST SWAP3 POP SWAP3 SWAP1 POP JUMP JUMPDEST PUSH1 0x0 DUP1 PUSH1 0x20 DUP4 DUP6 SUB SLT ISZERO PUSH2 0x2728 JUMPI PUSH1 0x0 DUP1 REVERT JUMPDEST DUP3 CALLDATALOAD PUSH8 0xFFFFFFFFFFFFFFFF DUP2 GT ISZERO PUSH2 0x273F JUMPI PUSH1 0x0 DUP1 REVERT JUMPDEST PUSH2 0x274B DUP6 DUP3 DUP7 ADD PUSH2 0x26CC JUMP JUMPDEST SWAP1 SWAP7 SWAP1 SWAP6 POP SWAP4 POP POP POP POP JUMP JUMPDEST PUSH1 0x0 DUP1 PUSH1 0x0 PUSH1 0x60 DUP5 DUP7 SUB SLT ISZERO PUSH2 0x276C JUMPI PUSH1 0x0 DUP1 REVERT JUMPDEST DUP4 CALLDATALOAD PUSH2 0x2777 DUP2 PUSH2 0x25D7 JUMP JUMPDEST SWAP3 POP PUSH1 0x20 DUP5 ADD CALLDATALOAD PUSH2 0x2787 DUP2 PUSH2 0x25D7 JUMP JUMPDEST SWAP2 POP PUSH1 0x40 DUP5 ADD CALLDATALOAD PUSH2 0x2797 DUP2 PUSH2 0x25FA JUMP JUMPDEST DUP1 SWAP2 POP POP SWAP3 POP SWAP3 POP SWAP3 JUMP JUMPDEST PUSH1 0x0 PUSH1 0x20 DUP3 DUP5 SUB SLT ISZERO PUSH2 0x27B4 JUMPI PUSH1 0x0 DUP1 REVERT JUMPDEST POP CALLDATALOAD SWAP2 SWAP1 POP JUMP JUMPDEST PUSH1 0x0 DUP1 DUP4 PUSH1 0x1F DUP5 ADD SLT PUSH2 0x27CD JUMPI PUSH1 0x0 DUP1 REVERT JUMPDEST POP DUP2 CALLDATALOAD PUSH8 0xFFFFFFFFFFFFFFFF DUP2 GT ISZERO PUSH2 0x27E5 JUMPI PUSH1 0x0 DUP1 REVERT JUMPDEST PUSH1 0x20 DUP4 ADD SWAP2 POP DUP4 PUSH1 0x20 DUP3 PUSH1 0x5 SHL DUP6 ADD ADD GT ISZERO PUSH2 0x270E JUMPI PUSH1 0x0 DUP1 REVERT JUMPDEST PUSH4 0x4E487B71 PUSH1 0xE0 SHL PUSH1 0x0 MSTORE PUSH1 0x41 PUSH1 0x4 MSTORE PUSH1 0x24 PUSH1 0x0 REVERT JUMPDEST PUSH1 0x40 MLOAD PUSH1 0x1F DUP3 ADD PUSH1 0x1F NOT AND DUP2 ADD PUSH8 0xFFFFFFFFFFFFFFFF DUP2 GT DUP3 DUP3 LT OR ISZERO PUSH2 0x283F JUMPI PUSH2 0x283F PUSH2 0x2800 JUMP JUMPDEST PUSH1 0x40 MSTORE SWAP2 SWAP1 POP JUMP JUMPDEST PUSH1 0x0 PUSH8 0xFFFFFFFFFFFFFFFF DUP3 GT ISZERO PUSH2 0x2861 JUMPI PUSH2 0x2861 PUSH2 0x2800 JUMP JUMPDEST POP PUSH1 0x1F ADD PUSH1 0x1F NOT AND PUSH1 0x20 ADD SWAP1 JUMP JUMPDEST PUSH1 0x0 DUP3 PUSH1 0x1F DUP4 ADD SLT PUSH2 0x2880 JUMPI PUSH1 0x0 DUP1 REVERT JUMPDEST DUP2 CALLDATALOAD PUSH2 0x2893 PUSH2 0x288E DUP3 PUSH2 0x2847 JUMP JUMPDEST PUSH2 0x2816 JUMP JUMPDEST DUP2 DUP2 MSTORE DUP5 PUSH1 0x20 DUP4 DUP7 ADD ADD GT ISZERO PUSH2 0x28A8 JUMPI PUSH1 0x0 DUP1 REVERT JUMPDEST DUP2 PUSH1 0x20 DUP6 ADD PUSH1 0x20 DUP4 ADD CALLDATACOPY PUSH1 0x0 SWAP2 DUP2 ADD PUSH1 0x20 ADD SWAP2 SWAP1 SWAP2 MSTORE SWAP4 SWAP3 POP POP POP JUMP JUMPDEST PUSH1 0x0 DUP1 PUSH1 0x0 DUP1 PUSH1 0x0 DUP1 PUSH1 0x0 PUSH1 0xC0 DUP9 DUP11 SUB SLT ISZERO PUSH2 0x28E0 JUMPI PUSH1 0x0 DUP1 REVERT JUMPDEST DUP8 CALLDATALOAD PUSH8 0xFFFFFFFFFFFFFFFF DUP1 DUP3 GT ISZERO PUSH2 0x28F8 JUMPI PUSH1 0x0 DUP1 REVERT JUMPDEST PUSH2 0x2904 DUP12 DUP4 DUP13 ADD PUSH2 0x27BB JUMP JUMPDEST SWAP1 SWAP10 POP SWAP8 POP PUSH1 0x20 DUP11 ADD CALLDATALOAD SWAP2 POP DUP1 DUP3 GT ISZERO PUSH2 0x291D JUMPI PUSH1 0x0 DUP1 REVERT JUMPDEST PUSH2 0x2929 DUP12 DUP4 DUP13 ADD PUSH2 0x286F JUMP JUMPDEST SWAP7 POP PUSH1 0x40 DUP11 ADD CALLDATALOAD SWAP2 POP DUP1 DUP3 GT ISZERO PUSH2 0x293F JUMPI PUSH1 0x0 DUP1 REVERT JUMPDEST PUSH2 0x294B DUP12 DUP4 DUP13 ADD PUSH2 0x286F JUMP JUMPDEST SWAP6 POP PUSH1 0x60 DUP11 ADD CALLDATALOAD SWAP2 POP DUP1 DUP3 GT ISZERO PUSH2 0x2961 JUMPI PUSH1 0x0 DUP1 REVERT JUMPDEST PUSH2 0x296D DUP12 DUP4 DUP13 ADD PUSH2 0x286F JUMP JUMPDEST SWAP5 POP PUSH1 0x80 DUP11 ADD CALLDATALOAD SWAP2 POP DUP1 DUP3 GT ISZERO PUSH2 0x2983 JUMPI PUSH1 0x0 DUP1 REVERT JUMPDEST POP PUSH2 0x2990 DUP11 DUP3 DUP12 ADD PUSH2 0x286F JUMP JUMPDEST SWAP3 POP POP PUSH2 0x299F PUSH1 0xA0 DUP10 ADD PUSH2 0x25EF JUMP JUMPDEST SWAP1 POP SWAP3 SWAP6 SWAP9 SWAP2 SWAP5 SWAP8 POP SWAP3 SWAP6 POP JUMP JUMPDEST PUSH1 0x0 DUP1 PUSH1 0x0 PUSH1 0x40 DUP5 DUP7 SUB SLT ISZERO PUSH2 0x29C2 JUMPI PUSH1 0x0 DUP1 REVERT JUMPDEST DUP4 CALLDATALOAD PUSH2 0x29CD DUP2 PUSH2 0x25D7 JUMP JUMPDEST SWAP3 POP PUSH1 0x20 DUP5 ADD CALLDATALOAD PUSH8 0xFFFFFFFFFFFFFFFF DUP2 GT ISZERO PUSH2 0x29E9 JUMPI PUSH1 0x0 DUP1 REVERT JUMPDEST PUSH2 0x29F5 DUP7 DUP3 DUP8 ADD PUSH2 0x26CC JUMP JUMPDEST SWAP5 SWAP8 SWAP1 SWAP7 POP SWAP4 SWAP5 POP POP POP POP JUMP JUMPDEST PUSH4 0x4E487B71 PUSH1 0xE0 SHL PUSH1 0x0 MSTORE PUSH1 0x11 PUSH1 0x4 MSTORE PUSH1 0x24 PUSH1 0x0 REVERT JUMPDEST PUSH1 0x0 DUP3 NOT DUP3 GT ISZERO PUSH2 0x2A2B JUMPI PUSH2 0x2A2B PUSH2 0x2A02 JUMP JUMPDEST POP ADD SWAP1 JUMP JUMPDEST PUSH1 0x0 JUMPDEST DUP4 DUP2 LT ISZERO PUSH2 0x2A4B JUMPI DUP2 DUP2 ADD MLOAD DUP4 DUP3 ADD MSTORE PUSH1 0x20 ADD PUSH2 0x2A33 JUMP JUMPDEST DUP4 DUP2 GT ISZERO PUSH2 0x130D JUMPI POP POP PUSH1 0x0 SWAP2 ADD MSTORE JUMP JUMPDEST PUSH1 0x0 PUSH1 0x20 DUP3 DUP5 SUB SLT ISZERO PUSH2 0x2A6E JUMPI PUSH1 0x0 DUP1 REVERT JUMPDEST DUP2 MLOAD PUSH8 0xFFFFFFFFFFFFFFFF DUP2 GT ISZERO PUSH2 0x2A85 JUMPI PUSH1 0x0 DUP1 REVERT JUMPDEST DUP3 ADD PUSH1 0x1F DUP2 ADD DUP5 SGT PUSH2 0x2A96 JUMPI PUSH1 0x0 DUP1 REVERT JUMPDEST DUP1 MLOAD PUSH2 0x2AA4 PUSH2 0x288E DUP3 PUSH2 0x2847 JUMP JUMPDEST DUP2 DUP2 MSTORE DUP6 PUSH1 0x20 DUP4 DUP6 ADD ADD GT ISZERO PUSH2 0x2AB9 JUMPI PUSH1 0x0 DUP1 REVERT JUMPDEST PUSH2 0x2ACA DUP3 PUSH1 0x20 DUP4 ADD PUSH1 0x20 DUP7 ADD PUSH2 0x2A30 JUMP JUMPDEST SWAP6 SWAP5 POP POP POP POP POP JUMP JUMPDEST PUSH1 0x0 PUSH1 0x20 DUP3 DUP5 SUB SLT ISZERO PUSH2 0x2AE5 JUMPI PUSH1 0x0 DUP1 REVERT JUMPDEST DUP2 MLOAD PUSH2 0x2678 DUP2 PUSH2 0x25D7 JUMP JUMPDEST PUSH1 0x0 PUSH1 0x20 DUP3 DUP5 SUB SLT ISZERO PUSH2 0x2B02 JUMPI PUSH1 0x0 DUP1 REVERT JUMPDEST POP MLOAD SWAP2 SWAP1 POP JUMP JUMPDEST PUSH1 0x0 DUP2 MLOAD DUP1 DUP5 MSTORE PUSH2 0x2B21 DUP2 PUSH1 0x20 DUP7 ADD PUSH1 0x20 DUP7 ADD PUSH2 0x2A30 JUMP JUMPDEST PUSH1 0x1F ADD PUSH1 0x1F NOT AND SWAP3 SWAP1 SWAP3 ADD PUSH1 0x20 ADD SWAP3 SWAP2 POP POP JUMP JUMPDEST PUSH1 0x0 PUSH1 0x1 PUSH1 0x1 PUSH1 0xA0 SHL SUB DUP1 DUP9 AND DUP4 MSTORE DUP7 PUSH1 0x20 DUP5 ADD MSTORE DUP6 PUSH1 0x40 DUP5 ADD MSTORE DUP1 DUP6 AND PUSH1 0x60 DUP5 ADD MSTORE POP PUSH1 0xA0 PUSH1 0x80 DUP4 ADD MSTORE PUSH2 0x2B6D PUSH1 0xA0 DUP4 ADD DUP5 PUSH2 0x2B09 JUMP JUMPDEST SWAP8 SWAP7 POP POP POP POP POP POP POP JUMP JUMPDEST PUSH1 0x0 PUSH1 0x20 DUP3 DUP5 SUB SLT ISZERO PUSH2 0x2B8A JUMPI PUSH1 0x0 DUP1 REVERT JUMPDEST DUP2 MLOAD PUSH2 0x2678 DUP2 PUSH2 0x25FA JUMP JUMPDEST PUSH1 0x0 DUP3 DUP3 LT ISZERO PUSH2 0x2BA7 JUMPI PUSH2 0x2BA7 PUSH2 0x2A02 JUMP JUMPDEST POP SUB SWAP1 JUMP JUMPDEST DUP2 DUP4 DUP3 CALLDATACOPY PUSH1 0x0 SWAP2 ADD SWAP1 DUP2 MSTORE SWAP2 SWAP1 POP JUMP JUMPDEST PUSH1 0x0 PUSH1 0x20 DUP1 DUP4 DUP6 SUB SLT ISZERO PUSH2 0x2BCF JUMPI PUSH1 0x0 DUP1 REVERT JUMPDEST DUP3 MLOAD PUSH8 0xFFFFFFFFFFFFFFFF DUP1 DUP3 GT ISZERO PUSH2 0x2BE7 JUMPI PUSH1 0x0 DUP1 REVERT JUMPDEST DUP2 DUP6 ADD SWAP2 POP DUP6 PUSH1 0x1F DUP4 ADD SLT PUSH2 0x2BFB JUMPI PUSH1 0x0 DUP1 REVERT JUMPDEST DUP2 MLOAD DUP2 DUP2 GT ISZERO PUSH2 0x2C0D JUMPI PUSH2 0x2C0D PUSH2 0x2800 JUMP JUMPDEST DUP1 PUSH1 0x5 SHL SWAP2 POP PUSH2 0x2C1E DUP5 DUP4 ADD PUSH2 0x2816 JUMP JUMPDEST DUP2 DUP2 MSTORE SWAP2 DUP4 ADD DUP5 ADD SWAP2 DUP5 DUP2 ADD SWAP1 DUP9 DUP5 GT ISZERO PUSH2 0x2C38 JUMPI PUSH1 0x0 DUP1 REVERT JUMPDEST SWAP4 DUP6 ADD SWAP4 JUMPDEST DUP4 DUP6 LT ISZERO PUSH2 0x2C62 JUMPI DUP5 MLOAD SWAP3 POP PUSH2 0x2C52 DUP4 PUSH2 0x25D7 JUMP JUMPDEST DUP3 DUP3 MSTORE SWAP4 DUP6 ADD SWAP4 SWAP1 DUP6 ADD SWAP1 PUSH2 0x2C3D JUMP JUMPDEST SWAP9 SWAP8 POP POP POP POP POP POP POP POP JUMP JUMPDEST PUSH4 0x4E487B71 PUSH1 0xE0 SHL PUSH1 0x0 MSTORE PUSH1 0x32 PUSH1 0x4 MSTORE PUSH1 0x24 PUSH1 0x0 REVERT JUMPDEST PUSH1 0x0 PUSH1 0xFF DUP3 AND PUSH1 0xFF DUP2 EQ ISZERO PUSH2 0x2C9B JUMPI PUSH2 0x2C9B PUSH2 0x2A02 JUMP JUMPDEST PUSH1 0x1 ADD SWAP3 SWAP2 POP POP JUMP JUMPDEST PUSH1 0x0 DUP3 MLOAD PUSH2 0x2CB6 DUP2 DUP5 PUSH1 0x20 DUP8 ADD PUSH2 0x2A30 JUMP JUMPDEST SWAP2 SWAP1 SWAP2 ADD SWAP3 SWAP2 POP POP JUMP JUMPDEST PUSH2 0x140 DUP1 DUP3 MSTORE DUP2 ADD DUP12 SWAP1 MSTORE PUSH1 0x0 PUSH2 0x160 DUP3 ADD DUP14 DUP3 JUMPDEST DUP15 DUP2 LT ISZERO PUSH2 0x2D06 JUMPI DUP2 CALLDATALOAD PUSH2 0x2CE8 DUP2 PUSH2 0x25D7 JUMP JUMPDEST PUSH1 0x1 PUSH1 0x1 PUSH1 0xA0 SHL SUB AND DUP4 MSTORE PUSH1 0x20 SWAP3 DUP4 ADD SWAP3 SWAP2 SWAP1 SWAP2 ADD SWAP1 PUSH1 0x1 ADD PUSH2 0x2CD5 JUMP JUMPDEST POP POP DUP3 DUP2 SUB PUSH1 0x20 DUP5 ADD MSTORE PUSH2 0x2D1A DUP2 DUP14 PUSH2 0x2B09 JUMP JUMPDEST SWAP1 POP DUP3 DUP2 SUB PUSH1 0x40 DUP5 ADD MSTORE PUSH2 0x2D2E DUP2 DUP13 PUSH2 0x2B09 JUMP JUMPDEST SWAP1 POP DUP3 DUP2 SUB PUSH1 0x60 DUP5 ADD MSTORE PUSH2 0x2D42 DUP2 DUP12 PUSH2 0x2B09 JUMP JUMPDEST SWAP1 POP DUP3 DUP2 SUB PUSH1 0x80 DUP5 ADD MSTORE PUSH2 0x2D56 DUP2 DUP11 PUSH2 0x2B09 JUMP JUMPDEST SWAP2 POP POP PUSH2 0x2D6E PUSH1 0xA0 DUP4 ADD DUP9 PUSH1 0x1 PUSH1 0x1 PUSH1 0xA0 SHL SUB AND SWAP1 MSTORE JUMP JUMPDEST PUSH1 0x1 PUSH1 0x1 PUSH1 0xA0 SHL SUB DUP7 AND PUSH1 0xC0 DUP4 ADD MSTORE PUSH1 0x1 PUSH1 0x1 PUSH1 0xA0 SHL SUB DUP6 AND PUSH1 0xE0 DUP4 ADD MSTORE PUSH1 0x1 PUSH1 0x1 PUSH1 0xA0 SHL SUB DUP5 AND PUSH2 0x100 DUP4 ADD MSTORE DUP3 ISZERO ISZERO PUSH2 0x120 DUP4 ADD MSTORE SWAP13 SWAP12 POP POP POP POP POP POP POP POP POP POP POP POP JUMP JUMPDEST PUSH1 0x0 PUSH1 0x1 PUSH1 0x1 PUSH1 0xA0 SHL SUB DUP1 DUP7 AND DUP4 MSTORE PUSH1 0x60 PUSH1 0x20 DUP5 ADD MSTORE PUSH2 0x2DD8 PUSH1 0x60 DUP5 ADD DUP7 PUSH2 0x2B09 JUMP JUMPDEST SWAP2 POP DUP1 DUP5 AND PUSH1 0x40 DUP5 ADD MSTORE POP SWAP5 SWAP4 POP POP POP POP JUMP JUMPDEST PUSH1 0x20 DUP2 MSTORE DUP2 PUSH1 0x20 DUP3 ADD MSTORE DUP2 DUP4 PUSH1 0x40 DUP4 ADD CALLDATACOPY PUSH1 0x0 DUP2 DUP4 ADD PUSH1 0x40 SWAP1 DUP2 ADD SWAP2 SWAP1 SWAP2 MSTORE PUSH1 0x1F SWAP1 SWAP3 ADD PUSH1 0x1F NOT AND ADD ADD SWAP2 SWAP1 POP JUMP INVALID LOG2 PUSH5 0x6970667358 0x22 SLT KECCAK256 SSTORE 0xE2 0xAE 0x2B MSIZE LOG2 MOD 0xE6 BASEFEE SMOD NUMBER 0xAD PUSH12 0x9DA9B2A6799D5EA4D6088891 SWAP10 AND DIFFICULTY 0xDC 0x49 DELEGATECALL 0xAC PUSH5 0x736F6C6343 STOP ADDMOD MULMOD STOP CALLER PUSH1 0x80 PUSH1 0x40 MSTORE CALLVALUE DUP1 ISZERO PUSH2 0x10 JUMPI PUSH1 0x0 DUP1 REVERT JUMPDEST POP PUSH1 0x3 DUP1 SLOAD PUSH1 0xFF NOT AND PUSH1 0x1 OR SWAP1 SSTORE PUSH2 0x2941 DUP1 PUSH2 0x2D PUSH1 0x0 CODECOPY PUSH1 0x0 RETURN INVALID PUSH1 0x80 PUSH1 0x40 MSTORE CALLVALUE DUP1 ISZERO PUSH2 0x10 JUMPI PUSH1 0x0 DUP1 REVERT JUMPDEST POP PUSH1 0x4 CALLDATASIZE LT PUSH2 0x18C JUMPI PUSH1 0x0 CALLDATALOAD PUSH1 0xE0 SHR DUP1 PUSH4 0x373D7C3F GT PUSH2 0xE3 JUMPI DUP1 PUSH4 0x8AEBE8D6 GT PUSH2 0x8C JUMPI DUP1 PUSH4 0xD0E7A76E GT PUSH2 0x66 JUMPI DUP1 PUSH4 0xD0E7A76E EQ PUSH2 0x38A JUMPI DUP1 PUSH4 0xD15E0053 EQ PUSH2 0x39D JUMPI DUP1 PUSH4 0xEDA9C2D2 EQ PUSH2 0x3B0 JUMPI PUSH1 0x0 DUP1 REVERT JUMPDEST DUP1 PUSH4 0x8AEBE8D6 EQ PUSH2 0x351 JUMPI DUP1 PUSH4 0xBBC41F48 EQ PUSH2 0x364 JUMPI DUP1 PUSH4 0xD04D566A EQ PUSH2 0x377 JUMPI PUSH1 0x0 DUP1 REVERT JUMPDEST DUP1 PUSH4 0x60246C88 GT PUSH2 0xBD JUMPI DUP1 PUSH4 0x60246C88 EQ PUSH2 0x2D2 JUMPI DUP1 PUSH4 0x67E0E076 EQ PUSH2 0x2ED JUMPI DUP1 PUSH4 0x711CC005 EQ PUSH2 0x33E JUMPI PUSH1 0x0 DUP1 REVERT JUMPDEST DUP1 PUSH4 0x373D7C3F EQ PUSH2 0x28E JUMPI DUP1 PUSH4 0x47E7EF24 EQ PUSH2 0x296 JUMPI DUP1 PUSH4 0x5FF189B9 EQ PUSH2 0x2A9 JUMPI PUSH1 0x0 DUP1 REVERT JUMPDEST DUP1 PUSH4 0x17D7DE7C GT PUSH2 0x145 JUMPI DUP1 PUSH4 0x343D693B GT PUSH2 0x11F JUMPI DUP1 PUSH4 0x343D693B EQ PUSH2 0x25D JUMPI DUP1 PUSH4 0x357286D7 EQ PUSH2 0x265 JUMPI DUP1 PUSH4 0x3735EF88 EQ PUSH2 0x27B JUMPI PUSH1 0x0 DUP1 REVERT JUMPDEST DUP1 PUSH4 0x17D7DE7C EQ PUSH2 0x22F JUMPI DUP1 PUSH4 0x1B88094D EQ PUSH2 0x237 JUMPI DUP1 PUSH4 0x2F757006 EQ PUSH2 0x248 JUMPI PUSH1 0x0 DUP1 REVERT JUMPDEST DUP1 PUSH4 0x712F6B3 GT PUSH2 0x176 JUMPI DUP1 PUSH4 0x712F6B3 EQ PUSH2 0x1F2 JUMPI DUP1 PUSH4 0x12EEFF7E EQ PUSH2 0x205 JUMPI DUP1 PUSH4 0x155D8E9C EQ PUSH2 0x21A JUMPI PUSH1 0x0 DUP1 REVERT JUMPDEST DUP1 PUSH3 0x7FFB78 EQ PUSH2 0x191 JUMPI DUP1 PUSH4 0x251CFA1 EQ PUSH2 0x1BB JUMPI JUMPDEST PUSH1 0x0 DUP1 REVERT JUMPDEST PUSH1 0x5 SLOAD PUSH1 0x1 PUSH1 0x1 PUSH1 0xA0 SHL SUB AND JUMPDEST PUSH1 0x40 MLOAD PUSH1 0x1 PUSH1 0x1 PUSH1 0xA0 SHL SUB SWAP1 SWAP2 AND DUP2 MSTORE PUSH1 0x20 ADD JUMPDEST PUSH1 0x40 MLOAD DUP1 SWAP2 SUB SWAP1 RETURN JUMPDEST PUSH2 0x1E4 PUSH2 0x1C9 CALLDATASIZE PUSH1 0x4 PUSH2 0x20E5 JUMP JUMPDEST PUSH1 0x1 PUSH1 0x1 PUSH1 0xA0 SHL SUB AND PUSH1 0x0 SWAP1 DUP2 MSTORE PUSH1 0x1 PUSH1 0x20 MSTORE PUSH1 0x40 SWAP1 KECCAK256 SLOAD SWAP1 JUMP JUMPDEST PUSH1 0x40 MLOAD SWAP1 DUP2 MSTORE PUSH1 0x20 ADD PUSH2 0x1B2 JUMP JUMPDEST PUSH2 0x1E4 PUSH2 0x200 CALLDATASIZE PUSH1 0x4 PUSH2 0x20E5 JUMP JUMPDEST PUSH2 0x3C3 JUMP JUMPDEST PUSH2 0x218 PUSH2 0x213 CALLDATASIZE PUSH1 0x4 PUSH2 0x211B JUMP JUMPDEST PUSH2 0x451 JUMP JUMPDEST STOP JUMPDEST PUSH2 0x222 PUSH2 0x798 JUMP JUMPDEST PUSH1 0x40 MLOAD PUSH2 0x1B2 SWAP2 SWAP1 PUSH2 0x21C6 JUMP JUMPDEST PUSH2 0x222 PUSH2 0x82A JUMP JUMPDEST PUSH1 0x7 SLOAD PUSH1 0x1 PUSH1 0x1 PUSH1 0xA0 SHL SUB AND PUSH2 0x19E JUMP JUMPDEST PUSH2 0x250 PUSH2 0x839 JUMP JUMPDEST PUSH1 0x40 MLOAD PUSH2 0x1B2 SWAP2 SWAP1 PUSH2 0x221D JUMP JUMPDEST PUSH2 0x222 PUSH2 0x89A JUMP JUMPDEST PUSH1 0xD SLOAD PUSH1 0xFF AND PUSH1 0x40 MLOAD SWAP1 ISZERO ISZERO DUP2 MSTORE PUSH1 0x20 ADD PUSH2 0x1B2 JUMP JUMPDEST PUSH2 0x1E4 PUSH2 0x289 CALLDATASIZE PUSH1 0x4 PUSH2 0x20E5 JUMP JUMPDEST PUSH2 0x8A9 JUMP JUMPDEST PUSH2 0x222 PUSH2 0x960 JUMP JUMPDEST PUSH2 0x218 PUSH2 0x2A4 CALLDATASIZE PUSH1 0x4 PUSH2 0x2230 JUMP JUMPDEST PUSH2 0x96F JUMP JUMPDEST PUSH2 0x1E4 PUSH2 0x2B7 CALLDATASIZE PUSH1 0x4 PUSH2 0x20E5 JUMP JUMPDEST PUSH1 0x1 PUSH1 0x1 PUSH1 0xA0 SHL SUB AND PUSH1 0x0 SWAP1 DUP2 MSTORE PUSH1 0x2 PUSH1 0x20 MSTORE PUSH1 0x40 SWAP1 KECCAK256 SLOAD SWAP1 JUMP JUMPDEST PUSH2 0x2DA PUSH2 0xA9C JUMP JUMPDEST PUSH1 0x40 MLOAD PUSH2 0x1B2 SWAP8 SWAP7 SWAP6 SWAP5 SWAP4 SWAP3 SWAP2 SWAP1 PUSH2 0x225C JUMP JUMPDEST PUSH2 0x300 PUSH2 0x2FB CALLDATASIZE PUSH1 0x4 PUSH2 0x20E5 JUMP JUMPDEST PUSH2 0xD7A JUMP JUMPDEST PUSH1 0x40 DUP1 MLOAD SWAP8 DUP9 MSTORE PUSH1 0x20 DUP9 ADD SWAP7 SWAP1 SWAP7 MSTORE SWAP5 DUP7 ADD SWAP4 SWAP1 SWAP4 MSTORE PUSH1 0x60 DUP6 ADD SWAP2 SWAP1 SWAP2 MSTORE PUSH1 0x80 DUP5 ADD MSTORE PUSH1 0xA0 DUP4 ADD MSTORE PUSH1 0x1 PUSH1 0x1 PUSH1 0xA0 SHL SUB AND PUSH1 0xC0 DUP3 ADD MSTORE PUSH1 0xE0 ADD PUSH2 0x1B2 JUMP JUMPDEST PUSH2 0x19E PUSH2 0x34C CALLDATASIZE PUSH1 0x4 PUSH2 0x20E5 JUMP JUMPDEST PUSH2 0xDFB JUMP JUMPDEST PUSH2 0x1E4 PUSH2 0x35F CALLDATASIZE PUSH1 0x4 PUSH2 0x20E5 JUMP JUMPDEST PUSH2 0xF0E JUMP JUMPDEST PUSH2 0x218 PUSH2 0x372 CALLDATASIZE PUSH1 0x4 PUSH2 0x23FB JUMP JUMPDEST PUSH2 0x1032 JUMP JUMPDEST PUSH2 0x218 PUSH2 0x385 CALLDATASIZE PUSH1 0x4 PUSH2 0x252B JUMP JUMPDEST PUSH2 0x139E JUMP JUMPDEST PUSH2 0x218 PUSH2 0x398 CALLDATASIZE PUSH1 0x4 PUSH2 0x252B JUMP JUMPDEST PUSH2 0x13F9 JUMP JUMPDEST PUSH2 0x1E4 PUSH2 0x3AB CALLDATASIZE PUSH1 0x4 PUSH2 0x20E5 JUMP JUMPDEST PUSH2 0x144F JUMP JUMPDEST PUSH2 0x1E4 PUSH2 0x3BE CALLDATASIZE PUSH1 0x4 PUSH2 0x259D JUMP JUMPDEST PUSH2 0x1523 JUMP JUMPDEST PUSH1 0x0 DUP1 PUSH2 0x3CF DUP4 PUSH2 0xDFB JUMP JUMPDEST PUSH1 0x40 MLOAD PUSH4 0x70A08231 PUSH1 0xE0 SHL DUP2 MSTORE ADDRESS PUSH1 0x4 DUP3 ADD MSTORE SWAP1 SWAP2 POP PUSH1 0x1 PUSH1 0x1 PUSH1 0xA0 SHL SUB DUP3 AND SWAP1 PUSH4 0x70A08231 SWAP1 PUSH1 0x24 ADD JUMPDEST PUSH1 0x20 PUSH1 0x40 MLOAD DUP1 DUP4 SUB DUP2 DUP7 DUP1 EXTCODESIZE ISZERO DUP1 ISZERO PUSH2 0x412 JUMPI PUSH1 0x0 DUP1 REVERT JUMPDEST POP GAS STATICCALL ISZERO DUP1 ISZERO PUSH2 0x426 JUMPI RETURNDATASIZE PUSH1 0x0 DUP1 RETURNDATACOPY RETURNDATASIZE PUSH1 0x0 REVERT JUMPDEST POP POP POP POP PUSH1 0x40 MLOAD RETURNDATASIZE PUSH1 0x1F NOT PUSH1 0x1F DUP3 ADD AND DUP3 ADD DUP1 PUSH1 0x40 MSTORE POP DUP2 ADD SWAP1 PUSH2 0x44A SWAP2 SWAP1 PUSH2 0x25EE JUMP JUMPDEST SWAP4 SWAP3 POP POP POP JUMP JUMPDEST PUSH1 0x8 SLOAD PUSH1 0x1 PUSH1 0x1 PUSH1 0xA0 SHL SUB AND CALLER EQ PUSH2 0x4A0 JUMPI PUSH1 0x40 MLOAD PUSH3 0x461BCD PUSH1 0xE5 SHL DUP2 MSTORE PUSH1 0x20 PUSH1 0x4 DUP3 ADD MSTORE PUSH1 0xD PUSH1 0x24 DUP3 ADD MSTORE PUSH13 0x3737BA103A34329037BBB732B9 PUSH1 0x99 SHL PUSH1 0x44 DUP3 ADD MSTORE PUSH1 0x64 ADD JUMPDEST PUSH1 0x40 MLOAD DUP1 SWAP2 SUB SWAP1 REVERT JUMPDEST PUSH1 0x0 PUSH1 0x3 PUSH1 0x1 SWAP1 SLOAD SWAP1 PUSH2 0x100 EXP SWAP1 DIV PUSH1 0x1 PUSH1 0x1 PUSH1 0xA0 SHL SUB AND PUSH1 0x1 PUSH1 0x1 PUSH1 0xA0 SHL SUB AND PUSH4 0x26B1D5F PUSH1 0x40 MLOAD DUP2 PUSH4 0xFFFFFFFF AND PUSH1 0xE0 SHL DUP2 MSTORE PUSH1 0x4 ADD PUSH1 0x20 PUSH1 0x40 MLOAD DUP1 DUP4 SUB DUP2 DUP7 DUP1 EXTCODESIZE ISZERO DUP1 ISZERO PUSH2 0x4F0 JUMPI PUSH1 0x0 DUP1 REVERT JUMPDEST POP GAS STATICCALL ISZERO DUP1 ISZERO PUSH2 0x504 JUMPI RETURNDATASIZE PUSH1 0x0 DUP1 RETURNDATACOPY RETURNDATASIZE PUSH1 0x0 REVERT JUMPDEST POP POP POP POP PUSH1 0x40 MLOAD RETURNDATASIZE PUSH1 0x1F NOT PUSH1 0x1F DUP3 ADD AND DUP3 ADD DUP1 PUSH1 0x40 MSTORE POP DUP2 ADD SWAP1 PUSH2 0x528 SWAP2 SWAP1 PUSH2 0x2612 JUMP JUMPDEST PUSH1 0x1 PUSH1 0x1 PUSH1 0xA0 SHL SUB DUP7 AND PUSH1 0x0 SWAP1 DUP2 MSTORE PUSH1 0x1 PUSH1 0x20 MSTORE PUSH1 0x40 DUP2 KECCAK256 DUP1 SLOAD SWAP3 SWAP4 POP DUP7 SWAP3 SWAP1 SWAP2 SWAP1 PUSH2 0x555 SWAP1 DUP5 SWAP1 PUSH2 0x2645 JUMP JUMPDEST SWAP1 SWAP2 SSTORE POP DUP3 SWAP1 POP PUSH2 0x5F0 JUMPI PUSH1 0x40 MLOAD PUSH4 0x1A4CA37B PUSH1 0xE2 SHL DUP2 MSTORE PUSH1 0x1 PUSH1 0x1 PUSH1 0xA0 SHL SUB DUP7 DUP2 AND PUSH1 0x4 DUP4 ADD MSTORE PUSH1 0x24 DUP3 ADD DUP7 SWAP1 MSTORE DUP5 DUP2 AND PUSH1 0x44 DUP4 ADD MSTORE DUP3 AND SWAP1 PUSH4 0x69328DEC SWAP1 PUSH1 0x64 ADD PUSH1 0x20 PUSH1 0x40 MLOAD DUP1 DUP4 SUB DUP2 PUSH1 0x0 DUP8 DUP1 EXTCODESIZE ISZERO DUP1 ISZERO PUSH2 0x5B2 JUMPI PUSH1 0x0 DUP1 REVERT JUMPDEST POP GAS CALL ISZERO DUP1 ISZERO PUSH2 0x5C6 JUMPI RETURNDATASIZE PUSH1 0x0 DUP1 RETURNDATACOPY RETURNDATASIZE PUSH1 0x0 REVERT JUMPDEST POP POP POP POP PUSH1 0x40 MLOAD RETURNDATASIZE PUSH1 0x1F NOT PUSH1 0x1F DUP3 ADD AND DUP3 ADD DUP1 PUSH1 0x40 MSTORE POP DUP2 ADD SWAP1 PUSH2 0x5EA SWAP2 SWAP1 PUSH2 0x25EE JUMP JUMPDEST POP PUSH2 0x791 JUMP JUMPDEST PUSH1 0x0 PUSH1 0x4 PUSH1 0x0 SWAP1 SLOAD SWAP1 PUSH2 0x100 EXP SWAP1 DIV PUSH1 0x1 PUSH1 0x1 PUSH1 0xA0 SHL SUB AND PUSH1 0x1 PUSH1 0x1 PUSH1 0xA0 SHL SUB AND PUSH4 0xAFFA8817 PUSH1 0x40 MLOAD DUP2 PUSH4 0xFFFFFFFF AND PUSH1 0xE0 SHL DUP2 MSTORE PUSH1 0x4 ADD PUSH1 0x20 PUSH1 0x40 MLOAD DUP1 DUP4 SUB DUP2 DUP7 DUP1 EXTCODESIZE ISZERO DUP1 ISZERO PUSH2 0x640 JUMPI PUSH1 0x0 DUP1 REVERT JUMPDEST POP GAS STATICCALL ISZERO DUP1 ISZERO PUSH2 0x654 JUMPI RETURNDATASIZE PUSH1 0x0 DUP1 RETURNDATACOPY RETURNDATASIZE PUSH1 0x0 REVERT JUMPDEST POP POP POP POP PUSH1 0x40 MLOAD RETURNDATASIZE PUSH1 0x1F NOT PUSH1 0x1F DUP3 ADD AND DUP3 ADD DUP1 PUSH1 0x40 MSTORE POP DUP2 ADD SWAP1 PUSH2 0x678 SWAP2 SWAP1 PUSH2 0x2612 JUMP JUMPDEST SWAP1 POP DUP6 PUSH1 0x1 PUSH1 0x1 PUSH1 0xA0 SHL SUB AND DUP2 PUSH1 0x1 PUSH1 0x1 PUSH1 0xA0 SHL SUB AND EQ PUSH2 0x6DB JUMPI PUSH1 0x40 MLOAD PUSH3 0x461BCD PUSH1 0xE5 SHL DUP2 MSTORE PUSH1 0x20 PUSH1 0x4 DUP3 ADD DUP2 SWAP1 MSTORE PUSH1 0x24 DUP3 ADD MSTORE PUSH32 0x617373657420646F6573206E6F74206D61746368205745544847617465776179 PUSH1 0x44 DUP3 ADD MSTORE PUSH1 0x64 ADD PUSH2 0x497 JUMP JUMPDEST PUSH1 0x0 PUSH2 0x6E6 DUP3 PUSH2 0xDFB JUMP JUMPDEST PUSH1 0x4 SLOAD SWAP1 SWAP2 POP PUSH2 0x704 SWAP1 PUSH1 0x1 PUSH1 0x1 PUSH1 0xA0 SHL SUB DUP1 DUP5 AND SWAP2 AND PUSH1 0x0 PUSH2 0x1B6F JUMP JUMPDEST PUSH1 0x4 SLOAD PUSH2 0x71E SWAP1 PUSH1 0x1 PUSH1 0x1 PUSH1 0xA0 SHL SUB DUP4 DUP2 AND SWAP2 AND DUP9 PUSH2 0x1B6F JUMP JUMPDEST PUSH1 0x4 DUP1 SLOAD PUSH1 0x40 MLOAD PUSH4 0x4028069 PUSH1 0xE5 SHL DUP2 MSTORE PUSH1 0x1 PUSH1 0x1 PUSH1 0xA0 SHL SUB DUP7 DUP2 AND SWAP4 DUP3 ADD SWAP4 SWAP1 SWAP4 MSTORE PUSH1 0x24 DUP2 ADD DUP10 SWAP1 MSTORE DUP8 DUP4 AND PUSH1 0x44 DUP3 ADD MSTORE SWAP2 AND SWAP1 PUSH4 0x80500D20 SWAP1 PUSH1 0x64 ADD PUSH1 0x0 PUSH1 0x40 MLOAD DUP1 DUP4 SUB DUP2 PUSH1 0x0 DUP8 DUP1 EXTCODESIZE ISZERO DUP1 ISZERO PUSH2 0x776 JUMPI PUSH1 0x0 DUP1 REVERT JUMPDEST POP GAS CALL ISZERO DUP1 ISZERO PUSH2 0x78A JUMPI RETURNDATASIZE PUSH1 0x0 DUP1 RETURNDATACOPY RETURNDATASIZE PUSH1 0x0 REVERT JUMPDEST POP POP POP POP POP POP JUMPDEST POP POP POP POP POP JUMP JUMPDEST PUSH1 0x60 PUSH1 0xB DUP1 SLOAD PUSH2 0x7A7 SWAP1 PUSH2 0x265C JUMP JUMPDEST DUP1 PUSH1 0x1F ADD PUSH1 0x20 DUP1 SWAP2 DIV MUL PUSH1 0x20 ADD PUSH1 0x40 MLOAD SWAP1 DUP2 ADD PUSH1 0x40 MSTORE DUP1 SWAP3 SWAP2 SWAP1 DUP2 DUP2 MSTORE PUSH1 0x20 ADD DUP3 DUP1 SLOAD PUSH2 0x7D3 SWAP1 PUSH2 0x265C JUMP JUMPDEST DUP1 ISZERO PUSH2 0x820 JUMPI DUP1 PUSH1 0x1F LT PUSH2 0x7F5 JUMPI PUSH2 0x100 DUP1 DUP4 SLOAD DIV MUL DUP4 MSTORE SWAP2 PUSH1 0x20 ADD SWAP2 PUSH2 0x820 JUMP JUMPDEST DUP3 ADD SWAP2 SWAP1 PUSH1 0x0 MSTORE PUSH1 0x20 PUSH1 0x0 KECCAK256 SWAP1 JUMPDEST DUP2 SLOAD DUP2 MSTORE SWAP1 PUSH1 0x1 ADD SWAP1 PUSH1 0x20 ADD DUP1 DUP4 GT PUSH2 0x803 JUMPI DUP3 SWAP1 SUB PUSH1 0x1F AND DUP3 ADD SWAP2 JUMPDEST POP POP POP POP POP SWAP1 POP SWAP1 JUMP JUMPDEST PUSH1 0x60 PUSH1 0x9 DUP1 SLOAD PUSH2 0x7A7 SWAP1 PUSH2 0x265C JUMP JUMPDEST PUSH1 0x60 PUSH1 0x6 DUP1 SLOAD DUP1 PUSH1 0x20 MUL PUSH1 0x20 ADD PUSH1 0x40 MLOAD SWAP1 DUP2 ADD PUSH1 0x40 MSTORE DUP1 SWAP3 SWAP2 SWAP1 DUP2 DUP2 MSTORE PUSH1 0x20 ADD DUP3 DUP1 SLOAD DUP1 ISZERO PUSH2 0x820 JUMPI PUSH1 0x20 MUL DUP3 ADD SWAP2 SWAP1 PUSH1 0x0 MSTORE PUSH1 0x20 PUSH1 0x0 KECCAK256 SWAP1 JUMPDEST DUP2 SLOAD PUSH1 0x1 PUSH1 0x1 PUSH1 0xA0 SHL SUB AND DUP2 MSTORE PUSH1 0x1 SWAP1 SWAP2 ADD SWAP1 PUSH1 0x20 ADD DUP1 DUP4 GT PUSH2 0x873 JUMPI POP POP POP POP POP SWAP1 POP SWAP1 JUMP JUMPDEST PUSH1 0x60 PUSH1 0xA DUP1 SLOAD PUSH2 0x7A7 SWAP1 PUSH2 0x265C JUMP JUMPDEST PUSH1 0x0 DUP1 PUSH2 0x8B5 DUP4 PUSH2 0xDFB JUMP JUMPDEST PUSH1 0x40 MLOAD PUSH4 0x70A08231 PUSH1 0xE0 SHL DUP2 MSTORE ADDRESS PUSH1 0x4 DUP3 ADD MSTORE SWAP1 SWAP2 POP PUSH1 0x0 SWAP1 PUSH1 0x1 PUSH1 0x1 PUSH1 0xA0 SHL SUB DUP4 AND SWAP1 PUSH4 0x70A08231 SWAP1 PUSH1 0x24 ADD PUSH1 0x20 PUSH1 0x40 MLOAD DUP1 DUP4 SUB DUP2 DUP7 DUP1 EXTCODESIZE ISZERO DUP1 ISZERO PUSH2 0x8FA JUMPI PUSH1 0x0 DUP1 REVERT JUMPDEST POP GAS STATICCALL ISZERO DUP1 ISZERO PUSH2 0x90E JUMPI RETURNDATASIZE PUSH1 0x0 DUP1 RETURNDATACOPY RETURNDATASIZE PUSH1 0x0 REVERT JUMPDEST POP POP POP POP PUSH1 0x40 MLOAD RETURNDATASIZE PUSH1 0x1F NOT PUSH1 0x1F DUP3 ADD AND DUP3 ADD DUP1 PUSH1 0x40 MSTORE POP DUP2 ADD SWAP1 PUSH2 0x932 SWAP2 SWAP1 PUSH2 0x25EE JUMP JUMPDEST PUSH1 0x1 PUSH1 0x1 PUSH1 0xA0 SHL SUB DUP6 AND PUSH1 0x0 SWAP1 DUP2 MSTORE PUSH1 0x1 PUSH1 0x20 MSTORE PUSH1 0x40 SWAP1 KECCAK256 SLOAD SWAP1 SWAP2 POP PUSH2 0x958 SWAP1 DUP3 PUSH2 0x2645 JUMP JUMPDEST SWAP5 SWAP4 POP POP POP POP JUMP JUMPDEST PUSH1 0x60 PUSH1 0xC DUP1 SLOAD PUSH2 0x7A7 SWAP1 PUSH2 0x265C JUMP JUMPDEST PUSH1 0x8 SLOAD PUSH1 0x1 PUSH1 0x1 PUSH1 0xA0 SHL SUB AND CALLER EQ PUSH2 0x9B9 JUMPI PUSH1 0x40 MLOAD PUSH3 0x461BCD PUSH1 0xE5 SHL DUP2 MSTORE PUSH1 0x20 PUSH1 0x4 DUP3 ADD MSTORE PUSH1 0xD PUSH1 0x24 DUP3 ADD MSTORE PUSH13 0x3737BA103A34329037BBB732B9 PUSH1 0x99 SHL PUSH1 0x44 DUP3 ADD MSTORE PUSH1 0x64 ADD PUSH2 0x497 JUMP JUMPDEST DUP2 PUSH1 0x0 DUP1 JUMPDEST PUSH1 0x6 SLOAD PUSH1 0xFF DUP3 AND LT ISZERO PUSH2 0xA1B JUMPI PUSH1 0x6 DUP2 PUSH1 0xFF AND DUP2 SLOAD DUP2 LT PUSH2 0x9E1 JUMPI PUSH2 0x9E1 PUSH2 0x2697 JUMP JUMPDEST PUSH1 0x0 SWAP2 DUP3 MSTORE PUSH1 0x20 SWAP1 SWAP2 KECCAK256 ADD SLOAD PUSH1 0x1 PUSH1 0x1 PUSH1 0xA0 SHL SUB DUP5 DUP2 AND SWAP2 AND EQ ISZERO PUSH2 0xA09 JUMPI PUSH1 0x1 SWAP2 POP PUSH2 0xA1B JUMP JUMPDEST DUP1 PUSH2 0xA13 DUP2 PUSH2 0x26AD JUMP JUMPDEST SWAP2 POP POP PUSH2 0x9BE JUMP JUMPDEST POP DUP1 PUSH2 0xA69 JUMPI PUSH1 0x40 MLOAD PUSH3 0x461BCD PUSH1 0xE5 SHL DUP2 MSTORE PUSH1 0x20 PUSH1 0x4 DUP3 ADD MSTORE PUSH1 0x1C PUSH1 0x24 DUP3 ADD MSTORE PUSH32 0x746F6B656E206E6F74206163636570746564206279206A63706F6F6C00000000 PUSH1 0x44 DUP3 ADD MSTORE PUSH1 0x64 ADD PUSH2 0x497 JUMP JUMPDEST PUSH1 0x1 PUSH1 0x1 PUSH1 0xA0 SHL SUB DUP5 AND PUSH1 0x0 SWAP1 DUP2 MSTORE PUSH1 0x1 PUSH1 0x20 MSTORE PUSH1 0x40 DUP2 KECCAK256 DUP1 SLOAD DUP6 SWAP3 SWAP1 PUSH2 0xA91 SWAP1 DUP5 SWAP1 PUSH2 0x26CD JUMP JUMPDEST SWAP1 SWAP2 SSTORE POP POP POP POP POP POP JUMP JUMPDEST PUSH1 0x60 PUSH1 0x0 DUP1 PUSH1 0x60 DUP1 PUSH1 0x60 DUP1 PUSH1 0x6 PUSH1 0x7 PUSH1 0x0 SWAP1 SLOAD SWAP1 PUSH2 0x100 EXP SWAP1 DIV PUSH1 0x1 PUSH1 0x1 PUSH1 0xA0 SHL SUB AND PUSH1 0xD PUSH1 0x0 SWAP1 SLOAD SWAP1 PUSH2 0x100 EXP SWAP1 DIV PUSH1 0xFF AND PUSH1 0xC PUSH1 0xB PUSH1 0xA PUSH1 0x9 DUP7 DUP1 SLOAD DUP1 PUSH1 0x20 MUL PUSH1 0x20 ADD PUSH1 0x40 MLOAD SWAP1 DUP2 ADD PUSH1 0x40 MSTORE DUP1 SWAP3 SWAP2 SWAP1 DUP2 DUP2 MSTORE PUSH1 0x20 ADD DUP3 DUP1 SLOAD DUP1 ISZERO PUSH2 0xB2C JUMPI PUSH1 0x20 MUL DUP3 ADD SWAP2 SWAP1 PUSH1 0x0 MSTORE PUSH1 0x20 PUSH1 0x0 KECCAK256 SWAP1 JUMPDEST DUP2 SLOAD PUSH1 0x1 PUSH1 0x1 PUSH1 0xA0 SHL SUB AND DUP2 MSTORE PUSH1 0x1 SWAP1 SWAP2 ADD SWAP1 PUSH1 0x20 ADD DUP1 DUP4 GT PUSH2 0xB0E JUMPI JUMPDEST POP POP POP POP POP SWAP7 POP DUP4 DUP1 SLOAD PUSH2 0xB3F SWAP1 PUSH2 0x265C JUMP JUMPDEST DUP1 PUSH1 0x1F ADD PUSH1 0x20 DUP1 SWAP2 DIV MUL PUSH1 0x20 ADD PUSH1 0x40 MLOAD SWAP1 DUP2 ADD PUSH1 0x40 MSTORE DUP1 SWAP3 SWAP2 SWAP1 DUP2 DUP2 MSTORE PUSH1 0x20 ADD DUP3 DUP1 SLOAD PUSH2 0xB6B SWAP1 PUSH2 0x265C JUMP JUMPDEST DUP1 ISZERO PUSH2 0xBB8 JUMPI DUP1 PUSH1 0x1F LT PUSH2 0xB8D JUMPI PUSH2 0x100 DUP1 DUP4 SLOAD DIV MUL DUP4 MSTORE SWAP2 PUSH1 0x20 ADD SWAP2 PUSH2 0xBB8 JUMP JUMPDEST DUP3 ADD SWAP2 SWAP1 PUSH1 0x0 MSTORE PUSH1 0x20 PUSH1 0x0 KECCAK256 SWAP1 JUMPDEST DUP2 SLOAD DUP2 MSTORE SWAP1 PUSH1 0x1 ADD SWAP1 PUSH1 0x20 ADD DUP1 DUP4 GT PUSH2 0xB9B JUMPI DUP3 SWAP1 SUB PUSH1 0x1F AND DUP3 ADD SWAP2 JUMPDEST POP POP POP POP POP SWAP4 POP DUP3 DUP1 SLOAD PUSH2 0xBCB SWAP1 PUSH2 0x265C JUMP JUMPDEST DUP1 PUSH1 0x1F ADD PUSH1 0x20 DUP1 SWAP2 DIV MUL PUSH1 0x20 ADD PUSH1 0x40 MLOAD SWAP1 DUP2 ADD PUSH1 0x40 MSTORE DUP1 SWAP3 SWAP2 SWAP1 DUP2 DUP2 MSTORE PUSH1 0x20 ADD DUP3 DUP1 SLOAD PUSH2 0xBF7 SWAP1 PUSH2 0x265C JUMP JUMPDEST DUP1 ISZERO PUSH2 0xC44 JUMPI DUP1 PUSH1 0x1F LT PUSH2 0xC19 JUMPI PUSH2 0x100 DUP1 DUP4 SLOAD DIV MUL DUP4 MSTORE SWAP2 PUSH1 0x20 ADD SWAP2 PUSH2 0xC44 JUMP JUMPDEST DUP3 ADD SWAP2 SWAP1 PUSH1 0x0 MSTORE PUSH1 0x20 PUSH1 0x0 KECCAK256 SWAP1 JUMPDEST DUP2 SLOAD DUP2 MSTORE SWAP1 PUSH1 0x1 ADD SWAP1 PUSH1 0x20 ADD DUP1 DUP4 GT PUSH2 0xC27 JUMPI DUP3 SWAP1 SUB PUSH1 0x1F AND DUP3 ADD SWAP2 JUMPDEST POP POP POP POP POP SWAP3 POP DUP2 DUP1 SLOAD PUSH2 0xC57 SWAP1 PUSH2 0x265C JUMP JUMPDEST DUP1 PUSH1 0x1F ADD PUSH1 0x20 DUP1 SWAP2 DIV MUL PUSH1 0x20 ADD PUSH1 0x40 MLOAD SWAP1 DUP2 ADD PUSH1 0x40 MSTORE DUP1 SWAP3 SWAP2 SWAP1 DUP2 DUP2 MSTORE PUSH1 0x20 ADD DUP3 DUP1 SLOAD PUSH2 0xC83 SWAP1 PUSH2 0x265C JUMP JUMPDEST DUP1 ISZERO PUSH2 0xCD0 JUMPI DUP1 PUSH1 0x1F LT PUSH2 0xCA5 JUMPI PUSH2 0x100 DUP1 DUP4 SLOAD DIV MUL DUP4 MSTORE SWAP2 PUSH1 0x20 ADD SWAP2 PUSH2 0xCD0 JUMP JUMPDEST DUP3 ADD SWAP2 SWAP1 PUSH1 0x0 MSTORE PUSH1 0x20 PUSH1 0x0 KECCAK256 SWAP1 JUMPDEST DUP2 SLOAD DUP2 MSTORE SWAP1 PUSH1 0x1 ADD SWAP1 PUSH1 0x20 ADD DUP1 DUP4 GT PUSH2 0xCB3 JUMPI DUP3 SWAP1 SUB PUSH1 0x1F AND DUP3 ADD SWAP2 JUMPDEST POP POP POP POP POP SWAP2 POP DUP1 DUP1 SLOAD PUSH2 0xCE3 SWAP1 PUSH2 0x265C JUMP JUMPDEST DUP1 PUSH1 0x1F ADD PUSH1 0x20 DUP1 SWAP2 DIV MUL PUSH1 0x20 ADD PUSH1 0x40 MLOAD SWAP1 DUP2 ADD PUSH1 0x40 MSTORE DUP1 SWAP3 SWAP2 SWAP1 DUP2 DUP2 MSTORE PUSH1 0x20 ADD DUP3 DUP1 SLOAD PUSH2 0xD0F SWAP1 PUSH2 0x265C JUMP JUMPDEST DUP1 ISZERO PUSH2 0xD5C JUMPI DUP1 PUSH1 0x1F LT PUSH2 0xD31 JUMPI PUSH2 0x100 DUP1 DUP4 SLOAD DIV MUL DUP4 MSTORE SWAP2 PUSH1 0x20 ADD SWAP2 PUSH2 0xD5C JUMP JUMPDEST DUP3 ADD SWAP2 SWAP1 PUSH1 0x0 MSTORE PUSH1 0x20 PUSH1 0x0 KECCAK256 SWAP1 JUMPDEST DUP2 SLOAD DUP2 MSTORE SWAP1 PUSH1 0x1 ADD SWAP1 PUSH1 0x20 ADD DUP1 DUP4 GT PUSH2 0xD3F JUMPI DUP3 SWAP1 SUB PUSH1 0x1F AND DUP3 ADD SWAP2 JUMPDEST POP POP POP POP POP SWAP1 POP SWAP7 POP SWAP7 POP SWAP7 POP SWAP7 POP SWAP7 POP SWAP7 POP SWAP7 POP SWAP1 SWAP2 SWAP3 SWAP4 SWAP5 SWAP6 SWAP7 JUMP JUMPDEST PUSH1 0x0 DUP1 PUSH1 0x0 DUP1 PUSH1 0x0 DUP1 PUSH1 0x0 PUSH2 0xD8E DUP9 PUSH2 0xF0E JUMP JUMPDEST PUSH2 0xD97 DUP10 PUSH2 0x144F JUMP JUMPDEST PUSH2 0xDA0 DUP11 PUSH2 0x3C3 JUMP JUMPDEST PUSH1 0x1 PUSH1 0x1 PUSH1 0xA0 SHL SUB DUP12 AND PUSH1 0x0 SWAP1 DUP2 MSTORE PUSH1 0x2 PUSH1 0x20 MSTORE PUSH1 0x40 SWAP1 KECCAK256 SLOAD PUSH2 0xDC2 DUP13 PUSH2 0x8A9 JUMP JUMPDEST PUSH1 0x1 PUSH1 0x1 PUSH1 0xA0 SHL SUB DUP14 AND PUSH1 0x0 SWAP1 DUP2 MSTORE PUSH1 0x1 PUSH1 0x20 MSTORE PUSH1 0x40 SWAP1 KECCAK256 SLOAD PUSH2 0xDE4 DUP15 PUSH2 0xDFB JUMP JUMPDEST SWAP6 SWAP15 SWAP5 SWAP14 POP SWAP3 SWAP12 POP SWAP1 SWAP10 POP SWAP8 POP SWAP6 POP SWAP1 SWAP4 POP SWAP2 POP POP JUMP JUMPDEST PUSH1 0x0 DUP1 PUSH1 0x3 PUSH1 0x1 SWAP1 SLOAD SWAP1 PUSH2 0x100 EXP SWAP1 DIV PUSH1 0x1 PUSH1 0x1 PUSH1 0xA0 SHL SUB AND PUSH1 0x1 PUSH1 0x1 PUSH1 0xA0 SHL SUB AND PUSH4 0x26B1D5F PUSH1 0x40 MLOAD DUP2 PUSH4 0xFFFFFFFF AND PUSH1 0xE0 SHL DUP2 MSTORE PUSH1 0x4 ADD PUSH1 0x20 PUSH1 0x40 MLOAD DUP1 DUP4 SUB DUP2 DUP7 DUP1 EXTCODESIZE ISZERO DUP1 ISZERO PUSH2 0xE4C JUMPI PUSH1 0x0 DUP1 REVERT JUMPDEST POP GAS STATICCALL ISZERO DUP1 ISZERO PUSH2 0xE60 JUMPI RETURNDATASIZE PUSH1 0x0 DUP1 RETURNDATACOPY RETURNDATASIZE PUSH1 0x0 REVERT JUMPDEST POP POP POP POP PUSH1 0x40 MLOAD RETURNDATASIZE PUSH1 0x1F NOT PUSH1 0x1F DUP3 ADD AND DUP3 ADD DUP1 PUSH1 0x40 MSTORE POP DUP2 ADD SWAP1 PUSH2 0xE84 SWAP2 SWAP1 PUSH2 0x2612 JUMP JUMPDEST PUSH1 0x40 MLOAD PUSH4 0x35EA6A75 PUSH1 0xE0 SHL DUP2 MSTORE PUSH1 0x1 PUSH1 0x1 PUSH1 0xA0 SHL SUB DUP6 DUP2 AND PUSH1 0x4 DUP4 ADD MSTORE SWAP2 SWAP3 POP SWAP1 DUP3 AND SWAP1 PUSH4 0x35EA6A75 SWAP1 PUSH1 0x24 ADD PUSH2 0x1E0 PUSH1 0x40 MLOAD DUP1 DUP4 SUB DUP2 DUP7 DUP1 EXTCODESIZE ISZERO DUP1 ISZERO PUSH2 0xECA JUMPI PUSH1 0x0 DUP1 REVERT JUMPDEST POP GAS STATICCALL ISZERO DUP1 ISZERO PUSH2 0xEDE JUMPI RETURNDATASIZE PUSH1 0x0 DUP1 RETURNDATACOPY RETURNDATASIZE PUSH1 0x0 REVERT JUMPDEST POP POP POP POP PUSH1 0x40 MLOAD RETURNDATASIZE PUSH1 0x1F NOT PUSH1 0x1F DUP3 ADD AND DUP3 ADD DUP1 PUSH1 0x40 MSTORE POP DUP2 ADD SWAP1 PUSH2 0xF02 SWAP2 SWAP1 PUSH2 0x276E JUMP JUMPDEST PUSH2 0x100 ADD MLOAD SWAP4 SWAP3 POP POP POP JUMP JUMPDEST PUSH1 0x0 DUP1 PUSH1 0x3 PUSH1 0x1 SWAP1 SLOAD SWAP1 PUSH2 0x100 EXP SWAP1 DIV PUSH1 0x1 PUSH1 0x1 PUSH1 0xA0 SHL SUB AND PUSH1 0x1 PUSH1 0x1 PUSH1 0xA0 SHL SUB AND PUSH4 0x26B1D5F PUSH1 0x40 MLOAD DUP2 PUSH4 0xFFFFFFFF AND PUSH1 0xE0 SHL DUP2 MSTORE PUSH1 0x4 ADD PUSH1 0x20 PUSH1 0x40 MLOAD DUP1 DUP4 SUB DUP2 DUP7 DUP1 EXTCODESIZE ISZERO DUP1 ISZERO PUSH2 0xF5F JUMPI PUSH1 0x0 DUP1 REVERT JUMPDEST POP GAS STATICCALL ISZERO DUP1 ISZERO PUSH2 0xF73 JUMPI RETURNDATASIZE PUSH1 0x0 DUP1 RETURNDATACOPY RETURNDATASIZE PUSH1 0x0 REVERT JUMPDEST POP POP POP POP PUSH1 0x40 MLOAD RETURNDATASIZE PUSH1 0x1F NOT PUSH1 0x1F DUP3 ADD AND DUP3 ADD DUP1 PUSH1 0x40 MSTORE POP DUP2 ADD SWAP1 PUSH2 0xF97 SWAP2 SWAP1 PUSH2 0x2612 JUMP JUMPDEST PUSH1 0x40 MLOAD PUSH4 0x35EA6A75 PUSH1 0xE0 SHL DUP2 MSTORE PUSH1 0x1 PUSH1 0x1 PUSH1 0xA0 SHL SUB DUP6 DUP2 AND PUSH1 0x4 DUP4 ADD MSTORE SWAP2 SWAP3 POP SWAP1 DUP3 AND SWAP1 PUSH4 0x35EA6A75 SWAP1 PUSH1 0x24 ADD PUSH2 0x1E0 PUSH1 0x40 MLOAD DUP1 DUP4 SUB DUP2 DUP7 DUP1 EXTCODESIZE ISZERO DUP1 ISZERO PUSH2 0xFDD JUMPI PUSH1 0x0 DUP1 REVERT JUMPDEST POP GAS STATICCALL ISZERO DUP1 ISZERO PUSH2 0xFF1 JUMPI RETURNDATASIZE PUSH1 0x0 DUP1 RETURNDATACOPY RETURNDATASIZE PUSH1 0x0 REVERT JUMPDEST POP POP POP POP PUSH1 0x40 MLOAD RETURNDATASIZE PUSH1 0x1F NOT PUSH1 0x1F DUP3 ADD AND DUP3 ADD DUP1 PUSH1 0x40 MSTORE POP DUP2 ADD SWAP1 PUSH2 0x1015 SWAP2 SWAP1 PUSH2 0x276E JUMP JUMPDEST PUSH1 0x20 ADD MLOAD PUSH16 0xFFFFFFFFFFFFFFFFFFFFFFFFFFFFFFFF AND SWAP4 SWAP3 POP POP POP JUMP JUMPDEST DUP9 MLOAD DUP10 SWAP1 PUSH1 0x3C SWAP1 DUP3 SWAP1 DUP3 LT ISZERO PUSH2 0x108A JUMPI PUSH1 0x40 MLOAD PUSH3 0x461BCD PUSH1 0xE5 SHL DUP2 MSTORE PUSH1 0x20 PUSH1 0x4 DUP3 ADD MSTORE PUSH1 0x1B PUSH1 0x24 DUP3 ADD MSTORE PUSH32 0x737472696E67206F76657220636861726163746572206C696D69740000000000 PUSH1 0x44 DUP3 ADD MSTORE PUSH1 0x64 ADD PUSH2 0x497 JUMP JUMPDEST PUSH1 0x0 SLOAD PUSH2 0x100 SWAP1 DIV PUSH1 0xFF AND ISZERO DUP1 DUP1 ISZERO PUSH2 0x10AA JUMPI POP PUSH1 0x0 SLOAD PUSH1 0x1 PUSH1 0xFF SWAP1 SWAP2 AND LT JUMPDEST DUP1 PUSH2 0x10C4 JUMPI POP ADDRESS EXTCODESIZE ISZERO DUP1 ISZERO PUSH2 0x10C4 JUMPI POP PUSH1 0x0 SLOAD PUSH1 0xFF AND PUSH1 0x1 EQ JUMPDEST PUSH2 0x1136 JUMPI PUSH1 0x40 MLOAD PUSH3 0x461BCD PUSH1 0xE5 SHL DUP2 MSTORE PUSH1 0x20 PUSH1 0x4 DUP3 ADD MSTORE PUSH1 0x2E PUSH1 0x24 DUP3 ADD MSTORE PUSH32 0x496E697469616C697A61626C653A20636F6E747261637420697320616C726561 PUSH1 0x44 DUP3 ADD MSTORE PUSH32 0x647920696E697469616C697A6564000000000000000000000000000000000000 PUSH1 0x64 DUP3 ADD MSTORE PUSH1 0x84 ADD PUSH2 0x497 JUMP JUMPDEST PUSH1 0x0 DUP1 SLOAD PUSH1 0xFF NOT AND PUSH1 0x1 OR SWAP1 SSTORE DUP1 ISZERO PUSH2 0x1159 JUMPI PUSH1 0x0 DUP1 SLOAD PUSH2 0xFF00 NOT AND PUSH2 0x100 OR SWAP1 SSTORE JUMPDEST PUSH1 0x3 SLOAD PUSH1 0xFF AND ISZERO PUSH2 0x11AC JUMPI PUSH1 0x40 MLOAD PUSH3 0x461BCD PUSH1 0xE5 SHL DUP2 MSTORE PUSH1 0x20 PUSH1 0x4 DUP3 ADD MSTORE PUSH1 0x16 PUSH1 0x24 DUP3 ADD MSTORE PUSH32 0x43616E6E6F7420696E697469616C697A65206261736500000000000000000000 PUSH1 0x44 DUP3 ADD MSTORE PUSH1 0x64 ADD PUSH2 0x497 JUMP JUMPDEST PUSH1 0x7 SLOAD PUSH1 0x1 PUSH1 0x1 PUSH1 0xA0 SHL SUB AND ISZERO PUSH2 0x1205 JUMPI PUSH1 0x40 MLOAD PUSH3 0x461BCD PUSH1 0xE5 SHL DUP2 MSTORE PUSH1 0x20 PUSH1 0x4 DUP3 ADD MSTORE PUSH1 0x19 PUSH1 0x24 DUP3 ADD MSTORE PUSH32 0x496E697469616C697A6520616C72656164792063616C6C656400000000000000 PUSH1 0x44 DUP3 ADD MSTORE PUSH1 0x64 ADD PUSH2 0x497 JUMP JUMPDEST DUP9 PUSH1 0x7 PUSH1 0x0 PUSH2 0x100 EXP DUP2 SLOAD DUP2 PUSH1 0x1 PUSH1 0x1 PUSH1 0xA0 SHL SUB MUL NOT AND SWAP1 DUP4 PUSH1 0x1 PUSH1 0x1 PUSH1 0xA0 SHL SUB AND MUL OR SWAP1 SSTORE POP CALLER PUSH1 0x8 PUSH1 0x0 PUSH2 0x100 EXP DUP2 SLOAD DUP2 PUSH1 0x1 PUSH1 0x1 PUSH1 0xA0 SHL SUB MUL NOT AND SWAP1 DUP4 PUSH1 0x1 PUSH1 0x1 PUSH1 0xA0 SHL SUB AND MUL OR SWAP1 SSTORE POP DUP13 PUSH1 0x9 SWAP1 DUP1 MLOAD SWAP1 PUSH1 0x20 ADD SWAP1 PUSH2 0x1269 SWAP3 SWAP2 SWAP1 PUSH2 0x1F45 JUMP JUMPDEST POP DUP12 MLOAD PUSH2 0x127D SWAP1 PUSH1 0xA SWAP1 PUSH1 0x20 DUP16 ADD SWAP1 PUSH2 0x1F45 JUMP JUMPDEST POP DUP11 MLOAD PUSH2 0x1291 SWAP1 PUSH1 0xB SWAP1 PUSH1 0x20 DUP15 ADD SWAP1 PUSH2 0x1F45 JUMP JUMPDEST POP DUP10 MLOAD PUSH2 0x12A5 SWAP1 PUSH1 0xC SWAP1 PUSH1 0x20 DUP14 ADD SWAP1 PUSH2 0x1F45 JUMP JUMPDEST POP DUP5 PUSH1 0xD PUSH1 0x0 PUSH2 0x100 EXP DUP2 SLOAD DUP2 PUSH1 0xFF MUL NOT AND SWAP1 DUP4 ISZERO ISZERO MUL OR SWAP1 SSTORE POP DUP8 PUSH1 0x3 PUSH1 0x1 PUSH2 0x100 EXP DUP2 SLOAD DUP2 PUSH1 0x1 PUSH1 0x1 PUSH1 0xA0 SHL SUB MUL NOT AND SWAP1 DUP4 PUSH1 0x1 PUSH1 0x1 PUSH1 0xA0 SHL SUB AND MUL OR SWAP1 SSTORE POP DUP7 PUSH1 0x4 PUSH1 0x0 PUSH2 0x100 EXP DUP2 SLOAD DUP2 PUSH1 0x1 PUSH1 0x1 PUSH1 0xA0 SHL SUB MUL NOT AND SWAP1 DUP4 PUSH1 0x1 PUSH1 0x1 PUSH1 0xA0 SHL SUB AND MUL OR SWAP1 SSTORE POP DUP6 PUSH1 0x5 PUSH1 0x0 PUSH2 0x100 EXP DUP2 SLOAD DUP2 PUSH1 0x1 PUSH1 0x1 PUSH1 0xA0 SHL SUB MUL NOT AND SWAP1 DUP4 PUSH1 0x1 PUSH1 0x1 PUSH1 0xA0 SHL SUB AND MUL OR SWAP1 SSTORE POP DUP15 DUP15 PUSH1 0x6 SWAP2 SWAP1 PUSH2 0x1346 SWAP3 SWAP2 SWAP1 PUSH2 0x1FC9 JUMP JUMPDEST POP DUP1 ISZERO PUSH2 0x138D JUMPI PUSH1 0x0 DUP1 SLOAD PUSH2 0xFF00 NOT AND SWAP1 SSTORE PUSH1 0x40 MLOAD PUSH1 0x1 DUP2 MSTORE PUSH32 0x7F26B83FF96E1F2B6A682F133852F6798A09C465DA95921460CEFB3847402498 SWAP1 PUSH1 0x20 ADD PUSH1 0x40 MLOAD DUP1 SWAP2 SUB SWAP1 LOG1 JUMPDEST POP POP POP POP POP POP POP POP POP POP POP POP POP POP POP JUMP JUMPDEST PUSH1 0x8 SLOAD PUSH1 0x1 PUSH1 0x1 PUSH1 0xA0 SHL SUB AND CALLER EQ PUSH2 0x13E8 JUMPI PUSH1 0x40 MLOAD PUSH3 0x461BCD PUSH1 0xE5 SHL DUP2 MSTORE PUSH1 0x20 PUSH1 0x4 DUP3 ADD MSTORE PUSH1 0xD PUSH1 0x24 DUP3 ADD MSTORE PUSH13 0x3737BA103A34329037BBB732B9 PUSH1 0x99 SHL PUSH1 0x44 DUP3 ADD MSTORE PUSH1 0x64 ADD PUSH2 0x497 JUMP JUMPDEST PUSH2 0x13F4 PUSH1 0xA DUP4 DUP4 PUSH2 0x2034 JUMP JUMPDEST POP POP POP JUMP JUMPDEST PUSH1 0x8 SLOAD PUSH1 0x1 PUSH1 0x1 PUSH1 0xA0 SHL SUB AND CALLER EQ PUSH2 0x1443 JUMPI PUSH1 0x40 MLOAD PUSH3 0x461BCD PUSH1 0xE5 SHL DUP2 MSTORE PUSH1 0x20 PUSH1 0x4 DUP3 ADD MSTORE PUSH1 0xD PUSH1 0x24 DUP3 ADD MSTORE PUSH13 0x3737BA103A34329037BBB732B9 PUSH1 0x99 SHL PUSH1 0x44 DUP3 ADD MSTORE PUSH1 0x64 ADD PUSH2 0x497 JUMP JUMPDEST PUSH2 0x13F4 PUSH1 0xC DUP4 DUP4 PUSH2 0x2034 JUMP JUMPDEST PUSH1 0x0 DUP1 PUSH1 0x3 PUSH1 0x1 SWAP1 SLOAD SWAP1 PUSH2 0x100 EXP SWAP1 DIV PUSH1 0x1 PUSH1 0x1 PUSH1 0xA0 SHL SUB AND PUSH1 0x1 PUSH1 0x1 PUSH1 0xA0 SHL SUB AND PUSH4 0x26B1D5F PUSH1 0x40 MLOAD DUP2 PUSH4 0xFFFFFFFF AND PUSH1 0xE0 SHL DUP2 MSTORE PUSH1 0x4 ADD PUSH1 0x20 PUSH1 0x40 MLOAD DUP1 DUP4 SUB DUP2 DUP7 DUP1 EXTCODESIZE ISZERO DUP1 ISZERO PUSH2 0x14A0 JUMPI PUSH1 0x0 DUP1 REVERT JUMPDEST POP GAS STATICCALL ISZERO DUP1 ISZERO PUSH2 0x14B4 JUMPI RETURNDATASIZE PUSH1 0x0 DUP1 RETURNDATACOPY RETURNDATASIZE PUSH1 0x0 REVERT JUMPDEST POP POP POP POP PUSH1 0x40 MLOAD RETURNDATASIZE PUSH1 0x1F NOT PUSH1 0x1F DUP3 ADD AND DUP3 ADD DUP1 PUSH1 0x40 MSTORE POP DUP2 ADD SWAP1 PUSH2 0x14D8 SWAP2 SWAP1 PUSH2 0x2612 JUMP JUMPDEST PUSH1 0x40 MLOAD PUSH32 0xD15E005300000000000000000000000000000000000000000000000000000000 DUP2 MSTORE PUSH1 0x1 PUSH1 0x1 PUSH1 0xA0 SHL SUB DUP6 DUP2 AND PUSH1 0x4 DUP4 ADD MSTORE SWAP2 SWAP3 POP SWAP1 DUP3 AND SWAP1 PUSH4 0xD15E0053 SWAP1 PUSH1 0x24 ADD PUSH2 0x3FA JUMP JUMPDEST PUSH1 0x8 SLOAD PUSH1 0x0 SWAP1 PUSH1 0x1 PUSH1 0x1 PUSH1 0xA0 SHL SUB AND CALLER EQ PUSH2 0x1570 JUMPI PUSH1 0x40 MLOAD PUSH3 0x461BCD PUSH1 0xE5 SHL DUP2 MSTORE PUSH1 0x20 PUSH1 0x4 DUP3 ADD MSTORE PUSH1 0xD PUSH1 0x24 DUP3 ADD MSTORE PUSH13 0x3737BA103A34329037BBB732B9 PUSH1 0x99 SHL PUSH1 0x44 DUP3 ADD MSTORE PUSH1 0x64 ADD PUSH2 0x497 JUMP JUMPDEST PUSH1 0x0 PUSH2 0x157B DUP7 PUSH2 0xDFB JUMP JUMPDEST PUSH1 0x40 MLOAD PUSH4 0x70A08231 PUSH1 0xE0 SHL DUP2 MSTORE ADDRESS PUSH1 0x4 DUP3 ADD MSTORE SWAP1 SWAP2 POP PUSH1 0x0 SWAP1 PUSH1 0x1 PUSH1 0x1 PUSH1 0xA0 SHL SUB DUP4 AND SWAP1 PUSH4 0x70A08231 SWAP1 PUSH1 0x24 ADD PUSH1 0x20 PUSH1 0x40 MLOAD DUP1 DUP4 SUB DUP2 DUP7 DUP1 EXTCODESIZE ISZERO DUP1 ISZERO PUSH2 0x15C0 JUMPI PUSH1 0x0 DUP1 REVERT JUMPDEST POP GAS STATICCALL ISZERO DUP1 ISZERO PUSH2 0x15D4 JUMPI RETURNDATASIZE PUSH1 0x0 DUP1 RETURNDATACOPY RETURNDATASIZE PUSH1 0x0 REVERT JUMPDEST POP POP POP POP PUSH1 0x40 MLOAD RETURNDATASIZE PUSH1 0x1F NOT PUSH1 0x1F DUP3 ADD AND DUP3 ADD DUP1 PUSH1 0x40 MSTORE POP DUP2 ADD SWAP1 PUSH2 0x15F8 SWAP2 SWAP1 PUSH2 0x25EE JUMP JUMPDEST PUSH1 0x1 PUSH1 0x1 PUSH1 0xA0 SHL SUB DUP9 AND PUSH1 0x0 SWAP1 DUP2 MSTORE PUSH1 0x1 PUSH1 0x20 MSTORE PUSH1 0x40 DUP2 KECCAK256 SLOAD SWAP2 SWAP3 POP SWAP1 PUSH2 0x161F SWAP1 DUP4 PUSH2 0x2645 JUMP JUMPDEST PUSH1 0x1 PUSH1 0x1 PUSH1 0xA0 SHL SUB DUP10 AND PUSH1 0x0 SWAP1 DUP2 MSTORE PUSH1 0x2 PUSH1 0x20 MSTORE PUSH1 0x40 DUP2 KECCAK256 DUP1 SLOAD SWAP3 SWAP4 POP DUP4 SWAP3 SWAP1 SWAP2 SWAP1 PUSH2 0x164C SWAP1 DUP5 SWAP1 PUSH2 0x26CD JUMP JUMPDEST SWAP3 POP POP DUP2 SWAP1 SSTORE POP PUSH1 0x0 DUP2 SWAP1 POP PUSH1 0x0 PUSH1 0x3 PUSH1 0x1 SWAP1 SLOAD SWAP1 PUSH2 0x100 EXP SWAP1 DIV PUSH1 0x1 PUSH1 0x1 PUSH1 0xA0 SHL SUB AND PUSH1 0x1 PUSH1 0x1 PUSH1 0xA0 SHL SUB AND PUSH4 0x26B1D5F PUSH1 0x40 MLOAD DUP2 PUSH4 0xFFFFFFFF AND PUSH1 0xE0 SHL DUP2 MSTORE PUSH1 0x4 ADD PUSH1 0x20 PUSH1 0x40 MLOAD DUP1 DUP4 SUB DUP2 DUP7 DUP1 EXTCODESIZE ISZERO DUP1 ISZERO PUSH2 0x16A8 JUMPI PUSH1 0x0 DUP1 REVERT JUMPDEST POP GAS STATICCALL ISZERO DUP1 ISZERO PUSH2 0x16BC JUMPI RETURNDATASIZE PUSH1 0x0 DUP1 RETURNDATACOPY RETURNDATASIZE PUSH1 0x0 REVERT JUMPDEST POP POP POP POP PUSH1 0x40 MLOAD RETURNDATASIZE PUSH1 0x1F NOT PUSH1 0x1F DUP3 ADD AND DUP3 ADD DUP1 PUSH1 0x40 MSTORE POP DUP2 ADD SWAP1 PUSH2 0x16E0 SWAP2 SWAP1 PUSH2 0x2612 JUMP JUMPDEST SWAP1 POP DUP8 PUSH2 0x18BF JUMPI DUP7 PUSH2 0x1780 JUMPI PUSH1 0x7 SLOAD PUSH1 0x40 MLOAD PUSH4 0x1A4CA37B PUSH1 0xE2 SHL DUP2 MSTORE PUSH1 0x1 PUSH1 0x1 PUSH1 0xA0 SHL SUB DUP13 DUP2 AND PUSH1 0x4 DUP4 ADD MSTORE PUSH1 0x24 DUP3 ADD DUP7 SWAP1 MSTORE SWAP2 DUP3 AND PUSH1 0x44 DUP3 ADD MSTORE SWAP1 DUP3 AND SWAP1 PUSH4 0x69328DEC SWAP1 PUSH1 0x64 ADD PUSH1 0x20 PUSH1 0x40 MLOAD DUP1 DUP4 SUB DUP2 PUSH1 0x0 DUP8 DUP1 EXTCODESIZE ISZERO DUP1 ISZERO PUSH2 0x1742 JUMPI PUSH1 0x0 DUP1 REVERT JUMPDEST POP GAS CALL ISZERO DUP1 ISZERO PUSH2 0x1756 JUMPI RETURNDATASIZE PUSH1 0x0 DUP1 RETURNDATACOPY RETURNDATASIZE PUSH1 0x0 REVERT JUMPDEST POP POP POP POP PUSH1 0x40 MLOAD RETURNDATASIZE PUSH1 0x1F NOT PUSH1 0x1F DUP3 ADD AND DUP3 ADD DUP1 PUSH1 0x40 MSTORE POP DUP2 ADD SWAP1 PUSH2 0x177A SWAP2 SWAP1 PUSH2 0x25EE JUMP JUMPDEST POP PUSH2 0x1B62 JUMP JUMPDEST PUSH1 0x0 PUSH2 0x178C DUP5 DUP10 PUSH2 0x1D03 JUMP JUMPDEST SWAP1 POP PUSH1 0x0 PUSH2 0x179A DUP3 DUP7 PUSH2 0x2645 JUMP JUMPDEST PUSH1 0x7 SLOAD PUSH1 0x40 MLOAD PUSH4 0x1A4CA37B PUSH1 0xE2 SHL DUP2 MSTORE PUSH1 0x1 PUSH1 0x1 PUSH1 0xA0 SHL SUB DUP16 DUP2 AND PUSH1 0x4 DUP4 ADD MSTORE PUSH1 0x24 DUP3 ADD DUP5 SWAP1 MSTORE SWAP2 DUP3 AND PUSH1 0x44 DUP3 ADD MSTORE SWAP2 SWAP3 POP DUP5 AND SWAP1 PUSH4 0x69328DEC SWAP1 PUSH1 0x64 ADD PUSH1 0x20 PUSH1 0x40 MLOAD DUP1 DUP4 SUB DUP2 PUSH1 0x0 DUP8 DUP1 EXTCODESIZE ISZERO DUP1 ISZERO PUSH2 0x17F2 JUMPI PUSH1 0x0 DUP1 REVERT JUMPDEST POP GAS CALL ISZERO DUP1 ISZERO PUSH2 0x1806 JUMPI RETURNDATASIZE PUSH1 0x0 DUP1 RETURNDATACOPY RETURNDATASIZE PUSH1 0x0 REVERT JUMPDEST POP POP POP POP PUSH1 0x40 MLOAD RETURNDATASIZE PUSH1 0x1F NOT PUSH1 0x1F DUP3 ADD AND DUP3 ADD DUP1 PUSH1 0x40 MSTORE POP DUP2 ADD SWAP1 PUSH2 0x182A SWAP2 SWAP1 PUSH2 0x25EE JUMP JUMPDEST POP PUSH1 0x40 MLOAD PUSH4 0x1A4CA37B PUSH1 0xE2 SHL DUP2 MSTORE PUSH1 0x1 PUSH1 0x1 PUSH1 0xA0 SHL SUB DUP14 DUP2 AND PUSH1 0x4 DUP4 ADD MSTORE PUSH1 0x24 DUP3 ADD DUP5 SWAP1 MSTORE DUP13 DUP2 AND PUSH1 0x44 DUP4 ADD MSTORE DUP5 AND SWAP1 PUSH4 0x69328DEC SWAP1 PUSH1 0x64 ADD PUSH1 0x20 PUSH1 0x40 MLOAD DUP1 DUP4 SUB DUP2 PUSH1 0x0 DUP8 DUP1 EXTCODESIZE ISZERO DUP1 ISZERO PUSH2 0x187D JUMPI PUSH1 0x0 DUP1 REVERT JUMPDEST POP GAS CALL ISZERO DUP1 ISZERO PUSH2 0x1891 JUMPI RETURNDATASIZE PUSH1 0x0 DUP1 RETURNDATACOPY RETURNDATASIZE PUSH1 0x0 REVERT JUMPDEST POP POP POP POP PUSH1 0x40 MLOAD RETURNDATASIZE PUSH1 0x1F NOT PUSH1 0x1F DUP3 ADD AND DUP3 ADD DUP1 PUSH1 0x40 MSTORE POP DUP2 ADD SWAP1 PUSH2 0x18B5 SWAP2 SWAP1 PUSH2 0x25EE JUMP JUMPDEST POP SWAP3 POP PUSH2 0x1B62 SWAP1 POP JUMP JUMPDEST PUSH1 0x4 DUP1 SLOAD PUSH1 0x40 DUP1 MLOAD PUSH32 0xAFFA881700000000000000000000000000000000000000000000000000000000 DUP2 MSTORE SWAP1 MLOAD PUSH1 0x1 PUSH1 0x1 PUSH1 0xA0 SHL SUB DUP1 DUP16 AND SWAP5 SWAP4 AND SWAP3 PUSH4 0xAFFA8817 SWAP3 DUP1 DUP3 ADD SWAP3 PUSH1 0x20 SWAP3 SWAP1 SWAP2 DUP3 SWAP1 SUB ADD DUP2 DUP7 DUP1 EXTCODESIZE ISZERO DUP1 ISZERO PUSH2 0x191E JUMPI PUSH1 0x0 DUP1 REVERT JUMPDEST POP GAS STATICCALL ISZERO DUP1 ISZERO PUSH2 0x1932 JUMPI RETURNDATASIZE PUSH1 0x0 DUP1 RETURNDATACOPY RETURNDATASIZE PUSH1 0x0 REVERT JUMPDEST POP POP POP POP PUSH1 0x40 MLOAD RETURNDATASIZE PUSH1 0x1F NOT PUSH1 0x1F DUP3 ADD AND DUP3 ADD DUP1 PUSH1 0x40 MSTORE POP DUP2 ADD SWAP1 PUSH2 0x1956 SWAP2 SWAP1 PUSH2 0x2612 JUMP JUMPDEST PUSH1 0x1 PUSH1 0x1 PUSH1 0xA0 SHL SUB AND EQ PUSH2 0x19AC JUMPI PUSH1 0x40 MLOAD PUSH3 0x461BCD PUSH1 0xE5 SHL DUP2 MSTORE PUSH1 0x20 PUSH1 0x4 DUP3 ADD DUP2 SWAP1 MSTORE PUSH1 0x24 DUP3 ADD MSTORE PUSH32 0x617373657420646F6573206E6F74206D61746368205745544847617465776179 PUSH1 0x44 DUP3 ADD MSTORE PUSH1 0x64 ADD PUSH2 0x497 JUMP JUMPDEST PUSH1 0x4 SLOAD PUSH2 0x19C7 SWAP1 PUSH1 0x1 PUSH1 0x1 PUSH1 0xA0 SHL SUB DUP8 DUP2 AND SWAP2 AND PUSH1 0x0 PUSH2 0x1B6F JUMP JUMPDEST PUSH1 0x4 SLOAD PUSH2 0x19E1 SWAP1 PUSH1 0x1 PUSH1 0x1 PUSH1 0xA0 SHL SUB DUP8 DUP2 AND SWAP2 AND DUP6 PUSH2 0x1B6F JUMP JUMPDEST DUP7 PUSH2 0x1A5E JUMPI PUSH1 0x4 DUP1 SLOAD PUSH1 0x7 SLOAD PUSH1 0x40 MLOAD PUSH4 0x4028069 PUSH1 0xE5 SHL DUP2 MSTORE PUSH1 0x1 PUSH1 0x1 PUSH1 0xA0 SHL SUB DUP6 DUP2 AND SWAP5 DUP3 ADD SWAP5 SWAP1 SWAP5 MSTORE PUSH1 0x24 DUP2 ADD DUP8 SWAP1 MSTORE SWAP1 DUP4 AND PUSH1 0x44 DUP3 ADD MSTORE SWAP2 AND SWAP1 PUSH4 0x80500D20 SWAP1 PUSH1 0x64 ADD PUSH1 0x0 PUSH1 0x40 MLOAD DUP1 DUP4 SUB DUP2 PUSH1 0x0 DUP8 DUP1 EXTCODESIZE ISZERO DUP1 ISZERO PUSH2 0x1A41 JUMPI PUSH1 0x0 DUP1 REVERT JUMPDEST POP GAS CALL ISZERO DUP1 ISZERO PUSH2 0x1A55 JUMPI RETURNDATASIZE PUSH1 0x0 DUP1 RETURNDATACOPY RETURNDATASIZE PUSH1 0x0 REVERT JUMPDEST POP POP POP POP PUSH2 0x1B62 JUMP JUMPDEST PUSH1 0x0 PUSH2 0x1A6A DUP5 DUP10 PUSH2 0x1D03 JUMP JUMPDEST SWAP1 POP PUSH1 0x0 PUSH2 0x1A78 DUP3 DUP7 PUSH2 0x2645 JUMP JUMPDEST PUSH1 0x4 DUP1 SLOAD PUSH1 0x7 SLOAD PUSH1 0x40 MLOAD PUSH4 0x4028069 PUSH1 0xE5 SHL DUP2 MSTORE PUSH1 0x1 PUSH1 0x1 PUSH1 0xA0 SHL SUB DUP9 DUP2 AND SWAP5 DUP3 ADD SWAP5 SWAP1 SWAP5 MSTORE PUSH1 0x24 DUP2 ADD DUP6 SWAP1 MSTORE SWAP1 DUP4 AND PUSH1 0x44 DUP3 ADD MSTORE SWAP3 SWAP4 POP AND SWAP1 PUSH4 0x80500D20 SWAP1 PUSH1 0x64 ADD PUSH1 0x0 PUSH1 0x40 MLOAD DUP1 DUP4 SUB DUP2 PUSH1 0x0 DUP8 DUP1 EXTCODESIZE ISZERO DUP1 ISZERO PUSH2 0x1AD5 JUMPI PUSH1 0x0 DUP1 REVERT JUMPDEST POP GAS CALL ISZERO DUP1 ISZERO PUSH2 0x1AE9 JUMPI RETURNDATASIZE PUSH1 0x0 DUP1 RETURNDATACOPY RETURNDATASIZE PUSH1 0x0 REVERT JUMPDEST POP POP PUSH1 0x4 DUP1 SLOAD PUSH1 0x40 MLOAD PUSH4 0x4028069 PUSH1 0xE5 SHL DUP2 MSTORE PUSH1 0x1 PUSH1 0x1 PUSH1 0xA0 SHL SUB DUP9 DUP2 AND SWAP4 DUP3 ADD SWAP4 SWAP1 SWAP4 MSTORE PUSH1 0x24 DUP2 ADD DUP8 SWAP1 MSTORE DUP16 DUP4 AND PUSH1 0x44 DUP3 ADD MSTORE SWAP2 AND SWAP3 POP PUSH4 0x80500D20 SWAP2 POP PUSH1 0x64 ADD PUSH1 0x0 PUSH1 0x40 MLOAD DUP1 DUP4 SUB DUP2 PUSH1 0x0 DUP8 DUP1 EXTCODESIZE ISZERO DUP1 ISZERO PUSH2 0x1B45 JUMPI PUSH1 0x0 DUP1 REVERT JUMPDEST POP GAS CALL ISZERO DUP1 ISZERO PUSH2 0x1B59 JUMPI RETURNDATASIZE PUSH1 0x0 DUP1 RETURNDATACOPY RETURNDATASIZE PUSH1 0x0 REVERT JUMPDEST POP SWAP3 SWAP6 POP POP POP POP POP JUMPDEST POP SWAP9 SWAP8 POP POP POP POP POP POP POP POP JUMP JUMPDEST DUP1 ISZERO DUP1 PUSH2 0x1C11 JUMPI POP PUSH1 0x40 MLOAD PUSH32 0xDD62ED3E00000000000000000000000000000000000000000000000000000000 DUP2 MSTORE ADDRESS PUSH1 0x4 DUP3 ADD MSTORE PUSH1 0x1 PUSH1 0x1 PUSH1 0xA0 SHL SUB DUP4 DUP2 AND PUSH1 0x24 DUP4 ADD MSTORE DUP5 AND SWAP1 PUSH4 0xDD62ED3E SWAP1 PUSH1 0x44 ADD PUSH1 0x20 PUSH1 0x40 MLOAD DUP1 DUP4 SUB DUP2 DUP7 DUP1 EXTCODESIZE ISZERO DUP1 ISZERO PUSH2 0x1BD7 JUMPI PUSH1 0x0 DUP1 REVERT JUMPDEST POP GAS STATICCALL ISZERO DUP1 ISZERO PUSH2 0x1BEB JUMPI RETURNDATASIZE PUSH1 0x0 DUP1 RETURNDATACOPY RETURNDATASIZE PUSH1 0x0 REVERT JUMPDEST POP POP POP POP PUSH1 0x40 MLOAD RETURNDATASIZE PUSH1 0x1F NOT PUSH1 0x1F DUP3 ADD AND DUP3 ADD DUP1 PUSH1 0x40 MSTORE POP DUP2 ADD SWAP1 PUSH2 0x1C0F SWAP2 SWAP1 PUSH2 0x25EE JUMP JUMPDEST ISZERO JUMPDEST PUSH2 0x1C83 JUMPI PUSH1 0x40 MLOAD PUSH3 0x461BCD PUSH1 0xE5 SHL DUP2 MSTORE PUSH1 0x20 PUSH1 0x4 DUP3 ADD MSTORE PUSH1 0x36 PUSH1 0x24 DUP3 ADD MSTORE PUSH32 0x5361666545524332303A20617070726F76652066726F6D206E6F6E2D7A65726F PUSH1 0x44 DUP3 ADD MSTORE PUSH32 0x20746F206E6F6E2D7A65726F20616C6C6F77616E636500000000000000000000 PUSH1 0x64 DUP3 ADD MSTORE PUSH1 0x84 ADD PUSH2 0x497 JUMP JUMPDEST PUSH1 0x40 DUP1 MLOAD PUSH1 0x1 PUSH1 0x1 PUSH1 0xA0 SHL SUB DUP5 AND PUSH1 0x24 DUP3 ADD MSTORE PUSH1 0x44 DUP1 DUP3 ADD DUP5 SWAP1 MSTORE DUP3 MLOAD DUP1 DUP4 SUB SWAP1 SWAP2 ADD DUP2 MSTORE PUSH1 0x64 SWAP1 SWAP2 ADD SWAP1 SWAP2 MSTORE PUSH1 0x20 DUP2 ADD DUP1 MLOAD PUSH28 0xFFFFFFFFFFFFFFFFFFFFFFFFFFFFFFFFFFFFFFFFFFFFFFFFFFFFFFFF AND PUSH32 0x95EA7B300000000000000000000000000000000000000000000000000000000 OR SWAP1 MSTORE PUSH2 0x13F4 SWAP1 DUP5 SWAP1 PUSH2 0x1D6C JUMP JUMPDEST PUSH1 0x0 DUP1 PUSH2 0x2710 PUSH2 0x1D13 DUP5 DUP7 PUSH2 0x2891 JUMP JUMPDEST PUSH2 0x1D1D SWAP2 SWAP1 PUSH2 0x28B0 JUMP JUMPDEST SWAP1 POP DUP1 PUSH2 0x44A JUMPI PUSH1 0x40 MLOAD PUSH3 0x461BCD PUSH1 0xE5 SHL DUP2 MSTORE PUSH1 0x20 PUSH1 0x4 DUP3 ADD MSTORE PUSH1 0x19 PUSH1 0x24 DUP3 ADD MSTORE PUSH32 0x6E6F7420656E6F7567682066756E647320746F20636C61696D00000000000000 PUSH1 0x44 DUP3 ADD MSTORE PUSH1 0x64 ADD PUSH2 0x497 JUMP JUMPDEST PUSH2 0x1D7E DUP3 PUSH1 0x1 PUSH1 0x1 PUSH1 0xA0 SHL SUB AND PUSH2 0x1F0C JUMP JUMPDEST PUSH2 0x1DCA JUMPI PUSH1 0x40 MLOAD PUSH3 0x461BCD PUSH1 0xE5 SHL DUP2 MSTORE PUSH1 0x20 PUSH1 0x4 DUP3 ADD MSTORE PUSH1 0x1F PUSH1 0x24 DUP3 ADD MSTORE PUSH32 0x5361666545524332303A2063616C6C20746F206E6F6E2D636F6E747261637400 PUSH1 0x44 DUP3 ADD MSTORE PUSH1 0x64 ADD PUSH2 0x497 JUMP JUMPDEST PUSH1 0x0 DUP1 DUP4 PUSH1 0x1 PUSH1 0x1 PUSH1 0xA0 SHL SUB AND DUP4 PUSH1 0x40 MLOAD PUSH2 0x1DE5 SWAP2 SWAP1 PUSH2 0x28D2 JUMP JUMPDEST PUSH1 0x0 PUSH1 0x40 MLOAD DUP1 DUP4 SUB DUP2 PUSH1 0x0 DUP7 GAS CALL SWAP2 POP POP RETURNDATASIZE DUP1 PUSH1 0x0 DUP2 EQ PUSH2 0x1E22 JUMPI PUSH1 0x40 MLOAD SWAP2 POP PUSH1 0x1F NOT PUSH1 0x3F RETURNDATASIZE ADD AND DUP3 ADD PUSH1 0x40 MSTORE RETURNDATASIZE DUP3 MSTORE RETURNDATASIZE PUSH1 0x0 PUSH1 0x20 DUP5 ADD RETURNDATACOPY PUSH2 0x1E27 JUMP JUMPDEST PUSH1 0x60 SWAP2 POP JUMPDEST POP SWAP2 POP SWAP2 POP DUP2 PUSH2 0x1E79 JUMPI PUSH1 0x40 MLOAD PUSH3 0x461BCD PUSH1 0xE5 SHL DUP2 MSTORE PUSH1 0x20 PUSH1 0x4 DUP3 ADD DUP2 SWAP1 MSTORE PUSH1 0x24 DUP3 ADD MSTORE PUSH32 0x5361666545524332303A206C6F772D6C6576656C2063616C6C206661696C6564 PUSH1 0x44 DUP3 ADD MSTORE PUSH1 0x64 ADD PUSH2 0x497 JUMP JUMPDEST DUP1 MLOAD ISZERO PUSH2 0x1F06 JUMPI DUP1 DUP1 PUSH1 0x20 ADD SWAP1 MLOAD DUP2 ADD SWAP1 PUSH2 0x1E94 SWAP2 SWAP1 PUSH2 0x28EE JUMP JUMPDEST PUSH2 0x1F06 JUMPI PUSH1 0x40 MLOAD PUSH3 0x461BCD PUSH1 0xE5 SHL DUP2 MSTORE PUSH1 0x20 PUSH1 0x4 DUP3 ADD MSTORE PUSH1 0x2A PUSH1 0x24 DUP3 ADD MSTORE PUSH32 0x5361666545524332303A204552433230206F7065726174696F6E20646964206E PUSH1 0x44 DUP3 ADD MSTORE PUSH32 0x6F74207375636365656400000000000000000000000000000000000000000000 PUSH1 0x64 DUP3 ADD MSTORE PUSH1 0x84 ADD PUSH2 0x497 JUMP JUMPDEST POP POP POP POP JUMP JUMPDEST PUSH1 0x0 DUP2 EXTCODEHASH PUSH32 0xC5D2460186F7233C927E7DB2DCC703C0E500B653CA82273B7BFAD8045D85A470 DUP2 DUP2 EQ DUP1 ISZERO SWAP1 PUSH2 0x958 JUMPI POP POP ISZERO ISZERO SWAP3 SWAP2 POP POP JUMP JUMPDEST DUP3 DUP1 SLOAD PUSH2 0x1F51 SWAP1 PUSH2 0x265C JUMP JUMPDEST SWAP1 PUSH1 0x0 MSTORE PUSH1 0x20 PUSH1 0x0 KECCAK256 SWAP1 PUSH1 0x1F ADD PUSH1 0x20 SWAP1 DIV DUP2 ADD SWAP3 DUP3 PUSH2 0x1F73 JUMPI PUSH1 0x0 DUP6 SSTORE PUSH2 0x1FB9 JUMP JUMPDEST DUP3 PUSH1 0x1F LT PUSH2 0x1F8C JUMPI DUP1 MLOAD PUSH1 0xFF NOT AND DUP4 DUP1 ADD OR DUP6 SSTORE PUSH2 0x1FB9 JUMP JUMPDEST DUP3 DUP1 ADD PUSH1 0x1 ADD DUP6 SSTORE DUP3 ISZERO PUSH2 0x1FB9 JUMPI SWAP2 DUP3 ADD JUMPDEST DUP3 DUP2 GT ISZERO PUSH2 0x1FB9 JUMPI DUP3 MLOAD DUP3 SSTORE SWAP2 PUSH1 0x20 ADD SWAP2 SWAP1 PUSH1 0x1 ADD SWAP1 PUSH2 0x1F9E JUMP JUMPDEST POP PUSH2 0x1FC5 SWAP3 SWAP2 POP PUSH2 0x20A8 JUMP JUMPDEST POP SWAP1 JUMP JUMPDEST DUP3 DUP1 SLOAD DUP3 DUP3 SSTORE SWAP1 PUSH1 0x0 MSTORE PUSH1 0x20 PUSH1 0x0 KECCAK256 SWAP1 DUP2 ADD SWAP3 DUP3 ISZERO PUSH2 0x1FB9 JUMPI SWAP2 PUSH1 0x20 MUL DUP3 ADD JUMPDEST DUP3 DUP2 GT ISZERO PUSH2 0x1FB9 JUMPI DUP2 SLOAD PUSH32 0xFFFFFFFFFFFFFFFFFFFFFFFF0000000000000000000000000000000000000000 AND PUSH1 0x1 PUSH1 0x1 PUSH1 0xA0 SHL SUB DUP5 CALLDATALOAD AND OR DUP3 SSTORE PUSH1 0x20 SWAP1 SWAP3 ADD SWAP2 PUSH1 0x1 SWAP1 SWAP2 ADD SWAP1 PUSH2 0x1FE9 JUMP JUMPDEST DUP3 DUP1 SLOAD PUSH2 0x2040 SWAP1 PUSH2 0x265C JUMP JUMPDEST SWAP1 PUSH1 0x0 MSTORE PUSH1 0x20 PUSH1 0x0 KECCAK256 SWAP1 PUSH1 0x1F ADD PUSH1 0x20 SWAP1 DIV DUP2 ADD SWAP3 DUP3 PUSH2 0x2062 JUMPI PUSH1 0x0 DUP6 SSTORE PUSH2 0x1FB9 JUMP JUMPDEST DUP3 PUSH1 0x1F LT PUSH2 0x207B JUMPI DUP3 DUP1 ADD PUSH1 0xFF NOT DUP3 CALLDATALOAD AND OR DUP6 SSTORE PUSH2 0x1FB9 JUMP JUMPDEST DUP3 DUP1 ADD PUSH1 0x1 ADD DUP6 SSTORE DUP3 ISZERO PUSH2 0x1FB9 JUMPI SWAP2 DUP3 ADD JUMPDEST DUP3 DUP2 GT ISZERO PUSH2 0x1FB9 JUMPI DUP3 CALLDATALOAD DUP3 SSTORE SWAP2 PUSH1 0x20 ADD SWAP2 SWAP1 PUSH1 0x1 ADD SWAP1 PUSH2 0x208D JUMP JUMPDEST JUMPDEST DUP1 DUP3 GT ISZERO PUSH2 0x1FC5 JUMPI PUSH1 0x0 DUP2 SSTORE PUSH1 0x1 ADD PUSH2 0x20A9 JUMP JUMPDEST PUSH1 0x1 PUSH1 0x1 PUSH1 0xA0 SHL SUB DUP2 AND DUP2 EQ PUSH2 0x20D2 JUMPI PUSH1 0x0 DUP1 REVERT JUMPDEST POP JUMP JUMPDEST DUP1 CALLDATALOAD PUSH2 0x20E0 DUP2 PUSH2 0x20BD JUMP JUMPDEST SWAP2 SWAP1 POP JUMP JUMPDEST PUSH1 0x0 PUSH1 0x20 DUP3 DUP5 SUB SLT ISZERO PUSH2 0x20F7 JUMPI PUSH1 0x0 DUP1 REVERT JUMPDEST DUP2 CALLDATALOAD PUSH2 0x44A DUP2 PUSH2 0x20BD JUMP JUMPDEST DUP1 ISZERO ISZERO DUP2 EQ PUSH2 0x20D2 JUMPI PUSH1 0x0 DUP1 REVERT JUMPDEST DUP1 CALLDATALOAD PUSH2 0x20E0 DUP2 PUSH2 0x2102 JUMP JUMPDEST PUSH1 0x0 DUP1 PUSH1 0x0 DUP1 PUSH1 0x80 DUP6 DUP8 SUB SLT ISZERO PUSH2 0x2131 JUMPI PUSH1 0x0 DUP1 REVERT JUMPDEST DUP5 CALLDATALOAD PUSH2 0x213C DUP2 PUSH2 0x20BD JUMP JUMPDEST SWAP4 POP PUSH1 0x20 DUP6 ADD CALLDATALOAD SWAP3 POP PUSH1 0x40 DUP6 ADD CALLDATALOAD PUSH2 0x2153 DUP2 PUSH2 0x20BD JUMP JUMPDEST SWAP2 POP PUSH1 0x60 DUP6 ADD CALLDATALOAD PUSH2 0x2163 DUP2 PUSH2 0x2102 JUMP JUMPDEST SWAP4 SWAP7 SWAP3 SWAP6 POP SWAP1 SWAP4 POP POP JUMP JUMPDEST PUSH1 0x0 JUMPDEST DUP4 DUP2 LT ISZERO PUSH2 0x2189 JUMPI DUP2 DUP2 ADD MLOAD DUP4 DUP3 ADD MSTORE PUSH1 0x20 ADD PUSH2 0x2171 JUMP JUMPDEST DUP4 DUP2 GT ISZERO PUSH2 0x1F06 JUMPI POP POP PUSH1 0x0 SWAP2 ADD MSTORE JUMP JUMPDEST PUSH1 0x0 DUP2 MLOAD DUP1 DUP5 MSTORE PUSH2 0x21B2 DUP2 PUSH1 0x20 DUP7 ADD PUSH1 0x20 DUP7 ADD PUSH2 0x216E JUMP JUMPDEST PUSH1 0x1F ADD PUSH1 0x1F NOT AND SWAP3 SWAP1 SWAP3 ADD PUSH1 0x20 ADD SWAP3 SWAP2 POP POP JUMP JUMPDEST PUSH1 0x20 DUP2 MSTORE PUSH1 0x0 PUSH2 0x44A PUSH1 0x20 DUP4 ADD DUP5 PUSH2 0x219A JUMP JUMPDEST PUSH1 0x0 DUP2 MLOAD DUP1 DUP5 MSTORE PUSH1 0x20 DUP1 DUP6 ADD SWAP5 POP DUP1 DUP5 ADD PUSH1 0x0 JUMPDEST DUP4 DUP2 LT ISZERO PUSH2 0x2212 JUMPI DUP2 MLOAD PUSH1 0x1 PUSH1 0x1 PUSH1 0xA0 SHL SUB AND DUP8 MSTORE SWAP6 DUP3 ADD SWAP6 SWAP1 DUP3 ADD SWAP1 PUSH1 0x1 ADD PUSH2 0x21ED JUMP JUMPDEST POP SWAP5 SWAP6 SWAP5 POP POP POP POP POP JUMP JUMPDEST PUSH1 0x20 DUP2 MSTORE PUSH1 0x0 PUSH2 0x44A PUSH1 0x20 DUP4 ADD DUP5 PUSH2 0x21D9 JUMP JUMPDEST PUSH1 0x0 DUP1 PUSH1 0x40 DUP4 DUP6 SUB SLT ISZERO PUSH2 0x2243 JUMPI PUSH1 0x0 DUP1 REVERT JUMPDEST DUP3 CALLDATALOAD PUSH2 0x224E DUP2 PUSH2 0x20BD JUMP JUMPDEST SWAP5 PUSH1 0x20 SWAP4 SWAP1 SWAP4 ADD CALLDATALOAD SWAP4 POP POP POP JUMP JUMPDEST PUSH1 0xE0 DUP2 MSTORE PUSH1 0x0 PUSH2 0x226F PUSH1 0xE0 DUP4 ADD DUP11 PUSH2 0x21D9 JUMP JUMPDEST PUSH1 0x1 PUSH1 0x1 PUSH1 0xA0 SHL SUB DUP10 AND PUSH1 0x20 DUP5 ADD MSTORE DUP8 ISZERO ISZERO PUSH1 0x40 DUP5 ADD MSTORE DUP3 DUP2 SUB PUSH1 0x60 DUP5 ADD MSTORE PUSH2 0x2298 DUP2 DUP9 PUSH2 0x219A JUMP JUMPDEST SWAP1 POP DUP3 DUP2 SUB PUSH1 0x80 DUP5 ADD MSTORE PUSH2 0x22AC DUP2 DUP8 PUSH2 0x219A JUMP JUMPDEST SWAP1 POP DUP3 DUP2 SUB PUSH1 0xA0 DUP5 ADD MSTORE PUSH2 0x22C0 DUP2 DUP7 PUSH2 0x219A JUMP JUMPDEST SWAP1 POP DUP3 DUP2 SUB PUSH1 0xC0 DUP5 ADD MSTORE PUSH2 0x22D4 DUP2 DUP6 PUSH2 0x219A JUMP JUMPDEST SWAP11 SWAP10 POP POP POP POP POP POP POP POP POP POP JUMP JUMPDEST PUSH1 0x0 DUP1 DUP4 PUSH1 0x1F DUP5 ADD SLT PUSH2 0x22F4 JUMPI PUSH1 0x0 DUP1 REVERT JUMPDEST POP DUP2 CALLDATALOAD PUSH8 0xFFFFFFFFFFFFFFFF DUP2 GT ISZERO PUSH2 0x230C JUMPI PUSH1 0x0 DUP1 REVERT JUMPDEST PUSH1 0x20 DUP4 ADD SWAP2 POP DUP4 PUSH1 0x20 DUP3 PUSH1 0x5 SHL DUP6 ADD ADD GT ISZERO PUSH2 0x2327 JUMPI PUSH1 0x0 DUP1 REVERT JUMPDEST SWAP3 POP SWAP3 SWAP1 POP JUMP JUMPDEST PUSH4 0x4E487B71 PUSH1 0xE0 SHL PUSH1 0x0 MSTORE PUSH1 0x41 PUSH1 0x4 MSTORE PUSH1 0x24 PUSH1 0x0 REVERT JUMPDEST PUSH1 0x40 MLOAD PUSH2 0x1E0 DUP2 ADD PUSH8 0xFFFFFFFFFFFFFFFF DUP2 GT DUP3 DUP3 LT OR ISZERO PUSH2 0x2368 JUMPI PUSH2 0x2368 PUSH2 0x232E JUMP JUMPDEST PUSH1 0x40 MSTORE SWAP1 JUMP JUMPDEST PUSH1 0x0 DUP3 PUSH1 0x1F DUP4 ADD SLT PUSH2 0x237F JUMPI PUSH1 0x0 DUP1 REVERT JUMPDEST DUP2 CALLDATALOAD PUSH8 0xFFFFFFFFFFFFFFFF DUP1 DUP3 GT ISZERO PUSH2 0x239A JUMPI PUSH2 0x239A PUSH2 0x232E JUMP JUMPDEST PUSH1 0x40 MLOAD PUSH1 0x1F DUP4 ADD PUSH1 0x1F NOT SWAP1 DUP2 AND PUSH1 0x3F ADD AND DUP2 ADD SWAP1 DUP3 DUP3 GT DUP2 DUP4 LT OR ISZERO PUSH2 0x23C2 JUMPI PUSH2 0x23C2 PUSH2 0x232E JUMP JUMPDEST DUP2 PUSH1 0x40 MSTORE DUP4 DUP2 MSTORE DUP7 PUSH1 0x20 DUP6 DUP9 ADD ADD GT ISZERO PUSH2 0x23DB JUMPI PUSH1 0x0 DUP1 REVERT JUMPDEST DUP4 PUSH1 0x20 DUP8 ADD PUSH1 0x20 DUP4 ADD CALLDATACOPY PUSH1 0x0 PUSH1 0x20 DUP6 DUP4 ADD ADD MSTORE DUP1 SWAP5 POP POP POP POP POP SWAP3 SWAP2 POP POP JUMP JUMPDEST PUSH1 0x0 DUP1 PUSH1 0x0 DUP1 PUSH1 0x0 DUP1 PUSH1 0x0 DUP1 PUSH1 0x0 DUP1 PUSH1 0x0 PUSH2 0x140 DUP13 DUP15 SUB SLT ISZERO PUSH2 0x241D JUMPI PUSH1 0x0 DUP1 REVERT JUMPDEST PUSH8 0xFFFFFFFFFFFFFFFF DUP1 DUP14 CALLDATALOAD GT ISZERO PUSH2 0x2434 JUMPI PUSH1 0x0 DUP1 REVERT JUMPDEST PUSH2 0x2441 DUP15 DUP15 CALLDATALOAD DUP16 ADD PUSH2 0x22E2 JUMP JUMPDEST SWAP1 SWAP13 POP SWAP11 POP PUSH1 0x20 DUP14 ADD CALLDATALOAD DUP2 LT ISZERO PUSH2 0x2457 JUMPI PUSH1 0x0 DUP1 REVERT JUMPDEST PUSH2 0x2467 DUP15 PUSH1 0x20 DUP16 ADD CALLDATALOAD DUP16 ADD PUSH2 0x236E JUMP JUMPDEST SWAP10 POP DUP1 PUSH1 0x40 DUP15 ADD CALLDATALOAD GT ISZERO PUSH2 0x247A JUMPI PUSH1 0x0 DUP1 REVERT JUMPDEST PUSH2 0x248A DUP15 PUSH1 0x40 DUP16 ADD CALLDATALOAD DUP16 ADD PUSH2 0x236E JUMP JUMPDEST SWAP9 POP DUP1 PUSH1 0x60 DUP15 ADD CALLDATALOAD GT ISZERO PUSH2 0x249D JUMPI PUSH1 0x0 DUP1 REVERT JUMPDEST PUSH2 0x24AD DUP15 PUSH1 0x60 DUP16 ADD CALLDATALOAD DUP16 ADD PUSH2 0x236E JUMP JUMPDEST SWAP8 POP DUP1 PUSH1 0x80 DUP15 ADD CALLDATALOAD GT ISZERO PUSH2 0x24C0 JUMPI PUSH1 0x0 DUP1 REVERT JUMPDEST POP PUSH2 0x24D1 DUP14 PUSH1 0x80 DUP15 ADD CALLDATALOAD DUP15 ADD PUSH2 0x236E JUMP JUMPDEST SWAP6 POP PUSH2 0x24DF PUSH1 0xA0 DUP14 ADD PUSH2 0x20D5 JUMP JUMPDEST SWAP5 POP PUSH2 0x24ED PUSH1 0xC0 DUP14 ADD PUSH2 0x20D5 JUMP JUMPDEST SWAP4 POP PUSH2 0x24FB PUSH1 0xE0 DUP14 ADD PUSH2 0x20D5 JUMP JUMPDEST SWAP3 POP PUSH2 0x250A PUSH2 0x100 DUP14 ADD PUSH2 0x20D5 JUMP JUMPDEST SWAP2 POP PUSH2 0x2519 PUSH2 0x120 DUP14 ADD PUSH2 0x2110 JUMP JUMPDEST SWAP1 POP SWAP3 SWAP6 SWAP9 SWAP12 POP SWAP3 SWAP6 SWAP9 SWAP12 SWAP1 SWAP4 SWAP7 SWAP10 POP JUMP JUMPDEST PUSH1 0x0 DUP1 PUSH1 0x20 DUP4 DUP6 SUB SLT ISZERO PUSH2 0x253E JUMPI PUSH1 0x0 DUP1 REVERT JUMPDEST DUP3 CALLDATALOAD PUSH8 0xFFFFFFFFFFFFFFFF DUP1 DUP3 GT ISZERO PUSH2 0x2556 JUMPI PUSH1 0x0 DUP1 REVERT JUMPDEST DUP2 DUP6 ADD SWAP2 POP DUP6 PUSH1 0x1F DUP4 ADD SLT PUSH2 0x256A JUMPI PUSH1 0x0 DUP1 REVERT JUMPDEST DUP2 CALLDATALOAD DUP2 DUP2 GT ISZERO PUSH2 0x2579 JUMPI PUSH1 0x0 DUP1 REVERT JUMPDEST DUP7 PUSH1 0x20 DUP3 DUP6 ADD ADD GT ISZERO PUSH2 0x258B JUMPI PUSH1 0x0 DUP1 REVERT JUMPDEST PUSH1 0x20 SWAP3 SWAP1 SWAP3 ADD SWAP7 SWAP2 SWAP6 POP SWAP1 SWAP4 POP POP POP POP JUMP JUMPDEST PUSH1 0x0 DUP1 PUSH1 0x0 DUP1 PUSH1 0x80 DUP6 DUP8 SUB SLT ISZERO PUSH2 0x25B3 JUMPI PUSH1 0x0 DUP1 REVERT JUMPDEST DUP5 CALLDATALOAD PUSH2 0x25BE DUP2 PUSH2 0x20BD JUMP JUMPDEST SWAP4 POP PUSH1 0x20 DUP6 ADD CALLDATALOAD PUSH2 0x25CE DUP2 PUSH2 0x20BD JUMP JUMPDEST SWAP3 POP PUSH1 0x40 DUP6 ADD CALLDATALOAD PUSH2 0x25DE DUP2 PUSH2 0x2102 JUMP JUMPDEST SWAP4 SWAP7 SWAP3 SWAP6 POP SWAP3 SWAP4 PUSH1 0x60 ADD CALLDATALOAD SWAP3 POP POP JUMP JUMPDEST PUSH1 0x0 PUSH1 0x20 DUP3 DUP5 SUB SLT ISZERO PUSH2 0x2600 JUMPI PUSH1 0x0 DUP1 REVERT JUMPDEST POP MLOAD SWAP2 SWAP1 POP JUMP JUMPDEST DUP1 MLOAD PUSH2 0x20E0 DUP2 PUSH2 0x20BD JUMP JUMPDEST PUSH1 0x0 PUSH1 0x20 DUP3 DUP5 SUB SLT ISZERO PUSH2 0x2624 JUMPI PUSH1 0x0 DUP1 REVERT JUMPDEST DUP2 MLOAD PUSH2 0x44A DUP2 PUSH2 0x20BD JUMP JUMPDEST PUSH4 0x4E487B71 PUSH1 0xE0 SHL PUSH1 0x0 MSTORE PUSH1 0x11 PUSH1 0x4 MSTORE PUSH1 0x24 PUSH1 0x0 REVERT JUMPDEST PUSH1 0x0 DUP3 DUP3 LT ISZERO PUSH2 0x2657 JUMPI PUSH2 0x2657 PUSH2 0x262F JUMP JUMPDEST POP SUB SWAP1 JUMP JUMPDEST PUSH1 0x1 DUP2 DUP2 SHR SWAP1 DUP3 AND DUP1 PUSH2 0x2670 JUMPI PUSH1 0x7F DUP3 AND SWAP2 POP JUMPDEST PUSH1 0x20 DUP3 LT DUP2 EQ ISZERO PUSH2 0x2691 JUMPI PUSH4 0x4E487B71 PUSH1 0xE0 SHL PUSH1 0x0 MSTORE PUSH1 0x22 PUSH1 0x4 MSTORE PUSH1 0x24 PUSH1 0x0 REVERT JUMPDEST POP SWAP2 SWAP1 POP JUMP JUMPDEST PUSH4 0x4E487B71 PUSH1 0xE0 SHL PUSH1 0x0 MSTORE PUSH1 0x32 PUSH1 0x4 MSTORE PUSH1 0x24 PUSH1 0x0 REVERT JUMPDEST PUSH1 0x0 PUSH1 0xFF DUP3 AND PUSH1 0xFF DUP2 EQ ISZERO PUSH2 0x26C4 JUMPI PUSH2 0x26C4 PUSH2 0x262F JUMP JUMPDEST PUSH1 0x1 ADD SWAP3 SWAP2 POP POP JUMP JUMPDEST PUSH1 0x0 DUP3 NOT DUP3 GT ISZERO PUSH2 0x26E0 JUMPI PUSH2 0x26E0 PUSH2 0x262F JUMP JUMPDEST POP ADD SWAP1 JUMP JUMPDEST PUSH1 0x0 PUSH1 0x20 DUP3 DUP5 SUB SLT ISZERO PUSH2 0x26F7 JUMPI PUSH1 0x0 DUP1 REVERT JUMPDEST PUSH1 0x40 MLOAD PUSH1 0x20 DUP2 ADD DUP2 DUP2 LT PUSH8 0xFFFFFFFFFFFFFFFF DUP3 GT OR ISZERO PUSH2 0x271A JUMPI PUSH2 0x271A PUSH2 0x232E JUMP JUMPDEST PUSH1 0x40 MSTORE SWAP2 MLOAD DUP3 MSTORE POP SWAP2 SWAP1 POP JUMP JUMPDEST DUP1 MLOAD PUSH16 0xFFFFFFFFFFFFFFFFFFFFFFFFFFFFFFFF DUP2 AND DUP2 EQ PUSH2 0x20E0 JUMPI PUSH1 0x0 DUP1 REVERT JUMPDEST DUP1 MLOAD PUSH5 0xFFFFFFFFFF DUP2 AND DUP2 EQ PUSH2 0x20E0 JUMPI PUSH1 0x0 DUP1 REVERT JUMPDEST DUP1 MLOAD PUSH2 0xFFFF DUP2 AND DUP2 EQ PUSH2 0x20E0 JUMPI PUSH1 0x0 DUP1 REVERT JUMPDEST PUSH1 0x0 PUSH2 0x1E0 DUP3 DUP5 SUB SLT ISZERO PUSH2 0x2781 JUMPI PUSH1 0x0 DUP1 REVERT JUMPDEST PUSH2 0x2789 PUSH2 0x2344 JUMP JUMPDEST PUSH2 0x2793 DUP5 DUP5 PUSH2 0x26E5 JUMP JUMPDEST DUP2 MSTORE PUSH2 0x27A1 PUSH1 0x20 DUP5 ADD PUSH2 0x2727 JUMP JUMPDEST PUSH1 0x20 DUP3 ADD MSTORE PUSH2 0x27B2 PUSH1 0x40 DUP5 ADD PUSH2 0x2727 JUMP JUMPDEST PUSH1 0x40 DUP3 ADD MSTORE PUSH2 0x27C3 PUSH1 0x60 DUP5 ADD PUSH2 0x2727 JUMP JUMPDEST PUSH1 0x60 DUP3 ADD MSTORE PUSH2 0x27D4 PUSH1 0x80 DUP5 ADD PUSH2 0x2727 JUMP JUMPDEST PUSH1 0x80 DUP3 ADD MSTORE PUSH2 0x27E5 PUSH1 0xA0 DUP5 ADD PUSH2 0x2727 JUMP JUMPDEST PUSH1 0xA0 DUP3 ADD MSTORE PUSH2 0x27F6 PUSH1 0xC0 DUP5 ADD PUSH2 0x2747 JUMP JUMPDEST PUSH1 0xC0 DUP3 ADD MSTORE PUSH2 0x2807 PUSH1 0xE0 DUP5 ADD PUSH2 0x275C JUMP JUMPDEST PUSH1 0xE0 DUP3 ADD MSTORE PUSH2 0x100 PUSH2 0x281A DUP2 DUP6 ADD PUSH2 0x2607 JUMP JUMPDEST SWAP1 DUP3 ADD MSTORE PUSH2 0x120 PUSH2 0x282C DUP5 DUP3 ADD PUSH2 0x2607 JUMP JUMPDEST SWAP1 DUP3 ADD MSTORE PUSH2 0x140 PUSH2 0x283E DUP5 DUP3 ADD PUSH2 0x2607 JUMP JUMPDEST SWAP1 DUP3 ADD MSTORE PUSH2 0x160 PUSH2 0x2850 DUP5 DUP3 ADD PUSH2 0x2607 JUMP JUMPDEST SWAP1 DUP3 ADD MSTORE PUSH2 0x180 PUSH2 0x2862 DUP5 DUP3 ADD PUSH2 0x2727 JUMP JUMPDEST SWAP1 DUP3 ADD MSTORE PUSH2 0x1A0 PUSH2 0x2874 DUP5 DUP3 ADD PUSH2 0x2727 JUMP JUMPDEST SWAP1 DUP3 ADD MSTORE PUSH2 0x1C0 PUSH2 0x2886 DUP5 DUP3 ADD PUSH2 0x2727 JUMP JUMPDEST SWAP1 DUP3 ADD MSTORE SWAP4 SWAP3 POP POP POP JUMP JUMPDEST PUSH1 0x0 DUP2 PUSH1 0x0 NOT DIV DUP4 GT DUP3 ISZERO ISZERO AND ISZERO PUSH2 0x28AB JUMPI PUSH2 0x28AB PUSH2 0x262F JUMP JUMPDEST POP MUL SWAP1 JUMP JUMPDEST PUSH1 0x0 DUP3 PUSH2 0x28CD JUMPI PUSH4 0x4E487B71 PUSH1 0xE0 SHL PUSH1 0x0 MSTORE PUSH1 0x12 PUSH1 0x4 MSTORE PUSH1 0x24 PUSH1 0x0 REVERT JUMPDEST POP DIV SWAP1 JUMP JUMPDEST PUSH1 0x0 DUP3 MLOAD PUSH2 0x28E4 DUP2 DUP5 PUSH1 0x20 DUP8 ADD PUSH2 0x216E JUMP JUMPDEST SWAP2 SWAP1 SWAP2 ADD SWAP3 SWAP2 POP POP JUMP JUMPDEST PUSH1 0x0 PUSH1 0x20 DUP3 DUP5 SUB SLT ISZERO PUSH2 0x2900 JUMPI PUSH1 0x0 DUP1 REVERT JUMPDEST DUP2 MLOAD PUSH2 0x44A DUP2 PUSH2 0x2102 JUMP INVALID LOG2 PUSH5 0x6970667358 0x22 SLT KECCAK256 PUSH22 0xC6A3010F94A50F5CE256D34D1125A1AEBDA7BBDF360A 0xE 0xA9 0xD4 PUSH32 0xE3DFE7DE3F64736F6C63430008090033608060405234801561001057600080FD JUMPDEST POP PUSH2 0x234B DUP1 PUSH2 0x20 PUSH1 0x0 CODECOPY PUSH1 0x0 RETURN INVALID PUSH1 0x80 PUSH1 0x40 MSTORE CALLVALUE DUP1 ISZERO PUSH2 0x10 JUMPI PUSH1 0x0 DUP1 REVERT JUMPDEST POP PUSH1 0x4 CALLDATASIZE LT PUSH2 0x16C JUMPI PUSH1 0x0 CALLDATALOAD PUSH1 0xE0 SHR DUP1 PUSH4 0x519DC8D2 GT PUSH2 0xCD JUMPI DUP1 PUSH4 0xA22CB465 GT PUSH2 0x81 JUMPI DUP1 PUSH4 0xC4D66DE8 GT PUSH2 0x66 JUMPI DUP1 PUSH4 0xC4D66DE8 EQ PUSH2 0x327 JUMPI DUP1 PUSH4 0xC87B56DD EQ PUSH2 0x33A JUMPI DUP1 PUSH4 0xE985E9C5 EQ PUSH2 0x34D JUMPI PUSH1 0x0 DUP1 REVERT JUMPDEST DUP1 PUSH4 0xA22CB465 EQ PUSH2 0x301 JUMPI DUP1 PUSH4 0xB88D4FDE EQ PUSH2 0x314 JUMPI PUSH1 0x0 DUP1 REVERT JUMPDEST DUP1 PUSH4 0x6352211E GT PUSH2 0xB2 JUMPI DUP1 PUSH4 0x6352211E EQ PUSH2 0x2D3 JUMPI DUP1 PUSH4 0x70A08231 EQ PUSH2 0x2E6 JUMPI DUP1 PUSH4 0x95D89B41 EQ PUSH2 0x2F9 JUMPI PUSH1 0x0 DUP1 REVERT JUMPDEST DUP1 PUSH4 0x519DC8D2 EQ PUSH2 0x275 JUMPI DUP1 PUSH4 0x5328C2BF EQ PUSH2 0x295 JUMPI PUSH1 0x0 DUP1 REVERT JUMPDEST DUP1 PUSH4 0x23B872DD GT PUSH2 0x124 JUMPI DUP1 PUSH4 0x2E0C3F3C GT PUSH2 0x109 JUMPI DUP1 PUSH4 0x2E0C3F3C EQ PUSH2 0x221 JUMPI DUP1 PUSH4 0x42842E0E EQ PUSH2 0x24F JUMPI DUP1 PUSH4 0x47C6B45E EQ PUSH2 0x262 JUMPI PUSH1 0x0 DUP1 REVERT JUMPDEST DUP1 PUSH4 0x23B872DD EQ PUSH2 0x1FB JUMPI DUP1 PUSH4 0x26A45FFB EQ PUSH2 0x20E JUMPI PUSH1 0x0 DUP1 REVERT JUMPDEST DUP1 PUSH4 0x6FDDE03 GT PUSH2 0x155 JUMPI DUP1 PUSH4 0x6FDDE03 EQ PUSH2 0x1BE JUMPI DUP1 PUSH4 0x81812FC EQ PUSH2 0x1D3 JUMPI DUP1 PUSH4 0x95EA7B3 EQ PUSH2 0x1E6 JUMPI PUSH1 0x0 DUP1 REVERT JUMPDEST DUP1 PUSH4 0x1FFC9A7 EQ PUSH2 0x171 JUMPI DUP1 PUSH4 0x26B1D5F EQ PUSH2 0x199 JUMPI JUMPDEST PUSH1 0x0 DUP1 REVERT JUMPDEST PUSH2 0x184 PUSH2 0x17F CALLDATASIZE PUSH1 0x4 PUSH2 0x1D4F JUMP JUMPDEST PUSH2 0x389 JUMP JUMPDEST PUSH1 0x40 MLOAD SWAP1 ISZERO ISZERO DUP2 MSTORE PUSH1 0x20 ADD JUMPDEST PUSH1 0x40 MLOAD DUP1 SWAP2 SUB SWAP1 RETURN JUMPDEST PUSH1 0xC9 SLOAD PUSH1 0x1 PUSH1 0x1 PUSH1 0xA0 SHL SUB AND JUMPDEST PUSH1 0x40 MLOAD PUSH1 0x1 PUSH1 0x1 PUSH1 0xA0 SHL SUB SWAP1 SWAP2 AND DUP2 MSTORE PUSH1 0x20 ADD PUSH2 0x190 JUMP JUMPDEST PUSH2 0x1C6 PUSH2 0x3CD JUMP JUMPDEST PUSH1 0x40 MLOAD PUSH2 0x190 SWAP2 SWAP1 PUSH2 0x1DC4 JUMP JUMPDEST PUSH2 0x1A6 PUSH2 0x1E1 CALLDATASIZE PUSH1 0x4 PUSH2 0x1DD7 JUMP JUMPDEST PUSH2 0x45F JUMP JUMPDEST PUSH2 0x1F9 PUSH2 0x1F4 CALLDATASIZE PUSH1 0x4 PUSH2 0x1E05 JUMP JUMPDEST PUSH2 0x486 JUMP JUMPDEST STOP JUMPDEST PUSH2 0x1F9 PUSH2 0x209 CALLDATASIZE PUSH1 0x4 PUSH2 0x1E31 JUMP JUMPDEST PUSH2 0x5BD JUMP JUMPDEST PUSH2 0x184 PUSH2 0x21C CALLDATASIZE PUSH1 0x4 PUSH2 0x1E72 JUMP JUMPDEST PUSH2 0x634 JUMP JUMPDEST PUSH2 0x241 PUSH2 0x22F CALLDATASIZE PUSH1 0x4 PUSH2 0x1DD7 JUMP JUMPDEST PUSH1 0x0 SWAP1 DUP2 MSTORE PUSH1 0xCB PUSH1 0x20 MSTORE PUSH1 0x40 SWAP1 KECCAK256 SLOAD SWAP1 JUMP JUMPDEST PUSH1 0x40 MLOAD SWAP1 DUP2 MSTORE PUSH1 0x20 ADD PUSH2 0x190 JUMP JUMPDEST PUSH2 0x1F9 PUSH2 0x25D CALLDATASIZE PUSH1 0x4 PUSH2 0x1E31 JUMP JUMPDEST PUSH2 0x7D1 JUMP JUMPDEST PUSH2 0x1F9 PUSH2 0x270 CALLDATASIZE PUSH1 0x4 PUSH2 0x1F1C JUMP JUMPDEST PUSH2 0x7EC JUMP JUMPDEST PUSH2 0x288 PUSH2 0x283 CALLDATASIZE PUSH1 0x4 PUSH2 0x1F5E JUMP JUMPDEST PUSH2 0x97F JUMP JUMPDEST PUSH1 0x40 MLOAD PUSH2 0x190 SWAP2 SWAP1 PUSH2 0x1F7B JUMP JUMPDEST PUSH2 0x2A8 PUSH2 0x2A3 CALLDATASIZE PUSH1 0x4 PUSH2 0x1DD7 JUMP JUMPDEST PUSH2 0xB46 JUMP JUMPDEST PUSH1 0x40 DUP1 MLOAD DUP3 MLOAD DUP2 MSTORE PUSH1 0x20 DUP1 DUP5 ADD MLOAD SWAP1 DUP3 ADD MSTORE SWAP2 DUP2 ADD MLOAD PUSH1 0x1 PUSH1 0x1 PUSH1 0xA0 SHL SUB AND SWAP1 DUP3 ADD MSTORE PUSH1 0x60 ADD PUSH2 0x190 JUMP JUMPDEST PUSH2 0x1A6 PUSH2 0x2E1 CALLDATASIZE PUSH1 0x4 PUSH2 0x1DD7 JUMP JUMPDEST PUSH2 0xBB5 JUMP JUMPDEST PUSH2 0x241 PUSH2 0x2F4 CALLDATASIZE PUSH1 0x4 PUSH2 0x1F5E JUMP JUMPDEST PUSH2 0xC1A JUMP JUMPDEST PUSH2 0x1C6 PUSH2 0xCB4 JUMP JUMPDEST PUSH2 0x1F9 PUSH2 0x30F CALLDATASIZE PUSH1 0x4 PUSH2 0x1FBF JUMP JUMPDEST PUSH2 0xCC3 JUMP JUMPDEST PUSH2 0x1F9 PUSH2 0x322 CALLDATASIZE PUSH1 0x4 PUSH2 0x2044 JUMP JUMPDEST PUSH2 0xCD2 JUMP JUMPDEST PUSH2 0x1F9 PUSH2 0x335 CALLDATASIZE PUSH1 0x4 PUSH2 0x1F5E JUMP JUMPDEST PUSH2 0xD50 JUMP JUMPDEST PUSH2 0x1C6 PUSH2 0x348 CALLDATASIZE PUSH1 0x4 PUSH2 0x1DD7 JUMP JUMPDEST PUSH2 0xF06 JUMP JUMPDEST PUSH2 0x184 PUSH2 0x35B CALLDATASIZE PUSH1 0x4 PUSH2 0x2108 JUMP JUMPDEST PUSH1 0x1 PUSH1 0x1 PUSH1 0xA0 SHL SUB SWAP2 DUP3 AND PUSH1 0x0 SWAP1 DUP2 MSTORE PUSH1 0x6A PUSH1 0x20 SWAP1 DUP2 MSTORE PUSH1 0x40 DUP1 DUP4 KECCAK256 SWAP4 SWAP1 SWAP5 AND DUP3 MSTORE SWAP2 SWAP1 SWAP2 MSTORE KECCAK256 SLOAD PUSH1 0xFF AND SWAP1 JUMP JUMPDEST PUSH1 0x0 PUSH1 0x1 PUSH1 0x1 PUSH1 0xE0 SHL SUB NOT DUP3 AND PUSH32 0x4906490600000000000000000000000000000000000000000000000000000000 EQ DUP1 PUSH2 0x3C7 JUMPI POP PUSH2 0x3C7 DUP3 PUSH2 0xF11 JUMP JUMPDEST SWAP3 SWAP2 POP POP JUMP JUMPDEST PUSH1 0x60 PUSH1 0x65 DUP1 SLOAD PUSH2 0x3DC SWAP1 PUSH2 0x2136 JUMP JUMPDEST DUP1 PUSH1 0x1F ADD PUSH1 0x20 DUP1 SWAP2 DIV MUL PUSH1 0x20 ADD PUSH1 0x40 MLOAD SWAP1 DUP2 ADD PUSH1 0x40 MSTORE DUP1 SWAP3 SWAP2 SWAP1 DUP2 DUP2 MSTORE PUSH1 0x20 ADD DUP3 DUP1 SLOAD PUSH2 0x408 SWAP1 PUSH2 0x2136 JUMP JUMPDEST DUP1 ISZERO PUSH2 0x455 JUMPI DUP1 PUSH1 0x1F LT PUSH2 0x42A JUMPI PUSH2 0x100 DUP1 DUP4 SLOAD DIV MUL DUP4 MSTORE SWAP2 PUSH1 0x20 ADD SWAP2 PUSH2 0x455 JUMP JUMPDEST DUP3 ADD SWAP2 SWAP1 PUSH1 0x0 MSTORE PUSH1 0x20 PUSH1 0x0 KECCAK256 SWAP1 JUMPDEST DUP2 SLOAD DUP2 MSTORE SWAP1 PUSH1 0x1 ADD SWAP1 PUSH1 0x20 ADD DUP1 DUP4 GT PUSH2 0x438 JUMPI DUP3 SWAP1 SUB PUSH1 0x1F AND DUP3 ADD SWAP2 JUMPDEST POP POP POP POP POP SWAP1 POP SWAP1 JUMP JUMPDEST PUSH1 0x0 PUSH2 0x46A DUP3 PUSH2 0xFAC JUMP JUMPDEST POP PUSH1 0x0 SWAP1 DUP2 MSTORE PUSH1 0x69 PUSH1 0x20 MSTORE PUSH1 0x40 SWAP1 KECCAK256 SLOAD PUSH1 0x1 PUSH1 0x1 PUSH1 0xA0 SHL SUB AND SWAP1 JUMP JUMPDEST PUSH1 0x0 PUSH2 0x491 DUP3 PUSH2 0xBB5 JUMP JUMPDEST SWAP1 POP DUP1 PUSH1 0x1 PUSH1 0x1 PUSH1 0xA0 SHL SUB AND DUP4 PUSH1 0x1 PUSH1 0x1 PUSH1 0xA0 SHL SUB AND EQ ISZERO PUSH2 0x520 JUMPI PUSH1 0x40 MLOAD PUSH3 0x461BCD PUSH1 0xE5 SHL DUP2 MSTORE PUSH1 0x20 PUSH1 0x4 DUP3 ADD MSTORE PUSH1 0x21 PUSH1 0x24 DUP3 ADD MSTORE PUSH32 0x4552433732313A20617070726F76616C20746F2063757272656E74206F776E65 PUSH1 0x44 DUP3 ADD MSTORE PUSH32 0x7200000000000000000000000000000000000000000000000000000000000000 PUSH1 0x64 DUP3 ADD MSTORE PUSH1 0x84 ADD JUMPDEST PUSH1 0x40 MLOAD DUP1 SWAP2 SUB SWAP1 REVERT JUMPDEST CALLER PUSH1 0x1 PUSH1 0x1 PUSH1 0xA0 SHL SUB DUP3 AND EQ DUP1 PUSH2 0x53C JUMPI POP PUSH2 0x53C DUP2 CALLER PUSH2 0x35B JUMP JUMPDEST PUSH2 0x5AE JUMPI PUSH1 0x40 MLOAD PUSH3 0x461BCD PUSH1 0xE5 SHL DUP2 MSTORE PUSH1 0x20 PUSH1 0x4 DUP3 ADD MSTORE PUSH1 0x3D PUSH1 0x24 DUP3 ADD MSTORE PUSH32 0x4552433732313A20617070726F76652063616C6C6572206973206E6F7420746F PUSH1 0x44 DUP3 ADD MSTORE PUSH32 0x6B656E206F776E6572206F7220617070726F76656420666F7220616C6C000000 PUSH1 0x64 DUP3 ADD MSTORE PUSH1 0x84 ADD PUSH2 0x517 JUMP JUMPDEST PUSH2 0x5B8 DUP4 DUP4 PUSH2 0x1013 JUMP JUMPDEST POP POP POP JUMP JUMPDEST PUSH2 0x5C7 CALLER DUP3 PUSH2 0x1081 JUMP JUMPDEST PUSH2 0x629 JUMPI PUSH1 0x40 MLOAD PUSH3 0x461BCD PUSH1 0xE5 SHL DUP2 MSTORE PUSH1 0x20 PUSH1 0x4 DUP3 ADD MSTORE PUSH1 0x2D PUSH1 0x24 DUP3 ADD MSTORE PUSH32 0x4552433732313A2063616C6C6572206973206E6F7420746F6B656E206F776E65 PUSH1 0x44 DUP3 ADD MSTORE PUSH13 0x1C881BDC88185C1C1C9BDD9959 PUSH1 0x9A SHL PUSH1 0x64 DUP3 ADD MSTORE PUSH1 0x84 ADD PUSH2 0x517 JUMP JUMPDEST PUSH2 0x5B8 DUP4 DUP4 DUP4 PUSH2 0x1100 JUMP JUMPDEST PUSH1 0xCA SLOAD PUSH1 0x0 SWAP1 PUSH1 0x1 PUSH1 0x1 PUSH1 0xA0 SHL SUB AND CALLER EQ PUSH2 0x681 JUMPI PUSH1 0x40 MLOAD PUSH3 0x461BCD PUSH1 0xE5 SHL DUP2 MSTORE PUSH1 0x20 PUSH1 0x4 DUP3 ADD MSTORE PUSH1 0xD PUSH1 0x24 DUP3 ADD MSTORE PUSH13 0x3737BA103A34329037BBB732B9 PUSH1 0x99 SHL PUSH1 0x44 DUP3 ADD MSTORE PUSH1 0x64 ADD PUSH2 0x517 JUMP JUMPDEST PUSH1 0xC9 SLOAD PUSH1 0x40 DUP1 MLOAD PUSH12 0xFFFFFFFFFFFFFFFFFFFFFFFF NOT PUSH1 0x60 DUP12 DUP2 SHL DUP3 AND PUSH1 0x20 DUP1 DUP6 ADD SWAP2 SWAP1 SWAP2 MSTORE SWAP5 DUP2 SHL DUP3 AND PUSH1 0x34 DUP5 ADD MSTORE DUP9 SWAP1 SHL AND PUSH1 0x48 DUP3 ADD MSTORE DUP2 MLOAD DUP1 DUP3 SUB PUSH1 0x3C ADD DUP2 MSTORE PUSH1 0x5C SWAP1 SWAP2 ADD DUP3 MSTORE DUP1 MLOAD SWAP1 DUP4 ADD KECCAK256 PUSH1 0x0 DUP2 DUP2 MSTORE PUSH1 0x67 SWAP1 SWAP4 MSTORE SWAP1 DUP3 KECCAK256 SLOAD SWAP1 SWAP2 SWAP1 PUSH1 0x1 PUSH1 0x1 PUSH1 0xA0 SHL SUB AND ISZERO PUSH2 0x71F JUMPI PUSH1 0x0 DUP3 DUP2 MSTORE PUSH1 0xCB PUSH1 0x20 MSTORE PUSH1 0x40 DUP2 KECCAK256 PUSH1 0x1 DUP2 ADD DUP10 SWAP1 SSTORE DUP1 SLOAD DUP11 SWAP3 SWAP1 PUSH2 0x714 SWAP1 DUP5 SWAP1 PUSH2 0x2187 JUMP JUMPDEST SWAP1 SWAP2 SSTORE POP PUSH2 0x7C5 SWAP1 POP JUMP JUMPDEST PUSH1 0x40 DUP1 MLOAD PUSH1 0x60 DUP2 ADD DUP3 MSTORE DUP10 DUP2 MSTORE PUSH1 0x20 DUP1 DUP3 ADD DUP11 DUP2 MSTORE PUSH1 0x1 PUSH1 0x1 PUSH1 0xA0 SHL SUB DUP11 DUP2 AND DUP5 DUP7 ADD SWAP1 DUP2 MSTORE PUSH1 0x0 DUP9 DUP2 MSTORE PUSH1 0xCB SWAP1 SWAP5 MSTORE SWAP5 SWAP1 SWAP3 KECCAK256 SWAP3 MLOAD DUP4 SSTORE MLOAD PUSH1 0x1 DUP4 ADD SSTORE SWAP2 MLOAD PUSH1 0x2 SWAP1 SWAP2 ADD DUP1 SLOAD PUSH1 0x1 PUSH1 0x1 PUSH1 0xA0 SHL SUB NOT AND SWAP2 SWAP1 SWAP3 AND OR SWAP1 SSTORE PUSH2 0x781 DUP10 DUP4 PUSH2 0x1306 JUMP JUMPDEST PUSH2 0x7C1 DUP3 DUP7 DUP7 DUP1 DUP1 PUSH1 0x1F ADD PUSH1 0x20 DUP1 SWAP2 DIV MUL PUSH1 0x20 ADD PUSH1 0x40 MLOAD SWAP1 DUP2 ADD PUSH1 0x40 MSTORE DUP1 SWAP4 SWAP3 SWAP2 SWAP1 DUP2 DUP2 MSTORE PUSH1 0x20 ADD DUP4 DUP4 DUP1 DUP3 DUP5 CALLDATACOPY PUSH1 0x0 SWAP3 ADD SWAP2 SWAP1 SWAP2 MSTORE POP PUSH2 0x149F SWAP3 POP POP POP JUMP JUMPDEST POP PUSH1 0x1 JUMPDEST SWAP9 SWAP8 POP POP POP POP POP POP POP POP JUMP JUMPDEST PUSH2 0x5B8 DUP4 DUP4 DUP4 PUSH1 0x40 MLOAD DUP1 PUSH1 0x20 ADD PUSH1 0x40 MSTORE DUP1 PUSH1 0x0 DUP2 MSTORE POP PUSH2 0xCD2 JUMP JUMPDEST PUSH1 0xCA SLOAD PUSH1 0x1 PUSH1 0x1 PUSH1 0xA0 SHL SUB AND CALLER EQ PUSH2 0x836 JUMPI PUSH1 0x40 MLOAD PUSH3 0x461BCD PUSH1 0xE5 SHL DUP2 MSTORE PUSH1 0x20 PUSH1 0x4 DUP3 ADD MSTORE PUSH1 0xD PUSH1 0x24 DUP3 ADD MSTORE PUSH13 0x3737BA103A34329037BBB732B9 PUSH1 0x99 SHL PUSH1 0x44 DUP3 ADD MSTORE PUSH1 0x64 ADD PUSH2 0x517 JUMP JUMPDEST PUSH1 0xC9 SLOAD PUSH1 0x40 DUP1 MLOAD PUSH12 0xFFFFFFFFFFFFFFFFFFFFFFFF NOT PUSH1 0x60 DUP8 DUP2 SHL DUP3 AND PUSH1 0x20 DUP1 DUP6 ADD SWAP2 SWAP1 SWAP2 MSTORE SWAP5 DUP2 SHL DUP3 AND PUSH1 0x34 DUP5 ADD MSTORE DUP6 SWAP1 SHL AND PUSH1 0x48 DUP3 ADD MSTORE DUP2 MLOAD DUP1 DUP3 SUB PUSH1 0x3C ADD DUP2 MSTORE PUSH1 0x5C SWAP1 SWAP2 ADD DUP3 MSTORE DUP1 MLOAD SWAP1 DUP4 ADD KECCAK256 PUSH1 0x0 DUP2 DUP2 MSTORE PUSH1 0x67 SWAP1 SWAP4 MSTORE SWAP2 KECCAK256 SLOAD PUSH1 0x1 PUSH1 0x1 PUSH1 0xA0 SHL SUB AND PUSH2 0x8E7 JUMPI PUSH1 0x40 MLOAD PUSH3 0x461BCD PUSH1 0xE5 SHL DUP2 MSTORE PUSH1 0x20 PUSH1 0x4 DUP3 ADD MSTORE PUSH1 0x15 PUSH1 0x24 DUP3 ADD MSTORE PUSH32 0x746F6B656E496420646F65736E27742065786973740000000000000000000000 PUSH1 0x44 DUP3 ADD MSTORE PUSH1 0x64 ADD PUSH2 0x517 JUMP JUMPDEST PUSH1 0x0 DUP2 DUP2 MSTORE PUSH1 0xCB PUSH1 0x20 MSTORE PUSH1 0x40 SWAP1 KECCAK256 SLOAD DUP4 DUP2 LT ISZERO PUSH2 0x946 JUMPI PUSH1 0x40 MLOAD PUSH3 0x461BCD PUSH1 0xE5 SHL DUP2 MSTORE PUSH1 0x20 PUSH1 0x4 DUP3 ADD MSTORE PUSH1 0x14 PUSH1 0x24 DUP3 ADD MSTORE PUSH32 0x696E73756666696369656E742062616C616E6365000000000000000000000000 PUSH1 0x44 DUP3 ADD MSTORE PUSH1 0x64 ADD PUSH2 0x517 JUMP JUMPDEST PUSH2 0x950 DUP5 DUP3 PUSH2 0x219F JUMP JUMPDEST SWAP1 POP DUP1 PUSH2 0x96A JUMPI PUSH1 0x0 DUP3 DUP2 MSTORE PUSH1 0xCB PUSH1 0x20 MSTORE PUSH1 0x40 DUP2 KECCAK256 PUSH1 0x1 ADD SSTORE JUMPDEST PUSH1 0x0 SWAP2 DUP3 MSTORE PUSH1 0xCB PUSH1 0x20 MSTORE PUSH1 0x40 SWAP1 SWAP2 KECCAK256 SSTORE POP POP POP JUMP JUMPDEST PUSH1 0x60 PUSH1 0x0 PUSH1 0xC9 PUSH1 0x0 SWAP1 SLOAD SWAP1 PUSH2 0x100 EXP SWAP1 DIV PUSH1 0x1 PUSH1 0x1 PUSH1 0xA0 SHL SUB AND PUSH1 0x1 PUSH1 0x1 PUSH1 0xA0 SHL SUB AND PUSH4 0x2F757006 PUSH1 0x40 MLOAD DUP2 PUSH4 0xFFFFFFFF AND PUSH1 0xE0 SHL DUP2 MSTORE PUSH1 0x4 ADD PUSH1 0x0 PUSH1 0x40 MLOAD DUP1 DUP4 SUB DUP2 DUP7 DUP1 EXTCODESIZE ISZERO DUP1 ISZERO PUSH2 0x9D1 JUMPI PUSH1 0x0 DUP1 REVERT JUMPDEST POP GAS STATICCALL ISZERO DUP1 ISZERO PUSH2 0x9E5 JUMPI RETURNDATASIZE PUSH1 0x0 DUP1 RETURNDATACOPY RETURNDATASIZE PUSH1 0x0 REVERT JUMPDEST POP POP POP POP PUSH1 0x40 MLOAD RETURNDATASIZE PUSH1 0x0 DUP3 RETURNDATACOPY PUSH1 0x1F RETURNDATASIZE SWAP1 DUP2 ADD PUSH1 0x1F NOT AND DUP3 ADD PUSH1 0x40 MSTORE PUSH2 0xA0D SWAP2 SWAP1 DUP2 ADD SWAP1 PUSH2 0x21B6 JUMP JUMPDEST DUP1 MLOAD SWAP1 SWAP2 POP PUSH1 0x0 DUP2 PUSH8 0xFFFFFFFFFFFFFFFF DUP2 GT ISZERO PUSH2 0xA2D JUMPI PUSH2 0xA2D PUSH2 0x1FFD JUMP JUMPDEST PUSH1 0x40 MLOAD SWAP1 DUP1 DUP3 MSTORE DUP1 PUSH1 0x20 MUL PUSH1 0x20 ADD DUP3 ADD PUSH1 0x40 MSTORE DUP1 ISZERO PUSH2 0xA56 JUMPI DUP2 PUSH1 0x20 ADD PUSH1 0x20 DUP3 MUL DUP1 CALLDATASIZE DUP4 CALLDATACOPY ADD SWAP1 POP JUMPDEST POP SWAP1 POP PUSH1 0x0 JUMPDEST DUP3 DUP2 LT ISZERO PUSH2 0xB3D JUMPI PUSH1 0x0 DUP7 PUSH1 0xC9 PUSH1 0x0 SWAP1 SLOAD SWAP1 PUSH2 0x100 EXP SWAP1 DIV PUSH1 0x1 PUSH1 0x1 PUSH1 0xA0 SHL SUB AND DUP7 DUP5 DUP2 MLOAD DUP2 LT PUSH2 0xA8F JUMPI PUSH2 0xA8F PUSH2 0x225C JUMP JUMPDEST PUSH1 0x20 MUL PUSH1 0x20 ADD ADD MLOAD PUSH1 0x40 MLOAD PUSH1 0x20 ADD PUSH2 0xAD4 SWAP4 SWAP3 SWAP2 SWAP1 PUSH1 0x60 SWAP4 DUP5 SHL PUSH12 0xFFFFFFFFFFFFFFFFFFFFFFFF NOT SWAP1 DUP2 AND DUP3 MSTORE SWAP3 DUP5 SHL DUP4 AND PUSH1 0x14 DUP3 ADD MSTORE SWAP3 SHL AND PUSH1 0x28 DUP3 ADD MSTORE PUSH1 0x3C ADD SWAP1 JUMP JUMPDEST PUSH1 0x40 DUP1 MLOAD PUSH1 0x1F NOT DUP2 DUP5 SUB ADD DUP2 MSTORE SWAP2 DUP2 MSTORE DUP2 MLOAD PUSH1 0x20 SWAP3 DUP4 ADD KECCAK256 PUSH1 0x0 DUP2 DUP2 MSTORE PUSH1 0x67 SWAP1 SWAP4 MSTORE SWAP2 KECCAK256 SLOAD SWAP1 SWAP2 POP PUSH1 0x1 PUSH1 0x1 PUSH1 0xA0 SHL SUB AND ISZERO PUSH2 0xB2A JUMPI DUP1 DUP4 DUP4 DUP2 MLOAD DUP2 LT PUSH2 0xB1D JUMPI PUSH2 0xB1D PUSH2 0x225C JUMP JUMPDEST PUSH1 0x20 MUL PUSH1 0x20 ADD ADD DUP2 DUP2 MSTORE POP POP JUMPDEST POP DUP1 PUSH2 0xB35 DUP2 PUSH2 0x2272 JUMP JUMPDEST SWAP2 POP POP PUSH2 0xA5C JUMP JUMPDEST POP SWAP5 SWAP4 POP POP POP POP JUMP JUMPDEST PUSH2 0xB73 PUSH1 0x40 MLOAD DUP1 PUSH1 0x60 ADD PUSH1 0x40 MSTORE DUP1 PUSH1 0x0 DUP2 MSTORE PUSH1 0x20 ADD PUSH1 0x0 DUP2 MSTORE PUSH1 0x20 ADD PUSH1 0x0 PUSH1 0x1 PUSH1 0x1 PUSH1 0xA0 SHL SUB AND DUP2 MSTORE POP SWAP1 JUMP JUMPDEST POP PUSH1 0x0 SWAP1 DUP2 MSTORE PUSH1 0xCB PUSH1 0x20 SWAP1 DUP2 MSTORE PUSH1 0x40 SWAP2 DUP3 SWAP1 KECCAK256 DUP3 MLOAD PUSH1 0x60 DUP2 ADD DUP5 MSTORE DUP2 SLOAD DUP2 MSTORE PUSH1 0x1 DUP3 ADD SLOAD SWAP3 DUP2 ADD SWAP3 SWAP1 SWAP3 MSTORE PUSH1 0x2 ADD SLOAD PUSH1 0x1 PUSH1 0x1 PUSH1 0xA0 SHL SUB AND SWAP2 DUP2 ADD SWAP2 SWAP1 SWAP2 MSTORE SWAP1 JUMP JUMPDEST PUSH1 0x0 DUP2 DUP2 MSTORE PUSH1 0x67 PUSH1 0x20 MSTORE PUSH1 0x40 DUP2 KECCAK256 SLOAD PUSH1 0x1 PUSH1 0x1 PUSH1 0xA0 SHL SUB AND DUP1 PUSH2 0x3C7 JUMPI PUSH1 0x40 MLOAD PUSH3 0x461BCD PUSH1 0xE5 SHL DUP2 MSTORE PUSH1 0x20 PUSH1 0x4 DUP3 ADD MSTORE PUSH1 0x18 PUSH1 0x24 DUP3 ADD MSTORE PUSH32 0x4552433732313A20696E76616C696420746F6B656E2049440000000000000000 PUSH1 0x44 DUP3 ADD MSTORE PUSH1 0x64 ADD PUSH2 0x517 JUMP JUMPDEST PUSH1 0x0 PUSH1 0x1 PUSH1 0x1 PUSH1 0xA0 SHL SUB DUP3 AND PUSH2 0xC98 JUMPI PUSH1 0x40 MLOAD PUSH3 0x461BCD PUSH1 0xE5 SHL DUP2 MSTORE PUSH1 0x20 PUSH1 0x4 DUP3 ADD MSTORE PUSH1 0x29 PUSH1 0x24 DUP3 ADD MSTORE PUSH32 0x4552433732313A2061646472657373207A65726F206973206E6F742061207661 PUSH1 0x44 DUP3 ADD MSTORE PUSH32 0x6C6964206F776E65720000000000000000000000000000000000000000000000 PUSH1 0x64 DUP3 ADD MSTORE PUSH1 0x84 ADD PUSH2 0x517 JUMP JUMPDEST POP PUSH1 0x1 PUSH1 0x1 PUSH1 0xA0 SHL SUB AND PUSH1 0x0 SWAP1 DUP2 MSTORE PUSH1 0x68 PUSH1 0x20 MSTORE PUSH1 0x40 SWAP1 KECCAK256 SLOAD SWAP1 JUMP JUMPDEST PUSH1 0x60 PUSH1 0x66 DUP1 SLOAD PUSH2 0x3DC SWAP1 PUSH2 0x2136 JUMP JUMPDEST PUSH2 0xCCE CALLER DUP4 DUP4 PUSH2 0x1579 JUMP JUMPDEST POP POP JUMP JUMPDEST PUSH2 0xCDC CALLER DUP4 PUSH2 0x1081 JUMP JUMPDEST PUSH2 0xD3E JUMPI PUSH1 0x40 MLOAD PUSH3 0x461BCD PUSH1 0xE5 SHL DUP2 MSTORE PUSH1 0x20 PUSH1 0x4 DUP3 ADD MSTORE PUSH1 0x2D PUSH1 0x24 DUP3 ADD MSTORE PUSH32 0x4552433732313A2063616C6C6572206973206E6F7420746F6B656E206F776E65 PUSH1 0x44 DUP3 ADD MSTORE PUSH13 0x1C881BDC88185C1C1C9BDD9959 PUSH1 0x9A SHL PUSH1 0x64 DUP3 ADD MSTORE PUSH1 0x84 ADD PUSH2 0x517 JUMP JUMPDEST PUSH2 0xD4A DUP5 DUP5 DUP5 DUP5 PUSH2 0x1648 JUMP JUMPDEST POP POP POP POP JUMP JUMPDEST PUSH1 0x0 SLOAD PUSH2 0x100 SWAP1 DIV PUSH1 0xFF AND ISZERO DUP1 DUP1 ISZERO PUSH2 0xD70 JUMPI POP PUSH1 0x0 SLOAD PUSH1 0x1 PUSH1 0xFF SWAP1 SWAP2 AND LT JUMPDEST DUP1 PUSH2 0xD8A JUMPI POP ADDRESS EXTCODESIZE ISZERO DUP1 ISZERO PUSH2 0xD8A JUMPI POP PUSH1 0x0 SLOAD PUSH1 0xFF AND PUSH1 0x1 EQ JUMPDEST PUSH2 0xDFC JUMPI PUSH1 0x40 MLOAD PUSH3 0x461BCD PUSH1 0xE5 SHL DUP2 MSTORE PUSH1 0x20 PUSH1 0x4 DUP3 ADD MSTORE PUSH1 0x2E PUSH1 0x24 DUP3 ADD MSTORE PUSH32 0x496E697469616C697A61626C653A20636F6E747261637420697320616C726561 PUSH1 0x44 DUP3 ADD MSTORE PUSH32 0x647920696E697469616C697A6564000000000000000000000000000000000000 PUSH1 0x64 DUP3 ADD MSTORE PUSH1 0x84 ADD PUSH2 0x517 JUMP JUMPDEST PUSH1 0x0 DUP1 SLOAD PUSH1 0xFF NOT AND PUSH1 0x1 OR SWAP1 SSTORE DUP1 ISZERO PUSH2 0xE1F JUMPI PUSH1 0x0 DUP1 SLOAD PUSH2 0xFF00 NOT AND PUSH2 0x100 OR SWAP1 SSTORE JUMPDEST PUSH2 0xE93 PUSH1 0x40 MLOAD DUP1 PUSH1 0x40 ADD PUSH1 0x40 MSTORE DUP1 PUSH1 0x15 DUP2 MSTORE PUSH1 0x20 ADD PUSH32 0x4A435020436F6E7472696275746F7220546F6B656E0000000000000000000000 DUP2 MSTORE POP PUSH1 0x40 MLOAD DUP1 PUSH1 0x40 ADD PUSH1 0x40 MSTORE DUP1 PUSH1 0x4 DUP2 MSTORE PUSH1 0x20 ADD PUSH32 0x4A43504300000000000000000000000000000000000000000000000000000000 DUP2 MSTORE POP PUSH2 0x16D1 JUMP JUMPDEST PUSH1 0xC9 DUP1 SLOAD PUSH1 0x1 PUSH1 0x1 PUSH1 0xA0 SHL SUB DUP5 AND PUSH1 0x1 PUSH1 0x1 PUSH1 0xA0 SHL SUB NOT SWAP2 DUP3 AND OR SWAP1 SWAP2 SSTORE PUSH1 0xCA DUP1 SLOAD SWAP1 SWAP2 AND CALLER OR SWAP1 SSTORE DUP1 ISZERO PUSH2 0xCCE JUMPI PUSH1 0x0 DUP1 SLOAD PUSH2 0xFF00 NOT AND SWAP1 SSTORE PUSH1 0x40 MLOAD PUSH1 0x1 DUP2 MSTORE PUSH32 0x7F26B83FF96E1F2B6A682F133852F6798A09C465DA95921460CEFB3847402498 SWAP1 PUSH1 0x20 ADD JUMPDEST PUSH1 0x40 MLOAD DUP1 SWAP2 SUB SWAP1 LOG1 POP POP JUMP JUMPDEST PUSH1 0x60 PUSH2 0x3C7 DUP3 PUSH2 0x1746 JUMP JUMPDEST PUSH1 0x0 PUSH1 0x1 PUSH1 0x1 PUSH1 0xE0 SHL SUB NOT DUP3 AND PUSH32 0x80AC58CD00000000000000000000000000000000000000000000000000000000 EQ DUP1 PUSH2 0xF74 JUMPI POP PUSH1 0x1 PUSH1 0x1 PUSH1 0xE0 SHL SUB NOT DUP3 AND PUSH32 0x5B5E139F00000000000000000000000000000000000000000000000000000000 EQ JUMPDEST DUP1 PUSH2 0x3C7 JUMPI POP PUSH32 0x1FFC9A700000000000000000000000000000000000000000000000000000000 PUSH1 0x1 PUSH1 0x1 PUSH1 0xE0 SHL SUB NOT DUP4 AND EQ PUSH2 0x3C7 JUMP JUMPDEST PUSH1 0x0 DUP2 DUP2 MSTORE PUSH1 0x67 PUSH1 0x20 MSTORE PUSH1 0x40 SWAP1 KECCAK256 SLOAD PUSH1 0x1 PUSH1 0x1 PUSH1 0xA0 SHL SUB AND PUSH2 0x1010 JUMPI PUSH1 0x40 MLOAD PUSH3 0x461BCD PUSH1 0xE5 SHL DUP2 MSTORE PUSH1 0x20 PUSH1 0x4 DUP3 ADD MSTORE PUSH1 0x18 PUSH1 0x24 DUP3 ADD MSTORE PUSH32 0x4552433732313A20696E76616C696420746F6B656E2049440000000000000000 PUSH1 0x44 DUP3 ADD MSTORE PUSH1 0x64 ADD PUSH2 0x517 JUMP JUMPDEST POP JUMP JUMPDEST PUSH1 0x0 DUP2 DUP2 MSTORE PUSH1 0x69 PUSH1 0x20 MSTORE PUSH1 0x40 SWAP1 KECCAK256 DUP1 SLOAD PUSH1 0x1 PUSH1 0x1 PUSH1 0xA0 SHL SUB NOT AND PUSH1 0x1 PUSH1 0x1 PUSH1 0xA0 SHL SUB DUP5 AND SWAP1 DUP2 OR SWAP1 SWAP2 SSTORE DUP2 SWAP1 PUSH2 0x1048 DUP3 PUSH2 0xBB5 JUMP JUMPDEST PUSH1 0x1 PUSH1 0x1 PUSH1 0xA0 SHL SUB AND PUSH32 0x8C5BE1E5EBEC7D5BD14F71427D1E84F3DD0314C0F7B2291E5B200AC8C7C3B925 PUSH1 0x40 MLOAD PUSH1 0x40 MLOAD DUP1 SWAP2 SUB SWAP1 LOG4 POP POP JUMP JUMPDEST PUSH1 0x0 DUP1 PUSH2 0x108D DUP4 PUSH2 0xBB5 JUMP JUMPDEST SWAP1 POP DUP1 PUSH1 0x1 PUSH1 0x1 PUSH1 0xA0 SHL SUB AND DUP5 PUSH1 0x1 PUSH1 0x1 PUSH1 0xA0 SHL SUB AND EQ DUP1 PUSH2 0x10D4 JUMPI POP PUSH1 0x1 PUSH1 0x1 PUSH1 0xA0 SHL SUB DUP1 DUP3 AND PUSH1 0x0 SWAP1 DUP2 MSTORE PUSH1 0x6A PUSH1 0x20 SWAP1 DUP2 MSTORE PUSH1 0x40 DUP1 DUP4 KECCAK256 SWAP4 DUP9 AND DUP4 MSTORE SWAP3 SWAP1 MSTORE KECCAK256 SLOAD PUSH1 0xFF AND JUMPDEST DUP1 PUSH2 0x10F8 JUMPI POP DUP4 PUSH1 0x1 PUSH1 0x1 PUSH1 0xA0 SHL SUB AND PUSH2 0x10ED DUP5 PUSH2 0x45F JUMP JUMPDEST PUSH1 0x1 PUSH1 0x1 PUSH1 0xA0 SHL SUB AND EQ JUMPDEST SWAP5 SWAP4 POP POP POP POP JUMP JUMPDEST DUP3 PUSH1 0x1 PUSH1 0x1 PUSH1 0xA0 SHL SUB AND PUSH2 0x1113 DUP3 PUSH2 0xBB5 JUMP JUMPDEST PUSH1 0x1 PUSH1 0x1 PUSH1 0xA0 SHL SUB AND EQ PUSH2 0x1177 JUMPI PUSH1 0x40 MLOAD PUSH3 0x461BCD PUSH1 0xE5 SHL DUP2 MSTORE PUSH1 0x20 PUSH1 0x4 DUP3 ADD MSTORE PUSH1 0x25 PUSH1 0x24 DUP3 ADD MSTORE PUSH32 0x4552433732313A207472616E736665722066726F6D20696E636F727265637420 PUSH1 0x44 DUP3 ADD MSTORE PUSH5 0x37BBB732B9 PUSH1 0xD9 SHL PUSH1 0x64 DUP3 ADD MSTORE PUSH1 0x84 ADD PUSH2 0x517 JUMP JUMPDEST PUSH1 0x1 PUSH1 0x1 PUSH1 0xA0 SHL SUB DUP3 AND PUSH2 0x11F2 JUMPI PUSH1 0x40 MLOAD PUSH3 0x461BCD PUSH1 0xE5 SHL DUP2 MSTORE PUSH1 0x20 PUSH1 0x4 DUP3 ADD MSTORE PUSH1 0x24 DUP1 DUP3 ADD MSTORE PUSH32 0x4552433732313A207472616E7366657220746F20746865207A65726F20616464 PUSH1 0x44 DUP3 ADD MSTORE PUSH32 0x7265737300000000000000000000000000000000000000000000000000000000 PUSH1 0x64 DUP3 ADD MSTORE PUSH1 0x84 ADD PUSH2 0x517 JUMP JUMPDEST PUSH2 0x11FF DUP4 DUP4 DUP4 PUSH1 0x1 PUSH2 0x184F JUMP JUMPDEST DUP3 PUSH1 0x1 PUSH1 0x1 PUSH1 0xA0 SHL SUB AND PUSH2 0x1212 DUP3 PUSH2 0xBB5 JUMP JUMPDEST PUSH1 0x1 PUSH1 0x1 PUSH1 0xA0 SHL SUB AND EQ PUSH2 0x1276 JUMPI PUSH1 0x40 MLOAD PUSH3 0x461BCD PUSH1 0xE5 SHL DUP2 MSTORE PUSH1 0x20 PUSH1 0x4 DUP3 ADD MSTORE PUSH1 0x25 PUSH1 0x24 DUP3 ADD MSTORE PUSH32 0x4552433732313A207472616E736665722066726F6D20696E636F727265637420 PUSH1 0x44 DUP3 ADD MSTORE PUSH5 0x37BBB732B9 PUSH1 0xD9 SHL PUSH1 0x64 DUP3 ADD MSTORE PUSH1 0x84 ADD PUSH2 0x517 JUMP JUMPDEST PUSH1 0x0 DUP2 DUP2 MSTORE PUSH1 0x69 PUSH1 0x20 SWAP1 DUP2 MSTORE PUSH1 0x40 DUP1 DUP4 KECCAK256 DUP1 SLOAD PUSH1 0x1 PUSH1 0x1 PUSH1 0xA0 SHL SUB NOT SWAP1 DUP2 AND SWAP1 SWAP2 SSTORE PUSH1 0x1 PUSH1 0x1 PUSH1 0xA0 SHL SUB DUP8 DUP2 AND DUP1 DUP7 MSTORE PUSH1 0x68 DUP6 MSTORE DUP4 DUP7 KECCAK256 DUP1 SLOAD PUSH1 0x0 NOT ADD SWAP1 SSTORE SWAP1 DUP8 AND DUP1 DUP7 MSTORE DUP4 DUP7 KECCAK256 DUP1 SLOAD PUSH1 0x1 ADD SWAP1 SSTORE DUP7 DUP7 MSTORE PUSH1 0x67 SWAP1 SWAP5 MSTORE DUP3 DUP6 KECCAK256 DUP1 SLOAD SWAP1 SWAP3 AND DUP5 OR SWAP1 SWAP2 SSTORE SWAP1 MLOAD DUP5 SWAP4 PUSH32 0xDDF252AD1BE2C89B69C2B068FC378DAA952BA7F163C4A11628F55A4DF523B3EF SWAP2 LOG4 POP POP POP JUMP JUMPDEST PUSH1 0x1 PUSH1 0x1 PUSH1 0xA0 SHL SUB DUP3 AND PUSH2 0x135C JUMPI PUSH1 0x40 MLOAD PUSH3 0x461BCD PUSH1 0xE5 SHL DUP2 MSTORE PUSH1 0x20 PUSH1 0x4 DUP3 ADD DUP2 SWAP1 MSTORE PUSH1 0x24 DUP3 ADD MSTORE PUSH32 0x4552433732313A206D696E7420746F20746865207A65726F2061646472657373 PUSH1 0x44 DUP3 ADD MSTORE PUSH1 0x64 ADD PUSH2 0x517 JUMP JUMPDEST PUSH1 0x0 DUP2 DUP2 MSTORE PUSH1 0x67 PUSH1 0x20 MSTORE PUSH1 0x40 SWAP1 KECCAK256 SLOAD PUSH1 0x1 PUSH1 0x1 PUSH1 0xA0 SHL SUB AND ISZERO PUSH2 0x13C1 JUMPI PUSH1 0x40 MLOAD PUSH3 0x461BCD PUSH1 0xE5 SHL DUP2 MSTORE PUSH1 0x20 PUSH1 0x4 DUP3 ADD MSTORE PUSH1 0x1C PUSH1 0x24 DUP3 ADD MSTORE PUSH32 0x4552433732313A20746F6B656E20616C7265616479206D696E74656400000000 PUSH1 0x44 DUP3 ADD MSTORE PUSH1 0x64 ADD PUSH2 0x517 JUMP JUMPDEST PUSH2 0x13CF PUSH1 0x0 DUP4 DUP4 PUSH1 0x1 PUSH2 0x184F JUMP JUMPDEST PUSH1 0x0 DUP2 DUP2 MSTORE PUSH1 0x67 PUSH1 0x20 MSTORE PUSH1 0x40 SWAP1 KECCAK256 SLOAD PUSH1 0x1 PUSH1 0x1 PUSH1 0xA0 SHL SUB AND ISZERO PUSH2 0x1434 JUMPI PUSH1 0x40 MLOAD PUSH3 0x461BCD PUSH1 0xE5 SHL DUP2 MSTORE PUSH1 0x20 PUSH1 0x4 DUP3 ADD MSTORE PUSH1 0x1C PUSH1 0x24 DUP3 ADD MSTORE PUSH32 0x4552433732313A20746F6B656E20616C7265616479206D696E74656400000000 PUSH1 0x44 DUP3 ADD MSTORE PUSH1 0x64 ADD PUSH2 0x517 JUMP JUMPDEST PUSH1 0x1 PUSH1 0x1 PUSH1 0xA0 SHL SUB DUP3 AND PUSH1 0x0 DUP2 DUP2 MSTORE PUSH1 0x68 PUSH1 0x20 SWAP1 DUP2 MSTORE PUSH1 0x40 DUP1 DUP4 KECCAK256 DUP1 SLOAD PUSH1 0x1 ADD SWAP1 SSTORE DUP5 DUP4 MSTORE PUSH1 0x67 SWAP1 SWAP2 MSTORE DUP1 DUP3 KECCAK256 DUP1 SLOAD PUSH1 0x1 PUSH1 0x1 PUSH1 0xA0 SHL SUB NOT AND DUP5 OR SWAP1 SSTORE MLOAD DUP4 SWAP3 SWAP2 SWAP1 PUSH32 0xDDF252AD1BE2C89B69C2B068FC378DAA952BA7F163C4A11628F55A4DF523B3EF SWAP1 DUP3 SWAP1 LOG4 POP POP JUMP JUMPDEST PUSH1 0x0 DUP3 DUP2 MSTORE PUSH1 0x67 PUSH1 0x20 MSTORE PUSH1 0x40 SWAP1 KECCAK256 SLOAD PUSH1 0x1 PUSH1 0x1 PUSH1 0xA0 SHL SUB AND PUSH2 0x1529 JUMPI PUSH1 0x40 MLOAD PUSH3 0x461BCD PUSH1 0xE5 SHL DUP2 MSTORE PUSH1 0x20 PUSH1 0x4 DUP3 ADD MSTORE PUSH1 0x2E PUSH1 0x24 DUP3 ADD MSTORE PUSH32 0x45524337323155524953746F726167653A2055524920736574206F66206E6F6E PUSH1 0x44 DUP3 ADD MSTORE PUSH32 0x6578697374656E7420746F6B656E000000000000000000000000000000000000 PUSH1 0x64 DUP3 ADD MSTORE PUSH1 0x84 ADD PUSH2 0x517 JUMP JUMPDEST PUSH1 0x0 DUP3 DUP2 MSTORE PUSH1 0x97 PUSH1 0x20 SWAP1 DUP2 MSTORE PUSH1 0x40 SWAP1 SWAP2 KECCAK256 DUP3 MLOAD PUSH2 0x1548 SWAP3 DUP5 ADD SWAP1 PUSH2 0x1CA0 JUMP JUMPDEST POP PUSH1 0x40 MLOAD DUP3 DUP2 MSTORE PUSH32 0xF8E1A15ABA9398E019F0B49DF1A4FDE98EE17AE345CB5F6B5E2C27F5033E8CE7 SWAP1 PUSH1 0x20 ADD PUSH2 0xEFA JUMP JUMPDEST DUP2 PUSH1 0x1 PUSH1 0x1 PUSH1 0xA0 SHL SUB AND DUP4 PUSH1 0x1 PUSH1 0x1 PUSH1 0xA0 SHL SUB AND EQ ISZERO PUSH2 0x15DB JUMPI PUSH1 0x40 MLOAD PUSH3 0x461BCD PUSH1 0xE5 SHL DUP2 MSTORE PUSH1 0x20 PUSH1 0x4 DUP3 ADD MSTORE PUSH1 0x19 PUSH1 0x24 DUP3 ADD MSTORE PUSH32 0x4552433732313A20617070726F766520746F2063616C6C657200000000000000 PUSH1 0x44 DUP3 ADD MSTORE PUSH1 0x64 ADD PUSH2 0x517 JUMP JUMPDEST PUSH1 0x1 PUSH1 0x1 PUSH1 0xA0 SHL SUB DUP4 DUP2 AND PUSH1 0x0 DUP2 DUP2 MSTORE PUSH1 0x6A PUSH1 0x20 SWAP1 DUP2 MSTORE PUSH1 0x40 DUP1 DUP4 KECCAK256 SWAP5 DUP8 AND DUP1 DUP5 MSTORE SWAP5 DUP3 MSTORE SWAP2 DUP3 SWAP1 KECCAK256 DUP1 SLOAD PUSH1 0xFF NOT AND DUP7 ISZERO ISZERO SWAP1 DUP2 OR SWAP1 SWAP2 SSTORE SWAP2 MLOAD SWAP2 DUP3 MSTORE PUSH32 0x17307EAB39AB6107E8899845AD3D59BD9653F200F220920489CA2B5937696C31 SWAP2 ADD PUSH1 0x40 MLOAD DUP1 SWAP2 SUB SWAP1 LOG3 POP POP POP JUMP JUMPDEST PUSH2 0x1653 DUP5 DUP5 DUP5 PUSH2 0x1100 JUMP JUMPDEST PUSH2 0x165F DUP5 DUP5 DUP5 DUP5 PUSH2 0x18AB JUMP JUMPDEST PUSH2 0xD4A JUMPI PUSH1 0x40 MLOAD PUSH3 0x461BCD PUSH1 0xE5 SHL DUP2 MSTORE PUSH1 0x20 PUSH1 0x4 DUP3 ADD MSTORE PUSH1 0x32 PUSH1 0x24 DUP3 ADD MSTORE PUSH32 0x4552433732313A207472616E7366657220746F206E6F6E204552433732315265 PUSH1 0x44 DUP3 ADD MSTORE PUSH32 0x63656976657220696D706C656D656E7465720000000000000000000000000000 PUSH1 0x64 DUP3 ADD MSTORE PUSH1 0x84 ADD PUSH2 0x517 JUMP JUMPDEST PUSH1 0x0 SLOAD PUSH2 0x100 SWAP1 DIV PUSH1 0xFF AND PUSH2 0x173C JUMPI PUSH1 0x40 MLOAD PUSH3 0x461BCD PUSH1 0xE5 SHL DUP2 MSTORE PUSH1 0x20 PUSH1 0x4 DUP3 ADD MSTORE PUSH1 0x2B PUSH1 0x24 DUP3 ADD MSTORE PUSH32 0x496E697469616C697A61626C653A20636F6E7472616374206973206E6F742069 PUSH1 0x44 DUP3 ADD MSTORE PUSH11 0x6E697469616C697A696E67 PUSH1 0xA8 SHL PUSH1 0x64 DUP3 ADD MSTORE PUSH1 0x84 ADD PUSH2 0x517 JUMP JUMPDEST PUSH2 0xCCE DUP3 DUP3 PUSH2 0x1A0E JUMP JUMPDEST PUSH1 0x60 PUSH2 0x1751 DUP3 PUSH2 0xFAC JUMP JUMPDEST PUSH1 0x0 DUP3 DUP2 MSTORE PUSH1 0x97 PUSH1 0x20 MSTORE PUSH1 0x40 DUP2 KECCAK256 DUP1 SLOAD PUSH2 0x176A SWAP1 PUSH2 0x2136 JUMP JUMPDEST DUP1 PUSH1 0x1F ADD PUSH1 0x20 DUP1 SWAP2 DIV MUL PUSH1 0x20 ADD PUSH1 0x40 MLOAD SWAP1 DUP2 ADD PUSH1 0x40 MSTORE DUP1 SWAP3 SWAP2 SWAP1 DUP2 DUP2 MSTORE PUSH1 0x20 ADD DUP3 DUP1 SLOAD PUSH2 0x1796 SWAP1 PUSH2 0x2136 JUMP JUMPDEST DUP1 ISZERO PUSH2 0x17E3 JUMPI DUP1 PUSH1 0x1F LT PUSH2 0x17B8 JUMPI PUSH2 0x100 DUP1 DUP4 SLOAD DIV MUL DUP4 MSTORE SWAP2 PUSH1 0x20 ADD SWAP2 PUSH2 0x17E3 JUMP JUMPDEST DUP3 ADD SWAP2 SWAP1 PUSH1 0x0 MSTORE PUSH1 0x20 PUSH1 0x0 KECCAK256 SWAP1 JUMPDEST DUP2 SLOAD DUP2 MSTORE SWAP1 PUSH1 0x1 ADD SWAP1 PUSH1 0x20 ADD DUP1 DUP4 GT PUSH2 0x17C6 JUMPI DUP3 SWAP1 SUB PUSH1 0x1F AND DUP3 ADD SWAP2 JUMPDEST POP POP POP POP POP SWAP1 POP PUSH1 0x0 PUSH2 0x1801 PUSH1 0x40 DUP1 MLOAD PUSH1 0x20 DUP2 ADD SWAP1 SWAP2 MSTORE PUSH1 0x0 DUP2 MSTORE SWAP1 JUMP JUMPDEST SWAP1 POP DUP1 MLOAD PUSH1 0x0 EQ ISZERO PUSH2 0x1814 JUMPI POP SWAP3 SWAP2 POP POP JUMP JUMPDEST DUP2 MLOAD ISZERO PUSH2 0x1846 JUMPI DUP1 DUP3 PUSH1 0x40 MLOAD PUSH1 0x20 ADD PUSH2 0x182E SWAP3 SWAP2 SWAP1 PUSH2 0x228D JUMP JUMPDEST PUSH1 0x40 MLOAD PUSH1 0x20 DUP2 DUP4 SUB SUB DUP2 MSTORE SWAP1 PUSH1 0x40 MSTORE SWAP3 POP POP POP SWAP2 SWAP1 POP JUMP JUMPDEST PUSH2 0x10F8 DUP5 PUSH2 0x1AA0 JUMP JUMPDEST PUSH1 0x1 PUSH1 0x1 PUSH1 0xA0 SHL SUB DUP5 AND ISZERO PUSH2 0x18A6 JUMPI PUSH1 0x40 MLOAD PUSH3 0x461BCD PUSH1 0xE5 SHL DUP2 MSTORE PUSH1 0x20 PUSH1 0x4 DUP3 ADD MSTORE PUSH1 0x11 PUSH1 0x24 DUP3 ADD MSTORE PUSH32 0x6E6F6E2D7472616E736665727261626C65000000000000000000000000000000 PUSH1 0x44 DUP3 ADD MSTORE PUSH1 0x64 ADD PUSH2 0x517 JUMP JUMPDEST PUSH2 0xD4A JUMP JUMPDEST PUSH1 0x0 PUSH1 0x1 PUSH1 0x1 PUSH1 0xA0 SHL SUB DUP5 AND EXTCODESIZE ISZERO PUSH2 0x1A03 JUMPI PUSH1 0x40 MLOAD PUSH4 0xA85BD01 PUSH1 0xE1 SHL DUP2 MSTORE PUSH1 0x1 PUSH1 0x1 PUSH1 0xA0 SHL SUB DUP6 AND SWAP1 PUSH4 0x150B7A02 SWAP1 PUSH2 0x18EF SWAP1 CALLER SWAP1 DUP10 SWAP1 DUP9 SWAP1 DUP9 SWAP1 PUSH1 0x4 ADD PUSH2 0x22BC JUMP JUMPDEST PUSH1 0x20 PUSH1 0x40 MLOAD DUP1 DUP4 SUB DUP2 PUSH1 0x0 DUP8 DUP1 EXTCODESIZE ISZERO DUP1 ISZERO PUSH2 0x1909 JUMPI PUSH1 0x0 DUP1 REVERT JUMPDEST POP GAS CALL SWAP3 POP POP POP DUP1 ISZERO PUSH2 0x1939 JUMPI POP PUSH1 0x40 DUP1 MLOAD PUSH1 0x1F RETURNDATASIZE SWAP1 DUP2 ADD PUSH1 0x1F NOT AND DUP3 ADD SWAP1 SWAP3 MSTORE PUSH2 0x1936 SWAP2 DUP2 ADD SWAP1 PUSH2 0x22F8 JUMP JUMPDEST PUSH1 0x1 JUMPDEST PUSH2 0x19E9 JUMPI RETURNDATASIZE DUP1 DUP1 ISZERO PUSH2 0x1967 JUMPI PUSH1 0x40 MLOAD SWAP2 POP PUSH1 0x1F NOT PUSH1 0x3F RETURNDATASIZE ADD AND DUP3 ADD PUSH1 0x40 MSTORE RETURNDATASIZE DUP3 MSTORE RETURNDATASIZE PUSH1 0x0 PUSH1 0x20 DUP5 ADD RETURNDATACOPY PUSH2 0x196C JUMP JUMPDEST PUSH1 0x60 SWAP2 POP JUMPDEST POP DUP1 MLOAD PUSH2 0x19E1 JUMPI PUSH1 0x40 MLOAD PUSH3 0x461BCD PUSH1 0xE5 SHL DUP2 MSTORE PUSH1 0x20 PUSH1 0x4 DUP3 ADD MSTORE PUSH1 0x32 PUSH1 0x24 DUP3 ADD MSTORE PUSH32 0x4552433732313A207472616E7366657220746F206E6F6E204552433732315265 PUSH1 0x44 DUP3 ADD MSTORE PUSH32 0x63656976657220696D706C656D656E7465720000000000000000000000000000 PUSH1 0x64 DUP3 ADD MSTORE PUSH1 0x84 ADD PUSH2 0x517 JUMP JUMPDEST DUP1 MLOAD DUP2 PUSH1 0x20 ADD REVERT JUMPDEST PUSH1 0x1 PUSH1 0x1 PUSH1 0xE0 SHL SUB NOT AND PUSH4 0xA85BD01 PUSH1 0xE1 SHL EQ SWAP1 POP PUSH2 0x10F8 JUMP JUMPDEST POP PUSH1 0x1 SWAP5 SWAP4 POP POP POP POP JUMP JUMPDEST PUSH1 0x0 SLOAD PUSH2 0x100 SWAP1 DIV PUSH1 0xFF AND PUSH2 0x1A79 JUMPI PUSH1 0x40 MLOAD PUSH3 0x461BCD PUSH1 0xE5 SHL DUP2 MSTORE PUSH1 0x20 PUSH1 0x4 DUP3 ADD MSTORE PUSH1 0x2B PUSH1 0x24 DUP3 ADD MSTORE PUSH32 0x496E697469616C697A61626C653A20636F6E7472616374206973206E6F742069 PUSH1 0x44 DUP3 ADD MSTORE PUSH11 0x6E697469616C697A696E67 PUSH1 0xA8 SHL PUSH1 0x64 DUP3 ADD MSTORE PUSH1 0x84 ADD PUSH2 0x517 JUMP JUMPDEST DUP2 MLOAD PUSH2 0x1A8C SWAP1 PUSH1 0x65 SWAP1 PUSH1 0x20 DUP6 ADD SWAP1 PUSH2 0x1CA0 JUMP JUMPDEST POP DUP1 MLOAD PUSH2 0x5B8 SWAP1 PUSH1 0x66 SWAP1 PUSH1 0x20 DUP5 ADD SWAP1 PUSH2 0x1CA0 JUMP JUMPDEST PUSH1 0x60 PUSH2 0x1AAB DUP3 PUSH2 0xFAC JUMP JUMPDEST PUSH1 0x0 PUSH2 0x1AC2 PUSH1 0x40 DUP1 MLOAD PUSH1 0x20 DUP2 ADD SWAP1 SWAP2 MSTORE PUSH1 0x0 DUP2 MSTORE SWAP1 JUMP JUMPDEST SWAP1 POP PUSH1 0x0 DUP2 MLOAD GT PUSH2 0x1AE2 JUMPI PUSH1 0x40 MLOAD DUP1 PUSH1 0x20 ADD PUSH1 0x40 MSTORE DUP1 PUSH1 0x0 DUP2 MSTORE POP PUSH2 0x1B0D JUMP JUMPDEST DUP1 PUSH2 0x1AEC DUP5 PUSH2 0x1B14 JUMP JUMPDEST PUSH1 0x40 MLOAD PUSH1 0x20 ADD PUSH2 0x1AFD SWAP3 SWAP2 SWAP1 PUSH2 0x228D JUMP JUMPDEST PUSH1 0x40 MLOAD PUSH1 0x20 DUP2 DUP4 SUB SUB DUP2 MSTORE SWAP1 PUSH1 0x40 MSTORE JUMPDEST SWAP4 SWAP3 POP POP POP JUMP JUMPDEST PUSH1 0x60 PUSH1 0x0 PUSH2 0x1B21 DUP4 PUSH2 0x1BBE JUMP JUMPDEST PUSH1 0x1 ADD SWAP1 POP PUSH1 0x0 DUP2 PUSH8 0xFFFFFFFFFFFFFFFF DUP2 GT ISZERO PUSH2 0x1B41 JUMPI PUSH2 0x1B41 PUSH2 0x1FFD JUMP JUMPDEST PUSH1 0x40 MLOAD SWAP1 DUP1 DUP3 MSTORE DUP1 PUSH1 0x1F ADD PUSH1 0x1F NOT AND PUSH1 0x20 ADD DUP3 ADD PUSH1 0x40 MSTORE DUP1 ISZERO PUSH2 0x1B6B JUMPI PUSH1 0x20 DUP3 ADD DUP2 DUP1 CALLDATASIZE DUP4 CALLDATACOPY ADD SWAP1 POP JUMPDEST POP SWAP1 POP DUP2 DUP2 ADD PUSH1 0x20 ADD JUMPDEST PUSH1 0x0 NOT ADD PUSH32 0x3031323334353637383961626364656600000000000000000000000000000000 PUSH1 0xA DUP7 MOD BYTE DUP2 MSTORE8 PUSH1 0xA DUP6 DIV SWAP5 POP DUP5 PUSH2 0x1BB1 JUMPI PUSH2 0x1BB6 JUMP JUMPDEST PUSH2 0x1B75 JUMP JUMPDEST POP SWAP4 SWAP3 POP POP POP JUMP JUMPDEST PUSH1 0x0 DUP1 PUSH27 0x184F03E93FF9F4DAA797ED6E38ED64BF6A1F010000000000000000 DUP4 LT PUSH2 0x1C07 JUMPI PUSH27 0x184F03E93FF9F4DAA797ED6E38ED64BF6A1F010000000000000000 DUP4 DIV SWAP3 POP PUSH1 0x40 ADD JUMPDEST PUSH14 0x4EE2D6D415B85ACEF8100000000 DUP4 LT PUSH2 0x1C33 JUMPI PUSH14 0x4EE2D6D415B85ACEF8100000000 DUP4 DIV SWAP3 POP PUSH1 0x20 ADD JUMPDEST PUSH7 0x2386F26FC10000 DUP4 LT PUSH2 0x1C51 JUMPI PUSH7 0x2386F26FC10000 DUP4 DIV SWAP3 POP PUSH1 0x10 ADD JUMPDEST PUSH4 0x5F5E100 DUP4 LT PUSH2 0x1C69 JUMPI PUSH4 0x5F5E100 DUP4 DIV SWAP3 POP PUSH1 0x8 ADD JUMPDEST PUSH2 0x2710 DUP4 LT PUSH2 0x1C7D JUMPI PUSH2 0x2710 DUP4 DIV SWAP3 POP PUSH1 0x4 ADD JUMPDEST PUSH1 0x64 DUP4 LT PUSH2 0x1C8F JUMPI PUSH1 0x64 DUP4 DIV SWAP3 POP PUSH1 0x2 ADD JUMPDEST PUSH1 0xA DUP4 LT PUSH2 0x3C7 JUMPI PUSH1 0x1 ADD SWAP3 SWAP2 POP POP JUMP JUMPDEST DUP3 DUP1 SLOAD PUSH2 0x1CAC SWAP1 PUSH2 0x2136 JUMP JUMPDEST SWAP1 PUSH1 0x0 MSTORE PUSH1 0x20 PUSH1 0x0 KECCAK256 SWAP1 PUSH1 0x1F ADD PUSH1 0x20 SWAP1 DIV DUP2 ADD SWAP3 DUP3 PUSH2 0x1CCE JUMPI PUSH1 0x0 DUP6 SSTORE PUSH2 0x1D14 JUMP JUMPDEST DUP3 PUSH1 0x1F LT PUSH2 0x1CE7 JUMPI DUP1 MLOAD PUSH1 0xFF NOT AND DUP4 DUP1 ADD OR DUP6 SSTORE PUSH2 0x1D14 JUMP JUMPDEST DUP3 DUP1 ADD PUSH1 0x1 ADD DUP6 SSTORE DUP3 ISZERO PUSH2 0x1D14 JUMPI SWAP2 DUP3 ADD JUMPDEST DUP3 DUP2 GT ISZERO PUSH2 0x1D14 JUMPI DUP3 MLOAD DUP3 SSTORE SWAP2 PUSH1 0x20 ADD SWAP2 SWAP1 PUSH1 0x1 ADD SWAP1 PUSH2 0x1CF9 JUMP JUMPDEST POP PUSH2 0x1D20 SWAP3 SWAP2 POP PUSH2 0x1D24 JUMP JUMPDEST POP SWAP1 JUMP JUMPDEST JUMPDEST DUP1 DUP3 GT ISZERO PUSH2 0x1D20 JUMPI PUSH1 0x0 DUP2 SSTORE PUSH1 0x1 ADD PUSH2 0x1D25 JUMP JUMPDEST PUSH1 0x1 PUSH1 0x1 PUSH1 0xE0 SHL SUB NOT DUP2 AND DUP2 EQ PUSH2 0x1010 JUMPI PUSH1 0x0 DUP1 REVERT JUMPDEST PUSH1 0x0 PUSH1 0x20 DUP3 DUP5 SUB SLT ISZERO PUSH2 0x1D61 JUMPI PUSH1 0x0 DUP1 REVERT JUMPDEST DUP2 CALLDATALOAD PUSH2 0x1B0D DUP2 PUSH2 0x1D39 JUMP JUMPDEST PUSH1 0x0 JUMPDEST DUP4 DUP2 LT ISZERO PUSH2 0x1D87 JUMPI DUP2 DUP2 ADD MLOAD DUP4 DUP3 ADD MSTORE PUSH1 0x20 ADD PUSH2 0x1D6F JUMP JUMPDEST DUP4 DUP2 GT ISZERO PUSH2 0xD4A JUMPI POP POP PUSH1 0x0 SWAP2 ADD MSTORE JUMP JUMPDEST PUSH1 0x0 DUP2 MLOAD DUP1 DUP5 MSTORE PUSH2 0x1DB0 DUP2 PUSH1 0x20 DUP7 ADD PUSH1 0x20 DUP7 ADD PUSH2 0x1D6C JUMP JUMPDEST PUSH1 0x1F ADD PUSH1 0x1F NOT AND SWAP3 SWAP1 SWAP3 ADD PUSH1 0x20 ADD SWAP3 SWAP2 POP POP JUMP JUMPDEST PUSH1 0x20 DUP2 MSTORE PUSH1 0x0 PUSH2 0x1B0D PUSH1 0x20 DUP4 ADD DUP5 PUSH2 0x1D98 JUMP JUMPDEST PUSH1 0x0 PUSH1 0x20 DUP3 DUP5 SUB SLT ISZERO PUSH2 0x1DE9 JUMPI PUSH1 0x0 DUP1 REVERT JUMPDEST POP CALLDATALOAD SWAP2 SWAP1 POP JUMP JUMPDEST PUSH1 0x1 PUSH1 0x1 PUSH1 0xA0 SHL SUB DUP2 AND DUP2 EQ PUSH2 0x1010 JUMPI PUSH1 0x0 DUP1 REVERT JUMPDEST PUSH1 0x0 DUP1 PUSH1 0x40 DUP4 DUP6 SUB SLT ISZERO PUSH2 0x1E18 JUMPI PUSH1 0x0 DUP1 REVERT JUMPDEST DUP3 CALLDATALOAD PUSH2 0x1E23 DUP2 PUSH2 0x1DF0 JUMP JUMPDEST SWAP5 PUSH1 0x20 SWAP4 SWAP1 SWAP4 ADD CALLDATALOAD SWAP4 POP POP POP JUMP JUMPDEST PUSH1 0x0 DUP1 PUSH1 0x0 PUSH1 0x60 DUP5 DUP7 SUB SLT ISZERO PUSH2 0x1E46 JUMPI PUSH1 0x0 DUP1 REVERT JUMPDEST DUP4 CALLDATALOAD PUSH2 0x1E51 DUP2 PUSH2 0x1DF0 JUMP JUMPDEST SWAP3 POP PUSH1 0x20 DUP5 ADD CALLDATALOAD PUSH2 0x1E61 DUP2 PUSH2 0x1DF0 JUMP JUMPDEST SWAP3 SWAP6 SWAP3 SWAP5 POP POP POP PUSH1 0x40 SWAP2 SWAP1 SWAP2 ADD CALLDATALOAD SWAP1 JUMP JUMPDEST PUSH1 0x0 DUP1 PUSH1 0x0 DUP1 PUSH1 0x0 DUP1 PUSH1 0xA0 DUP8 DUP10 SUB SLT ISZERO PUSH2 0x1E8B JUMPI PUSH1 0x0 DUP1 REVERT JUMPDEST DUP7 CALLDATALOAD PUSH2 0x1E96 DUP2 PUSH2 0x1DF0 JUMP JUMPDEST SWAP6 POP PUSH1 0x20 DUP8 ADD CALLDATALOAD SWAP5 POP PUSH1 0x40 DUP8 ADD CALLDATALOAD SWAP4 POP PUSH1 0x60 DUP8 ADD CALLDATALOAD PUSH2 0x1EB4 DUP2 PUSH2 0x1DF0 JUMP JUMPDEST SWAP3 POP PUSH1 0x80 DUP8 ADD CALLDATALOAD PUSH8 0xFFFFFFFFFFFFFFFF DUP1 DUP3 GT ISZERO PUSH2 0x1ED1 JUMPI PUSH1 0x0 DUP1 REVERT JUMPDEST DUP2 DUP10 ADD SWAP2 POP DUP10 PUSH1 0x1F DUP4 ADD SLT PUSH2 0x1EE5 JUMPI PUSH1 0x0 DUP1 REVERT JUMPDEST DUP2 CALLDATALOAD DUP2 DUP2 GT ISZERO PUSH2 0x1EF4 JUMPI PUSH1 0x0 DUP1 REVERT JUMPDEST DUP11 PUSH1 0x20 DUP3 DUP6 ADD ADD GT ISZERO PUSH2 0x1F06 JUMPI PUSH1 0x0 DUP1 REVERT JUMPDEST PUSH1 0x20 DUP4 ADD SWAP5 POP DUP1 SWAP4 POP POP POP POP SWAP3 SWAP6 POP SWAP3 SWAP6 POP SWAP3 SWAP6 JUMP JUMPDEST PUSH1 0x0 DUP1 PUSH1 0x0 PUSH1 0x60 DUP5 DUP7 SUB SLT ISZERO PUSH2 0x1F31 JUMPI PUSH1 0x0 DUP1 REVERT JUMPDEST DUP4 CALLDATALOAD PUSH2 0x1F3C DUP2 PUSH2 0x1DF0 JUMP JUMPDEST SWAP3 POP PUSH1 0x20 DUP5 ADD CALLDATALOAD SWAP2 POP PUSH1 0x40 DUP5 ADD CALLDATALOAD PUSH2 0x1F53 DUP2 PUSH2 0x1DF0 JUMP JUMPDEST DUP1 SWAP2 POP POP SWAP3 POP SWAP3 POP SWAP3 JUMP JUMPDEST PUSH1 0x0 PUSH1 0x20 DUP3 DUP5 SUB SLT ISZERO PUSH2 0x1F70 JUMPI PUSH1 0x0 DUP1 REVERT JUMPDEST DUP2 CALLDATALOAD PUSH2 0x1B0D DUP2 PUSH2 0x1DF0 JUMP JUMPDEST PUSH1 0x20 DUP1 DUP3 MSTORE DUP3 MLOAD DUP3 DUP3 ADD DUP2 SWAP1 MSTORE PUSH1 0x0 SWAP2 SWAP1 DUP5 DUP3 ADD SWAP1 PUSH1 0x40 DUP6 ADD SWAP1 DUP5 JUMPDEST DUP2 DUP2 LT ISZERO PUSH2 0x1FB3 JUMPI DUP4 MLOAD DUP4 MSTORE SWAP3 DUP5 ADD SWAP3 SWAP2 DUP5 ADD SWAP2 PUSH1 0x1 ADD PUSH2 0x1F97 JUMP JUMPDEST POP SWAP1 SWAP7 SWAP6 POP POP POP POP POP POP JUMP JUMPDEST PUSH1 0x0 DUP1 PUSH1 0x40 DUP4 DUP6 SUB SLT ISZERO PUSH2 0x1FD2 JUMPI PUSH1 0x0 DUP1 REVERT JUMPDEST DUP3 CALLDATALOAD PUSH2 0x1FDD DUP2 PUSH2 0x1DF0 JUMP JUMPDEST SWAP2 POP PUSH1 0x20 DUP4 ADD CALLDATALOAD DUP1 ISZERO ISZERO DUP2 EQ PUSH2 0x1FF2 JUMPI PUSH1 0x0 DUP1 REVERT JUMPDEST DUP1 SWAP2 POP POP SWAP3 POP SWAP3 SWAP1 POP JUMP JUMPDEST PUSH4 0x4E487B71 PUSH1 0xE0 SHL PUSH1 0x0 MSTORE PUSH1 0x41 PUSH1 0x4 MSTORE PUSH1 0x24 PUSH1 0x0 REVERT JUMPDEST PUSH1 0x40 MLOAD PUSH1 0x1F DUP3 ADD PUSH1 0x1F NOT AND DUP2 ADD PUSH8 0xFFFFFFFFFFFFFFFF DUP2 GT DUP3 DUP3 LT OR ISZERO PUSH2 0x203C JUMPI PUSH2 0x203C PUSH2 0x1FFD JUMP JUMPDEST PUSH1 0x40 MSTORE SWAP2 SWAP1 POP JUMP JUMPDEST PUSH1 0x0 DUP1 PUSH1 0x0 DUP1 PUSH1 0x80 DUP6 DUP8 SUB SLT ISZERO PUSH2 0x205A JUMPI PUSH1 0x0 DUP1 REVERT JUMPDEST DUP5 CALLDATALOAD PUSH2 0x2065 DUP2 PUSH2 0x1DF0 JUMP JUMPDEST SWAP4 POP PUSH1 0x20 DUP6 DUP2 ADD CALLDATALOAD PUSH2 0x2076 DUP2 PUSH2 0x1DF0 JUMP JUMPDEST SWAP4 POP PUSH1 0x40 DUP7 ADD CALLDATALOAD SWAP3 POP PUSH1 0x60 DUP7 ADD CALLDATALOAD PUSH8 0xFFFFFFFFFFFFFFFF DUP1 DUP3 GT ISZERO PUSH2 0x209A JUMPI PUSH1 0x0 DUP1 REVERT JUMPDEST DUP2 DUP9 ADD SWAP2 POP DUP9 PUSH1 0x1F DUP4 ADD SLT PUSH2 0x20AE JUMPI PUSH1 0x0 DUP1 REVERT JUMPDEST DUP2 CALLDATALOAD DUP2 DUP2 GT ISZERO PUSH2 0x20C0 JUMPI PUSH2 0x20C0 PUSH2 0x1FFD JUMP JUMPDEST PUSH2 0x20D2 PUSH1 0x1F DUP3 ADD PUSH1 0x1F NOT AND DUP6 ADD PUSH2 0x2013 JUMP JUMPDEST SWAP2 POP DUP1 DUP3 MSTORE DUP10 DUP5 DUP3 DUP6 ADD ADD GT ISZERO PUSH2 0x20E8 JUMPI PUSH1 0x0 DUP1 REVERT JUMPDEST DUP1 DUP5 DUP5 ADD DUP6 DUP5 ADD CALLDATACOPY PUSH1 0x0 DUP5 DUP3 DUP5 ADD ADD MSTORE POP DUP1 SWAP4 POP POP POP POP SWAP3 SWAP6 SWAP2 SWAP5 POP SWAP3 POP JUMP JUMPDEST PUSH1 0x0 DUP1 PUSH1 0x40 DUP4 DUP6 SUB SLT ISZERO PUSH2 0x211B JUMPI PUSH1 0x0 DUP1 REVERT JUMPDEST DUP3 CALLDATALOAD PUSH2 0x2126 DUP2 PUSH2 0x1DF0 JUMP JUMPDEST SWAP2 POP PUSH1 0x20 DUP4 ADD CALLDATALOAD PUSH2 0x1FF2 DUP2 PUSH2 0x1DF0 JUMP JUMPDEST PUSH1 0x1 DUP2 DUP2 SHR SWAP1 DUP3 AND DUP1 PUSH2 0x214A JUMPI PUSH1 0x7F DUP3 AND SWAP2 POP JUMPDEST PUSH1 0x20 DUP3 LT DUP2 EQ ISZERO PUSH2 0x216B JUMPI PUSH4 0x4E487B71 PUSH1 0xE0 SHL PUSH1 0x0 MSTORE PUSH1 0x22 PUSH1 0x4 MSTORE PUSH1 0x24 PUSH1 0x0 REVERT JUMPDEST POP SWAP2 SWAP1 POP JUMP JUMPDEST PUSH4 0x4E487B71 PUSH1 0xE0 SHL PUSH1 0x0 MSTORE PUSH1 0x11 PUSH1 0x4 MSTORE PUSH1 0x24 PUSH1 0x0 REVERT JUMPDEST PUSH1 0x0 DUP3 NOT DUP3 GT ISZERO PUSH2 0x219A JUMPI PUSH2 0x219A PUSH2 0x2171 JUMP JUMPDEST POP ADD SWAP1 JUMP JUMPDEST PUSH1 0x0 DUP3 DUP3 LT ISZERO PUSH2 0x21B1 JUMPI PUSH2 0x21B1 PUSH2 0x2171 JUMP JUMPDEST POP SUB SWAP1 JUMP JUMPDEST PUSH1 0x0 PUSH1 0x20 DUP1 DUP4 DUP6 SUB SLT ISZERO PUSH2 0x21C9 JUMPI PUSH1 0x0 DUP1 REVERT JUMPDEST DUP3 MLOAD PUSH8 0xFFFFFFFFFFFFFFFF DUP1 DUP3 GT ISZERO PUSH2 0x21E1 JUMPI PUSH1 0x0 DUP1 REVERT JUMPDEST DUP2 DUP6 ADD SWAP2 POP DUP6 PUSH1 0x1F DUP4 ADD SLT PUSH2 0x21F5 JUMPI PUSH1 0x0 DUP1 REVERT JUMPDEST DUP2 MLOAD DUP2 DUP2 GT ISZERO PUSH2 0x2207 JUMPI PUSH2 0x2207 PUSH2 0x1FFD JUMP JUMPDEST DUP1 PUSH1 0x5 SHL SWAP2 POP PUSH2 0x2218 DUP5 DUP4 ADD PUSH2 0x2013 JUMP JUMPDEST DUP2 DUP2 MSTORE SWAP2 DUP4 ADD DUP5 ADD SWAP2 DUP5 DUP2 ADD SWAP1 DUP9 DUP5 GT ISZERO PUSH2 0x2232 JUMPI PUSH1 0x0 DUP1 REVERT JUMPDEST SWAP4 DUP6 ADD SWAP4 JUMPDEST DUP4 DUP6 LT ISZERO PUSH2 0x7C5 JUMPI DUP5 MLOAD SWAP3 POP PUSH2 0x224C DUP4 PUSH2 0x1DF0 JUMP JUMPDEST DUP3 DUP3 MSTORE SWAP4 DUP6 ADD SWAP4 SWAP1 DUP6 ADD SWAP1 PUSH2 0x2237 JUMP JUMPDEST PUSH4 0x4E487B71 PUSH1 0xE0 SHL PUSH1 0x0 MSTORE PUSH1 0x32 PUSH1 0x4 MSTORE PUSH1 0x24 PUSH1 0x0 REVERT JUMPDEST PUSH1 0x0 PUSH1 0x0 NOT DUP3 EQ ISZERO PUSH2 0x2286 JUMPI PUSH2 0x2286 PUSH2 0x2171 JUMP JUMPDEST POP PUSH1 0x1 ADD SWAP1 JUMP JUMPDEST PUSH1 0x0 DUP4 MLOAD PUSH2 0x229F DUP2 DUP5 PUSH1 0x20 DUP9 ADD PUSH2 0x1D6C JUMP JUMPDEST DUP4 MLOAD SWAP1 DUP4 ADD SWAP1 PUSH2 0x22B3 DUP2 DUP4 PUSH1 0x20 DUP9 ADD PUSH2 0x1D6C JUMP JUMPDEST ADD SWAP5 SWAP4 POP POP POP POP JUMP JUMPDEST PUSH1 0x0 PUSH1 0x1 PUSH1 0x1 PUSH1 0xA0 SHL SUB DUP1 DUP8 AND DUP4 MSTORE DUP1 DUP7 AND PUSH1 0x20 DUP5 ADD MSTORE POP DUP4 PUSH1 0x40 DUP4 ADD MSTORE PUSH1 0x80 PUSH1 0x60 DUP4 ADD MSTORE PUSH2 0x22EE PUSH1 0x80 DUP4 ADD DUP5 PUSH2 0x1D98 JUMP JUMPDEST SWAP7 SWAP6 POP POP POP POP POP POP JUMP JUMPDEST PUSH1 0x0 PUSH1 0x20 DUP3 DUP5 SUB SLT ISZERO PUSH2 0x230A JUMPI PUSH1 0x0 DUP1 REVERT JUMPDEST DUP2 MLOAD PUSH2 0x1B0D DUP2 PUSH2 0x1D39 JUMP INVALID LOG2 PUSH5 0x6970667358 0x22 SLT KECCAK256 0xDA EXTCODEHASH 0x4F 0xA7 0xB2 0xD5 0x2A 0xC5 0xAA OR KECCAK256 DUP8 0xE PUSH28 0x3942659CAA18A86BD65EE567B3D2EFFCFD764736F6C634300080900 CALLER "},"methodIdentifiers":{"addDeposit(uint256,address,address,bool)":"08f52b3c","checkPool(address)":"30b9d2a7","claimInterest(address,address,bool)":"90f2bb16","createJCPoolClone(address[],string,string,string,string,address)":"b47dcb66","getAddressFromName(string)":"8e61514e","getBaseJCPoolAddress()":"5aa38868","getBpFee()":"01beb980","getContributions(address)":"3f19d043","getDepositorERC721Address()":"3989a671","getMultiSig()":"66e992e5","getPoolAddr()":"de259242","getReceiverPools(address)":"fa12793b","getReservesList()":"d1946dbc","getTVL(address)":"0f40517a","getTotalDonated(address)":"d1df6d4d","getVerifiedPools()":"b63ae6ee","setBpFee(uint256)":"a5530a45","updatePoolAbout(address,string)":"def9a0cd","updatePoolMetaUri(address,string)":"ecb16af4","withdrawDeposit(uint256,address,address,bool)":"2f28012a"}}}}}