{"contracts/deploy/JustCausePool.sol":{"JustCausePool":{"abi":[{"inputs":[],"stateMutability":"nonpayable","type":"constructor"},{"anonymous":false,"inputs":[{"indexed":false,"internalType":"uint8","name":"version","type":"uint8"}],"name":"Initialized","type":"event"},{"inputs":[{"internalType":"address","name":"_assetAddress","type":"address"},{"internalType":"uint256","name":"_amount","type":"uint256"}],"name":"deposit","outputs":[],"stateMutability":"nonpayable","type":"function"},{"inputs":[{"internalType":"address","name":"_assetAddress","type":"address"}],"name":"getATokenAddress","outputs":[{"internalType":"address","name":"aTokenAddress","type":"address"}],"stateMutability":"view","type":"function"},{"inputs":[{"internalType":"address","name":"_assetAddress","type":"address"}],"name":"getATokenBalance","outputs":[{"internalType":"uint256","name":"","type":"uint256"}],"stateMutability":"view","type":"function"},{"inputs":[{"internalType":"address","name":"_assetAddress","type":"address"}],"name":"getAaveLiquidityIndex","outputs":[{"internalType":"uint256","name":"liquidityIndex","type":"uint256"}],"stateMutability":"view","type":"function"},{"inputs":[],"name":"getAbout","outputs":[{"internalType":"string","name":"","type":"string"}],"stateMutability":"view","type":"function"},{"inputs":[],"name":"getAcceptedTokens","outputs":[{"internalType":"address[]","name":"","type":"address[]"}],"stateMutability":"view","type":"function"},{"inputs":[{"internalType":"address","name":"_assetAddress","type":"address"}],"name":"getClaimedInterest","outputs":[{"internalType":"uint256","name":"","type":"uint256"}],"stateMutability":"view","type":"function"},{"inputs":[],"name":"getERC721Address","outputs":[{"internalType":"address","name":"","type":"address"}],"stateMutability":"view","type":"function"},{"inputs":[],"name":"getIsVerified","outputs":[{"internalType":"bool","name":"","type":"bool"}],"stateMutability":"view","type":"function"},{"inputs":[],"name":"getMetaUri","outputs":[{"internalType":"string","name":"","type":"string"}],"stateMutability":"view","type":"function"},{"inputs":[],"name":"getName","outputs":[{"internalType":"string","name":"","type":"string"}],"stateMutability":"view","type":"function"},{"inputs":[],"name":"getPicHash","outputs":[{"internalType":"string","name":"","type":"string"}],"stateMutability":"view","type":"function"},{"inputs":[],"name":"getPoolInfo","outputs":[{"internalType":"address[]","name":"","type":"address[]"},{"internalType":"address","name":"","type":"address"},{"internalType":"bool","name":"","type":"bool"},{"internalType":"string","name":"","type":"string"},{"internalType":"string","name":"","type":"string"},{"internalType":"string","name":"","type":"string"},{"internalType":"string","name":"","type":"string"}],"stateMutability":"view","type":"function"},{"inputs":[{"internalType":"address","name":"_asset","type":"address"}],"name":"getPoolTokenInfo","outputs":[{"internalType":"uint256","name":"","type":"uint256"},{"internalType":"uint256","name":"","type":"uint256"},{"internalType":"uint256","name":"","type":"uint256"},{"internalType":"uint256","name":"","type":"uint256"},{"internalType":"uint256","name":"","type":"uint256"},{"internalType":"uint256","name":"","type":"uint256"},{"internalType":"address","name":"","type":"address"}],"stateMutability":"view","type":"function"},{"inputs":[],"name":"getRecipient","outputs":[{"internalType":"address","name":"","type":"address"}],"stateMutability":"view","type":"function"},{"inputs":[{"internalType":"address","name":"_assetAddress","type":"address"}],"name":"getReserveNormalizedIncome","outputs":[{"internalType":"uint256","name":"","type":"uint256"}],"stateMutability":"view","type":"function"},{"inputs":[{"internalType":"address","name":"_assetAddress","type":"address"}],"name":"getTotalDeposits","outputs":[{"internalType":"uint256","name":"","type":"uint256"}],"stateMutability":"view","type":"function"},{"inputs":[{"internalType":"address","name":"_assetAddress","type":"address"}],"name":"getUnclaimedInterest","outputs":[{"internalType":"uint256","name":"","type":"uint256"}],"stateMutability":"view","type":"function"},{"inputs":[{"internalType":"address[]","name":"_acceptedTokens","type":"address[]"},{"internalType":"string","name":"_name","type":"string"},{"internalType":"string","name":"_about","type":"string"},{"internalType":"string","name":"_picHash","type":"string"},{"internalType":"string","name":"_metaUri","type":"string"},{"internalType":"address","name":"_receiver","type":"address"},{"internalType":"address","name":"_poolAddressesProviderAddr","type":"address"},{"internalType":"address","name":"_wethGatewayAddr","type":"address"},{"internalType":"address","name":"_erc721Addr","type":"address"},{"internalType":"bool","name":"_isVerified","type":"bool"}],"name":"initialize","outputs":[],"stateMutability":"nonpayable","type":"function"},{"inputs":[{"internalType":"string","name":"_about","type":"string"}],"name":"setAbout","outputs":[],"stateMutability":"nonpayable","type":"function"},{"inputs":[{"internalType":"string","name":"_metaUri","type":"string"}],"name":"setMetaUri","outputs":[],"stateMutability":"nonpayable","type":"function"},{"inputs":[{"internalType":"address","name":"_assetAddress","type":"address"},{"internalType":"uint256","name":"_amount","type":"uint256"},{"internalType":"address","name":"_depositor","type":"address"},{"internalType":"bool","name":"_isETH","type":"bool"}],"name":"withdraw","outputs":[],"stateMutability":"nonpayable","type":"function"},{"inputs":[{"internalType":"address","name":"_assetAddress","type":"address"},{"internalType":"address","name":"_feeAddress","type":"address"},{"internalType":"bool","name":"_isETH","type":"bool"},{"internalType":"uint256","name":"_bpFee","type":"uint256"}],"name":"withdrawDonations","outputs":[{"internalType":"uint256","name":"","type":"uint256"}],"stateMutability":"nonpayable","type":"function"}],"evm":{"bytecode":{"linkReferences":{},"object":"608060405234801561001057600080fd5b506003805460ff191660011790556129418061002d6000396000f3fe608060405234801561001057600080fd5b506004361061018c5760003560e01c8063373d7c3f116100e35780638aebe8d61161008c578063d0e7a76e11610066578063d0e7a76e1461038a578063d15e00531461039d578063eda9c2d2146103b057600080fd5b80638aebe8d614610351578063bbc41f4814610364578063d04d566a1461037757600080fd5b806360246c88116100bd57806360246c88146102d257806367e0e076146102ed578063711cc0051461033e57600080fd5b8063373d7c3f1461028e57806347e7ef24146102965780635ff189b9146102a957600080fd5b806317d7de7c11610145578063343d693b1161011f578063343d693b1461025d578063357286d7146102655780633735ef881461027b57600080fd5b806317d7de7c1461022f5780631b88094d146102375780632f7570061461024857600080fd5b80630712f6b3116101765780630712f6b3146101f257806312eeff7e14610205578063155d8e9c1461021a57600080fd5b80627ffb78146101915780630251cfa1146101bb575b600080fd5b6005546001600160a01b03165b6040516001600160a01b0390911681526020015b60405180910390f35b6101e46101c93660046120e5565b6001600160a01b031660009081526001602052604090205490565b6040519081526020016101b2565b6101e46102003660046120e5565b6103c3565b61021861021336600461211b565b610451565b005b610222610798565b6040516101b291906121c6565b61022261082a565b6007546001600160a01b031661019e565b610250610839565b6040516101b2919061221d565b61022261089a565b600d5460ff1660405190151581526020016101b2565b6101e46102893660046120e5565b6108a9565b610222610960565b6102186102a4366004612230565b61096f565b6101e46102b73660046120e5565b6001600160a01b031660009081526002602052604090205490565b6102da610a9c565b6040516101b2979695949392919061225c565b6103006102fb3660046120e5565b610d7a565b604080519788526020880196909652948601939093526060850191909152608084015260a08301526001600160a01b031660c082015260e0016101b2565b61019e61034c3660046120e5565b610dfb565b6101e461035f3660046120e5565b610f0e565b6102186103723660046123fb565b611032565b61021861038536600461252b565b61139e565b61021861039836600461252b565b6113f9565b6101e46103ab3660046120e5565b61144f565b6101e46103be36600461259d565b611523565b6000806103cf83610dfb565b6040516370a0823160e01b81523060048201529091506001600160a01b038216906370a08231906024015b60206040518083038186803b15801561041257600080fd5b505afa158015610426573d6000803e3d6000fd5b505050506040513d601f19601f8201168201806040525081019061044a91906125ee565b9392505050565b6008546001600160a01b031633146104a05760405162461bcd60e51b815260206004820152600d60248201526c3737ba103a34329037bbb732b960991b60448201526064015b60405180910390fd5b6000600360019054906101000a90046001600160a01b03166001600160a01b031663026b1d5f6040518163ffffffff1660e01b815260040160206040518083038186803b1580156104f057600080fd5b505afa158015610504573d6000803e3d6000fd5b505050506040513d601f19601f820116820180604052508101906105289190612612565b6001600160a01b038616600090815260016020526040812080549293508692909190610555908490612645565b909155508290506105f057604051631a4ca37b60e21b81526001600160a01b0386811660048301526024820186905284811660448301528216906369328dec90606401602060405180830381600087803b1580156105b257600080fd5b505af11580156105c6573d6000803e3d6000fd5b505050506040513d601f19601f820116820180604052508101906105ea91906125ee565b50610791565b6000600460009054906101000a90046001600160a01b03166001600160a01b031663affa88176040518163ffffffff1660e01b815260040160206040518083038186803b15801561064057600080fd5b505afa158015610654573d6000803e3d6000fd5b505050506040513d601f19601f820116820180604052508101906106789190612612565b9050856001600160a01b0316816001600160a01b0316146106db5760405162461bcd60e51b815260206004820181905260248201527f617373657420646f6573206e6f74206d617463682057455448476174657761796044820152606401610497565b60006106e682610dfb565b600454909150610704906001600160a01b0380841691166000611b6f565b60045461071e906001600160a01b03838116911688611b6f565b60048054604051630402806960e51b81526001600160a01b03868116938201939093526024810189905287831660448201529116906380500d2090606401600060405180830381600087803b15801561077657600080fd5b505af115801561078a573d6000803e3d6000fd5b5050505050505b5050505050565b6060600b80546107a79061265c565b80601f01602080910402602001604051908101604052809291908181526020018280546107d39061265c565b80156108205780601f106107f557610100808354040283529160200191610820565b820191906000526020600020905b81548152906001019060200180831161080357829003601f168201915b5050505050905090565b6060600980546107a79061265c565b6060600680548060200260200160405190810160405280929190818152602001828054801561082057602002820191906000526020600020905b81546001600160a01b03168152600190910190602001808311610873575050505050905090565b6060600a80546107a79061265c565b6000806108b583610dfb565b6040516370a0823160e01b81523060048201529091506000906001600160a01b038316906370a082319060240160206040518083038186803b1580156108fa57600080fd5b505afa15801561090e573d6000803e3d6000fd5b505050506040513d601f19601f8201168201806040525081019061093291906125ee565b6001600160a01b0385166000908152600160205260409020549091506109589082612645565b949350505050565b6060600c80546107a79061265c565b6008546001600160a01b031633146109b95760405162461bcd60e51b815260206004820152600d60248201526c3737ba103a34329037bbb732b960991b6044820152606401610497565b816000805b60065460ff82161015610a1b5760068160ff16815481106109e1576109e1612697565b6000918252602090912001546001600160a01b0384811691161415610a095760019150610a1b565b80610a13816126ad565b9150506109be565b5080610a695760405162461bcd60e51b815260206004820152601c60248201527f746f6b656e206e6f74206163636570746564206279206a63706f6f6c000000006044820152606401610497565b6001600160a01b03841660009081526001602052604081208054859290610a919084906126cd565b909155505050505050565b60606000806060806060806006600760009054906101000a90046001600160a01b0316600d60009054906101000a900460ff16600c600b600a600986805480602002602001604051908101604052809291908181526020018280548015610b2c57602002820191906000526020600020905b81546001600160a01b03168152600190910190602001808311610b0e575b50505050509650838054610b3f9061265c565b80601f0160208091040260200160405190810160405280929190818152602001828054610b6b9061265c565b8015610bb85780601f10610b8d57610100808354040283529160200191610bb8565b820191906000526020600020905b815481529060010190602001808311610b9b57829003601f168201915b50505050509350828054610bcb9061265c565b80601f0160208091040260200160405190810160405280929190818152602001828054610bf79061265c565b8015610c445780601f10610c1957610100808354040283529160200191610c44565b820191906000526020600020905b815481529060010190602001808311610c2757829003601f168201915b50505050509250818054610c579061265c565b80601f0160208091040260200160405190810160405280929190818152602001828054610c839061265c565b8015610cd05780601f10610ca557610100808354040283529160200191610cd0565b820191906000526020600020905b815481529060010190602001808311610cb357829003601f168201915b50505050509150808054610ce39061265c565b80601f0160208091040260200160405190810160405280929190818152602001828054610d0f9061265c565b8015610d5c5780601f10610d3157610100808354040283529160200191610d5c565b820191906000526020600020905b815481529060010190602001808311610d3f57829003601f168201915b50505050509050965096509650965096509650965090919293949596565b6000806000806000806000610d8e88610f0e565b610d978961144f565b610da08a6103c3565b6001600160a01b038b16600090815260026020526040902054610dc28c6108a9565b6001600160a01b038d16600090815260016020526040902054610de48e610dfb565b959e949d50929b5090995097509550909350915050565b600080600360019054906101000a90046001600160a01b03166001600160a01b031663026b1d5f6040518163ffffffff1660e01b815260040160206040518083038186803b158015610e4c57600080fd5b505afa158015610e60573d6000803e3d6000fd5b505050506040513d601f19601f82011682018060405250810190610e849190612612565b6040516335ea6a7560e01b81526001600160a01b038581166004830152919250908216906335ea6a75906024016101e06040518083038186803b158015610eca57600080fd5b505afa158015610ede573d6000803e3d6000fd5b505050506040513d601f19601f82011682018060405250810190610f02919061276e565b61010001519392505050565b600080600360019054906101000a90046001600160a01b03166001600160a01b031663026b1d5f6040518163ffffffff1660e01b815260040160206040518083038186803b158015610f5f57600080fd5b505afa158015610f73573d6000803e3d6000fd5b505050506040513d601f19601f82011682018060405250810190610f979190612612565b6040516335ea6a7560e01b81526001600160a01b038581166004830152919250908216906335ea6a75906024016101e06040518083038186803b158015610fdd57600080fd5b505afa158015610ff1573d6000803e3d6000fd5b505050506040513d601f19601f82011682018060405250810190611015919061276e565b602001516fffffffffffffffffffffffffffffffff169392505050565b88518990603c90829082101561108a5760405162461bcd60e51b815260206004820152601b60248201527f737472696e67206f76657220636861726163746572206c696d697400000000006044820152606401610497565b600054610100900460ff16158080156110aa5750600054600160ff909116105b806110c45750303b1580156110c4575060005460ff166001145b6111365760405162461bcd60e51b815260206004820152602e60248201527f496e697469616c697a61626c653a20636f6e747261637420697320616c72656160448201527f647920696e697469616c697a65640000000000000000000000000000000000006064820152608401610497565b6000805460ff191660011790558015611159576000805461ff0019166101001790555b60035460ff16156111ac5760405162461bcd60e51b815260206004820152601660248201527f43616e6e6f7420696e697469616c697a652062617365000000000000000000006044820152606401610497565b6007546001600160a01b0316156112055760405162461bcd60e51b815260206004820152601960248201527f496e697469616c697a6520616c72656164792063616c6c6564000000000000006044820152606401610497565b88600760006101000a8154816001600160a01b0302191690836001600160a01b0316021790555033600860006101000a8154816001600160a01b0302191690836001600160a01b031602179055508c60099080519060200190611269929190611f45565b508b5161127d90600a9060208f0190611f45565b508a5161129190600b9060208e0190611f45565b5089516112a590600c9060208d0190611f45565b5084600d60006101000a81548160ff02191690831515021790555087600360016101000a8154816001600160a01b0302191690836001600160a01b0316021790555086600460006101000a8154816001600160a01b0302191690836001600160a01b0316021790555085600560006101000a8154816001600160a01b0302191690836001600160a01b031602179055508e8e60069190611346929190611fc9565b50801561138d576000805461ff0019169055604051600181527f7f26b83ff96e1f2b6a682f133852f6798a09c465da95921460cefb38474024989060200160405180910390a15b505050505050505050505050505050565b6008546001600160a01b031633146113e85760405162461bcd60e51b815260206004820152600d60248201526c3737ba103a34329037bbb732b960991b6044820152606401610497565b6113f4600a8383612034565b505050565b6008546001600160a01b031633146114435760405162461bcd60e51b815260206004820152600d60248201526c3737ba103a34329037bbb732b960991b6044820152606401610497565b6113f4600c8383612034565b600080600360019054906101000a90046001600160a01b03166001600160a01b031663026b1d5f6040518163ffffffff1660e01b815260040160206040518083038186803b1580156114a057600080fd5b505afa1580156114b4573d6000803e3d6000fd5b505050506040513d601f19601f820116820180604052508101906114d89190612612565b6040517fd15e00530000000000000000000000000000000000000000000000000000000081526001600160a01b0385811660048301529192509082169063d15e0053906024016103fa565b6008546000906001600160a01b031633146115705760405162461bcd60e51b815260206004820152600d60248201526c3737ba103a34329037bbb732b960991b6044820152606401610497565b600061157b86610dfb565b6040516370a0823160e01b81523060048201529091506000906001600160a01b038316906370a082319060240160206040518083038186803b1580156115c057600080fd5b505afa1580156115d4573d6000803e3d6000fd5b505050506040513d601f19601f820116820180604052508101906115f891906125ee565b6001600160a01b0388166000908152600160205260408120549192509061161f9083612645565b6001600160a01b03891660009081526002602052604081208054929350839290919061164c9084906126cd565b9250508190555060008190506000600360019054906101000a90046001600160a01b03166001600160a01b031663026b1d5f6040518163ffffffff1660e01b815260040160206040518083038186803b1580156116a857600080fd5b505afa1580156116bc573d6000803e3d6000fd5b505050506040513d601f19601f820116820180604052508101906116e09190612612565b9050876118bf578661178057600754604051631a4ca37b60e21b81526001600160a01b038c81166004830152602482018690529182166044820152908216906369328dec90606401602060405180830381600087803b15801561174257600080fd5b505af1158015611756573d6000803e3d6000fd5b505050506040513d601f19601f8201168201806040525081019061177a91906125ee565b50611b62565b600061178c8489611d03565b9050600061179a8286612645565b600754604051631a4ca37b60e21b81526001600160a01b038f811660048301526024820184905291821660448201529192508416906369328dec90606401602060405180830381600087803b1580156117f257600080fd5b505af1158015611806573d6000803e3d6000fd5b505050506040513d601f19601f8201168201806040525081019061182a91906125ee565b50604051631a4ca37b60e21b81526001600160a01b038d81166004830152602482018490528c811660448301528416906369328dec90606401602060405180830381600087803b15801561187d57600080fd5b505af1158015611891573d6000803e3d6000fd5b505050506040513d601f19601f820116820180604052508101906118b591906125ee565b509250611b629050565b60048054604080517faffa881700000000000000000000000000000000000000000000000000000000815290516001600160a01b03808f169493169263affa881792808201926020929091829003018186803b15801561191e57600080fd5b505afa158015611932573d6000803e3d6000fd5b505050506040513d601f19601f820116820180604052508101906119569190612612565b6001600160a01b0316146119ac5760405162461bcd60e51b815260206004820181905260248201527f617373657420646f6573206e6f74206d617463682057455448476174657761796044820152606401610497565b6004546119c7906001600160a01b0387811691166000611b6f565b6004546119e1906001600160a01b03878116911685611b6f565b86611a5e5760048054600754604051630402806960e51b81526001600160a01b03858116948201949094526024810187905290831660448201529116906380500d2090606401600060405180830381600087803b158015611a4157600080fd5b505af1158015611a55573d6000803e3d6000fd5b50505050611b62565b6000611a6a8489611d03565b90506000611a788286612645565b60048054600754604051630402806960e51b81526001600160a01b038881169482019490945260248101859052908316604482015292935016906380500d2090606401600060405180830381600087803b158015611ad557600080fd5b505af1158015611ae9573d6000803e3d6000fd5b505060048054604051630402806960e51b81526001600160a01b0388811693820193909352602481018790528f83166044820152911692506380500d209150606401600060405180830381600087803b158015611b4557600080fd5b505af1158015611b59573d6000803e3d6000fd5b50929550505050505b5098975050505050505050565b801580611c1157506040517fdd62ed3e0000000000000000000000000000000000000000000000000000000081523060048201526001600160a01b03838116602483015284169063dd62ed3e9060440160206040518083038186803b158015611bd757600080fd5b505afa158015611beb573d6000803e3d6000fd5b505050506040513d601f19601f82011682018060405250810190611c0f91906125ee565b155b611c835760405162461bcd60e51b815260206004820152603660248201527f5361666545524332303a20617070726f76652066726f6d206e6f6e2d7a65726f60448201527f20746f206e6f6e2d7a65726f20616c6c6f77616e6365000000000000000000006064820152608401610497565b604080516001600160a01b038416602482015260448082018490528251808303909101815260649091019091526020810180517bffffffffffffffffffffffffffffffffffffffffffffffffffffffff167f095ea7b3000000000000000000000000000000000000000000000000000000001790526113f4908490611d6c565b600080612710611d138486612891565b611d1d91906128b0565b90508061044a5760405162461bcd60e51b815260206004820152601960248201527f6e6f7420656e6f7567682066756e647320746f20636c61696d000000000000006044820152606401610497565b611d7e826001600160a01b0316611f0c565b611dca5760405162461bcd60e51b815260206004820152601f60248201527f5361666545524332303a2063616c6c20746f206e6f6e2d636f6e7472616374006044820152606401610497565b600080836001600160a01b031683604051611de591906128d2565b6000604051808303816000865af19150503d8060008114611e22576040519150601f19603f3d011682016040523d82523d6000602084013e611e27565b606091505b509150915081611e795760405162461bcd60e51b815260206004820181905260248201527f5361666545524332303a206c6f772d6c6576656c2063616c6c206661696c65646044820152606401610497565b805115611f065780806020019051810190611e9491906128ee565b611f065760405162461bcd60e51b815260206004820152602a60248201527f5361666545524332303a204552433230206f7065726174696f6e20646964206e60448201527f6f742073756363656564000000000000000000000000000000000000000000006064820152608401610497565b50505050565b6000813f7fc5d2460186f7233c927e7db2dcc703c0e500b653ca82273b7bfad8045d85a470818114801590610958575050151592915050565b828054611f519061265c565b90600052602060002090601f016020900481019282611f735760008555611fb9565b82601f10611f8c57805160ff1916838001178555611fb9565b82800160010185558215611fb9579182015b82811115611fb9578251825591602001919060010190611f9e565b50611fc59291506120a8565b5090565b828054828255906000526020600020908101928215611fb9579160200282015b82811115611fb95781547fffffffffffffffffffffffff0000000000000000000000000000000000000000166001600160a01b03843516178255602090920191600190910190611fe9565b8280546120409061265c565b90600052602060002090601f0160209004810192826120625760008555611fb9565b82601f1061207b5782800160ff19823516178555611fb9565b82800160010185558215611fb9579182015b82811115611fb957823582559160200191906001019061208d565b5b80821115611fc557600081556001016120a9565b6001600160a01b03811681146120d257600080fd5b50565b80356120e0816120bd565b919050565b6000602082840312156120f757600080fd5b813561044a816120bd565b80151581146120d257600080fd5b80356120e081612102565b6000806000806080858703121561213157600080fd5b843561213c816120bd565b9350602085013592506040850135612153816120bd565b9150606085013561216381612102565b939692955090935050565b60005b83811015612189578181015183820152602001612171565b83811115611f065750506000910152565b600081518084526121b281602086016020860161216e565b601f01601f19169290920160200192915050565b60208152600061044a602083018461219a565b600081518084526020808501945080840160005b838110156122125781516001600160a01b0316875295820195908201906001016121ed565b509495945050505050565b60208152600061044a60208301846121d9565b6000806040838503121561224357600080fd5b823561224e816120bd565b946020939093013593505050565b60e08152600061226f60e083018a6121d9565b6001600160a01b038916602084015287151560408401528281036060840152612298818861219a565b905082810360808401526122ac818761219a565b905082810360a08401526122c0818661219a565b905082810360c08401526122d4818561219a565b9a9950505050505050505050565b60008083601f8401126122f457600080fd5b50813567ffffffffffffffff81111561230c57600080fd5b6020830191508360208260051b850101111561232757600080fd5b9250929050565b634e487b7160e01b600052604160045260246000fd5b6040516101e0810167ffffffffffffffff811182821017156123685761236861232e565b60405290565b600082601f83011261237f57600080fd5b813567ffffffffffffffff8082111561239a5761239a61232e565b604051601f8301601f19908116603f011681019082821181831017156123c2576123c261232e565b816040528381528660208588010111156123db57600080fd5b836020870160208301376000602085830101528094505050505092915050565b60008060008060008060008060008060006101408c8e03121561241d57600080fd5b67ffffffffffffffff808d35111561243457600080fd5b6124418e8e358f016122e2565b909c509a5060208d013581101561245757600080fd5b6124678e60208f01358f0161236e565b99508060408e0135111561247a57600080fd5b61248a8e60408f01358f0161236e565b98508060608e0135111561249d57600080fd5b6124ad8e60608f01358f0161236e565b97508060808e013511156124c057600080fd5b506124d18d60808e01358e0161236e565b95506124df60a08d016120d5565b94506124ed60c08d016120d5565b93506124fb60e08d016120d5565b925061250a6101008d016120d5565b91506125196101208d01612110565b90509295989b509295989b9093969950565b6000806020838503121561253e57600080fd5b823567ffffffffffffffff8082111561255657600080fd5b818501915085601f83011261256a57600080fd5b81358181111561257957600080fd5b86602082850101111561258b57600080fd5b60209290920196919550909350505050565b600080600080608085870312156125b357600080fd5b84356125be816120bd565b935060208501356125ce816120bd565b925060408501356125de81612102565b9396929550929360600135925050565b60006020828403121561260057600080fd5b5051919050565b80516120e0816120bd565b60006020828403121561262457600080fd5b815161044a816120bd565b634e487b7160e01b600052601160045260246000fd5b6000828210156126575761265761262f565b500390565b600181811c9082168061267057607f821691505b6020821081141561269157634e487b7160e01b600052602260045260246000fd5b50919050565b634e487b7160e01b600052603260045260246000fd5b600060ff821660ff8114156126c4576126c461262f565b60010192915050565b600082198211156126e0576126e061262f565b500190565b6000602082840312156126f757600080fd5b6040516020810181811067ffffffffffffffff8211171561271a5761271a61232e565b6040529151825250919050565b80516fffffffffffffffffffffffffffffffff811681146120e057600080fd5b805164ffffffffff811681146120e057600080fd5b805161ffff811681146120e057600080fd5b60006101e0828403121561278157600080fd5b612789612344565b61279384846126e5565b81526127a160208401612727565b60208201526127b260408401612727565b60408201526127c360608401612727565b60608201526127d460808401612727565b60808201526127e560a08401612727565b60a08201526127f660c08401612747565b60c082015261280760e0840161275c565b60e082015261010061281a818501612607565b9082015261012061282c848201612607565b9082015261014061283e848201612607565b90820152610160612850848201612607565b90820152610180612862848201612727565b908201526101a0612874848201612727565b908201526101c0612886848201612727565b908201529392505050565b60008160001904831182151516156128ab576128ab61262f565b500290565b6000826128cd57634e487b7160e01b600052601260045260246000fd5b500490565b600082516128e481846020870161216e565b9190910192915050565b60006020828403121561290057600080fd5b815161044a8161210256fea264697066735822122075c6a3010f94a50f5ce256d34d1125a1aebda7bbdf360a0ea9d47fe3dfe7de3f64736f6c63430008090033","opcodes":"PUSH1 0x80 PUSH1 0x40 MSTORE CALLVALUE DUP1 ISZERO PUSH2 0x10 JUMPI PUSH1 0x0 DUP1 REVERT JUMPDEST POP PUSH1 0x3 DUP1 SLOAD PUSH1 0xFF NOT AND PUSH1 0x1 OR SWAP1 SSTORE PUSH2 0x2941 DUP1 PUSH2 0x2D PUSH1 0x0 CODECOPY PUSH1 0x0 RETURN INVALID PUSH1 0x80 PUSH1 0x40 MSTORE CALLVALUE DUP1 ISZERO PUSH2 0x10 JUMPI PUSH1 0x0 DUP1 REVERT JUMPDEST POP PUSH1 0x4 CALLDATASIZE LT PUSH2 0x18C JUMPI PUSH1 0x0 CALLDATALOAD PUSH1 0xE0 SHR DUP1 PUSH4 0x373D7C3F GT PUSH2 0xE3 JUMPI DUP1 PUSH4 0x8AEBE8D6 GT PUSH2 0x8C JUMPI DUP1 PUSH4 0xD0E7A76E GT PUSH2 0x66 JUMPI DUP1 PUSH4 0xD0E7A76E EQ PUSH2 0x38A JUMPI DUP1 PUSH4 0xD15E0053 EQ PUSH2 0x39D JUMPI DUP1 PUSH4 0xEDA9C2D2 EQ PUSH2 0x3B0 JUMPI PUSH1 0x0 DUP1 REVERT JUMPDEST DUP1 PUSH4 0x8AEBE8D6 EQ PUSH2 0x351 JUMPI DUP1 PUSH4 0xBBC41F48 EQ PUSH2 0x364 JUMPI DUP1 PUSH4 0xD04D566A EQ PUSH2 0x377 JUMPI PUSH1 0x0 DUP1 REVERT JUMPDEST DUP1 PUSH4 0x60246C88 GT PUSH2 0xBD JUMPI DUP1 PUSH4 0x60246C88 EQ PUSH2 0x2D2 JUMPI DUP1 PUSH4 0x67E0E076 EQ PUSH2 0x2ED JUMPI DUP1 PUSH4 0x711CC005 EQ PUSH2 0x33E JUMPI PUSH1 0x0 DUP1 REVERT JUMPDEST DUP1 PUSH4 0x373D7C3F EQ PUSH2 0x28E JUMPI DUP1 PUSH4 0x47E7EF24 EQ PUSH2 0x296 JUMPI DUP1 PUSH4 0x5FF189B9 EQ PUSH2 0x2A9 JUMPI PUSH1 0x0 DUP1 REVERT JUMPDEST DUP1 PUSH4 0x17D7DE7C GT PUSH2 0x145 JUMPI DUP1 PUSH4 0x343D693B GT PUSH2 0x11F JUMPI DUP1 PUSH4 0x343D693B EQ PUSH2 0x25D JUMPI DUP1 PUSH4 0x357286D7 EQ PUSH2 0x265 JUMPI DUP1 PUSH4 0x3735EF88 EQ PUSH2 0x27B JUMPI PUSH1 0x0 DUP1 REVERT JUMPDEST DUP1 PUSH4 0x17D7DE7C EQ PUSH2 0x22F JUMPI DUP1 PUSH4 0x1B88094D EQ PUSH2 0x237 JUMPI DUP1 PUSH4 0x2F757006 EQ PUSH2 0x248 JUMPI PUSH1 0x0 DUP1 REVERT JUMPDEST DUP1 PUSH4 0x712F6B3 GT PUSH2 0x176 JUMPI DUP1 PUSH4 0x712F6B3 EQ PUSH2 0x1F2 JUMPI DUP1 PUSH4 0x12EEFF7E EQ PUSH2 0x205 JUMPI DUP1 PUSH4 0x155D8E9C EQ PUSH2 0x21A JUMPI PUSH1 0x0 DUP1 REVERT JUMPDEST DUP1 PUSH3 0x7FFB78 EQ PUSH2 0x191 JUMPI DUP1 PUSH4 0x251CFA1 EQ PUSH2 0x1BB JUMPI JUMPDEST PUSH1 0x0 DUP1 REVERT JUMPDEST PUSH1 0x5 SLOAD PUSH1 0x1 PUSH1 0x1 PUSH1 0xA0 SHL SUB AND JUMPDEST PUSH1 0x40 MLOAD PUSH1 0x1 PUSH1 0x1 PUSH1 0xA0 SHL SUB SWAP1 SWAP2 AND DUP2 MSTORE PUSH1 0x20 ADD JUMPDEST PUSH1 0x40 MLOAD DUP1 SWAP2 SUB SWAP1 RETURN JUMPDEST PUSH2 0x1E4 PUSH2 0x1C9 CALLDATASIZE PUSH1 0x4 PUSH2 0x20E5 JUMP JUMPDEST PUSH1 0x1 PUSH1 0x1 PUSH1 0xA0 SHL SUB AND PUSH1 0x0 SWAP1 DUP2 MSTORE PUSH1 0x1 PUSH1 0x20 MSTORE PUSH1 0x40 SWAP1 KECCAK256 SLOAD SWAP1 JUMP JUMPDEST PUSH1 0x40 MLOAD SWAP1 DUP2 MSTORE PUSH1 0x20 ADD PUSH2 0x1B2 JUMP JUMPDEST PUSH2 0x1E4 PUSH2 0x200 CALLDATASIZE PUSH1 0x4 PUSH2 0x20E5 JUMP JUMPDEST PUSH2 0x3C3 JUMP JUMPDEST PUSH2 0x218 PUSH2 0x213 CALLDATASIZE PUSH1 0x4 PUSH2 0x211B JUMP JUMPDEST PUSH2 0x451 JUMP JUMPDEST STOP JUMPDEST PUSH2 0x222 PUSH2 0x798 JUMP JUMPDEST PUSH1 0x40 MLOAD PUSH2 0x1B2 SWAP2 SWAP1 PUSH2 0x21C6 JUMP JUMPDEST PUSH2 0x222 PUSH2 0x82A JUMP JUMPDEST PUSH1 0x7 SLOAD PUSH1 0x1 PUSH1 0x1 PUSH1 0xA0 SHL SUB AND PUSH2 0x19E JUMP JUMPDEST PUSH2 0x250 PUSH2 0x839 JUMP JUMPDEST PUSH1 0x40 MLOAD PUSH2 0x1B2 SWAP2 SWAP1 PUSH2 0x221D JUMP JUMPDEST PUSH2 0x222 PUSH2 0x89A JUMP JUMPDEST PUSH1 0xD SLOAD PUSH1 0xFF AND PUSH1 0x40 MLOAD SWAP1 ISZERO ISZERO DUP2 MSTORE PUSH1 0x20 ADD PUSH2 0x1B2 JUMP JUMPDEST PUSH2 0x1E4 PUSH2 0x289 CALLDATASIZE PUSH1 0x4 PUSH2 0x20E5 JUMP JUMPDEST PUSH2 0x8A9 JUMP JUMPDEST PUSH2 0x222 PUSH2 0x960 JUMP JUMPDEST PUSH2 0x218 PUSH2 0x2A4 CALLDATASIZE PUSH1 0x4 PUSH2 0x2230 JUMP JUMPDEST PUSH2 0x96F JUMP JUMPDEST PUSH2 0x1E4 PUSH2 0x2B7 CALLDATASIZE PUSH1 0x4 PUSH2 0x20E5 JUMP JUMPDEST PUSH1 0x1 PUSH1 0x1 PUSH1 0xA0 SHL SUB AND PUSH1 0x0 SWAP1 DUP2 MSTORE PUSH1 0x2 PUSH1 0x20 MSTORE PUSH1 0x40 SWAP1 KECCAK256 SLOAD SWAP1 JUMP JUMPDEST PUSH2 0x2DA PUSH2 0xA9C JUMP JUMPDEST PUSH1 0x40 MLOAD PUSH2 0x1B2 SWAP8 SWAP7 SWAP6 SWAP5 SWAP4 SWAP3 SWAP2 SWAP1 PUSH2 0x225C JUMP JUMPDEST PUSH2 0x300 PUSH2 0x2FB CALLDATASIZE PUSH1 0x4 PUSH2 0x20E5 JUMP JUMPDEST PUSH2 0xD7A JUMP JUMPDEST PUSH1 0x40 DUP1 MLOAD SWAP8 DUP9 MSTORE PUSH1 0x20 DUP9 ADD SWAP7 SWAP1 SWAP7 MSTORE SWAP5 DUP7 ADD SWAP4 SWAP1 SWAP4 MSTORE PUSH1 0x60 DUP6 ADD SWAP2 SWAP1 SWAP2 MSTORE PUSH1 0x80 DUP5 ADD MSTORE PUSH1 0xA0 DUP4 ADD MSTORE PUSH1 0x1 PUSH1 0x1 PUSH1 0xA0 SHL SUB AND PUSH1 0xC0 DUP3 ADD MSTORE PUSH1 0xE0 ADD PUSH2 0x1B2 JUMP JUMPDEST PUSH2 0x19E PUSH2 0x34C CALLDATASIZE PUSH1 0x4 PUSH2 0x20E5 JUMP JUMPDEST PUSH2 0xDFB JUMP JUMPDEST PUSH2 0x1E4 PUSH2 0x35F CALLDATASIZE PUSH1 0x4 PUSH2 0x20E5 JUMP JUMPDEST PUSH2 0xF0E JUMP JUMPDEST PUSH2 0x218 PUSH2 0x372 CALLDATASIZE PUSH1 0x4 PUSH2 0x23FB JUMP JUMPDEST PUSH2 0x1032 JUMP JUMPDEST PUSH2 0x218 PUSH2 0x385 CALLDATASIZE PUSH1 0x4 PUSH2 0x252B JUMP JUMPDEST PUSH2 0x139E JUMP JUMPDEST PUSH2 0x218 PUSH2 0x398 CALLDATASIZE PUSH1 0x4 PUSH2 0x252B JUMP JUMPDEST PUSH2 0x13F9 JUMP JUMPDEST PUSH2 0x1E4 PUSH2 0x3AB CALLDATASIZE PUSH1 0x4 PUSH2 0x20E5 JUMP JUMPDEST PUSH2 0x144F JUMP JUMPDEST PUSH2 0x1E4 PUSH2 0x3BE CALLDATASIZE PUSH1 0x4 PUSH2 0x259D JUMP JUMPDEST PUSH2 0x1523 JUMP JUMPDEST PUSH1 0x0 DUP1 PUSH2 0x3CF DUP4 PUSH2 0xDFB JUMP JUMPDEST PUSH1 0x40 MLOAD PUSH4 0x70A08231 PUSH1 0xE0 SHL DUP2 MSTORE ADDRESS PUSH1 0x4 DUP3 ADD MSTORE SWAP1 SWAP2 POP PUSH1 0x1 PUSH1 0x1 PUSH1 0xA0 SHL SUB DUP3 AND SWAP1 PUSH4 0x70A08231 SWAP1 PUSH1 0x24 ADD JUMPDEST PUSH1 0x20 PUSH1 0x40 MLOAD DUP1 DUP4 SUB DUP2 DUP7 DUP1 EXTCODESIZE ISZERO DUP1 ISZERO PUSH2 0x412 JUMPI PUSH1 0x0 DUP1 REVERT JUMPDEST POP GAS STATICCALL ISZERO DUP1 ISZERO PUSH2 0x426 JUMPI RETURNDATASIZE PUSH1 0x0 DUP1 RETURNDATACOPY RETURNDATASIZE PUSH1 0x0 REVERT JUMPDEST POP POP POP POP PUSH1 0x40 MLOAD RETURNDATASIZE PUSH1 0x1F NOT PUSH1 0x1F DUP3 ADD AND DUP3 ADD DUP1 PUSH1 0x40 MSTORE POP DUP2 ADD SWAP1 PUSH2 0x44A SWAP2 SWAP1 PUSH2 0x25EE JUMP JUMPDEST SWAP4 SWAP3 POP POP POP JUMP JUMPDEST PUSH1 0x8 SLOAD PUSH1 0x1 PUSH1 0x1 PUSH1 0xA0 SHL SUB AND CALLER EQ PUSH2 0x4A0 JUMPI PUSH1 0x40 MLOAD PUSH3 0x461BCD PUSH1 0xE5 SHL DUP2 MSTORE PUSH1 0x20 PUSH1 0x4 DUP3 ADD MSTORE PUSH1 0xD PUSH1 0x24 DUP3 ADD MSTORE PUSH13 0x3737BA103A34329037BBB732B9 PUSH1 0x99 SHL PUSH1 0x44 DUP3 ADD MSTORE PUSH1 0x64 ADD JUMPDEST PUSH1 0x40 MLOAD DUP1 SWAP2 SUB SWAP1 REVERT JUMPDEST PUSH1 0x0 PUSH1 0x3 PUSH1 0x1 SWAP1 SLOAD SWAP1 PUSH2 0x100 EXP SWAP1 DIV PUSH1 0x1 PUSH1 0x1 PUSH1 0xA0 SHL SUB AND PUSH1 0x1 PUSH1 0x1 PUSH1 0xA0 SHL SUB AND PUSH4 0x26B1D5F PUSH1 0x40 MLOAD DUP2 PUSH4 0xFFFFFFFF AND PUSH1 0xE0 SHL DUP2 MSTORE PUSH1 0x4 ADD PUSH1 0x20 PUSH1 0x40 MLOAD DUP1 DUP4 SUB DUP2 DUP7 DUP1 EXTCODESIZE ISZERO DUP1 ISZERO PUSH2 0x4F0 JUMPI PUSH1 0x0 DUP1 REVERT JUMPDEST POP GAS STATICCALL ISZERO DUP1 ISZERO PUSH2 0x504 JUMPI RETURNDATASIZE PUSH1 0x0 DUP1 RETURNDATACOPY RETURNDATASIZE PUSH1 0x0 REVERT JUMPDEST POP POP POP POP PUSH1 0x40 MLOAD RETURNDATASIZE PUSH1 0x1F NOT PUSH1 0x1F DUP3 ADD AND DUP3 ADD DUP1 PUSH1 0x40 MSTORE POP DUP2 ADD SWAP1 PUSH2 0x528 SWAP2 SWAP1 PUSH2 0x2612 JUMP JUMPDEST PUSH1 0x1 PUSH1 0x1 PUSH1 0xA0 SHL SUB DUP7 AND PUSH1 0x0 SWAP1 DUP2 MSTORE PUSH1 0x1 PUSH1 0x20 MSTORE PUSH1 0x40 DUP2 KECCAK256 DUP1 SLOAD SWAP3 SWAP4 POP DUP7 SWAP3 SWAP1 SWAP2 SWAP1 PUSH2 0x555 SWAP1 DUP5 SWAP1 PUSH2 0x2645 JUMP JUMPDEST SWAP1 SWAP2 SSTORE POP DUP3 SWAP1 POP PUSH2 0x5F0 JUMPI PUSH1 0x40 MLOAD PUSH4 0x1A4CA37B PUSH1 0xE2 SHL DUP2 MSTORE PUSH1 0x1 PUSH1 0x1 PUSH1 0xA0 SHL SUB DUP7 DUP2 AND PUSH1 0x4 DUP4 ADD MSTORE PUSH1 0x24 DUP3 ADD DUP7 SWAP1 MSTORE DUP5 DUP2 AND PUSH1 0x44 DUP4 ADD MSTORE DUP3 AND SWAP1 PUSH4 0x69328DEC SWAP1 PUSH1 0x64 ADD PUSH1 0x20 PUSH1 0x40 MLOAD DUP1 DUP4 SUB DUP2 PUSH1 0x0 DUP8 DUP1 EXTCODESIZE ISZERO DUP1 ISZERO PUSH2 0x5B2 JUMPI PUSH1 0x0 DUP1 REVERT JUMPDEST POP GAS CALL ISZERO DUP1 ISZERO PUSH2 0x5C6 JUMPI RETURNDATASIZE PUSH1 0x0 DUP1 RETURNDATACOPY RETURNDATASIZE PUSH1 0x0 REVERT JUMPDEST POP POP POP POP PUSH1 0x40 MLOAD RETURNDATASIZE PUSH1 0x1F NOT PUSH1 0x1F DUP3 ADD AND DUP3 ADD DUP1 PUSH1 0x40 MSTORE POP DUP2 ADD SWAP1 PUSH2 0x5EA SWAP2 SWAP1 PUSH2 0x25EE JUMP JUMPDEST POP PUSH2 0x791 JUMP JUMPDEST PUSH1 0x0 PUSH1 0x4 PUSH1 0x0 SWAP1 SLOAD SWAP1 PUSH2 0x100 EXP SWAP1 DIV PUSH1 0x1 PUSH1 0x1 PUSH1 0xA0 SHL SUB AND PUSH1 0x1 PUSH1 0x1 PUSH1 0xA0 SHL SUB AND PUSH4 0xAFFA8817 PUSH1 0x40 MLOAD DUP2 PUSH4 0xFFFFFFFF AND PUSH1 0xE0 SHL DUP2 MSTORE PUSH1 0x4 ADD PUSH1 0x20 PUSH1 0x40 MLOAD DUP1 DUP4 SUB DUP2 DUP7 DUP1 EXTCODESIZE ISZERO DUP1 ISZERO PUSH2 0x640 JUMPI PUSH1 0x0 DUP1 REVERT JUMPDEST POP GAS STATICCALL ISZERO DUP1 ISZERO PUSH2 0x654 JUMPI RETURNDATASIZE PUSH1 0x0 DUP1 RETURNDATACOPY RETURNDATASIZE PUSH1 0x0 REVERT JUMPDEST POP POP POP POP PUSH1 0x40 MLOAD RETURNDATASIZE PUSH1 0x1F NOT PUSH1 0x1F DUP3 ADD AND DUP3 ADD DUP1 PUSH1 0x40 MSTORE POP DUP2 ADD SWAP1 PUSH2 0x678 SWAP2 SWAP1 PUSH2 0x2612 JUMP JUMPDEST SWAP1 POP DUP6 PUSH1 0x1 PUSH1 0x1 PUSH1 0xA0 SHL SUB AND DUP2 PUSH1 0x1 PUSH1 0x1 PUSH1 0xA0 SHL SUB AND EQ PUSH2 0x6DB JUMPI PUSH1 0x40 MLOAD PUSH3 0x461BCD PUSH1 0xE5 SHL DUP2 MSTORE PUSH1 0x20 PUSH1 0x4 DUP3 ADD DUP2 SWAP1 MSTORE PUSH1 0x24 DUP3 ADD MSTORE PUSH32 0x617373657420646F6573206E6F74206D61746368205745544847617465776179 PUSH1 0x44 DUP3 ADD MSTORE PUSH1 0x64 ADD PUSH2 0x497 JUMP JUMPDEST PUSH1 0x0 PUSH2 0x6E6 DUP3 PUSH2 0xDFB JUMP JUMPDEST PUSH1 0x4 SLOAD SWAP1 SWAP2 POP PUSH2 0x704 SWAP1 PUSH1 0x1 PUSH1 0x1 PUSH1 0xA0 SHL SUB DUP1 DUP5 AND SWAP2 AND PUSH1 0x0 PUSH2 0x1B6F JUMP JUMPDEST PUSH1 0x4 SLOAD PUSH2 0x71E SWAP1 PUSH1 0x1 PUSH1 0x1 PUSH1 0xA0 SHL SUB DUP4 DUP2 AND SWAP2 AND DUP9 PUSH2 0x1B6F JUMP JUMPDEST PUSH1 0x4 DUP1 SLOAD PUSH1 0x40 MLOAD PUSH4 0x4028069 PUSH1 0xE5 SHL DUP2 MSTORE PUSH1 0x1 PUSH1 0x1 PUSH1 0xA0 SHL SUB DUP7 DUP2 AND SWAP4 DUP3 ADD SWAP4 SWAP1 SWAP4 MSTORE PUSH1 0x24 DUP2 ADD DUP10 SWAP1 MSTORE DUP8 DUP4 AND PUSH1 0x44 DUP3 ADD MSTORE SWAP2 AND SWAP1 PUSH4 0x80500D20 SWAP1 PUSH1 0x64 ADD PUSH1 0x0 PUSH1 0x40 MLOAD DUP1 DUP4 SUB DUP2 PUSH1 0x0 DUP8 DUP1 EXTCODESIZE ISZERO DUP1 ISZERO PUSH2 0x776 JUMPI PUSH1 0x0 DUP1 REVERT JUMPDEST POP GAS CALL ISZERO DUP1 ISZERO PUSH2 0x78A JUMPI RETURNDATASIZE PUSH1 0x0 DUP1 RETURNDATACOPY RETURNDATASIZE PUSH1 0x0 REVERT JUMPDEST POP POP POP POP POP POP JUMPDEST POP POP POP POP POP JUMP JUMPDEST PUSH1 0x60 PUSH1 0xB DUP1 SLOAD PUSH2 0x7A7 SWAP1 PUSH2 0x265C JUMP JUMPDEST DUP1 PUSH1 0x1F ADD PUSH1 0x20 DUP1 SWAP2 DIV MUL PUSH1 0x20 ADD PUSH1 0x40 MLOAD SWAP1 DUP2 ADD PUSH1 0x40 MSTORE DUP1 SWAP3 SWAP2 SWAP1 DUP2 DUP2 MSTORE PUSH1 0x20 ADD DUP3 DUP1 SLOAD PUSH2 0x7D3 SWAP1 PUSH2 0x265C JUMP JUMPDEST DUP1 ISZERO PUSH2 0x820 JUMPI DUP1 PUSH1 0x1F LT PUSH2 0x7F5 JUMPI PUSH2 0x100 DUP1 DUP4 SLOAD DIV MUL DUP4 MSTORE SWAP2 PUSH1 0x20 ADD SWAP2 PUSH2 0x820 JUMP JUMPDEST DUP3 ADD SWAP2 SWAP1 PUSH1 0x0 MSTORE PUSH1 0x20 PUSH1 0x0 KECCAK256 SWAP1 JUMPDEST DUP2 SLOAD DUP2 MSTORE SWAP1 PUSH1 0x1 ADD SWAP1 PUSH1 0x20 ADD DUP1 DUP4 GT PUSH2 0x803 JUMPI DUP3 SWAP1 SUB PUSH1 0x1F AND DUP3 ADD SWAP2 JUMPDEST POP POP POP POP POP SWAP1 POP SWAP1 JUMP JUMPDEST PUSH1 0x60 PUSH1 0x9 DUP1 SLOAD PUSH2 0x7A7 SWAP1 PUSH2 0x265C JUMP JUMPDEST PUSH1 0x60 PUSH1 0x6 DUP1 SLOAD DUP1 PUSH1 0x20 MUL PUSH1 0x20 ADD PUSH1 0x40 MLOAD SWAP1 DUP2 ADD PUSH1 0x40 MSTORE DUP1 SWAP3 SWAP2 SWAP1 DUP2 DUP2 MSTORE PUSH1 0x20 ADD DUP3 DUP1 SLOAD DUP1 ISZERO PUSH2 0x820 JUMPI PUSH1 0x20 MUL DUP3 ADD SWAP2 SWAP1 PUSH1 0x0 MSTORE PUSH1 0x20 PUSH1 0x0 KECCAK256 SWAP1 JUMPDEST DUP2 SLOAD PUSH1 0x1 PUSH1 0x1 PUSH1 0xA0 SHL SUB AND DUP2 MSTORE PUSH1 0x1 SWAP1 SWAP2 ADD SWAP1 PUSH1 0x20 ADD DUP1 DUP4 GT PUSH2 0x873 JUMPI POP POP POP POP POP SWAP1 POP SWAP1 JUMP JUMPDEST PUSH1 0x60 PUSH1 0xA DUP1 SLOAD PUSH2 0x7A7 SWAP1 PUSH2 0x265C JUMP JUMPDEST PUSH1 0x0 DUP1 PUSH2 0x8B5 DUP4 PUSH2 0xDFB JUMP JUMPDEST PUSH1 0x40 MLOAD PUSH4 0x70A08231 PUSH1 0xE0 SHL DUP2 MSTORE ADDRESS PUSH1 0x4 DUP3 ADD MSTORE SWAP1 SWAP2 POP PUSH1 0x0 SWAP1 PUSH1 0x1 PUSH1 0x1 PUSH1 0xA0 SHL SUB DUP4 AND SWAP1 PUSH4 0x70A08231 SWAP1 PUSH1 0x24 ADD PUSH1 0x20 PUSH1 0x40 MLOAD DUP1 DUP4 SUB DUP2 DUP7 DUP1 EXTCODESIZE ISZERO DUP1 ISZERO PUSH2 0x8FA JUMPI PUSH1 0x0 DUP1 REVERT JUMPDEST POP GAS STATICCALL ISZERO DUP1 ISZERO PUSH2 0x90E JUMPI RETURNDATASIZE PUSH1 0x0 DUP1 RETURNDATACOPY RETURNDATASIZE PUSH1 0x0 REVERT JUMPDEST POP POP POP POP PUSH1 0x40 MLOAD RETURNDATASIZE PUSH1 0x1F NOT PUSH1 0x1F DUP3 ADD AND DUP3 ADD DUP1 PUSH1 0x40 MSTORE POP DUP2 ADD SWAP1 PUSH2 0x932 SWAP2 SWAP1 PUSH2 0x25EE JUMP JUMPDEST PUSH1 0x1 PUSH1 0x1 PUSH1 0xA0 SHL SUB DUP6 AND PUSH1 0x0 SWAP1 DUP2 MSTORE PUSH1 0x1 PUSH1 0x20 MSTORE PUSH1 0x40 SWAP1 KECCAK256 SLOAD SWAP1 SWAP2 POP PUSH2 0x958 SWAP1 DUP3 PUSH2 0x2645 JUMP JUMPDEST SWAP5 SWAP4 POP POP POP POP JUMP JUMPDEST PUSH1 0x60 PUSH1 0xC DUP1 SLOAD PUSH2 0x7A7 SWAP1 PUSH2 0x265C JUMP JUMPDEST PUSH1 0x8 SLOAD PUSH1 0x1 PUSH1 0x1 PUSH1 0xA0 SHL SUB AND CALLER EQ PUSH2 0x9B9 JUMPI PUSH1 0x40 MLOAD PUSH3 0x461BCD PUSH1 0xE5 SHL DUP2 MSTORE PUSH1 0x20 PUSH1 0x4 DUP3 ADD MSTORE PUSH1 0xD PUSH1 0x24 DUP3 ADD MSTORE PUSH13 0x3737BA103A34329037BBB732B9 PUSH1 0x99 SHL PUSH1 0x44 DUP3 ADD MSTORE PUSH1 0x64 ADD PUSH2 0x497 JUMP JUMPDEST DUP2 PUSH1 0x0 DUP1 JUMPDEST PUSH1 0x6 SLOAD PUSH1 0xFF DUP3 AND LT ISZERO PUSH2 0xA1B JUMPI PUSH1 0x6 DUP2 PUSH1 0xFF AND DUP2 SLOAD DUP2 LT PUSH2 0x9E1 JUMPI PUSH2 0x9E1 PUSH2 0x2697 JUMP JUMPDEST PUSH1 0x0 SWAP2 DUP3 MSTORE PUSH1 0x20 SWAP1 SWAP2 KECCAK256 ADD SLOAD PUSH1 0x1 PUSH1 0x1 PUSH1 0xA0 SHL SUB DUP5 DUP2 AND SWAP2 AND EQ ISZERO PUSH2 0xA09 JUMPI PUSH1 0x1 SWAP2 POP PUSH2 0xA1B JUMP JUMPDEST DUP1 PUSH2 0xA13 DUP2 PUSH2 0x26AD JUMP JUMPDEST SWAP2 POP POP PUSH2 0x9BE JUMP JUMPDEST POP DUP1 PUSH2 0xA69 JUMPI PUSH1 0x40 MLOAD PUSH3 0x461BCD PUSH1 0xE5 SHL DUP2 MSTORE PUSH1 0x20 PUSH1 0x4 DUP3 ADD MSTORE PUSH1 0x1C PUSH1 0x24 DUP3 ADD MSTORE PUSH32 0x746F6B656E206E6F74206163636570746564206279206A63706F6F6C00000000 PUSH1 0x44 DUP3 ADD MSTORE PUSH1 0x64 ADD PUSH2 0x497 JUMP JUMPDEST PUSH1 0x1 PUSH1 0x1 PUSH1 0xA0 SHL SUB DUP5 AND PUSH1 0x0 SWAP1 DUP2 MSTORE PUSH1 0x1 PUSH1 0x20 MSTORE PUSH1 0x40 DUP2 KECCAK256 DUP1 SLOAD DUP6 SWAP3 SWAP1 PUSH2 0xA91 SWAP1 DUP5 SWAP1 PUSH2 0x26CD JUMP JUMPDEST SWAP1 SWAP2 SSTORE POP POP POP POP POP POP JUMP JUMPDEST PUSH1 0x60 PUSH1 0x0 DUP1 PUSH1 0x60 DUP1 PUSH1 0x60 DUP1 PUSH1 0x6 PUSH1 0x7 PUSH1 0x0 SWAP1 SLOAD SWAP1 PUSH2 0x100 EXP SWAP1 DIV PUSH1 0x1 PUSH1 0x1 PUSH1 0xA0 SHL SUB AND PUSH1 0xD PUSH1 0x0 SWAP1 SLOAD SWAP1 PUSH2 0x100 EXP SWAP1 DIV PUSH1 0xFF AND PUSH1 0xC PUSH1 0xB PUSH1 0xA PUSH1 0x9 DUP7 DUP1 SLOAD DUP1 PUSH1 0x20 MUL PUSH1 0x20 ADD PUSH1 0x40 MLOAD SWAP1 DUP2 ADD PUSH1 0x40 MSTORE DUP1 SWAP3 SWAP2 SWAP1 DUP2 DUP2 MSTORE PUSH1 0x20 ADD DUP3 DUP1 SLOAD DUP1 ISZERO PUSH2 0xB2C JUMPI PUSH1 0x20 MUL DUP3 ADD SWAP2 SWAP1 PUSH1 0x0 MSTORE PUSH1 0x20 PUSH1 0x0 KECCAK256 SWAP1 JUMPDEST DUP2 SLOAD PUSH1 0x1 PUSH1 0x1 PUSH1 0xA0 SHL SUB AND DUP2 MSTORE PUSH1 0x1 SWAP1 SWAP2 ADD SWAP1 PUSH1 0x20 ADD DUP1 DUP4 GT PUSH2 0xB0E JUMPI JUMPDEST POP POP POP POP POP SWAP7 POP DUP4 DUP1 SLOAD PUSH2 0xB3F SWAP1 PUSH2 0x265C JUMP JUMPDEST DUP1 PUSH1 0x1F ADD PUSH1 0x20 DUP1 SWAP2 DIV MUL PUSH1 0x20 ADD PUSH1 0x40 MLOAD SWAP1 DUP2 ADD PUSH1 0x40 MSTORE DUP1 SWAP3 SWAP2 SWAP1 DUP2 DUP2 MSTORE PUSH1 0x20 ADD DUP3 DUP1 SLOAD PUSH2 0xB6B SWAP1 PUSH2 0x265C JUMP JUMPDEST DUP1 ISZERO PUSH2 0xBB8 JUMPI DUP1 PUSH1 0x1F LT PUSH2 0xB8D JUMPI PUSH2 0x100 DUP1 DUP4 SLOAD DIV MUL DUP4 MSTORE SWAP2 PUSH1 0x20 ADD SWAP2 PUSH2 0xBB8 JUMP JUMPDEST DUP3 ADD SWAP2 SWAP1 PUSH1 0x0 MSTORE PUSH1 0x20 PUSH1 0x0 KECCAK256 SWAP1 JUMPDEST DUP2 SLOAD DUP2 MSTORE SWAP1 PUSH1 0x1 ADD SWAP1 PUSH1 0x20 ADD DUP1 DUP4 GT PUSH2 0xB9B JUMPI DUP3 SWAP1 SUB PUSH1 0x1F AND DUP3 ADD SWAP2 JUMPDEST POP POP POP POP POP SWAP4 POP DUP3 DUP1 SLOAD PUSH2 0xBCB SWAP1 PUSH2 0x265C JUMP JUMPDEST DUP1 PUSH1 0x1F ADD PUSH1 0x20 DUP1 SWAP2 DIV MUL PUSH1 0x20 ADD PUSH1 0x40 MLOAD SWAP1 DUP2 ADD PUSH1 0x40 MSTORE DUP1 SWAP3 SWAP2 SWAP1 DUP2 DUP2 MSTORE PUSH1 0x20 ADD DUP3 DUP1 SLOAD PUSH2 0xBF7 SWAP1 PUSH2 0x265C JUMP JUMPDEST DUP1 ISZERO PUSH2 0xC44 JUMPI DUP1 PUSH1 0x1F LT PUSH2 0xC19 JUMPI PUSH2 0x100 DUP1 DUP4 SLOAD DIV MUL DUP4 MSTORE SWAP2 PUSH1 0x20 ADD SWAP2 PUSH2 0xC44 JUMP JUMPDEST DUP3 ADD SWAP2 SWAP1 PUSH1 0x0 MSTORE PUSH1 0x20 PUSH1 0x0 KECCAK256 SWAP1 JUMPDEST DUP2 SLOAD DUP2 MSTORE SWAP1 PUSH1 0x1 ADD SWAP1 PUSH1 0x20 ADD DUP1 DUP4 GT PUSH2 0xC27 JUMPI DUP3 SWAP1 SUB PUSH1 0x1F AND DUP3 ADD SWAP2 JUMPDEST POP POP POP POP POP SWAP3 POP DUP2 DUP1 SLOAD PUSH2 0xC57 SWAP1 PUSH2 0x265C JUMP JUMPDEST DUP1 PUSH1 0x1F ADD PUSH1 0x20 DUP1 SWAP2 DIV MUL PUSH1 0x20 ADD PUSH1 0x40 MLOAD SWAP1 DUP2 ADD PUSH1 0x40 MSTORE DUP1 SWAP3 SWAP2 SWAP1 DUP2 DUP2 MSTORE PUSH1 0x20 ADD DUP3 DUP1 SLOAD PUSH2 0xC83 SWAP1 PUSH2 0x265C JUMP JUMPDEST DUP1 ISZERO PUSH2 0xCD0 JUMPI DUP1 PUSH1 0x1F LT PUSH2 0xCA5 JUMPI PUSH2 0x100 DUP1 DUP4 SLOAD DIV MUL DUP4 MSTORE SWAP2 PUSH1 0x20 ADD SWAP2 PUSH2 0xCD0 JUMP JUMPDEST DUP3 ADD SWAP2 SWAP1 PUSH1 0x0 MSTORE PUSH1 0x20 PUSH1 0x0 KECCAK256 SWAP1 JUMPDEST DUP2 SLOAD DUP2 MSTORE SWAP1 PUSH1 0x1 ADD SWAP1 PUSH1 0x20 ADD DUP1 DUP4 GT PUSH2 0xCB3 JUMPI DUP3 SWAP1 SUB PUSH1 0x1F AND DUP3 ADD SWAP2 JUMPDEST POP POP POP POP POP SWAP2 POP DUP1 DUP1 SLOAD PUSH2 0xCE3 SWAP1 PUSH2 0x265C JUMP JUMPDEST DUP1 PUSH1 0x1F ADD PUSH1 0x20 DUP1 SWAP2 DIV MUL PUSH1 0x20 ADD PUSH1 0x40 MLOAD SWAP1 DUP2 ADD PUSH1 0x40 MSTORE DUP1 SWAP3 SWAP2 SWAP1 DUP2 DUP2 MSTORE PUSH1 0x20 ADD DUP3 DUP1 SLOAD PUSH2 0xD0F SWAP1 PUSH2 0x265C JUMP JUMPDEST DUP1 ISZERO PUSH2 0xD5C JUMPI DUP1 PUSH1 0x1F LT PUSH2 0xD31 JUMPI PUSH2 0x100 DUP1 DUP4 SLOAD DIV MUL DUP4 MSTORE SWAP2 PUSH1 0x20 ADD SWAP2 PUSH2 0xD5C JUMP JUMPDEST DUP3 ADD SWAP2 SWAP1 PUSH1 0x0 MSTORE PUSH1 0x20 PUSH1 0x0 KECCAK256 SWAP1 JUMPDEST DUP2 SLOAD DUP2 MSTORE SWAP1 PUSH1 0x1 ADD SWAP1 PUSH1 0x20 ADD DUP1 DUP4 GT PUSH2 0xD3F JUMPI DUP3 SWAP1 SUB PUSH1 0x1F AND DUP3 ADD SWAP2 JUMPDEST POP POP POP POP POP SWAP1 POP SWAP7 POP SWAP7 POP SWAP7 POP SWAP7 POP SWAP7 POP SWAP7 POP SWAP7 POP SWAP1 SWAP2 SWAP3 SWAP4 SWAP5 SWAP6 SWAP7 JUMP JUMPDEST PUSH1 0x0 DUP1 PUSH1 0x0 DUP1 PUSH1 0x0 DUP1 PUSH1 0x0 PUSH2 0xD8E DUP9 PUSH2 0xF0E JUMP JUMPDEST PUSH2 0xD97 DUP10 PUSH2 0x144F JUMP JUMPDEST PUSH2 0xDA0 DUP11 PUSH2 0x3C3 JUMP JUMPDEST PUSH1 0x1 PUSH1 0x1 PUSH1 0xA0 SHL SUB DUP12 AND PUSH1 0x0 SWAP1 DUP2 MSTORE PUSH1 0x2 PUSH1 0x20 MSTORE PUSH1 0x40 SWAP1 KECCAK256 SLOAD PUSH2 0xDC2 DUP13 PUSH2 0x8A9 JUMP JUMPDEST PUSH1 0x1 PUSH1 0x1 PUSH1 0xA0 SHL SUB DUP14 AND PUSH1 0x0 SWAP1 DUP2 MSTORE PUSH1 0x1 PUSH1 0x20 MSTORE PUSH1 0x40 SWAP1 KECCAK256 SLOAD PUSH2 0xDE4 DUP15 PUSH2 0xDFB JUMP JUMPDEST SWAP6 SWAP15 SWAP5 SWAP14 POP SWAP3 SWAP12 POP SWAP1 SWAP10 POP SWAP8 POP SWAP6 POP SWAP1 SWAP4 POP SWAP2 POP POP JUMP JUMPDEST PUSH1 0x0 DUP1 PUSH1 0x3 PUSH1 0x1 SWAP1 SLOAD SWAP1 PUSH2 0x100 EXP SWAP1 DIV PUSH1 0x1 PUSH1 0x1 PUSH1 0xA0 SHL SUB AND PUSH1 0x1 PUSH1 0x1 PUSH1 0xA0 SHL SUB AND PUSH4 0x26B1D5F PUSH1 0x40 MLOAD DUP2 PUSH4 0xFFFFFFFF AND PUSH1 0xE0 SHL DUP2 MSTORE PUSH1 0x4 ADD PUSH1 0x20 PUSH1 0x40 MLOAD DUP1 DUP4 SUB DUP2 DUP7 DUP1 EXTCODESIZE ISZERO DUP1 ISZERO PUSH2 0xE4C JUMPI PUSH1 0x0 DUP1 REVERT JUMPDEST POP GAS STATICCALL ISZERO DUP1 ISZERO PUSH2 0xE60 JUMPI RETURNDATASIZE PUSH1 0x0 DUP1 RETURNDATACOPY RETURNDATASIZE PUSH1 0x0 REVERT JUMPDEST POP POP POP POP PUSH1 0x40 MLOAD RETURNDATASIZE PUSH1 0x1F NOT PUSH1 0x1F DUP3 ADD AND DUP3 ADD DUP1 PUSH1 0x40 MSTORE POP DUP2 ADD SWAP1 PUSH2 0xE84 SWAP2 SWAP1 PUSH2 0x2612 JUMP JUMPDEST PUSH1 0x40 MLOAD PUSH4 0x35EA6A75 PUSH1 0xE0 SHL DUP2 MSTORE PUSH1 0x1 PUSH1 0x1 PUSH1 0xA0 SHL SUB DUP6 DUP2 AND PUSH1 0x4 DUP4 ADD MSTORE SWAP2 SWAP3 POP SWAP1 DUP3 AND SWAP1 PUSH4 0x35EA6A75 SWAP1 PUSH1 0x24 ADD PUSH2 0x1E0 PUSH1 0x40 MLOAD DUP1 DUP4 SUB DUP2 DUP7 DUP1 EXTCODESIZE ISZERO DUP1 ISZERO PUSH2 0xECA JUMPI PUSH1 0x0 DUP1 REVERT JUMPDEST POP GAS STATICCALL ISZERO DUP1 ISZERO PUSH2 0xEDE JUMPI RETURNDATASIZE PUSH1 0x0 DUP1 RETURNDATACOPY RETURNDATASIZE PUSH1 0x0 REVERT JUMPDEST POP POP POP POP PUSH1 0x40 MLOAD RETURNDATASIZE PUSH1 0x1F NOT PUSH1 0x1F DUP3 ADD AND DUP3 ADD DUP1 PUSH1 0x40 MSTORE POP DUP2 ADD SWAP1 PUSH2 0xF02 SWAP2 SWAP1 PUSH2 0x276E JUMP JUMPDEST PUSH2 0x100 ADD MLOAD SWAP4 SWAP3 POP POP POP JUMP JUMPDEST PUSH1 0x0 DUP1 PUSH1 0x3 PUSH1 0x1 SWAP1 SLOAD SWAP1 PUSH2 0x100 EXP SWAP1 DIV PUSH1 0x1 PUSH1 0x1 PUSH1 0xA0 SHL SUB AND PUSH1 0x1 PUSH1 0x1 PUSH1 0xA0 SHL SUB AND PUSH4 0x26B1D5F PUSH1 0x40 MLOAD DUP2 PUSH4 0xFFFFFFFF AND PUSH1 0xE0 SHL DUP2 MSTORE PUSH1 0x4 ADD PUSH1 0x20 PUSH1 0x40 MLOAD DUP1 DUP4 SUB DUP2 DUP7 DUP1 EXTCODESIZE ISZERO DUP1 ISZERO PUSH2 0xF5F JUMPI PUSH1 0x0 DUP1 REVERT JUMPDEST POP GAS STATICCALL ISZERO DUP1 ISZERO PUSH2 0xF73 JUMPI RETURNDATASIZE PUSH1 0x0 DUP1 RETURNDATACOPY RETURNDATASIZE PUSH1 0x0 REVERT JUMPDEST POP POP POP POP PUSH1 0x40 MLOAD RETURNDATASIZE PUSH1 0x1F NOT PUSH1 0x1F DUP3 ADD AND DUP3 ADD DUP1 PUSH1 0x40 MSTORE POP DUP2 ADD SWAP1 PUSH2 0xF97 SWAP2 SWAP1 PUSH2 0x2612 JUMP JUMPDEST PUSH1 0x40 MLOAD PUSH4 0x35EA6A75 PUSH1 0xE0 SHL DUP2 MSTORE PUSH1 0x1 PUSH1 0x1 PUSH1 0xA0 SHL SUB DUP6 DUP2 AND PUSH1 0x4 DUP4 ADD MSTORE SWAP2 SWAP3 POP SWAP1 DUP3 AND SWAP1 PUSH4 0x35EA6A75 SWAP1 PUSH1 0x24 ADD PUSH2 0x1E0 PUSH1 0x40 MLOAD DUP1 DUP4 SUB DUP2 DUP7 DUP1 EXTCODESIZE ISZERO DUP1 ISZERO PUSH2 0xFDD JUMPI PUSH1 0x0 DUP1 REVERT JUMPDEST POP GAS STATICCALL ISZERO DUP1 ISZERO PUSH2 0xFF1 JUMPI RETURNDATASIZE PUSH1 0x0 DUP1 RETURNDATACOPY RETURNDATASIZE PUSH1 0x0 REVERT JUMPDEST POP POP POP POP PUSH1 0x40 MLOAD RETURNDATASIZE PUSH1 0x1F NOT PUSH1 0x1F DUP3 ADD AND DUP3 ADD DUP1 PUSH1 0x40 MSTORE POP DUP2 ADD SWAP1 PUSH2 0x1015 SWAP2 SWAP1 PUSH2 0x276E JUMP JUMPDEST PUSH1 0x20 ADD MLOAD PUSH16 0xFFFFFFFFFFFFFFFFFFFFFFFFFFFFFFFF AND SWAP4 SWAP3 POP POP POP JUMP JUMPDEST DUP9 MLOAD DUP10 SWAP1 PUSH1 0x3C SWAP1 DUP3 SWAP1 DUP3 LT ISZERO PUSH2 0x108A JUMPI PUSH1 0x40 MLOAD PUSH3 0x461BCD PUSH1 0xE5 SHL DUP2 MSTORE PUSH1 0x20 PUSH1 0x4 DUP3 ADD MSTORE PUSH1 0x1B PUSH1 0x24 DUP3 ADD MSTORE PUSH32 0x737472696E67206F76657220636861726163746572206C696D69740000000000 PUSH1 0x44 DUP3 ADD MSTORE PUSH1 0x64 ADD PUSH2 0x497 JUMP JUMPDEST PUSH1 0x0 SLOAD PUSH2 0x100 SWAP1 DIV PUSH1 0xFF AND ISZERO DUP1 DUP1 ISZERO PUSH2 0x10AA JUMPI POP PUSH1 0x0 SLOAD PUSH1 0x1 PUSH1 0xFF SWAP1 SWAP2 AND LT JUMPDEST DUP1 PUSH2 0x10C4 JUMPI POP ADDRESS EXTCODESIZE ISZERO DUP1 ISZERO PUSH2 0x10C4 JUMPI POP PUSH1 0x0 SLOAD PUSH1 0xFF AND PUSH1 0x1 EQ JUMPDEST PUSH2 0x1136 JUMPI PUSH1 0x40 MLOAD PUSH3 0x461BCD PUSH1 0xE5 SHL DUP2 MSTORE PUSH1 0x20 PUSH1 0x4 DUP3 ADD MSTORE PUSH1 0x2E PUSH1 0x24 DUP3 ADD MSTORE PUSH32 0x496E697469616C697A61626C653A20636F6E747261637420697320616C726561 PUSH1 0x44 DUP3 ADD MSTORE PUSH32 0x647920696E697469616C697A6564000000000000000000000000000000000000 PUSH1 0x64 DUP3 ADD MSTORE PUSH1 0x84 ADD PUSH2 0x497 JUMP JUMPDEST PUSH1 0x0 DUP1 SLOAD PUSH1 0xFF NOT AND PUSH1 0x1 OR SWAP1 SSTORE DUP1 ISZERO PUSH2 0x1159 JUMPI PUSH1 0x0 DUP1 SLOAD PUSH2 0xFF00 NOT AND PUSH2 0x100 OR SWAP1 SSTORE JUMPDEST PUSH1 0x3 SLOAD PUSH1 0xFF AND ISZERO PUSH2 0x11AC JUMPI PUSH1 0x40 MLOAD PUSH3 0x461BCD PUSH1 0xE5 SHL DUP2 MSTORE PUSH1 0x20 PUSH1 0x4 DUP3 ADD MSTORE PUSH1 0x16 PUSH1 0x24 DUP3 ADD MSTORE PUSH32 0x43616E6E6F7420696E697469616C697A65206261736500000000000000000000 PUSH1 0x44 DUP3 ADD MSTORE PUSH1 0x64 ADD PUSH2 0x497 JUMP JUMPDEST PUSH1 0x7 SLOAD PUSH1 0x1 PUSH1 0x1 PUSH1 0xA0 SHL SUB AND ISZERO PUSH2 0x1205 JUMPI PUSH1 0x40 MLOAD PUSH3 0x461BCD PUSH1 0xE5 SHL DUP2 MSTORE PUSH1 0x20 PUSH1 0x4 DUP3 ADD MSTORE PUSH1 0x19 PUSH1 0x24 DUP3 ADD MSTORE PUSH32 0x496E697469616C697A6520616C72656164792063616C6C656400000000000000 PUSH1 0x44 DUP3 ADD MSTORE PUSH1 0x64 ADD PUSH2 0x497 JUMP JUMPDEST DUP9 PUSH1 0x7 PUSH1 0x0 PUSH2 0x100 EXP DUP2 SLOAD DUP2 PUSH1 0x1 PUSH1 0x1 PUSH1 0xA0 SHL SUB MUL NOT AND SWAP1 DUP4 PUSH1 0x1 PUSH1 0x1 PUSH1 0xA0 SHL SUB AND MUL OR SWAP1 SSTORE POP CALLER PUSH1 0x8 PUSH1 0x0 PUSH2 0x100 EXP DUP2 SLOAD DUP2 PUSH1 0x1 PUSH1 0x1 PUSH1 0xA0 SHL SUB MUL NOT AND SWAP1 DUP4 PUSH1 0x1 PUSH1 0x1 PUSH1 0xA0 SHL SUB AND MUL OR SWAP1 SSTORE POP DUP13 PUSH1 0x9 SWAP1 DUP1 MLOAD SWAP1 PUSH1 0x20 ADD SWAP1 PUSH2 0x1269 SWAP3 SWAP2 SWAP1 PUSH2 0x1F45 JUMP JUMPDEST POP DUP12 MLOAD PUSH2 0x127D SWAP1 PUSH1 0xA SWAP1 PUSH1 0x20 DUP16 ADD SWAP1 PUSH2 0x1F45 JUMP JUMPDEST POP DUP11 MLOAD PUSH2 0x1291 SWAP1 PUSH1 0xB SWAP1 PUSH1 0x20 DUP15 ADD SWAP1 PUSH2 0x1F45 JUMP JUMPDEST POP DUP10 MLOAD PUSH2 0x12A5 SWAP1 PUSH1 0xC SWAP1 PUSH1 0x20 DUP14 ADD SWAP1 PUSH2 0x1F45 JUMP JUMPDEST POP DUP5 PUSH1 0xD PUSH1 0x0 PUSH2 0x100 EXP DUP2 SLOAD DUP2 PUSH1 0xFF MUL NOT AND SWAP1 DUP4 ISZERO ISZERO MUL OR SWAP1 SSTORE POP DUP8 PUSH1 0x3 PUSH1 0x1 PUSH2 0x100 EXP DUP2 SLOAD DUP2 PUSH1 0x1 PUSH1 0x1 PUSH1 0xA0 SHL SUB MUL NOT AND SWAP1 DUP4 PUSH1 0x1 PUSH1 0x1 PUSH1 0xA0 SHL SUB AND MUL OR SWAP1 SSTORE POP DUP7 PUSH1 0x4 PUSH1 0x0 PUSH2 0x100 EXP DUP2 SLOAD DUP2 PUSH1 0x1 PUSH1 0x1 PUSH1 0xA0 SHL SUB MUL NOT AND SWAP1 DUP4 PUSH1 0x1 PUSH1 0x1 PUSH1 0xA0 SHL SUB AND MUL OR SWAP1 SSTORE POP DUP6 PUSH1 0x5 PUSH1 0x0 PUSH2 0x100 EXP DUP2 SLOAD DUP2 PUSH1 0x1 PUSH1 0x1 PUSH1 0xA0 SHL SUB MUL NOT AND SWAP1 DUP4 PUSH1 0x1 PUSH1 0x1 PUSH1 0xA0 SHL SUB AND MUL OR SWAP1 SSTORE POP DUP15 DUP15 PUSH1 0x6 SWAP2 SWAP1 PUSH2 0x1346 SWAP3 SWAP2 SWAP1 PUSH2 0x1FC9 JUMP JUMPDEST POP DUP1 ISZERO PUSH2 0x138D JUMPI PUSH1 0x0 DUP1 SLOAD PUSH2 0xFF00 NOT AND SWAP1 SSTORE PUSH1 0x40 MLOAD PUSH1 0x1 DUP2 MSTORE PUSH32 0x7F26B83FF96E1F2B6A682F133852F6798A09C465DA95921460CEFB3847402498 SWAP1 PUSH1 0x20 ADD PUSH1 0x40 MLOAD DUP1 SWAP2 SUB SWAP1 LOG1 JUMPDEST POP POP POP POP POP POP POP POP POP POP POP POP POP POP POP JUMP JUMPDEST PUSH1 0x8 SLOAD PUSH1 0x1 PUSH1 0x1 PUSH1 0xA0 SHL SUB AND CALLER EQ PUSH2 0x13E8 JUMPI PUSH1 0x40 MLOAD PUSH3 0x461BCD PUSH1 0xE5 SHL DUP2 MSTORE PUSH1 0x20 PUSH1 0x4 DUP3 ADD MSTORE PUSH1 0xD PUSH1 0x24 DUP3 ADD MSTORE PUSH13 0x3737BA103A34329037BBB732B9 PUSH1 0x99 SHL PUSH1 0x44 DUP3 ADD MSTORE PUSH1 0x64 ADD PUSH2 0x497 JUMP JUMPDEST PUSH2 0x13F4 PUSH1 0xA DUP4 DUP4 PUSH2 0x2034 JUMP JUMPDEST POP POP POP JUMP JUMPDEST PUSH1 0x8 SLOAD PUSH1 0x1 PUSH1 0x1 PUSH1 0xA0 SHL SUB AND CALLER EQ PUSH2 0x1443 JUMPI PUSH1 0x40 MLOAD PUSH3 0x461BCD PUSH1 0xE5 SHL DUP2 MSTORE PUSH1 0x20 PUSH1 0x4 DUP3 ADD MSTORE PUSH1 0xD PUSH1 0x24 DUP3 ADD MSTORE PUSH13 0x3737BA103A34329037BBB732B9 PUSH1 0x99 SHL PUSH1 0x44 DUP3 ADD MSTORE PUSH1 0x64 ADD PUSH2 0x497 JUMP JUMPDEST PUSH2 0x13F4 PUSH1 0xC DUP4 DUP4 PUSH2 0x2034 JUMP JUMPDEST PUSH1 0x0 DUP1 PUSH1 0x3 PUSH1 0x1 SWAP1 SLOAD SWAP1 PUSH2 0x100 EXP SWAP1 DIV PUSH1 0x1 PUSH1 0x1 PUSH1 0xA0 SHL SUB AND PUSH1 0x1 PUSH1 0x1 PUSH1 0xA0 SHL SUB AND PUSH4 0x26B1D5F PUSH1 0x40 MLOAD DUP2 PUSH4 0xFFFFFFFF AND PUSH1 0xE0 SHL DUP2 MSTORE PUSH1 0x4 ADD PUSH1 0x20 PUSH1 0x40 MLOAD DUP1 DUP4 SUB DUP2 DUP7 DUP1 EXTCODESIZE ISZERO DUP1 ISZERO PUSH2 0x14A0 JUMPI PUSH1 0x0 DUP1 REVERT JUMPDEST POP GAS STATICCALL ISZERO DUP1 ISZERO PUSH2 0x14B4 JUMPI RETURNDATASIZE PUSH1 0x0 DUP1 RETURNDATACOPY RETURNDATASIZE PUSH1 0x0 REVERT JUMPDEST POP POP POP POP PUSH1 0x40 MLOAD RETURNDATASIZE PUSH1 0x1F NOT PUSH1 0x1F DUP3 ADD AND DUP3 ADD DUP1 PUSH1 0x40 MSTORE POP DUP2 ADD SWAP1 PUSH2 0x14D8 SWAP2 SWAP1 PUSH2 0x2612 JUMP JUMPDEST PUSH1 0x40 MLOAD PUSH32 0xD15E005300000000000000000000000000000000000000000000000000000000 DUP2 MSTORE PUSH1 0x1 PUSH1 0x1 PUSH1 0xA0 SHL SUB DUP6 DUP2 AND PUSH1 0x4 DUP4 ADD MSTORE SWAP2 SWAP3 POP SWAP1 DUP3 AND SWAP1 PUSH4 0xD15E0053 SWAP1 PUSH1 0x24 ADD PUSH2 0x3FA JUMP JUMPDEST PUSH1 0x8 SLOAD PUSH1 0x0 SWAP1 PUSH1 0x1 PUSH1 0x1 PUSH1 0xA0 SHL SUB AND CALLER EQ PUSH2 0x1570 JUMPI PUSH1 0x40 MLOAD PUSH3 0x461BCD PUSH1 0xE5 SHL DUP2 MSTORE PUSH1 0x20 PUSH1 0x4 DUP3 ADD MSTORE PUSH1 0xD PUSH1 0x24 DUP3 ADD MSTORE PUSH13 0x3737BA103A34329037BBB732B9 PUSH1 0x99 SHL PUSH1 0x44 DUP3 ADD MSTORE PUSH1 0x64 ADD PUSH2 0x497 JUMP JUMPDEST PUSH1 0x0 PUSH2 0x157B DUP7 PUSH2 0xDFB JUMP JUMPDEST PUSH1 0x40 MLOAD PUSH4 0x70A08231 PUSH1 0xE0 SHL DUP2 MSTORE ADDRESS PUSH1 0x4 DUP3 ADD MSTORE SWAP1 SWAP2 POP PUSH1 0x0 SWAP1 PUSH1 0x1 PUSH1 0x1 PUSH1 0xA0 SHL SUB DUP4 AND SWAP1 PUSH4 0x70A08231 SWAP1 PUSH1 0x24 ADD PUSH1 0x20 PUSH1 0x40 MLOAD DUP1 DUP4 SUB DUP2 DUP7 DUP1 EXTCODESIZE ISZERO DUP1 ISZERO PUSH2 0x15C0 JUMPI PUSH1 0x0 DUP1 REVERT JUMPDEST POP GAS STATICCALL ISZERO DUP1 ISZERO PUSH2 0x15D4 JUMPI RETURNDATASIZE PUSH1 0x0 DUP1 RETURNDATACOPY RETURNDATASIZE PUSH1 0x0 REVERT JUMPDEST POP POP POP POP PUSH1 0x40 MLOAD RETURNDATASIZE PUSH1 0x1F NOT PUSH1 0x1F DUP3 ADD AND DUP3 ADD DUP1 PUSH1 0x40 MSTORE POP DUP2 ADD SWAP1 PUSH2 0x15F8 SWAP2 SWAP1 PUSH2 0x25EE JUMP JUMPDEST PUSH1 0x1 PUSH1 0x1 PUSH1 0xA0 SHL SUB DUP9 AND PUSH1 0x0 SWAP1 DUP2 MSTORE PUSH1 0x1 PUSH1 0x20 MSTORE PUSH1 0x40 DUP2 KECCAK256 SLOAD SWAP2 SWAP3 POP SWAP1 PUSH2 0x161F SWAP1 DUP4 PUSH2 0x2645 JUMP JUMPDEST PUSH1 0x1 PUSH1 0x1 PUSH1 0xA0 SHL SUB DUP10 AND PUSH1 0x0 SWAP1 DUP2 MSTORE PUSH1 0x2 PUSH1 0x20 MSTORE PUSH1 0x40 DUP2 KECCAK256 DUP1 SLOAD SWAP3 SWAP4 POP DUP4 SWAP3 SWAP1 SWAP2 SWAP1 PUSH2 0x164C SWAP1 DUP5 SWAP1 PUSH2 0x26CD JUMP JUMPDEST SWAP3 POP POP DUP2 SWAP1 SSTORE POP PUSH1 0x0 DUP2 SWAP1 POP PUSH1 0x0 PUSH1 0x3 PUSH1 0x1 SWAP1 SLOAD SWAP1 PUSH2 0x100 EXP SWAP1 DIV PUSH1 0x1 PUSH1 0x1 PUSH1 0xA0 SHL SUB AND PUSH1 0x1 PUSH1 0x1 PUSH1 0xA0 SHL SUB AND PUSH4 0x26B1D5F PUSH1 0x40 MLOAD DUP2 PUSH4 0xFFFFFFFF AND PUSH1 0xE0 SHL DUP2 MSTORE PUSH1 0x4 ADD PUSH1 0x20 PUSH1 0x40 MLOAD DUP1 DUP4 SUB DUP2 DUP7 DUP1 EXTCODESIZE ISZERO DUP1 ISZERO PUSH2 0x16A8 JUMPI PUSH1 0x0 DUP1 REVERT JUMPDEST POP GAS STATICCALL ISZERO DUP1 ISZERO PUSH2 0x16BC JUMPI RETURNDATASIZE PUSH1 0x0 DUP1 RETURNDATACOPY RETURNDATASIZE PUSH1 0x0 REVERT JUMPDEST POP POP POP POP PUSH1 0x40 MLOAD RETURNDATASIZE PUSH1 0x1F NOT PUSH1 0x1F DUP3 ADD AND DUP3 ADD DUP1 PUSH1 0x40 MSTORE POP DUP2 ADD SWAP1 PUSH2 0x16E0 SWAP2 SWAP1 PUSH2 0x2612 JUMP JUMPDEST SWAP1 POP DUP8 PUSH2 0x18BF JUMPI DUP7 PUSH2 0x1780 JUMPI PUSH1 0x7 SLOAD PUSH1 0x40 MLOAD PUSH4 0x1A4CA37B PUSH1 0xE2 SHL DUP2 MSTORE PUSH1 0x1 PUSH1 0x1 PUSH1 0xA0 SHL SUB DUP13 DUP2 AND PUSH1 0x4 DUP4 ADD MSTORE PUSH1 0x24 DUP3 ADD DUP7 SWAP1 MSTORE SWAP2 DUP3 AND PUSH1 0x44 DUP3 ADD MSTORE SWAP1 DUP3 AND SWAP1 PUSH4 0x69328DEC SWAP1 PUSH1 0x64 ADD PUSH1 0x20 PUSH1 0x40 MLOAD DUP1 DUP4 SUB DUP2 PUSH1 0x0 DUP8 DUP1 EXTCODESIZE ISZERO DUP1 ISZERO PUSH2 0x1742 JUMPI PUSH1 0x0 DUP1 REVERT JUMPDEST POP GAS CALL ISZERO DUP1 ISZERO PUSH2 0x1756 JUMPI RETURNDATASIZE PUSH1 0x0 DUP1 RETURNDATACOPY RETURNDATASIZE PUSH1 0x0 REVERT JUMPDEST POP POP POP POP PUSH1 0x40 MLOAD RETURNDATASIZE PUSH1 0x1F NOT PUSH1 0x1F DUP3 ADD AND DUP3 ADD DUP1 PUSH1 0x40 MSTORE POP DUP2 ADD SWAP1 PUSH2 0x177A SWAP2 SWAP1 PUSH2 0x25EE JUMP JUMPDEST POP PUSH2 0x1B62 JUMP JUMPDEST PUSH1 0x0 PUSH2 0x178C DUP5 DUP10 PUSH2 0x1D03 JUMP JUMPDEST SWAP1 POP PUSH1 0x0 PUSH2 0x179A DUP3 DUP7 PUSH2 0x2645 JUMP JUMPDEST PUSH1 0x7 SLOAD PUSH1 0x40 MLOAD PUSH4 0x1A4CA37B PUSH1 0xE2 SHL DUP2 MSTORE PUSH1 0x1 PUSH1 0x1 PUSH1 0xA0 SHL SUB DUP16 DUP2 AND PUSH1 0x4 DUP4 ADD MSTORE PUSH1 0x24 DUP3 ADD DUP5 SWAP1 MSTORE SWAP2 DUP3 AND PUSH1 0x44 DUP3 ADD MSTORE SWAP2 SWAP3 POP DUP5 AND SWAP1 PUSH4 0x69328DEC SWAP1 PUSH1 0x64 ADD PUSH1 0x20 PUSH1 0x40 MLOAD DUP1 DUP4 SUB DUP2 PUSH1 0x0 DUP8 DUP1 EXTCODESIZE ISZERO DUP1 ISZERO PUSH2 0x17F2 JUMPI PUSH1 0x0 DUP1 REVERT JUMPDEST POP GAS CALL ISZERO DUP1 ISZERO PUSH2 0x1806 JUMPI RETURNDATASIZE PUSH1 0x0 DUP1 RETURNDATACOPY RETURNDATASIZE PUSH1 0x0 REVERT JUMPDEST POP POP POP POP PUSH1 0x40 MLOAD RETURNDATASIZE PUSH1 0x1F NOT PUSH1 0x1F DUP3 ADD AND DUP3 ADD DUP1 PUSH1 0x40 MSTORE POP DUP2 ADD SWAP1 PUSH2 0x182A SWAP2 SWAP1 PUSH2 0x25EE JUMP JUMPDEST POP PUSH1 0x40 MLOAD PUSH4 0x1A4CA37B PUSH1 0xE2 SHL DUP2 MSTORE PUSH1 0x1 PUSH1 0x1 PUSH1 0xA0 SHL SUB DUP14 DUP2 AND PUSH1 0x4 DUP4 ADD MSTORE PUSH1 0x24 DUP3 ADD DUP5 SWAP1 MSTORE DUP13 DUP2 AND PUSH1 0x44 DUP4 ADD MSTORE DUP5 AND SWAP1 PUSH4 0x69328DEC SWAP1 PUSH1 0x64 ADD PUSH1 0x20 PUSH1 0x40 MLOAD DUP1 DUP4 SUB DUP2 PUSH1 0x0 DUP8 DUP1 EXTCODESIZE ISZERO DUP1 ISZERO PUSH2 0x187D JUMPI PUSH1 0x0 DUP1 REVERT JUMPDEST POP GAS CALL ISZERO DUP1 ISZERO PUSH2 0x1891 JUMPI RETURNDATASIZE PUSH1 0x0 DUP1 RETURNDATACOPY RETURNDATASIZE PUSH1 0x0 REVERT JUMPDEST POP POP POP POP PUSH1 0x40 MLOAD RETURNDATASIZE PUSH1 0x1F NOT PUSH1 0x1F DUP3 ADD AND DUP3 ADD DUP1 PUSH1 0x40 MSTORE POP DUP2 ADD SWAP1 PUSH2 0x18B5 SWAP2 SWAP1 PUSH2 0x25EE JUMP JUMPDEST POP SWAP3 POP PUSH2 0x1B62 SWAP1 POP JUMP JUMPDEST PUSH1 0x4 DUP1 SLOAD PUSH1 0x40 DUP1 MLOAD PUSH32 0xAFFA881700000000000000000000000000000000000000000000000000000000 DUP2 MSTORE SWAP1 MLOAD PUSH1 0x1 PUSH1 0x1 PUSH1 0xA0 SHL SUB DUP1 DUP16 AND SWAP5 SWAP4 AND SWAP3 PUSH4 0xAFFA8817 SWAP3 DUP1 DUP3 ADD SWAP3 PUSH1 0x20 SWAP3 SWAP1 SWAP2 DUP3 SWAP1 SUB ADD DUP2 DUP7 DUP1 EXTCODESIZE ISZERO DUP1 ISZERO PUSH2 0x191E JUMPI PUSH1 0x0 DUP1 REVERT JUMPDEST POP GAS STATICCALL ISZERO DUP1 ISZERO PUSH2 0x1932 JUMPI RETURNDATASIZE PUSH1 0x0 DUP1 RETURNDATACOPY RETURNDATASIZE PUSH1 0x0 REVERT JUMPDEST POP POP POP POP PUSH1 0x40 MLOAD RETURNDATASIZE PUSH1 0x1F NOT PUSH1 0x1F DUP3 ADD AND DUP3 ADD DUP1 PUSH1 0x40 MSTORE POP DUP2 ADD SWAP1 PUSH2 0x1956 SWAP2 SWAP1 PUSH2 0x2612 JUMP JUMPDEST PUSH1 0x1 PUSH1 0x1 PUSH1 0xA0 SHL SUB AND EQ PUSH2 0x19AC JUMPI PUSH1 0x40 MLOAD PUSH3 0x461BCD PUSH1 0xE5 SHL DUP2 MSTORE PUSH1 0x20 PUSH1 0x4 DUP3 ADD DUP2 SWAP1 MSTORE PUSH1 0x24 DUP3 ADD MSTORE PUSH32 0x617373657420646F6573206E6F74206D61746368205745544847617465776179 PUSH1 0x44 DUP3 ADD MSTORE PUSH1 0x64 ADD PUSH2 0x497 JUMP JUMPDEST PUSH1 0x4 SLOAD PUSH2 0x19C7 SWAP1 PUSH1 0x1 PUSH1 0x1 PUSH1 0xA0 SHL SUB DUP8 DUP2 AND SWAP2 AND PUSH1 0x0 PUSH2 0x1B6F JUMP JUMPDEST PUSH1 0x4 SLOAD PUSH2 0x19E1 SWAP1 PUSH1 0x1 PUSH1 0x1 PUSH1 0xA0 SHL SUB DUP8 DUP2 AND SWAP2 AND DUP6 PUSH2 0x1B6F JUMP JUMPDEST DUP7 PUSH2 0x1A5E JUMPI PUSH1 0x4 DUP1 SLOAD PUSH1 0x7 SLOAD PUSH1 0x40 MLOAD PUSH4 0x4028069 PUSH1 0xE5 SHL DUP2 MSTORE PUSH1 0x1 PUSH1 0x1 PUSH1 0xA0 SHL SUB DUP6 DUP2 AND SWAP5 DUP3 ADD SWAP5 SWAP1 SWAP5 MSTORE PUSH1 0x24 DUP2 ADD DUP8 SWAP1 MSTORE SWAP1 DUP4 AND PUSH1 0x44 DUP3 ADD MSTORE SWAP2 AND SWAP1 PUSH4 0x80500D20 SWAP1 PUSH1 0x64 ADD PUSH1 0x0 PUSH1 0x40 MLOAD DUP1 DUP4 SUB DUP2 PUSH1 0x0 DUP8 DUP1 EXTCODESIZE ISZERO DUP1 ISZERO PUSH2 0x1A41 JUMPI PUSH1 0x0 DUP1 REVERT JUMPDEST POP GAS CALL ISZERO DUP1 ISZERO PUSH2 0x1A55 JUMPI RETURNDATASIZE PUSH1 0x0 DUP1 RETURNDATACOPY RETURNDATASIZE PUSH1 0x0 REVERT JUMPDEST POP POP POP POP PUSH2 0x1B62 JUMP JUMPDEST PUSH1 0x0 PUSH2 0x1A6A DUP5 DUP10 PUSH2 0x1D03 JUMP JUMPDEST SWAP1 POP PUSH1 0x0 PUSH2 0x1A78 DUP3 DUP7 PUSH2 0x2645 JUMP JUMPDEST PUSH1 0x4 DUP1 SLOAD PUSH1 0x7 SLOAD PUSH1 0x40 MLOAD PUSH4 0x4028069 PUSH1 0xE5 SHL DUP2 MSTORE PUSH1 0x1 PUSH1 0x1 PUSH1 0xA0 SHL SUB DUP9 DUP2 AND SWAP5 DUP3 ADD SWAP5 SWAP1 SWAP5 MSTORE PUSH1 0x24 DUP2 ADD DUP6 SWAP1 MSTORE SWAP1 DUP4 AND PUSH1 0x44 DUP3 ADD MSTORE SWAP3 SWAP4 POP AND SWAP1 PUSH4 0x80500D20 SWAP1 PUSH1 0x64 ADD PUSH1 0x0 PUSH1 0x40 MLOAD DUP1 DUP4 SUB DUP2 PUSH1 0x0 DUP8 DUP1 EXTCODESIZE ISZERO DUP1 ISZERO PUSH2 0x1AD5 JUMPI PUSH1 0x0 DUP1 REVERT JUMPDEST POP GAS CALL ISZERO DUP1 ISZERO PUSH2 0x1AE9 JUMPI RETURNDATASIZE PUSH1 0x0 DUP1 RETURNDATACOPY RETURNDATASIZE PUSH1 0x0 REVERT JUMPDEST POP POP PUSH1 0x4 DUP1 SLOAD PUSH1 0x40 MLOAD PUSH4 0x4028069 PUSH1 0xE5 SHL DUP2 MSTORE PUSH1 0x1 PUSH1 0x1 PUSH1 0xA0 SHL SUB DUP9 DUP2 AND SWAP4 DUP3 ADD SWAP4 SWAP1 SWAP4 MSTORE PUSH1 0x24 DUP2 ADD DUP8 SWAP1 MSTORE DUP16 DUP4 AND PUSH1 0x44 DUP3 ADD MSTORE SWAP2 AND SWAP3 POP PUSH4 0x80500D20 SWAP2 POP PUSH1 0x64 ADD PUSH1 0x0 PUSH1 0x40 MLOAD DUP1 DUP4 SUB DUP2 PUSH1 0x0 DUP8 DUP1 EXTCODESIZE ISZERO DUP1 ISZERO PUSH2 0x1B45 JUMPI PUSH1 0x0 DUP1 REVERT JUMPDEST POP GAS CALL ISZERO DUP1 ISZERO PUSH2 0x1B59 JUMPI RETURNDATASIZE PUSH1 0x0 DUP1 RETURNDATACOPY RETURNDATASIZE PUSH1 0x0 REVERT JUMPDEST POP SWAP3 SWAP6 POP POP POP POP POP JUMPDEST POP SWAP9 SWAP8 POP POP POP POP POP POP POP POP JUMP JUMPDEST DUP1 ISZERO DUP1 PUSH2 0x1C11 JUMPI POP PUSH1 0x40 MLOAD PUSH32 0xDD62ED3E00000000000000000000000000000000000000000000000000000000 DUP2 MSTORE ADDRESS PUSH1 0x4 DUP3 ADD MSTORE PUSH1 0x1 PUSH1 0x1 PUSH1 0xA0 SHL SUB DUP4 DUP2 AND PUSH1 0x24 DUP4 ADD MSTORE DUP5 AND SWAP1 PUSH4 0xDD62ED3E SWAP1 PUSH1 0x44 ADD PUSH1 0x20 PUSH1 0x40 MLOAD DUP1 DUP4 SUB DUP2 DUP7 DUP1 EXTCODESIZE ISZERO DUP1 ISZERO PUSH2 0x1BD7 JUMPI PUSH1 0x0 DUP1 REVERT JUMPDEST POP GAS STATICCALL ISZERO DUP1 ISZERO PUSH2 0x1BEB JUMPI RETURNDATASIZE PUSH1 0x0 DUP1 RETURNDATACOPY RETURNDATASIZE PUSH1 0x0 REVERT JUMPDEST POP POP POP POP PUSH1 0x40 MLOAD RETURNDATASIZE PUSH1 0x1F NOT PUSH1 0x1F DUP3 ADD AND DUP3 ADD DUP1 PUSH1 0x40 MSTORE POP DUP2 ADD SWAP1 PUSH2 0x1C0F SWAP2 SWAP1 PUSH2 0x25EE JUMP JUMPDEST ISZERO JUMPDEST PUSH2 0x1C83 JUMPI PUSH1 0x40 MLOAD PUSH3 0x461BCD PUSH1 0xE5 SHL DUP2 MSTORE PUSH1 0x20 PUSH1 0x4 DUP3 ADD MSTORE PUSH1 0x36 PUSH1 0x24 DUP3 ADD MSTORE PUSH32 0x5361666545524332303A20617070726F76652066726F6D206E6F6E2D7A65726F PUSH1 0x44 DUP3 ADD MSTORE PUSH32 0x20746F206E6F6E2D7A65726F20616C6C6F77616E636500000000000000000000 PUSH1 0x64 DUP3 ADD MSTORE PUSH1 0x84 ADD PUSH2 0x497 JUMP JUMPDEST PUSH1 0x40 DUP1 MLOAD PUSH1 0x1 PUSH1 0x1 PUSH1 0xA0 SHL SUB DUP5 AND PUSH1 0x24 DUP3 ADD MSTORE PUSH1 0x44 DUP1 DUP3 ADD DUP5 SWAP1 MSTORE DUP3 MLOAD DUP1 DUP4 SUB SWAP1 SWAP2 ADD DUP2 MSTORE PUSH1 0x64 SWAP1 SWAP2 ADD SWAP1 SWAP2 MSTORE PUSH1 0x20 DUP2 ADD DUP1 MLOAD PUSH28 0xFFFFFFFFFFFFFFFFFFFFFFFFFFFFFFFFFFFFFFFFFFFFFFFFFFFFFFFF AND PUSH32 0x95EA7B300000000000000000000000000000000000000000000000000000000 OR SWAP1 MSTORE PUSH2 0x13F4 SWAP1 DUP5 SWAP1 PUSH2 0x1D6C JUMP JUMPDEST PUSH1 0x0 DUP1 PUSH2 0x2710 PUSH2 0x1D13 DUP5 DUP7 PUSH2 0x2891 JUMP JUMPDEST PUSH2 0x1D1D SWAP2 SWAP1 PUSH2 0x28B0 JUMP JUMPDEST SWAP1 POP DUP1 PUSH2 0x44A JUMPI PUSH1 0x40 MLOAD PUSH3 0x461BCD PUSH1 0xE5 SHL DUP2 MSTORE PUSH1 0x20 PUSH1 0x4 DUP3 ADD MSTORE PUSH1 0x19 PUSH1 0x24 DUP3 ADD MSTORE PUSH32 0x6E6F7420656E6F7567682066756E647320746F20636C61696D00000000000000 PUSH1 0x44 DUP3 ADD MSTORE PUSH1 0x64 ADD PUSH2 0x497 JUMP JUMPDEST PUSH2 0x1D7E DUP3 PUSH1 0x1 PUSH1 0x1 PUSH1 0xA0 SHL SUB AND PUSH2 0x1F0C JUMP JUMPDEST PUSH2 0x1DCA JUMPI PUSH1 0x40 MLOAD PUSH3 0x461BCD PUSH1 0xE5 SHL DUP2 MSTORE PUSH1 0x20 PUSH1 0x4 DUP3 ADD MSTORE PUSH1 0x1F PUSH1 0x24 DUP3 ADD MSTORE PUSH32 0x5361666545524332303A2063616C6C20746F206E6F6E2D636F6E747261637400 PUSH1 0x44 DUP3 ADD MSTORE PUSH1 0x64 ADD PUSH2 0x497 JUMP JUMPDEST PUSH1 0x0 DUP1 DUP4 PUSH1 0x1 PUSH1 0x1 PUSH1 0xA0 SHL SUB AND DUP4 PUSH1 0x40 MLOAD PUSH2 0x1DE5 SWAP2 SWAP1 PUSH2 0x28D2 JUMP JUMPDEST PUSH1 0x0 PUSH1 0x40 MLOAD DUP1 DUP4 SUB DUP2 PUSH1 0x0 DUP7 GAS CALL SWAP2 POP POP RETURNDATASIZE DUP1 PUSH1 0x0 DUP2 EQ PUSH2 0x1E22 JUMPI PUSH1 0x40 MLOAD SWAP2 POP PUSH1 0x1F NOT PUSH1 0x3F RETURNDATASIZE ADD AND DUP3 ADD PUSH1 0x40 MSTORE RETURNDATASIZE DUP3 MSTORE RETURNDATASIZE PUSH1 0x0 PUSH1 0x20 DUP5 ADD RETURNDATACOPY PUSH2 0x1E27 JUMP JUMPDEST PUSH1 0x60 SWAP2 POP JUMPDEST POP SWAP2 POP SWAP2 POP DUP2 PUSH2 0x1E79 JUMPI PUSH1 0x40 MLOAD PUSH3 0x461BCD PUSH1 0xE5 SHL DUP2 MSTORE PUSH1 0x20 PUSH1 0x4 DUP3 ADD DUP2 SWAP1 MSTORE PUSH1 0x24 DUP3 ADD MSTORE PUSH32 0x5361666545524332303A206C6F772D6C6576656C2063616C6C206661696C6564 PUSH1 0x44 DUP3 ADD MSTORE PUSH1 0x64 ADD PUSH2 0x497 JUMP JUMPDEST DUP1 MLOAD ISZERO PUSH2 0x1F06 JUMPI DUP1 DUP1 PUSH1 0x20 ADD SWAP1 MLOAD DUP2 ADD SWAP1 PUSH2 0x1E94 SWAP2 SWAP1 PUSH2 0x28EE JUMP JUMPDEST PUSH2 0x1F06 JUMPI PUSH1 0x40 MLOAD PUSH3 0x461BCD PUSH1 0xE5 SHL DUP2 MSTORE PUSH1 0x20 PUSH1 0x4 DUP3 ADD MSTORE PUSH1 0x2A PUSH1 0x24 DUP3 ADD MSTORE PUSH32 0x5361666545524332303A204552433230206F7065726174696F6E20646964206E PUSH1 0x44 DUP3 ADD MSTORE PUSH32 0x6F74207375636365656400000000000000000000000000000000000000000000 PUSH1 0x64 DUP3 ADD MSTORE PUSH1 0x84 ADD PUSH2 0x497 JUMP JUMPDEST POP POP POP POP JUMP JUMPDEST PUSH1 0x0 DUP2 EXTCODEHASH PUSH32 0xC5D2460186F7233C927E7DB2DCC703C0E500B653CA82273B7BFAD8045D85A470 DUP2 DUP2 EQ DUP1 ISZERO SWAP1 PUSH2 0x958 JUMPI POP POP ISZERO ISZERO SWAP3 SWAP2 POP POP JUMP JUMPDEST DUP3 DUP1 SLOAD PUSH2 0x1F51 SWAP1 PUSH2 0x265C JUMP JUMPDEST SWAP1 PUSH1 0x0 MSTORE PUSH1 0x20 PUSH1 0x0 KECCAK256 SWAP1 PUSH1 0x1F ADD PUSH1 0x20 SWAP1 DIV DUP2 ADD SWAP3 DUP3 PUSH2 0x1F73 JUMPI PUSH1 0x0 DUP6 SSTORE PUSH2 0x1FB9 JUMP JUMPDEST DUP3 PUSH1 0x1F LT PUSH2 0x1F8C JUMPI DUP1 MLOAD PUSH1 0xFF NOT AND DUP4 DUP1 ADD OR DUP6 SSTORE PUSH2 0x1FB9 JUMP JUMPDEST DUP3 DUP1 ADD PUSH1 0x1 ADD DUP6 SSTORE DUP3 ISZERO PUSH2 0x1FB9 JUMPI SWAP2 DUP3 ADD JUMPDEST DUP3 DUP2 GT ISZERO PUSH2 0x1FB9 JUMPI DUP3 MLOAD DUP3 SSTORE SWAP2 PUSH1 0x20 ADD SWAP2 SWAP1 PUSH1 0x1 ADD SWAP1 PUSH2 0x1F9E JUMP JUMPDEST POP PUSH2 0x1FC5 SWAP3 SWAP2 POP PUSH2 0x20A8 JUMP JUMPDEST POP SWAP1 JUMP JUMPDEST DUP3 DUP1 SLOAD DUP3 DUP3 SSTORE SWAP1 PUSH1 0x0 MSTORE PUSH1 0x20 PUSH1 0x0 KECCAK256 SWAP1 DUP2 ADD SWAP3 DUP3 ISZERO PUSH2 0x1FB9 JUMPI SWAP2 PUSH1 0x20 MUL DUP3 ADD JUMPDEST DUP3 DUP2 GT ISZERO PUSH2 0x1FB9 JUMPI DUP2 SLOAD PUSH32 0xFFFFFFFFFFFFFFFFFFFFFFFF0000000000000000000000000000000000000000 AND PUSH1 0x1 PUSH1 0x1 PUSH1 0xA0 SHL SUB DUP5 CALLDATALOAD AND OR DUP3 SSTORE PUSH1 0x20 SWAP1 SWAP3 ADD SWAP2 PUSH1 0x1 SWAP1 SWAP2 ADD SWAP1 PUSH2 0x1FE9 JUMP JUMPDEST DUP3 DUP1 SLOAD PUSH2 0x2040 SWAP1 PUSH2 0x265C JUMP JUMPDEST SWAP1 PUSH1 0x0 MSTORE PUSH1 0x20 PUSH1 0x0 KECCAK256 SWAP1 PUSH1 0x1F ADD PUSH1 0x20 SWAP1 DIV DUP2 ADD SWAP3 DUP3 PUSH2 0x2062 JUMPI PUSH1 0x0 DUP6 SSTORE PUSH2 0x1FB9 JUMP JUMPDEST DUP3 PUSH1 0x1F LT PUSH2 0x207B JUMPI DUP3 DUP1 ADD PUSH1 0xFF NOT DUP3 CALLDATALOAD AND OR DUP6 SSTORE PUSH2 0x1FB9 JUMP JUMPDEST DUP3 DUP1 ADD PUSH1 0x1 ADD DUP6 SSTORE DUP3 ISZERO PUSH2 0x1FB9 JUMPI SWAP2 DUP3 ADD JUMPDEST DUP3 DUP2 GT ISZERO PUSH2 0x1FB9 JUMPI DUP3 CALLDATALOAD DUP3 SSTORE SWAP2 PUSH1 0x20 ADD SWAP2 SWAP1 PUSH1 0x1 ADD SWAP1 PUSH2 0x208D JUMP JUMPDEST JUMPDEST DUP1 DUP3 GT ISZERO PUSH2 0x1FC5 JUMPI PUSH1 0x0 DUP2 SSTORE PUSH1 0x1 ADD PUSH2 0x20A9 JUMP JUMPDEST PUSH1 0x1 PUSH1 0x1 PUSH1 0xA0 SHL SUB DUP2 AND DUP2 EQ PUSH2 0x20D2 JUMPI PUSH1 0x0 DUP1 REVERT JUMPDEST POP JUMP JUMPDEST DUP1 CALLDATALOAD PUSH2 0x20E0 DUP2 PUSH2 0x20BD JUMP JUMPDEST SWAP2 SWAP1 POP JUMP JUMPDEST PUSH1 0x0 PUSH1 0x20 DUP3 DUP5 SUB SLT ISZERO PUSH2 0x20F7 JUMPI PUSH1 0x0 DUP1 REVERT JUMPDEST DUP2 CALLDATALOAD PUSH2 0x44A DUP2 PUSH2 0x20BD JUMP JUMPDEST DUP1 ISZERO ISZERO DUP2 EQ PUSH2 0x20D2 JUMPI PUSH1 0x0 DUP1 REVERT JUMPDEST DUP1 CALLDATALOAD PUSH2 0x20E0 DUP2 PUSH2 0x2102 JUMP JUMPDEST PUSH1 0x0 DUP1 PUSH1 0x0 DUP1 PUSH1 0x80 DUP6 DUP8 SUB SLT ISZERO PUSH2 0x2131 JUMPI PUSH1 0x0 DUP1 REVERT JUMPDEST DUP5 CALLDATALOAD PUSH2 0x213C DUP2 PUSH2 0x20BD JUMP JUMPDEST SWAP4 POP PUSH1 0x20 DUP6 ADD CALLDATALOAD SWAP3 POP PUSH1 0x40 DUP6 ADD CALLDATALOAD PUSH2 0x2153 DUP2 PUSH2 0x20BD JUMP JUMPDEST SWAP2 POP PUSH1 0x60 DUP6 ADD CALLDATALOAD PUSH2 0x2163 DUP2 PUSH2 0x2102 JUMP JUMPDEST SWAP4 SWAP7 SWAP3 SWAP6 POP SWAP1 SWAP4 POP POP JUMP JUMPDEST PUSH1 0x0 JUMPDEST DUP4 DUP2 LT ISZERO PUSH2 0x2189 JUMPI DUP2 DUP2 ADD MLOAD DUP4 DUP3 ADD MSTORE PUSH1 0x20 ADD PUSH2 0x2171 JUMP JUMPDEST DUP4 DUP2 GT ISZERO PUSH2 0x1F06 JUMPI POP POP PUSH1 0x0 SWAP2 ADD MSTORE JUMP JUMPDEST PUSH1 0x0 DUP2 MLOAD DUP1 DUP5 MSTORE PUSH2 0x21B2 DUP2 PUSH1 0x20 DUP7 ADD PUSH1 0x20 DUP7 ADD PUSH2 0x216E JUMP JUMPDEST PUSH1 0x1F ADD PUSH1 0x1F NOT AND SWAP3 SWAP1 SWAP3 ADD PUSH1 0x20 ADD SWAP3 SWAP2 POP POP JUMP JUMPDEST PUSH1 0x20 DUP2 MSTORE PUSH1 0x0 PUSH2 0x44A PUSH1 0x20 DUP4 ADD DUP5 PUSH2 0x219A JUMP JUMPDEST PUSH1 0x0 DUP2 MLOAD DUP1 DUP5 MSTORE PUSH1 0x20 DUP1 DUP6 ADD SWAP5 POP DUP1 DUP5 ADD PUSH1 0x0 JUMPDEST DUP4 DUP2 LT ISZERO PUSH2 0x2212 JUMPI DUP2 MLOAD PUSH1 0x1 PUSH1 0x1 PUSH1 0xA0 SHL SUB AND DUP8 MSTORE SWAP6 DUP3 ADD SWAP6 SWAP1 DUP3 ADD SWAP1 PUSH1 0x1 ADD PUSH2 0x21ED JUMP JUMPDEST POP SWAP5 SWAP6 SWAP5 POP POP POP POP POP JUMP JUMPDEST PUSH1 0x20 DUP2 MSTORE PUSH1 0x0 PUSH2 0x44A PUSH1 0x20 DUP4 ADD DUP5 PUSH2 0x21D9 JUMP JUMPDEST PUSH1 0x0 DUP1 PUSH1 0x40 DUP4 DUP6 SUB SLT ISZERO PUSH2 0x2243 JUMPI PUSH1 0x0 DUP1 REVERT JUMPDEST DUP3 CALLDATALOAD PUSH2 0x224E DUP2 PUSH2 0x20BD JUMP JUMPDEST SWAP5 PUSH1 0x20 SWAP4 SWAP1 SWAP4 ADD CALLDATALOAD SWAP4 POP POP POP JUMP JUMPDEST PUSH1 0xE0 DUP2 MSTORE PUSH1 0x0 PUSH2 0x226F PUSH1 0xE0 DUP4 ADD DUP11 PUSH2 0x21D9 JUMP JUMPDEST PUSH1 0x1 PUSH1 0x1 PUSH1 0xA0 SHL SUB DUP10 AND PUSH1 0x20 DUP5 ADD MSTORE DUP8 ISZERO ISZERO PUSH1 0x40 DUP5 ADD MSTORE DUP3 DUP2 SUB PUSH1 0x60 DUP5 ADD MSTORE PUSH2 0x2298 DUP2 DUP9 PUSH2 0x219A JUMP JUMPDEST SWAP1 POP DUP3 DUP2 SUB PUSH1 0x80 DUP5 ADD MSTORE PUSH2 0x22AC DUP2 DUP8 PUSH2 0x219A JUMP JUMPDEST SWAP1 POP DUP3 DUP2 SUB PUSH1 0xA0 DUP5 ADD MSTORE PUSH2 0x22C0 DUP2 DUP7 PUSH2 0x219A JUMP JUMPDEST SWAP1 POP DUP3 DUP2 SUB PUSH1 0xC0 DUP5 ADD MSTORE PUSH2 0x22D4 DUP2 DUP6 PUSH2 0x219A JUMP JUMPDEST SWAP11 SWAP10 POP POP POP POP POP POP POP POP POP POP JUMP JUMPDEST PUSH1 0x0 DUP1 DUP4 PUSH1 0x1F DUP5 ADD SLT PUSH2 0x22F4 JUMPI PUSH1 0x0 DUP1 REVERT JUMPDEST POP DUP2 CALLDATALOAD PUSH8 0xFFFFFFFFFFFFFFFF DUP2 GT ISZERO PUSH2 0x230C JUMPI PUSH1 0x0 DUP1 REVERT JUMPDEST PUSH1 0x20 DUP4 ADD SWAP2 POP DUP4 PUSH1 0x20 DUP3 PUSH1 0x5 SHL DUP6 ADD ADD GT ISZERO PUSH2 0x2327 JUMPI PUSH1 0x0 DUP1 REVERT JUMPDEST SWAP3 POP SWAP3 SWAP1 POP JUMP JUMPDEST PUSH4 0x4E487B71 PUSH1 0xE0 SHL PUSH1 0x0 MSTORE PUSH1 0x41 PUSH1 0x4 MSTORE PUSH1 0x24 PUSH1 0x0 REVERT JUMPDEST PUSH1 0x40 MLOAD PUSH2 0x1E0 DUP2 ADD PUSH8 0xFFFFFFFFFFFFFFFF DUP2 GT DUP3 DUP3 LT OR ISZERO PUSH2 0x2368 JUMPI PUSH2 0x2368 PUSH2 0x232E JUMP JUMPDEST PUSH1 0x40 MSTORE SWAP1 JUMP JUMPDEST PUSH1 0x0 DUP3 PUSH1 0x1F DUP4 ADD SLT PUSH2 0x237F JUMPI PUSH1 0x0 DUP1 REVERT JUMPDEST DUP2 CALLDATALOAD PUSH8 0xFFFFFFFFFFFFFFFF DUP1 DUP3 GT ISZERO PUSH2 0x239A JUMPI PUSH2 0x239A PUSH2 0x232E JUMP JUMPDEST PUSH1 0x40 MLOAD PUSH1 0x1F DUP4 ADD PUSH1 0x1F NOT SWAP1 DUP2 AND PUSH1 0x3F ADD AND DUP2 ADD SWAP1 DUP3 DUP3 GT DUP2 DUP4 LT OR ISZERO PUSH2 0x23C2 JUMPI PUSH2 0x23C2 PUSH2 0x232E JUMP JUMPDEST DUP2 PUSH1 0x40 MSTORE DUP4 DUP2 MSTORE DUP7 PUSH1 0x20 DUP6 DUP9 ADD ADD GT ISZERO PUSH2 0x23DB JUMPI PUSH1 0x0 DUP1 REVERT JUMPDEST DUP4 PUSH1 0x20 DUP8 ADD PUSH1 0x20 DUP4 ADD CALLDATACOPY PUSH1 0x0 PUSH1 0x20 DUP6 DUP4 ADD ADD MSTORE DUP1 SWAP5 POP POP POP POP POP SWAP3 SWAP2 POP POP JUMP JUMPDEST PUSH1 0x0 DUP1 PUSH1 0x0 DUP1 PUSH1 0x0 DUP1 PUSH1 0x0 DUP1 PUSH1 0x0 DUP1 PUSH1 0x0 PUSH2 0x140 DUP13 DUP15 SUB SLT ISZERO PUSH2 0x241D JUMPI PUSH1 0x0 DUP1 REVERT JUMPDEST PUSH8 0xFFFFFFFFFFFFFFFF DUP1 DUP14 CALLDATALOAD GT ISZERO PUSH2 0x2434 JUMPI PUSH1 0x0 DUP1 REVERT JUMPDEST PUSH2 0x2441 DUP15 DUP15 CALLDATALOAD DUP16 ADD PUSH2 0x22E2 JUMP JUMPDEST SWAP1 SWAP13 POP SWAP11 POP PUSH1 0x20 DUP14 ADD CALLDATALOAD DUP2 LT ISZERO PUSH2 0x2457 JUMPI PUSH1 0x0 DUP1 REVERT JUMPDEST PUSH2 0x2467 DUP15 PUSH1 0x20 DUP16 ADD CALLDATALOAD DUP16 ADD PUSH2 0x236E JUMP JUMPDEST SWAP10 POP DUP1 PUSH1 0x40 DUP15 ADD CALLDATALOAD GT ISZERO PUSH2 0x247A JUMPI PUSH1 0x0 DUP1 REVERT JUMPDEST PUSH2 0x248A DUP15 PUSH1 0x40 DUP16 ADD CALLDATALOAD DUP16 ADD PUSH2 0x236E JUMP JUMPDEST SWAP9 POP DUP1 PUSH1 0x60 DUP15 ADD CALLDATALOAD GT ISZERO PUSH2 0x249D JUMPI PUSH1 0x0 DUP1 REVERT JUMPDEST PUSH2 0x24AD DUP15 PUSH1 0x60 DUP16 ADD CALLDATALOAD DUP16 ADD PUSH2 0x236E JUMP JUMPDEST SWAP8 POP DUP1 PUSH1 0x80 DUP15 ADD CALLDATALOAD GT ISZERO PUSH2 0x24C0 JUMPI PUSH1 0x0 DUP1 REVERT JUMPDEST POP PUSH2 0x24D1 DUP14 PUSH1 0x80 DUP15 ADD CALLDATALOAD DUP15 ADD PUSH2 0x236E JUMP JUMPDEST SWAP6 POP PUSH2 0x24DF PUSH1 0xA0 DUP14 ADD PUSH2 0x20D5 JUMP JUMPDEST SWAP5 POP PUSH2 0x24ED PUSH1 0xC0 DUP14 ADD PUSH2 0x20D5 JUMP JUMPDEST SWAP4 POP PUSH2 0x24FB PUSH1 0xE0 DUP14 ADD PUSH2 0x20D5 JUMP JUMPDEST SWAP3 POP PUSH2 0x250A PUSH2 0x100 DUP14 ADD PUSH2 0x20D5 JUMP JUMPDEST SWAP2 POP PUSH2 0x2519 PUSH2 0x120 DUP14 ADD PUSH2 0x2110 JUMP JUMPDEST SWAP1 POP SWAP3 SWAP6 SWAP9 SWAP12 POP SWAP3 SWAP6 SWAP9 SWAP12 SWAP1 SWAP4 SWAP7 SWAP10 POP JUMP JUMPDEST PUSH1 0x0 DUP1 PUSH1 0x20 DUP4 DUP6 SUB SLT ISZERO PUSH2 0x253E JUMPI PUSH1 0x0 DUP1 REVERT JUMPDEST DUP3 CALLDATALOAD PUSH8 0xFFFFFFFFFFFFFFFF DUP1 DUP3 GT ISZERO PUSH2 0x2556 JUMPI PUSH1 0x0 DUP1 REVERT JUMPDEST DUP2 DUP6 ADD SWAP2 POP DUP6 PUSH1 0x1F DUP4 ADD SLT PUSH2 0x256A JUMPI PUSH1 0x0 DUP1 REVERT JUMPDEST DUP2 CALLDATALOAD DUP2 DUP2 GT ISZERO PUSH2 0x2579 JUMPI PUSH1 0x0 DUP1 REVERT JUMPDEST DUP7 PUSH1 0x20 DUP3 DUP6 ADD ADD GT ISZERO PUSH2 0x258B JUMPI PUSH1 0x0 DUP1 REVERT JUMPDEST PUSH1 0x20 SWAP3 SWAP1 SWAP3 ADD SWAP7 SWAP2 SWAP6 POP SWAP1 SWAP4 POP POP POP POP JUMP JUMPDEST PUSH1 0x0 DUP1 PUSH1 0x0 DUP1 PUSH1 0x80 DUP6 DUP8 SUB SLT ISZERO PUSH2 0x25B3 JUMPI PUSH1 0x0 DUP1 REVERT JUMPDEST DUP5 CALLDATALOAD PUSH2 0x25BE DUP2 PUSH2 0x20BD JUMP JUMPDEST SWAP4 POP PUSH1 0x20 DUP6 ADD CALLDATALOAD PUSH2 0x25CE DUP2 PUSH2 0x20BD JUMP JUMPDEST SWAP3 POP PUSH1 0x40 DUP6 ADD CALLDATALOAD PUSH2 0x25DE DUP2 PUSH2 0x2102 JUMP JUMPDEST SWAP4 SWAP7 SWAP3 SWAP6 POP SWAP3 SWAP4 PUSH1 0x60 ADD CALLDATALOAD SWAP3 POP POP JUMP JUMPDEST PUSH1 0x0 PUSH1 0x20 DUP3 DUP5 SUB SLT ISZERO PUSH2 0x2600 JUMPI PUSH1 0x0 DUP1 REVERT JUMPDEST POP MLOAD SWAP2 SWAP1 POP JUMP JUMPDEST DUP1 MLOAD PUSH2 0x20E0 DUP2 PUSH2 0x20BD JUMP JUMPDEST PUSH1 0x0 PUSH1 0x20 DUP3 DUP5 SUB SLT ISZERO PUSH2 0x2624 JUMPI PUSH1 0x0 DUP1 REVERT JUMPDEST DUP2 MLOAD PUSH2 0x44A DUP2 PUSH2 0x20BD JUMP JUMPDEST PUSH4 0x4E487B71 PUSH1 0xE0 SHL PUSH1 0x0 MSTORE PUSH1 0x11 PUSH1 0x4 MSTORE PUSH1 0x24 PUSH1 0x0 REVERT JUMPDEST PUSH1 0x0 DUP3 DUP3 LT ISZERO PUSH2 0x2657 JUMPI PUSH2 0x2657 PUSH2 0x262F JUMP JUMPDEST POP SUB SWAP1 JUMP JUMPDEST PUSH1 0x1 DUP2 DUP2 SHR SWAP1 DUP3 AND DUP1 PUSH2 0x2670 JUMPI PUSH1 0x7F DUP3 AND SWAP2 POP JUMPDEST PUSH1 0x20 DUP3 LT DUP2 EQ ISZERO PUSH2 0x2691 JUMPI PUSH4 0x4E487B71 PUSH1 0xE0 SHL PUSH1 0x0 MSTORE PUSH1 0x22 PUSH1 0x4 MSTORE PUSH1 0x24 PUSH1 0x0 REVERT JUMPDEST POP SWAP2 SWAP1 POP JUMP JUMPDEST PUSH4 0x4E487B71 PUSH1 0xE0 SHL PUSH1 0x0 MSTORE PUSH1 0x32 PUSH1 0x4 MSTORE PUSH1 0x24 PUSH1 0x0 REVERT JUMPDEST PUSH1 0x0 PUSH1 0xFF DUP3 AND PUSH1 0xFF DUP2 EQ ISZERO PUSH2 0x26C4 JUMPI PUSH2 0x26C4 PUSH2 0x262F JUMP JUMPDEST PUSH1 0x1 ADD SWAP3 SWAP2 POP POP JUMP JUMPDEST PUSH1 0x0 DUP3 NOT DUP3 GT ISZERO PUSH2 0x26E0 JUMPI PUSH2 0x26E0 PUSH2 0x262F JUMP JUMPDEST POP ADD SWAP1 JUMP JUMPDEST PUSH1 0x0 PUSH1 0x20 DUP3 DUP5 SUB SLT ISZERO PUSH2 0x26F7 JUMPI PUSH1 0x0 DUP1 REVERT JUMPDEST PUSH1 0x40 MLOAD PUSH1 0x20 DUP2 ADD DUP2 DUP2 LT PUSH8 0xFFFFFFFFFFFFFFFF DUP3 GT OR ISZERO PUSH2 0x271A JUMPI PUSH2 0x271A PUSH2 0x232E JUMP JUMPDEST PUSH1 0x40 MSTORE SWAP2 MLOAD DUP3 MSTORE POP SWAP2 SWAP1 POP JUMP JUMPDEST DUP1 MLOAD PUSH16 0xFFFFFFFFFFFFFFFFFFFFFFFFFFFFFFFF DUP2 AND DUP2 EQ PUSH2 0x20E0 JUMPI PUSH1 0x0 DUP1 REVERT JUMPDEST DUP1 MLOAD PUSH5 0xFFFFFFFFFF DUP2 AND DUP2 EQ PUSH2 0x20E0 JUMPI PUSH1 0x0 DUP1 REVERT JUMPDEST DUP1 MLOAD PUSH2 0xFFFF DUP2 AND DUP2 EQ PUSH2 0x20E0 JUMPI PUSH1 0x0 DUP1 REVERT JUMPDEST PUSH1 0x0 PUSH2 0x1E0 DUP3 DUP5 SUB SLT ISZERO PUSH2 0x2781 JUMPI PUSH1 0x0 DUP1 REVERT JUMPDEST PUSH2 0x2789 PUSH2 0x2344 JUMP JUMPDEST PUSH2 0x2793 DUP5 DUP5 PUSH2 0x26E5 JUMP JUMPDEST DUP2 MSTORE PUSH2 0x27A1 PUSH1 0x20 DUP5 ADD PUSH2 0x2727 JUMP JUMPDEST PUSH1 0x20 DUP3 ADD MSTORE PUSH2 0x27B2 PUSH1 0x40 DUP5 ADD PUSH2 0x2727 JUMP JUMPDEST PUSH1 0x40 DUP3 ADD MSTORE PUSH2 0x27C3 PUSH1 0x60 DUP5 ADD PUSH2 0x2727 JUMP JUMPDEST PUSH1 0x60 DUP3 ADD MSTORE PUSH2 0x27D4 PUSH1 0x80 DUP5 ADD PUSH2 0x2727 JUMP JUMPDEST PUSH1 0x80 DUP3 ADD MSTORE PUSH2 0x27E5 PUSH1 0xA0 DUP5 ADD PUSH2 0x2727 JUMP JUMPDEST PUSH1 0xA0 DUP3 ADD MSTORE PUSH2 0x27F6 PUSH1 0xC0 DUP5 ADD PUSH2 0x2747 JUMP JUMPDEST PUSH1 0xC0 DUP3 ADD MSTORE PUSH2 0x2807 PUSH1 0xE0 DUP5 ADD PUSH2 0x275C JUMP JUMPDEST PUSH1 0xE0 DUP3 ADD MSTORE PUSH2 0x100 PUSH2 0x281A DUP2 DUP6 ADD PUSH2 0x2607 JUMP JUMPDEST SWAP1 DUP3 ADD MSTORE PUSH2 0x120 PUSH2 0x282C DUP5 DUP3 ADD PUSH2 0x2607 JUMP JUMPDEST SWAP1 DUP3 ADD MSTORE PUSH2 0x140 PUSH2 0x283E DUP5 DUP3 ADD PUSH2 0x2607 JUMP JUMPDEST SWAP1 DUP3 ADD MSTORE PUSH2 0x160 PUSH2 0x2850 DUP5 DUP3 ADD PUSH2 0x2607 JUMP JUMPDEST SWAP1 DUP3 ADD MSTORE PUSH2 0x180 PUSH2 0x2862 DUP5 DUP3 ADD PUSH2 0x2727 JUMP JUMPDEST SWAP1 DUP3 ADD MSTORE PUSH2 0x1A0 PUSH2 0x2874 DUP5 DUP3 ADD PUSH2 0x2727 JUMP JUMPDEST SWAP1 DUP3 ADD MSTORE PUSH2 0x1C0 PUSH2 0x2886 DUP5 DUP3 ADD PUSH2 0x2727 JUMP JUMPDEST SWAP1 DUP3 ADD MSTORE SWAP4 SWAP3 POP POP POP JUMP JUMPDEST PUSH1 0x0 DUP2 PUSH1 0x0 NOT DIV DUP4 GT DUP3 ISZERO ISZERO AND ISZERO PUSH2 0x28AB JUMPI PUSH2 0x28AB PUSH2 0x262F JUMP JUMPDEST POP MUL SWAP1 JUMP JUMPDEST PUSH1 0x0 DUP3 PUSH2 0x28CD JUMPI PUSH4 0x4E487B71 PUSH1 0xE0 SHL PUSH1 0x0 MSTORE PUSH1 0x12 PUSH1 0x4 MSTORE PUSH1 0x24 PUSH1 0x0 REVERT JUMPDEST POP DIV SWAP1 JUMP JUMPDEST PUSH1 0x0 DUP3 MLOAD PUSH2 0x28E4 DUP2 DUP5 PUSH1 0x20 DUP8 ADD PUSH2 0x216E JUMP JUMPDEST SWAP2 SWAP1 SWAP2 ADD SWAP3 SWAP2 POP POP JUMP JUMPDEST PUSH1 0x0 PUSH1 0x20 DUP3 DUP5 SUB SLT ISZERO PUSH2 0x2900 JUMPI PUSH1 0x0 DUP1 REVERT JUMPDEST DUP2 MLOAD PUSH2 0x44A DUP2 PUSH2 0x2102 JUMP INVALID LOG2 PUSH5 0x6970667358 0x22 SLT KECCAK256 PUSH22 0xC6A3010F94A50F5CE256D34D1125A1AEBDA7BBDF360A 0xE 0xA9 0xD4 PUSH32 0xE3DFE7DE3F64736F6C6343000809003300000000000000000000000000000000 "},"methodIdentifiers":{"deposit(address,uint256)":"47e7ef24","getATokenAddress(address)":"711cc005","getATokenBalance(address)":"0712f6b3","getAaveLiquidityIndex(address)":"8aebe8d6","getAbout()":"343d693b","getAcceptedTokens()":"2f757006","getClaimedInterest(address)":"5ff189b9","getERC721Address()":"007ffb78","getIsVerified()":"357286d7","getMetaUri()":"373d7c3f","getName()":"17d7de7c","getPicHash()":"155d8e9c","getPoolInfo()":"60246c88","getPoolTokenInfo(address)":"67e0e076","getRecipient()":"1b88094d","getReserveNormalizedIncome(address)":"d15e0053","getTotalDeposits(address)":"0251cfa1","getUnclaimedInterest(address)":"3735ef88","initialize(address[],string,string,string,string,address,address,address,address,bool)":"bbc41f48","setAbout(string)":"d04d566a","setMetaUri(string)":"d0e7a76e","withdraw(address,uint256,address,bool)":"12eeff7e","withdrawDonations(address,address,bool,uint256)":"eda9c2d2"}}}}}