{
  "_format": "hh-sol-artifact-1",
  "contractName": "L2Encoder",
  "sourceName": "contracts/test/L2EncoderMock.sol",
  "abi": [
    {
      "inputs": [
        {
          "internalType": "contract IPool",
          "name": "pool",
          "type": "address"
        }
      ],
      "stateMutability": "nonpayable",
      "type": "constructor"
    },
    {
      "inputs": [],
      "name": "POOL",
      "outputs": [
        {
          "internalType": "contract IPool",
          "name": "",
          "type": "address"
        }
      ],
      "stateMutability": "view",
      "type": "function"
    },
    {
      "inputs": [
        {
          "internalType": "address",
          "name": "asset",
          "type": "address"
        },
        {
          "internalType": "uint256",
          "name": "amount",
          "type": "uint256"
        },
        {
          "internalType": "uint256",
          "name": "interestRateMode",
          "type": "uint256"
        },
        {
          "internalType": "uint16",
          "name": "referralCode",
          "type": "uint16"
        }
      ],
      "name": "encodeBorrowParams",
      "outputs": [
        {
          "internalType": "bytes32",
          "name": "",
          "type": "bytes32"
        }
      ],
      "stateMutability": "view",
      "type": "function"
    },
    {
      "inputs": [
        {
          "internalType": "address",
          "name": "collateralAsset",
          "type": "address"
        },
        {
          "internalType": "address",
          "name": "debtAsset",
          "type": "address"
        },
        {
          "internalType": "address",
          "name": "user",
          "type": "address"
        },
        {
          "internalType": "uint256",
          "name": "debtToCover",
          "type": "uint256"
        },
        {
          "internalType": "bool",
          "name": "receiveAToken",
          "type": "bool"
        }
      ],
      "name": "encodeLiquidationCall",
      "outputs": [
        {
          "internalType": "bytes32",
          "name": "",
          "type": "bytes32"
        },
        {
          "internalType": "bytes32",
          "name": "",
          "type": "bytes32"
        }
      ],
      "stateMutability": "view",
      "type": "function"
    },
    {
      "inputs": [
        {
          "internalType": "address",
          "name": "asset",
          "type": "address"
        },
        {
          "internalType": "address",
          "name": "user",
          "type": "address"
        }
      ],
      "name": "encodeRebalanceStableBorrowRate",
      "outputs": [
        {
          "internalType": "bytes32",
          "name": "",
          "type": "bytes32"
        }
      ],
      "stateMutability": "view",
      "type": "function"
    },
    {
      "inputs": [
        {
          "internalType": "address",
          "name": "asset",
          "type": "address"
        },
        {
          "internalType": "uint256",
          "name": "amount",
          "type": "uint256"
        },
        {
          "internalType": "uint256",
          "name": "interestRateMode",
          "type": "uint256"
        }
      ],
      "name": "encodeRepayParams",
      "outputs": [
        {
          "internalType": "bytes32",
          "name": "",
          "type": "bytes32"
        }
      ],
      "stateMutability": "view",
      "type": "function"
    },
    {
      "inputs": [
        {
          "internalType": "address",
          "name": "asset",
          "type": "address"
        },
        {
          "internalType": "uint256",
          "name": "amount",
          "type": "uint256"
        },
        {
          "internalType": "uint256",
          "name": "interestRateMode",
          "type": "uint256"
        }
      ],
      "name": "encodeRepayWithATokensParams",
      "outputs": [
        {
          "internalType": "bytes32",
          "name": "",
          "type": "bytes32"
        }
      ],
      "stateMutability": "view",
      "type": "function"
    },
    {
      "inputs": [
        {
          "internalType": "address",
          "name": "asset",
          "type": "address"
        },
        {
          "internalType": "uint256",
          "name": "amount",
          "type": "uint256"
        },
        {
          "internalType": "uint256",
          "name": "interestRateMode",
          "type": "uint256"
        },
        {
          "internalType": "uint256",
          "name": "deadline",
          "type": "uint256"
        },
        {
          "internalType": "uint8",
          "name": "permitV",
          "type": "uint8"
        },
        {
          "internalType": "bytes32",
          "name": "permitR",
          "type": "bytes32"
        },
        {
          "internalType": "bytes32",
          "name": "permitS",
          "type": "bytes32"
        }
      ],
      "name": "encodeRepayWithPermitParams",
      "outputs": [
        {
          "internalType": "bytes32",
          "name": "",
          "type": "bytes32"
        },
        {
          "internalType": "bytes32",
          "name": "",
          "type": "bytes32"
        },
        {
          "internalType": "bytes32",
          "name": "",
          "type": "bytes32"
        }
      ],
      "stateMutability": "view",
      "type": "function"
    },
    {
      "inputs": [
        {
          "internalType": "address",
          "name": "asset",
          "type": "address"
        },
        {
          "internalType": "bool",
          "name": "useAsCollateral",
          "type": "bool"
        }
      ],
      "name": "encodeSetUserUseReserveAsCollateral",
      "outputs": [
        {
          "internalType": "bytes32",
          "name": "",
          "type": "bytes32"
        }
      ],
      "stateMutability": "view",
      "type": "function"
    },
    {
      "inputs": [
        {
          "internalType": "address",
          "name": "asset",
          "type": "address"
        },
        {
          "internalType": "uint256",
          "name": "amount",
          "type": "uint256"
        },
        {
          "internalType": "uint16",
          "name": "referralCode",
          "type": "uint16"
        }
      ],
      "name": "encodeSupplyParams",
      "outputs": [
        {
          "internalType": "bytes32",
          "name": "",
          "type": "bytes32"
        }
      ],
      "stateMutability": "view",
      "type": "function"
    },
    {
      "inputs": [
        {
          "internalType": "address",
          "name": "asset",
          "type": "address"
        },
        {
          "internalType": "uint256",
          "name": "amount",
          "type": "uint256"
        },
        {
          "internalType": "uint16",
          "name": "referralCode",
          "type": "uint16"
        },
        {
          "internalType": "uint256",
          "name": "deadline",
          "type": "uint256"
        },
        {
          "internalType": "uint8",
          "name": "permitV",
          "type": "uint8"
        },
        {
          "internalType": "bytes32",
          "name": "permitR",
          "type": "bytes32"
        },
        {
          "internalType": "bytes32",
          "name": "permitS",
          "type": "bytes32"
        }
      ],
      "name": "encodeSupplyWithPermitParams",
      "outputs": [
        {
          "internalType": "bytes32",
          "name": "",
          "type": "bytes32"
        },
        {
          "internalType": "bytes32",
          "name": "",
          "type": "bytes32"
        },
        {
          "internalType": "bytes32",
          "name": "",
          "type": "bytes32"
        }
      ],
      "stateMutability": "view",
      "type": "function"
    },
    {
      "inputs": [
        {
          "internalType": "address",
          "name": "asset",
          "type": "address"
        },
        {
          "internalType": "uint256",
          "name": "interestRateMode",
          "type": "uint256"
        }
      ],
      "name": "encodeSwapBorrowRateMode",
      "outputs": [
        {
          "internalType": "bytes32",
          "name": "",
          "type": "bytes32"
        }
      ],
      "stateMutability": "view",
      "type": "function"
    },
    {
      "inputs": [
        {
          "internalType": "address",
          "name": "asset",
          "type": "address"
        },
        {
          "internalType": "uint256",
          "name": "amount",
          "type": "uint256"
        }
      ],
      "name": "encodeWithdrawParams",
      "outputs": [
        {
          "internalType": "bytes32",
          "name": "",
          "type": "bytes32"
        }
      ],
      "stateMutability": "view",
      "type": "function"
    }
  ],
  "bytecode": "0x60a060405234801561001057600080fd5b5060405161123938038061123983398101604081905261002f91610040565b6001600160a01b0316608052610070565b60006020828403121561005257600080fd5b81516001600160a01b038116811461006957600080fd5b9392505050565b6080516111686100d16000396000818161016b0152818161024b0152818161032c015281816103de015281816104a0015281816105810152818161067801528181610721015281816108310152818161092b01526109f901526111686000f3fe608060405234801561001057600080fd5b50600436106100d45760003560e01c806388d5185211610081578063b76398e41161005b578063b76398e4146101f3578063fc0eed8514610206578063fed63a931461021457600080fd5b806388d51852146101a55780638da7fb18146101cd5780639d2ffc1b146101e057600080fd5b80635cc7bc10116100b25780635cc7bc1014610125578063671a7fae146101385780637535d2461461016657600080fd5b80631a64acf2146100d95780631a8f6dee146100ff5780631fd3479714610112575b600080fd5b6100ec6100e7366004610ca0565b610227565b6040519081526020015b60405180910390f35b6100ec61010d366004610cea565b610308565b6100ec610120366004610d23565b6103ba565b6100ec610133366004610d23565b61047c565b61014b610146366004610d65565b610559565b604080519384526020840192909252908201526060016100f6565b61018d7f000000000000000000000000000000000000000000000000000000000000000081565b6040516001600160a01b0390911681526020016100f6565b6101b86101b3366004610de3565b610652565b604080519283526020830191909152016100f6565b6100ec6101db366004610e47565b6107f8565b6100ec6101ee366004610e47565b61080d565b6100ec610201366004610e7c565b610907565b6100ec61010d366004610ebe565b61014b610222366004610ef3565b6109d1565b6040516335ea6a7560e01b81526001600160a01b03858116600483015260009182917f000000000000000000000000000000000000000000000000000000000000000016906335ea6a75906024016101e06040518083038186803b15801561028e57600080fd5b505afa1580156102a2573d6000803e3d6000fd5b505050506040513d601f19601f820116820180604052508101906102c6919061100f565b60e081015190915060006102d987610af2565b905060006102e687610b83565b60109290921b60909290921b60989690961b9590950101019695505050505050565b6040516335ea6a7560e01b81526001600160a01b03838116600483015260009182917f000000000000000000000000000000000000000000000000000000000000000016906335ea6a75906024016101e06040518083038186803b15801561036f57600080fd5b505afa158015610383573d6000803e3d6000fd5b505050506040513d601f19601f820116820180604052508101906103a7919061100f565b60e00151601084901b0191505092915050565b6040516335ea6a7560e01b81526001600160a01b03838116600483015260009182917f000000000000000000000000000000000000000000000000000000000000000016906335ea6a75906024016101e06040518083038186803b15801561042157600080fd5b505afa158015610435573d6000803e3d6000fd5b505050506040513d601f19601f82011682018060405250810190610459919061100f565b60e0810151909150600061046c85610b83565b60101b9190910195945050505050565b6040516335ea6a7560e01b81526001600160a01b03838116600483015260009182917f000000000000000000000000000000000000000000000000000000000000000016906335ea6a75906024016101e06040518083038186803b1580156104e357600080fd5b505afa1580156104f7573d6000803e3d6000fd5b505050506040513d601f19601f8201168201806040525081019061051b919061100f565b60e08101519091506000600019851461053c5761053785610af2565b61046c565b5071ffffffffffffffffffffffffffffffff000001949350505050565b6040516335ea6a7560e01b81526001600160a01b0388811660048301526000918291829182917f000000000000000000000000000000000000000000000000000000000000000016906335ea6a75906024016101e06040518083038186803b1580156105c457600080fd5b505afa1580156105d8573d6000803e3d6000fd5b505050506040513d601f19601f820116820180604052508101906105fc919061100f565b60e0810151909150600061060f8c610af2565b9050600061061c8b610bfc565b905060008a60c01b8260a01b018d60901b018360101b0184019050808a8a97509750975050505050509750975097945050505050565b6040516335ea6a7560e01b81526001600160a01b038681166004830152600091829182917f0000000000000000000000000000000000000000000000000000000000000000909116906335ea6a75906024016101e06040518083038186803b1580156106bd57600080fd5b505afa1580156106d1573d6000803e3d6000fd5b505050506040513d601f19601f820116820180604052508101906106f5919061100f565b60e08101516040516335ea6a7560e01b81526001600160a01b038a8116600483015292935090916000917f0000000000000000000000000000000000000000000000000000000000000000909116906335ea6a75906024016101e06040518083038186803b15801561076657600080fd5b505afa15801561077a573d6000803e3d6000fd5b505050506040513d601f19601f8201168201806040525081019061079e919061100f565b60e0810151909150600060001989146107bf576107ba89610af2565b6107d1565b6fffffffffffffffffffffffffffffffff5b60109290921b9390930160208a901b019550608087901b0193505050509550959350505050565b600061080584848461080d565b949350505050565b6040516335ea6a7560e01b81526001600160a01b03848116600483015260009182917f000000000000000000000000000000000000000000000000000000000000000016906335ea6a75906024016101e06040518083038186803b15801561087457600080fd5b505afa158015610888573d6000803e3d6000fd5b505050506040513d601f19601f820116820180604052508101906108ac919061100f565b60e0810151909150600060001986146108cd576108c886610af2565b6108df565b6fffffffffffffffffffffffffffffffff5b905060006108ec86610b83565b60901b60109290921b91909101919091019695505050505050565b6040516335ea6a7560e01b81526001600160a01b03848116600483015260009182917f000000000000000000000000000000000000000000000000000000000000000016906335ea6a75906024016101e06040518083038186803b15801561096e57600080fd5b505afa158015610982573d6000803e3d6000fd5b505050506040513d601f19601f820116820180604052508101906109a6919061100f565b60e081015190915060006109b986610af2565b60101b609086901b0191909101925050509392505050565b6040516335ea6a7560e01b81526001600160a01b0388811660048301526000918291829182917f000000000000000000000000000000000000000000000000000000000000000016906335ea6a75906024016101e06040518083038186803b158015610a3c57600080fd5b505afa158015610a50573d6000803e3d6000fd5b505050506040513d601f19601f82011682018060405250810190610a74919061100f565b60e081015190915060006000198c14610a9557610a908c610af2565b610aa7565b6fffffffffffffffffffffffffffffffff5b90506000610ab48c610b83565b90506000610ac18c610bfc565b60b89b909b1b60989b909b1b9a909a0160909190911b0160109190911b01019b959a50939850939650505050505050565b60006fffffffffffffffffffffffffffffffff821115610b7f5760405162461bcd60e51b815260206004820152602760248201527f53616665436173743a2076616c756520646f65736e27742066697420696e203160448201527f323820626974730000000000000000000000000000000000000000000000000060648201526084015b60405180910390fd5b5090565b600060ff821115610b7f5760405162461bcd60e51b815260206004820152602560248201527f53616665436173743a2076616c756520646f65736e27742066697420696e203860448201527f20626974730000000000000000000000000000000000000000000000000000006064820152608401610b76565b600063ffffffff821115610b7f5760405162461bcd60e51b815260206004820152602660248201527f53616665436173743a2076616c756520646f65736e27742066697420696e203360448201527f32206269747300000000000000000000000000000000000000000000000000006064820152608401610b76565b6001600160a01b0381168114610c8d57600080fd5b50565b61ffff81168114610c8d57600080fd5b60008060008060808587031215610cb657600080fd5b8435610cc181610c78565b935060208501359250604085013591506060850135610cdf81610c90565b939692955090935050565b60008060408385031215610cfd57600080fd5b8235610d0881610c78565b91506020830135610d1881610c78565b809150509250929050565b60008060408385031215610d3657600080fd5b8235610d4181610c78565b946020939093013593505050565b803560ff81168114610d6057600080fd5b919050565b600080600080600080600060e0888a031215610d8057600080fd5b8735610d8b81610c78565b9650602088013595506040880135610da281610c90565b945060608801359350610db760808901610d4f565b925060a0880135915060c0880135905092959891949750929550565b80358015158114610d6057600080fd5b600080600080600060a08688031215610dfb57600080fd5b8535610e0681610c78565b94506020860135610e1681610c78565b93506040860135610e2681610c78565b925060608601359150610e3b60808701610dd3565b90509295509295909350565b600080600060608486031215610e5c57600080fd5b8335610e6781610c78565b95602085013595506040909401359392505050565b600080600060608486031215610e9157600080fd5b8335610e9c81610c78565b9250602084013591506040840135610eb381610c90565b809150509250925092565b60008060408385031215610ed157600080fd5b8235610edc81610c78565b9150610eea60208401610dd3565b90509250929050565b600080600080600080600060e0888a031215610f0e57600080fd5b8735610f1981610c78565b9650602088013595506040880135945060608801359350610db760808901610d4f565b6040516101e0810167ffffffffffffffff81118282101715610f6e57634e487b7160e01b600052604160045260246000fd5b60405290565b600060208284031215610f8657600080fd5b6040516020810181811067ffffffffffffffff82111715610fb757634e487b7160e01b600052604160045260246000fd5b6040529151825250919050565b80516fffffffffffffffffffffffffffffffff81168114610d6057600080fd5b805164ffffffffff81168114610d6057600080fd5b8051610d6081610c90565b8051610d6081610c78565b60006101e0828403121561102257600080fd5b61102a610f3c565b6110348484610f74565b815261104260208401610fc4565b602082015261105360408401610fc4565b604082015261106460608401610fc4565b606082015261107560808401610fc4565b608082015261108660a08401610fc4565b60a082015261109760c08401610fe4565b60c08201526110a860e08401610ff9565b60e08201526101006110bb818501611004565b908201526101206110cd848201611004565b908201526101406110df848201611004565b908201526101606110f1848201611004565b90820152610180611103848201610fc4565b908201526101a0611115848201610fc4565b908201526101c0611127848201610fc4565b90820152939250505056fea264697066735822122091cd451d814c53edc53ca98b0736907d852576b7d71c72b9abef5829277388e764736f6c63430008090033",
  "linkReferences": {},
  "deployedLinkReferences": {}
}