{
  "_format": "hh-sol-artifact-1",
  "contractName": "BurnPit",
  "sourceName": "contracts/deploy/BurnPit.sol",
  "abi": [
    {
      "anonymous": false,
      "inputs": [
        {
          "indexed": false,
          "internalType": "address",
          "name": "poolToken",
          "type": "address"
        },
        {
          "indexed": false,
          "internalType": "address[]",
          "name": "tco2s",
          "type": "address[]"
        },
        {
          "indexed": false,
          "internalType": "uint256[]",
          "name": "amounts",
          "type": "uint256[]"
        }
      ],
      "name": "ETHBurned",
      "type": "event"
    },
    {
      "anonymous": false,
      "inputs": [
        {
          "indexed": false,
          "internalType": "uint256",
          "name": "balance",
          "type": "uint256"
        },
        {
          "indexed": false,
          "internalType": "address",
          "name": "poolToken",
          "type": "address"
        },
        {
          "indexed": false,
          "internalType": "address[]",
          "name": "tco2s",
          "type": "address[]"
        },
        {
          "indexed": false,
          "internalType": "uint256[]",
          "name": "amounts",
          "type": "uint256[]"
        }
      ],
      "name": "TokenBurned",
      "type": "event"
    },
    {
      "inputs": [
        {
          "internalType": "uint256[]",
          "name": "_amountsOut",
          "type": "uint256[]"
        },
        {
          "internalType": "address",
          "name": "_nctAddr",
          "type": "address"
        }
      ],
      "name": "burnTokens",
      "outputs": [],
      "stateMutability": "nonpayable",
      "type": "function"
    },
    {
      "inputs": [],
      "name": "sushiRouterAddress",
      "outputs": [
        {
          "internalType": "address",
          "name": "",
          "type": "address"
        }
      ],
      "stateMutability": "view",
      "type": "function"
    },
    {
      "stateMutability": "payable",
      "type": "receive"
    }
  ],
  "bytecode": "0x60e0604052732791bca1f2de4661ed88a30c99a7a9449aa841746080908152737ceb23fd6bc0add59e62ac25578270cff1b9f61960a052730d500b1d8e8ef31e21c99d1db9a6444d3adf127060c05261005c906000906003610095565b50600180546001600160a01b031916731b02da8cb0d097eb8d57a175b88c7d8b4799750617905534801561008f57600080fd5b5061010f565b8280548282559060005260206000209081019282156100ea579160200282015b828111156100ea57825182546001600160a01b0319166001600160a01b039091161782556020909201916001909101906100b5565b506100f69291506100fa565b5090565b5b808211156100f657600081556001016100fb565b61108f8061011e6000396000f3fe60806040526004361061002d5760003560e01c806379bbce8f14610039578063b9c1fd951461007557600080fd5b3661003457005b600080fd5b34801561004557600080fd5b50600154610059906001600160a01b031681565b6040516001600160a01b03909116815260200160405180910390f35b34801561008157600080fd5b50610095610090366004610c53565b610097565b005b47156100c1576100c181836002815181106100b4576100b4610cfb565b60200260200101516103e5565b600073fafccd01c395e4542beed819de61f02f5562faea905060008080548060200260200160405190810160405280929190818152602001828054801561013157602002820191906000526020600020905b81546001600160a01b03168152600190910190602001808311610113575b5050505050905060005b81518160ff161015610247576000828260ff168151811061015e5761015e610cfb565b60209081029190910101516040516370a0823160e01b81523060048201529091506000906001600160a01b038316906370a082319060240160206040518083038186803b1580156101ae57600080fd5b505afa1580156101c2573d6000803e3d6000fd5b505050506040513d601f19601f820116820180604052508101906101e69190610d11565b9050801561023257610232848460ff168151811061020657610206610cfb565b602002602001015187838a8760ff168151811061022557610225610cfb565b6020026020010151610581565b5050808061023f90610d2a565b91505061013b565b506040516370a0823160e01b815230600482015283906000906001600160a01b038316906370a082319060240160206040518083038186803b15801561028c57600080fd5b505afa1580156102a0573d6000803e3d6000fd5b505050506040513d601f19601f820116820180604052508101906102c49190610d11565b905080156103dd576060806102e46001600160a01b0385168760006106ce565b6102f86001600160a01b03851687856106ce565b6040517f612e2feb0000000000000000000000000000000000000000000000000000000081526001600160a01b0388811660048301526024820185905287169063612e2feb90604401600060405180830381600087803b15801561035b57600080fd5b505af115801561036f573d6000803e3d6000fd5b505050506040513d6000823e601f3d908101601f191682016040526103979190810190610dbe565b60405191935091507fe2dec8d8d6c9034c3ffd466cdfcfb80b9677e65d0539d48da5adb261e685b7bf906103d29085908a9086908690610ec7565b60405180910390a150505b505050505050565b60015460408051600280825260608201835247936001600160a01b0316926000929190602083019080368337019050509050816001600160a01b031663ad5c46486040518163ffffffff1660e01b815260040160206040518083038186803b15801561045057600080fd5b505afa158015610464573d6000803e3d6000fd5b505050506040513d601f19601f820116820180604052508101906104889190610f32565b8160008151811061049b5761049b610cfb565b60200260200101906001600160a01b031690816001600160a01b03168152505084816001815181106104cf576104cf610cfb565b6001600160a01b0392831660209182029290920101526040517f7ff36ab500000000000000000000000000000000000000000000000000000000815290831690637ff36ab590859061052b908890869030904290600401610f56565b6000604051808303818588803b15801561054457600080fd5b505af1158015610558573d6000803e3d6000fd5b50505050506040513d6000823e601f3d908101601f191682016040526103dd9190810190610f8b565b6001546001600160a01b031660006105998686610853565b60015460405163095ea7b360e01b81526001600160a01b0391821660048201526024810187905291925087169063095ea7b390604401602060405180830381600087803b1580156105e957600080fd5b505af11580156105fd573d6000803e3d6000fd5b505050506040513d601f19601f820116820180604052508101906106219190610fc0565b506040517f38ed17390000000000000000000000000000000000000000000000000000000081526001600160a01b038316906338ed17399061066f9087908790869030904290600401610fe2565b600060405180830381600087803b15801561068957600080fd5b505af115801561069d573d6000803e3d6000fd5b505050506040513d6000823e601f3d908101601f191682016040526106c59190810190610f8b565b50505050505050565b80158061077057506040517fdd62ed3e0000000000000000000000000000000000000000000000000000000081523060048201526001600160a01b03838116602483015284169063dd62ed3e9060440160206040518083038186803b15801561073657600080fd5b505afa15801561074a573d6000803e3d6000fd5b505050506040513d601f19601f8201168201806040525081019061076e9190610d11565b155b6107e75760405162461bcd60e51b815260206004820152603660248201527f5361666545524332303a20617070726f76652066726f6d206e6f6e2d7a65726f60448201527f20746f206e6f6e2d7a65726f20616c6c6f77616e63650000000000000000000060648201526084015b60405180910390fd5b604080516001600160a01b038416602482015260448082018490528251808303909101815260649091019091526020810180517bffffffffffffffffffffffffffffffffffffffffffffffffffffffff1663095ea7b360e01b17905261084e9084906109e4565b505050565b60606000808154811061086857610868610cfb565b6000918252602090912001546001600160a01b038481169116141561090f5760408051600280825260608201835260009260208301908036833701905050905083816000815181106108bc576108bc610cfb565b60200260200101906001600160a01b031690816001600160a01b03168152505082816001815181106108f0576108f0610cfb565b6001600160a01b039092166020928302919091019091015290506109de565b6040805160038082526080820190925260009160208201606080368337019050509050838160008151811061094657610946610cfb565b60200260200101906001600160a01b031690816001600160a01b0316815250506000808154811061097957610979610cfb565b9060005260206000200160009054906101000a90046001600160a01b0316816001815181106109aa576109aa610cfb565b60200260200101906001600160a01b031690816001600160a01b03168152505082816002815181106108f0576108f0610cfb565b92915050565b6109f6826001600160a01b0316610b84565b610a425760405162461bcd60e51b815260206004820152601f60248201527f5361666545524332303a2063616c6c20746f206e6f6e2d636f6e74726163740060448201526064016107de565b600080836001600160a01b031683604051610a5d919061101e565b6000604051808303816000865af19150503d8060008114610a9a576040519150601f19603f3d011682016040523d82523d6000602084013e610a9f565b606091505b509150915081610af15760405162461bcd60e51b815260206004820181905260248201527f5361666545524332303a206c6f772d6c6576656c2063616c6c206661696c656460448201526064016107de565b805115610b7e5780806020019051810190610b0c9190610fc0565b610b7e5760405162461bcd60e51b815260206004820152602a60248201527f5361666545524332303a204552433230206f7065726174696f6e20646964206e60448201527f6f7420737563636565640000000000000000000000000000000000000000000060648201526084016107de565b50505050565b6000813f7fc5d2460186f7233c927e7db2dcc703c0e500b653ca82273b7bfad8045d85a470818114801590610bb857508115155b949350505050565b634e487b7160e01b600052604160045260246000fd5b604051601f8201601f1916810167ffffffffffffffff81118282101715610bff57610bff610bc0565b604052919050565b600067ffffffffffffffff821115610c2157610c21610bc0565b5060051b60200190565b6001600160a01b0381168114610c4057600080fd5b50565b8035610c4e81610c2b565b919050565b60008060408385031215610c6657600080fd5b823567ffffffffffffffff811115610c7d57600080fd5b8301601f81018513610c8e57600080fd5b80356020610ca3610c9e83610c07565b610bd6565b82815260059290921b83018101918181019088841115610cc257600080fd5b938201935b83851015610ce057843582529382019390820190610cc7565b9550610cef9050868201610c43565b93505050509250929050565b634e487b7160e01b600052603260045260246000fd5b600060208284031215610d2357600080fd5b5051919050565b600060ff821660ff811415610d4f57634e487b7160e01b600052601160045260246000fd5b60010192915050565b600082601f830112610d6957600080fd5b81516020610d79610c9e83610c07565b82815260059290921b84018101918181019086841115610d9857600080fd5b8286015b84811015610db35780518352918301918301610d9c565b509695505050505050565b60008060408385031215610dd157600080fd5b825167ffffffffffffffff80821115610de957600080fd5b818501915085601f830112610dfd57600080fd5b81516020610e0d610c9e83610c07565b82815260059290921b84018101918181019089841115610e2c57600080fd5b948201945b83861015610e53578551610e4481610c2b565b82529482019490820190610e31565b91880151919650909350505080821115610e6c57600080fd5b50610e7985828601610d58565b9150509250929050565b600081518084526020808501945080840160005b83811015610ebc5781516001600160a01b031687529582019590820190600101610e97565b509495945050505050565b848152600060206001600160a01b0386168184015260806040840152610ef06080840186610e83565b838103606085015284518082528286019183019060005b81811015610f2357835183529284019291840191600101610f07565b50909998505050505050505050565b600060208284031215610f4457600080fd5b8151610f4f81610c2b565b9392505050565b848152608060208201526000610f6f6080830186610e83565b6001600160a01b03949094166040830152506060015292915050565b600060208284031215610f9d57600080fd5b815167ffffffffffffffff811115610fb457600080fd5b610bb884828501610d58565b600060208284031215610fd257600080fd5b81518015158114610f4f57600080fd5b85815284602082015260a06040820152600061100160a0830186610e83565b6001600160a01b0394909416606083015250608001529392505050565b6000825160005b8181101561103f5760208186018101518583015201611025565b8181111561104e576000828501525b50919091019291505056fea26469706673582212204a4a65e7023eba0c9af2a86c8f0e457b05eae881c583ae89ca393da891048f2364736f6c63430008090033",
  "linkReferences": {},
  "deployedLinkReferences": {}
}